{
  "_format": "hh-sol-artifact-1",
  "contractName": "Ibc",
  "sourceName": "contracts/ibc.sol",
  "abi": [
    {
      "inputs": [],
      "stateMutability": "nonpayable",
      "type": "constructor"
    },
    {
      "inputs": [],
      "name": "ECDSAInvalidSignature",
      "type": "error"
    },
    {
      "inputs": [
        {
          "internalType": "uint256",
          "name": "length",
          "type": "uint256"
        }
      ],
      "name": "ECDSAInvalidSignatureLength",
      "type": "error"
    },
    {
      "inputs": [
        {
          "internalType": "bytes32",
          "name": "s",
          "type": "bytes32"
        }
      ],
      "name": "ECDSAInvalidSignatureS",
      "type": "error"
    },
    {
      "inputs": [
        {
          "internalType": "address",
          "name": "owner",
          "type": "address"
        }
      ],
      "name": "OwnableInvalidOwner",
      "type": "error"
    },
    {
      "inputs": [
        {
          "internalType": "address",
          "name": "account",
          "type": "address"
        }
      ],
      "name": "OwnableUnauthorizedAccount",
      "type": "error"
    },
    {
      "anonymous": false,
      "inputs": [
        {
          "indexed": false,
          "internalType": "bytes32",
          "name": "id",
          "type": "bytes32"
        }
      ],
      "name": "MessageDelivered",
      "type": "event"
    },
    {
      "anonymous": false,
      "inputs": [
        {
          "indexed": false,
          "internalType": "bytes32",
          "name": "id",
          "type": "bytes32"
        }
      ],
      "name": "MessageProcessed",
      "type": "event"
    },
    {
      "anonymous": false,
      "inputs": [
        {
          "indexed": false,
          "internalType": "bytes32",
          "name": "sender",
          "type": "bytes32"
        },
        {
          "indexed": false,
          "internalType": "address",
          "name": "recipient",
          "type": "address"
        },
        {
          "indexed": false,
          "internalType": "bytes",
          "name": "payload",
          "type": "bytes"
        },
        {
          "indexed": false,
          "internalType": "string",
          "name": "reason",
          "type": "string"
        }
      ],
      "name": "MessageProcessedWithErrors",
      "type": "event"
    },
    {
      "anonymous": false,
      "inputs": [
        {
          "components": [
            {
              "internalType": "bytes32",
              "name": "id",
              "type": "bytes32"
            },
            {
              "internalType": "address",
              "name": "sender",
              "type": "address"
            },
            {
              "internalType": "bytes32",
              "name": "nonce",
              "type": "bytes32"
            },
            {
              "internalType": "bytes32",
              "name": "recipient",
              "type": "bytes32"
            },
            {
              "internalType": "bytes",
              "name": "payload",
              "type": "bytes"
            }
          ],
          "indexed": false,
          "internalType": "struct Ibc.OutgoingMessage",
          "name": "message",
          "type": "tuple"
        }
      ],
      "name": "MessageReadyToSend",
      "type": "event"
    },
    {
      "anonymous": false,
      "inputs": [
        {
          "indexed": true,
          "internalType": "address",
          "name": "oracle",
          "type": "address"
        }
      ],
      "name": "OracleAdded",
      "type": "event"
    },
    {
      "anonymous": false,
      "inputs": [
        {
          "indexed": true,
          "internalType": "address",
          "name": "oracle",
          "type": "address"
        }
      ],
      "name": "OracleRemoved",
      "type": "event"
    },
    {
      "anonymous": false,
      "inputs": [
        {
          "indexed": true,
          "internalType": "address",
          "name": "previousOwner",
          "type": "address"
        },
        {
          "indexed": true,
          "internalType": "address",
          "name": "newOwner",
          "type": "address"
        }
      ],
      "name": "OwnershipTransferred",
      "type": "event"
    },
    {
      "inputs": [
        {
          "internalType": "address",
          "name": "oracle",
          "type": "address"
        }
      ],
      "name": "addOracle",
      "outputs": [],
      "stateMutability": "nonpayable",
      "type": "function"
    },
    {
      "inputs": [
        {
          "internalType": "bytes32[]",
          "name": "clean",
          "type": "bytes32[]"
        }
      ],
      "name": "cleanIncomingIndex",
      "outputs": [],
      "stateMutability": "nonpayable",
      "type": "function"
    },
    {
      "inputs": [],
      "name": "config",
      "outputs": [
        {
          "internalType": "uint8",
          "name": "minDeliverySignatures",
          "type": "uint8"
        },
        {
          "internalType": "uint8",
          "name": "minReceiptSignatures",
          "type": "uint8"
        },
        {
          "internalType": "uint256",
          "name": "minTTL",
          "type": "uint256"
        },
        {
          "internalType": "uint256",
          "name": "maxTTL",
          "type": "uint256"
        },
        {
          "internalType": "uint256",
          "name": "incomingTTL",
          "type": "uint256"
        }
      ],
      "stateMutability": "view",
      "type": "function"
    },
    {
      "inputs": [
        {
          "internalType": "uint8",
          "name": "minDeliverySignatures",
          "type": "uint8"
        },
        {
          "internalType": "uint8",
          "name": "minReceiptSignatures",
          "type": "uint8"
        },
        {
          "internalType": "uint256",
          "name": "minTTL",
          "type": "uint256"
        },
        {
          "internalType": "uint256",
          "name": "maxTTL",
          "type": "uint256"
        },
        {
          "internalType": "uint256",
          "name": "incomingTTL",
          "type": "uint256"
        }
      ],
      "name": "configure",
      "outputs": [],
      "stateMutability": "nonpayable",
      "type": "function"
    },
    {
      "inputs": [
        {
          "internalType": "bytes32",
          "name": "id",
          "type": "bytes32"
        },
        {
          "internalType": "bytes[]",
          "name": "signatures",
          "type": "bytes[]"
        }
      ],
      "name": "confirmMessageDelivery",
      "outputs": [],
      "stateMutability": "nonpayable",
      "type": "function"
    },
    {
      "inputs": [
        {
          "internalType": "bytes32",
          "name": "",
          "type": "bytes32"
        }
      ],
      "name": "incoming",
      "outputs": [
        {
          "components": [
            {
              "internalType": "bytes32",
              "name": "id",
              "type": "bytes32"
            },
            {
              "internalType": "bytes32",
              "name": "sender",
              "type": "bytes32"
            },
            {
              "internalType": "bytes32",
              "name": "nonce",
              "type": "bytes32"
            },
            {
              "internalType": "address",
              "name": "recipient",
              "type": "address"
            },
            {
              "internalType": "bytes",
              "name": "payload",
              "type": "bytes"
            }
          ],
          "internalType": "struct Ibc.IncomingMessage",
          "name": "message",
          "type": "tuple"
        },
        {
          "internalType": "uint256",
          "name": "currentBlock",
          "type": "uint256"
        },
        {
          "internalType": "address",
          "name": "relayer",
          "type": "address"
        }
      ],
      "stateMutability": "view",
      "type": "function"
    },
    {
      "inputs": [],
      "name": "messageCounter",
      "outputs": [
        {
          "internalType": "uint256",
          "name": "",
          "type": "uint256"
        }
      ],
      "stateMutability": "view",
      "type": "function"
    },
    {
      "inputs": [
        {
          "internalType": "address",
          "name": "",
          "type": "address"
        }
      ],
      "name": "oraclePublicKeys",
      "outputs": [
        {
          "internalType": "bool",
          "name": "",
          "type": "bool"
        }
      ],
      "stateMutability": "view",
      "type": "function"
    },
    {
      "inputs": [
        {
          "internalType": "bytes32",
          "name": "",
          "type": "bytes32"
        }
      ],
      "name": "outgoing",
      "outputs": [
        {
          "components": [
            {
              "internalType": "bytes32",
              "name": "id",
              "type": "bytes32"
            },
            {
              "internalType": "address",
              "name": "sender",
              "type": "address"
            },
            {
              "internalType": "bytes32",
              "name": "nonce",
              "type": "bytes32"
            },
            {
              "internalType": "bytes32",
              "name": "recipient",
              "type": "bytes32"
            },
            {
              "internalType": "bytes",
              "name": "payload",
              "type": "bytes"
            }
          ],
          "internalType": "struct Ibc.OutgoingMessage",
          "name": "message",
          "type": "tuple"
        },
        {
          "internalType": "uint256",
          "name": "currentBlock",
          "type": "uint256"
        },
        {
          "internalType": "uint256",
          "name": "ttlBlock",
          "type": "uint256"
        },
        {
          "internalType": "uint256",
          "name": "fee",
          "type": "uint256"
        },
        {
          "internalType": "address",
          "name": "payer",
          "type": "address"
        }
      ],
      "stateMutability": "view",
      "type": "function"
    },
    {
      "inputs": [],
      "name": "owner",
      "outputs": [
        {
          "internalType": "address",
          "name": "",
          "type": "address"
        }
      ],
      "stateMutability": "view",
      "type": "function"
    },
    {
      "inputs": [
        {
          "internalType": "bytes32",
          "name": "sender",
          "type": "bytes32"
        },
        {
          "internalType": "bytes32",
          "name": "nonce",
          "type": "bytes32"
        },
        {
          "internalType": "address",
          "name": "recipient",
          "type": "address"
        },
        {
          "internalType": "bytes",
          "name": "payload",
          "type": "bytes"
        },
        {
          "internalType": "bytes[]",
          "name": "signatures",
          "type": "bytes[]"
        }
      ],
      "name": "receiveMessage",
      "outputs": [],
      "stateMutability": "nonpayable",
      "type": "function"
    },
    {
      "inputs": [
        {
          "internalType": "address",
          "name": "oracle",
          "type": "address"
        }
      ],
      "name": "removeOracle",
      "outputs": [],
      "stateMutability": "nonpayable",
      "type": "function"
    },
    {
      "inputs": [],
      "name": "renounceOwnership",
      "outputs": [],
      "stateMutability": "nonpayable",
      "type": "function"
    },
    {
      "inputs": [
        {
          "internalType": "bytes32",
          "name": "nonce",
          "type": "bytes32"
        },
        {
          "internalType": "bytes32",
          "name": "recipient",
          "type": "bytes32"
        },
        {
          "internalType": "bytes",
          "name": "payload",
          "type": "bytes"
        },
        {
          "internalType": "uint256",
          "name": "ttl",
          "type": "uint256"
        }
      ],
      "name": "sendMessage",
      "outputs": [
        {
          "internalType": "bool",
          "name": "",
          "type": "bool"
        }
      ],
      "stateMutability": "payable",
      "type": "function"
    },
    {
      "inputs": [
        {
          "internalType": "address",
          "name": "newOwner",
          "type": "address"
        }
      ],
      "name": "transferOwnership",
      "outputs": [],
      "stateMutability": "nonpayable",
      "type": "function"
    }
  ],
  "bytecode": "0x608060405234801561001057600080fd5b5033600073ffffffffffffffffffffffffffffffffffffffff168173ffffffffffffffffffffffffffffffffffffffff16036100845760006040517f1e4fbdf700000000000000000000000000000000000000000000000000000000815260040161007b9190610235565b60405180910390fd5b6100938161013060201b60201c565b506040518060a00160405280600160ff168152602001600160ff1681526020016014815260200160c88152602001601e815250600160008201518160000160006101000a81548160ff021916908360ff16021790555060208201518160000160016101000a81548160ff021916908360ff160217905550604082015181600101556060820151816002015560808201518160030155905050610250565b60008060009054906101000a900473ffffffffffffffffffffffffffffffffffffffff169050816000806101000a81548173ffffffffffffffffffffffffffffffffffffffff021916908373ffffffffffffffffffffffffffffffffffffffff1602179055508173ffffffffffffffffffffffffffffffffffffffff168173ffffffffffffffffffffffffffffffffffffffff167f8be0079c531659141344cd1fd0a4f28419497f9722a3daafe3b4186f6b6457e060405160405180910390a35050565b600073ffffffffffffffffffffffffffffffffffffffff82169050919050565b600061021f826101f4565b9050919050565b61022f81610214565b82525050565b600060208201905061024a6000830184610226565b92915050565b6136f78061025f6000396000f3fe6080604052600436106100e85760003560e01c80638da5cb5b1161008a578063c8a2448211610059578063c8a24482146102ea578063df5dd1a51461031a578063f2fde38b14610343578063fdc85fc41461036c576100e8565b80638da5cb5b1461022c5780638f618b1614610257578063aa810c4214610280578063b6c72acf146102c1576100e8565b80635f947ceb116100c65780635f947ceb14610180578063715018a6146101a957806379502c55146101c05780637c106ea9146101ef576100e8565b80632852ab6b146100ed5780634ae593a714610116578063529c758814610155575b600080fd5b3480156100f957600080fd5b50610114600480360381019061010f9190611fe4565b610395565b005b34801561012257600080fd5b5061013d60048036038101906101389190612040565b610699565b60405161014c939291906121da565b60405180910390f35b34801561016157600080fd5b5061016a6107f3565b6040516101779190612218565b60405180910390f35b34801561018c57600080fd5b506101a760048036038101906101a2919061225f565b6107f9565b005b3480156101b557600080fd5b506101be610c17565b005b3480156101cc57600080fd5b506101d5610c2b565b6040516101e695949392919061232e565b60405180910390f35b3480156101fb57600080fd5b5061021660048036038101906102119190612381565b610c69565b60405161022391906123c9565b60405180910390f35b34801561023857600080fd5b50610241610c89565b60405161024e91906123e4565b60405180910390f35b34801561026357600080fd5b5061027e6004803603810190610279919061245a565b610cb2565b005b34801561028c57600080fd5b506102a760048036038101906102a29190612040565b610dd6565b6040516102b895949392919061251d565b60405180910390f35b3480156102cd57600080fd5b506102e860048036038101906102e391906125cf565b610f3c565b005b61030460048036038101906102ff919061264a565b610fa4565b60405161031191906123c9565b60405180910390f35b34801561032657600080fd5b50610341600480360381019061033c9190612381565b6112cf565b005b34801561034f57600080fd5b5061036a60048036038101906103659190612381565b611401565b005b34801561037857600080fd5b50610393600480360381019061038e9190612381565b611487565b005b6000801b6005600084815260200190815260200160002060000160000154036103f3576040517f08c379a00000000000000000000000000000000000000000000000000000000081526004016103ea9061272a565b60405180910390fd5b436005600084815260200190815260200160002060060154101561044c576040517f08c379a000000000000000000000000000000000000000000000000000000000815260040161044390612796565b60405180910390fd5b60006005600084815260200190815260200160002060000160010160009054906101000a900473ffffffffffffffffffffffffffffffffffffffff166005600085815260200190815260200160002060000160020154600560008681526020019081526020016000206000016003015460056000878152602001908152602001600020600001600401336040516020016104ea959493929190612922565b60405160208183030381529060405280519060200120905061051f8183600160000160009054906101000a900460ff166115b0565b6005600084815260200190815260200160002060080160009054906101000a900473ffffffffffffffffffffffffffffffffffffffff1673ffffffffffffffffffffffffffffffffffffffff166108fc60056000868152602001908152602001600020600701549081150290604051600060405180830381858888f193505050501580156105b1573d6000803e3d6000fd5b506005600084815260200190815260200160002060008082016000808201600090556001820160006101000a81549073ffffffffffffffffffffffffffffffffffffffff02191690556002820160009055600382016000905560048201600061061a9190611d11565b50506005820160009055600682016000905560078201600090556008820160006101000a81549073ffffffffffffffffffffffffffffffffffffffff021916905550507ffa39010b12e169f2d7e9a76e381216416dbf5eb59db117ae979592ee9f3238858360405161068c919061298c565b60405180910390a1505050565b6006602052806000526040600020600091509050806000016040518060a00160405290816000820154815260200160018201548152602001600282015481526020016003820160009054906101000a900473ffffffffffffffffffffffffffffffffffffffff1673ffffffffffffffffffffffffffffffffffffffff1673ffffffffffffffffffffffffffffffffffffffff1681526020016004820180546107409061284e565b80601f016020809104026020016040519081016040528092919081815260200182805461076c9061284e565b80156107b95780601f1061078e576101008083540402835291602001916107b9565b820191906000526020600020905b81548152906001019060200180831161079c57829003601f168201915b505050505081525050908060050154908060060160009054906101000a900473ffffffffffffffffffffffffffffffffffffffff16905083565b60075481565b60008585858560405160200161081294939291906129d8565b6040516020818303038152906040528051906020012090506108478183600160000160019054906101000a900460ff166115b0565b6000868660405160200161085c929190612a22565b6040516020818303038152906040528051906020012090506000801b6006600083815260200190815260200160002060000160000154146108d2576040517f08c379a00000000000000000000000000000000000000000000000000000000081526004016108c990612a9a565b60405180910390fd5b60405180606001604052806040518060a001604052808481526020018a81526020018981526020018873ffffffffffffffffffffffffffffffffffffffff1681526020018781525081526020014381526020013373ffffffffffffffffffffffffffffffffffffffff168152506006600083815260200190815260200160002060008201518160000160008201518160000155602082015181600101556040820151816002015560608201518160030160006101000a81548173ffffffffffffffffffffffffffffffffffffffff021916908373ffffffffffffffffffffffffffffffffffffffff16021790555060808201518160040190816109d59190612c51565b5050506020820151816005015560408201518160060160006101000a81548173ffffffffffffffffffffffffffffffffffffffff021916908373ffffffffffffffffffffffffffffffffffffffff16021790555090505060008573ffffffffffffffffffffffffffffffffffffffff163b11610a86576040517f08c379a0000000000000000000000000000000000000000000000000000000008152600401610a7d90612d6f565b60405180910390fd5b6000808673ffffffffffffffffffffffffffffffffffffffff168987604051602401610ab3929190612dd9565b6040516020818303038152906040527f99189e44000000000000000000000000000000000000000000000000000000007bffffffffffffffffffffffffffffffffffffffffffffffffffffffff19166020820180517bffffffffffffffffffffffffffffffffffffffffffffffffffffffff8381831617835250505050604051610b3d9190612e09565b6000604051808303816000865af19150503d8060008114610b7a576040519150601f19603f3d011682016040523d82523d6000602084013e610b7f565b606091505b509150915081610bd5576000610b9482611873565b90507fc3e1862113ac26ceb701a885d6235d414b60b961be5e6a13f27f016c3eeb70468a898984604051610bcb9493929190612e64565b60405180910390a1505b7f1915d13f149e2654a02a939345885f8654759bd3347d96fe012c6913df7f86b883604051610c04919061298c565b60405180910390a1505050505050505050565b610c1f6118de565b610c296000611965565b565b60018060000160009054906101000a900460ff16908060000160019054906101000a900460ff16908060010154908060020154908060030154905085565b60086020528060005260406000206000915054906101000a900460ff1681565b60008060009054906101000a900473ffffffffffffffffffffffffffffffffffffffff16905090565b610cba6118de565b60005b82829050811015610dd1574360016003015460066000868686818110610ce657610ce5612eb7565b5b90506020020135815260200190815260200160002060050154610d099190612f15565b1015610dc45760066000848484818110610d2657610d25612eb7565b5b9050602002013581526020019081526020016000206000808201600080820160009055600182016000905560028201600090556003820160006101000a81549073ffffffffffffffffffffffffffffffffffffffff0219169055600482016000610d909190611d11565b505060058201600090556006820160006101000a81549073ffffffffffffffffffffffffffffffffffffffff021916905550505b8080600101915050610cbd565b505050565b6005602052806000526040600020600091509050806000016040518060a0016040529081600082015481526020016001820160009054906101000a900473ffffffffffffffffffffffffffffffffffffffff1673ffffffffffffffffffffffffffffffffffffffff1673ffffffffffffffffffffffffffffffffffffffff1681526020016002820154815260200160038201548152602001600482018054610e7d9061284e565b80601f0160208091040260200160405190810160405280929190818152602001828054610ea99061284e565b8015610ef65780601f10610ecb57610100808354040283529160200191610ef6565b820191906000526020600020905b815481529060010190602001808311610ed957829003601f168201915b505050505081525050908060050154908060060154908060070154908060080160009054906101000a900473ffffffffffffffffffffffffffffffffffffffff16905085565b610f446118de565b84600160000160006101000a81548160ff021916908360ff16021790555083600160000160016101000a81548160ff021916908360ff16021790555082600180018190555081600160020181905550806001600301819055505050505050565b60006001800154821015610fed576040517f08c379a0000000000000000000000000000000000000000000000000000000008152600401610fe490612f95565b60405180910390fd5b600160020154821115611035576040517f08c379a000000000000000000000000000000000000000000000000000000000815260040161102c90613001565b60405180910390fd5b6000338660405160200161104a929190613021565b60405160208183030381529060405280519060200120905060006005600083815260200190815260200160002060060154146110d957436005600083815260200190815260200160002060060154106110d8576040517f08c379a00000000000000000000000000000000000000000000000000000000081526004016110cf90613099565b60405180910390fd5b5b6040518060a001604052806040518060a001604052808481526020013373ffffffffffffffffffffffffffffffffffffffff16815260200189815260200188815260200187815250815260200143815260200184436111389190612f15565b81526020013481526020013373ffffffffffffffffffffffffffffffffffffffff16815250600560008381526020019081526020016000206000820151816000016000820151816000015560208201518160010160006101000a81548173ffffffffffffffffffffffffffffffffffffffff021916908373ffffffffffffffffffffffffffffffffffffffff160217905550604082015181600201556060820151816003015560808201518160040190816111f39190612c51565b50505060208201518160050155604082015181600601556060820151816007015560808201518160080160006101000a81548173ffffffffffffffffffffffffffffffffffffffff021916908373ffffffffffffffffffffffffffffffffffffffff16021790555090505060076000815480929190611271906130b9565b91905055507f8247a0f2dd88a6cc1307846677363683b26effea9730e52b2e9939287f360f0c600560008381526020019081526020016000206000016040516112ba9190613293565b60405180910390a16001915050949350505050565b6112d76118de565b600860008273ffffffffffffffffffffffffffffffffffffffff1673ffffffffffffffffffffffffffffffffffffffff16815260200190815260200160002060009054906101000a900460ff1615611364576040517f08c379a000000000000000000000000000000000000000000000000000000000815260040161135b90613301565b60405180910390fd5b6001600860008373ffffffffffffffffffffffffffffffffffffffff1673ffffffffffffffffffffffffffffffffffffffff16815260200190815260200160002060006101000a81548160ff0219169083151502179055508073ffffffffffffffffffffffffffffffffffffffff167e47706786c922d17b39285dc59d696bafea72c0b003d3841ae1202076f4c2e460405160405180910390a250565b6114096118de565b600073ffffffffffffffffffffffffffffffffffffffff168173ffffffffffffffffffffffffffffffffffffffff160361147b5760006040517f1e4fbdf700000000000000000000000000000000000000000000000000000000815260040161147291906123e4565b60405180910390fd5b61148481611965565b50565b61148f6118de565b600860008273ffffffffffffffffffffffffffffffffffffffff1673ffffffffffffffffffffffffffffffffffffffff16815260200190815260200160002060009054906101000a900460ff1661151b576040517f08c379a00000000000000000000000000000000000000000000000000000000081526004016115129061336d565b60405180910390fd5b600860008273ffffffffffffffffffffffffffffffffffffffff1673ffffffffffffffffffffffffffffffffffffffff16815260200190815260200160002060006101000a81549060ff02191690558073ffffffffffffffffffffffffffffffffffffffff167f9c8e7d83025bef8a04c664b2f753f64b8814bdb7e27291d7e50935f18cc3c71260405160405180910390a250565b8060ff16825110156115f7576040517f08c379a00000000000000000000000000000000000000000000000000000000081526004016115ee906133d9565b60405180910390fd5b6000825167ffffffffffffffff81111561161457611613611dce565b5b6040519080825280602002602001820160405280156116425781602001602082028036833780820191505090505b5090506000805b84518110156118245760006116788787848151811061166b5761166a612eb7565b5b6020026020010151611a29565b9050600860008273ffffffffffffffffffffffffffffffffffffffff1673ffffffffffffffffffffffffffffffffffffffff16815260200190815260200160002060009054906101000a900460ff16611706576040517f08c379a00000000000000000000000000000000000000000000000000000000081526004016116fd90613445565b60405180910390fd5b60005b838110156117a6578173ffffffffffffffffffffffffffffffffffffffff1685828151811061173b5761173a612eb7565b5b602002602001015173ffffffffffffffffffffffffffffffffffffffff1603611799576040517f08c379a0000000000000000000000000000000000000000000000000000000008152600401611790906134b1565b60405180910390fd5b8080600101915050611709565b50808484815181106117bb576117ba612eb7565b5b602002602001019073ffffffffffffffffffffffffffffffffffffffff16908173ffffffffffffffffffffffffffffffffffffffff16815250508280611800906130b9565b9350508460ff168310611816575050505061186e565b508080600101915050611649565b508260ff1681101561186b576040517f08c379a000000000000000000000000000000000000000000000000000000000815260040161186290613543565b60405180910390fd5b50505b505050565b60606044825110156118bc576040518060400160405280600f81526020017f556e6b6e6f776e206661696c757265000000000000000000000000000000000081525090506118d9565b600482019150818060200190518101906118d69190613604565b90505b919050565b6118e6611a55565b73ffffffffffffffffffffffffffffffffffffffff16611904610c89565b73ffffffffffffffffffffffffffffffffffffffff161461196357611927611a55565b6040517f118cdaa700000000000000000000000000000000000000000000000000000000815260040161195a91906123e4565b60405180910390fd5b565b60008060009054906101000a900473ffffffffffffffffffffffffffffffffffffffff169050816000806101000a81548173ffffffffffffffffffffffffffffffffffffffff021916908373ffffffffffffffffffffffffffffffffffffffff1602179055508173ffffffffffffffffffffffffffffffffffffffff168173ffffffffffffffffffffffffffffffffffffffff167f8be0079c531659141344cd1fd0a4f28419497f9722a3daafe3b4186f6b6457e060405160405180910390a35050565b600080600080611a398686611a5d565b925092509250611a498282611ab9565b82935050505092915050565b600033905090565b60008060006041845103611aa25760008060006020870151925060408701519150606087015160001a9050611a9488828585611c1d565b955095509550505050611ab2565b60006002855160001b9250925092505b9250925092565b60006003811115611acd57611acc61364d565b5b826003811115611ae057611adf61364d565b5b0315611c195760016003811115611afa57611af961364d565b5b826003811115611b0d57611b0c61364d565b5b03611b44576040517ff645eedf00000000000000000000000000000000000000000000000000000000815260040160405180910390fd5b60026003811115611b5857611b5761364d565b5b826003811115611b6b57611b6a61364d565b5b03611bb0578060001c6040517ffce698f7000000000000000000000000000000000000000000000000000000008152600401611ba79190612218565b60405180910390fd5b600380811115611bc357611bc261364d565b5b826003811115611bd657611bd561364d565b5b03611c1857806040517fd78bce0c000000000000000000000000000000000000000000000000000000008152600401611c0f919061298c565b60405180910390fd5b5b5050565b60008060007f7fffffffffffffffffffffffffffffff5d576e7357a4501ddfe92f46681b20a08460001c1115611c5d576000600385925092509250611d07565b600060018888888860405160008152602001604052604051611c82949392919061367c565b6020604051602081039080840390855afa158015611ca4573d6000803e3d6000fd5b505050602060405103519050600073ffffffffffffffffffffffffffffffffffffffff168173ffffffffffffffffffffffffffffffffffffffff1603611cf857600060016000801b93509350935050611d07565b8060008060001b935093509350505b9450945094915050565b508054611d1d9061284e565b6000825580601f10611d2f5750611d4e565b601f016020900490600052602060002090810190611d4d9190611d51565b5b50565b5b80821115611d6a576000816000905550600101611d52565b5090565b6000604051905090565b600080fd5b600080fd5b6000819050919050565b611d9581611d82565b8114611da057600080fd5b50565b600081359050611db281611d8c565b92915050565b600080fd5b6000601f19601f8301169050919050565b7f4e487b7100000000000000000000000000000000000000000000000000000000600052604160045260246000fd5b611e0682611dbd565b810181811067ffffffffffffffff82111715611e2557611e24611dce565b5b80604052505050565b6000611e38611d6e565b9050611e448282611dfd565b919050565b600067ffffffffffffffff821115611e6457611e63611dce565b5b602082029050602081019050919050565b600080fd5b600080fd5b600067ffffffffffffffff821115611e9a57611e99611dce565b5b611ea382611dbd565b9050602081019050919050565b82818337600083830152505050565b6000611ed2611ecd84611e7f565b611e2e565b905082815260208101848484011115611eee57611eed611e7a565b5b611ef9848285611eb0565b509392505050565b600082601f830112611f1657611f15611db8565b5b8135611f26848260208601611ebf565b91505092915050565b6000611f42611f3d84611e49565b611e2e565b90508083825260208201905060208402830185811115611f6557611f64611e75565b5b835b81811015611fac57803567ffffffffffffffff811115611f8a57611f89611db8565b5b808601611f978982611f01565b85526020850194505050602081019050611f67565b5050509392505050565b600082601f830112611fcb57611fca611db8565b5b8135611fdb848260208601611f2f565b91505092915050565b60008060408385031215611ffb57611ffa611d78565b5b600061200985828601611da3565b925050602083013567ffffffffffffffff81111561202a57612029611d7d565b5b61203685828601611fb6565b9150509250929050565b60006020828403121561205657612055611d78565b5b600061206484828501611da3565b91505092915050565b61207681611d82565b82525050565b600073ffffffffffffffffffffffffffffffffffffffff82169050919050565b60006120a78261207c565b9050919050565b6120b78161209c565b82525050565b600081519050919050565b600082825260208201905092915050565b60005b838110156120f75780820151818401526020810190506120dc565b60008484015250505050565b600061210e826120bd565b61211881856120c8565b93506121288185602086016120d9565b61213181611dbd565b840191505092915050565b600060a083016000830151612154600086018261206d565b506020830151612167602086018261206d565b50604083015161217a604086018261206d565b50606083015161218d60608601826120ae565b50608083015184820360808601526121a58282612103565b9150508091505092915050565b6000819050919050565b6121c5816121b2565b82525050565b6121d48161209c565b82525050565b600060608201905081810360008301526121f4818661213c565b905061220360208301856121bc565b61221060408301846121cb565b949350505050565b600060208201905061222d60008301846121bc565b92915050565b61223c8161209c565b811461224757600080fd5b50565b60008135905061225981612233565b92915050565b600080600080600060a0868803121561227b5761227a611d78565b5b600061228988828901611da3565b955050602061229a88828901611da3565b94505060406122ab8882890161224a565b935050606086013567ffffffffffffffff8111156122cc576122cb611d7d565b5b6122d888828901611f01565b925050608086013567ffffffffffffffff8111156122f9576122f8611d7d565b5b61230588828901611fb6565b9150509295509295909350565b600060ff82169050919050565b61232881612312565b82525050565b600060a082019050612343600083018861231f565b612350602083018761231f565b61235d60408301866121bc565b61236a60608301856121bc565b61237760808301846121bc565b9695505050505050565b60006020828403121561239757612396611d78565b5b60006123a58482850161224a565b91505092915050565b60008115159050919050565b6123c3816123ae565b82525050565b60006020820190506123de60008301846123ba565b92915050565b60006020820190506123f960008301846121cb565b92915050565b600080fd5b60008083601f84011261241a57612419611db8565b5b8235905067ffffffffffffffff811115612437576124366123ff565b5b60208301915083602082028301111561245357612452611e75565b5b9250929050565b6000806020838503121561247157612470611d78565b5b600083013567ffffffffffffffff81111561248f5761248e611d7d565b5b61249b85828601612404565b92509250509250929050565b600060a0830160008301516124bf600086018261206d565b5060208301516124d260208601826120ae565b5060408301516124e5604086018261206d565b5060608301516124f8606086018261206d565b50608083015184820360808601526125108282612103565b9150508091505092915050565b600060a082019050818103600083015261253781886124a7565b905061254660208301876121bc565b61255360408301866121bc565b61256060608301856121bc565b61256d60808301846121cb565b9695505050505050565b61258081612312565b811461258b57600080fd5b50565b60008135905061259d81612577565b92915050565b6125ac816121b2565b81146125b757600080fd5b50565b6000813590506125c9816125a3565b92915050565b600080600080600060a086880312156125eb576125ea611d78565b5b60006125f98882890161258e565b955050602061260a8882890161258e565b945050604061261b888289016125ba565b935050606061262c888289016125ba565b925050608061263d888289016125ba565b9150509295509295909350565b6000806000806080858703121561266457612663611d78565b5b600061267287828801611da3565b945050602061268387828801611da3565b935050604085013567ffffffffffffffff8111156126a4576126a3611d7d565b5b6126b087828801611f01565b92505060606126c1878288016125ba565b91505092959194509250565b600082825260208201905092915050565b7f4d657373616765206e6f7420666f756e64000000000000000000000000000000600082015250565b60006127146011836126cd565b915061271f826126de565b602082019050919050565b6000602082019050818103600083015261274381612707565b9050919050565b7f44656c697665727920636f6e6669726d6174696f6e206f766572647565000000600082015250565b6000612780601d836126cd565b915061278b8261274a565b602082019050919050565b600060208201905081810360008301526127af81612773565b9050919050565b60008160601b9050919050565b60006127ce826127b6565b9050919050565b60006127e0826127c3565b9050919050565b6127f86127f38261209c565b6127d5565b82525050565b6000819050919050565b61281961281482611d82565b6127fe565b82525050565b7f4e487b7100000000000000000000000000000000000000000000000000000000600052602260045260246000fd5b6000600282049050600182168061286657607f821691505b6020821081036128795761287861281f565b5b50919050565b600081905092915050565b60008190508160005260206000209050919050565b600081546128ac8161284e565b6128b6818661287f565b945060018216600081146128d157600181146128e657612919565b60ff1983168652811515820286019350612919565b6128ef8561288a565b60005b83811015612911578154818901526001820191506020810190506128f2565b838801955050505b50505092915050565b600061292e82886127e7565b60148201915061293e8287612808565b60208201915061294e8286612808565b60208201915061295e828561289f565b915061296a82846127e7565b6014820191508190509695505050505050565b61298681611d82565b82525050565b60006020820190506129a1600083018461297d565b92915050565b60006129b2826120bd565b6129bc818561287f565b93506129cc8185602086016120d9565b80840191505092915050565b60006129e48287612808565b6020820191506129f48286612808565b602082019150612a0482856127e7565b601482019150612a1482846129a7565b915081905095945050505050565b6000612a2e8285612808565b602082019150612a3e8284612808565b6020820191508190509392505050565b7f4d65737361676520616c72656164792072656365697665640000000000000000600082015250565b6000612a846018836126cd565b9150612a8f82612a4e565b602082019050919050565b60006020820190508181036000830152612ab381612a77565b9050919050565b60006020601f8301049050919050565b600082821b905092915050565b600060088302612b077fffffffffffffffffffffffffffffffffffffffffffffffffffffffffffffffff82612aca565b612b118683612aca565b95508019841693508086168417925050509392505050565b6000819050919050565b6000612b4e612b49612b44846121b2565b612b29565b6121b2565b9050919050565b6000819050919050565b612b6883612b33565b612b7c612b7482612b55565b848454612ad7565b825550505050565b600090565b612b91612b84565b612b9c818484612b5f565b505050565b5b81811015612bc057612bb5600082612b89565b600181019050612ba2565b5050565b601f821115612c0557612bd68161288a565b612bdf84612aba565b81016020851015612bee578190505b612c02612bfa85612aba565b830182612ba1565b50505b505050565b600082821c905092915050565b6000612c2860001984600802612c0a565b1980831691505092915050565b6000612c418383612c17565b9150826002028217905092915050565b612c5a826120bd565b67ffffffffffffffff811115612c7357612c72611dce565b5b612c7d825461284e565b612c88828285612bc4565b600060209050601f831160018114612cbb5760008415612ca9578287015190505b612cb38582612c35565b865550612d1b565b601f198416612cc98661288a565b60005b82811015612cf157848901518255600182019150602085019450602081019050612ccc565b86831015612d0e5784890151612d0a601f891682612c17565b8355505b6001600288020188555050505b505050505050565b7f526563697069656e74206973206e6f74206120636f6e74726163740000000000600082015250565b6000612d59601b836126cd565b9150612d6482612d23565b602082019050919050565b60006020820190508181036000830152612d8881612d4c565b9050919050565b600082825260208201905092915050565b6000612dab826120bd565b612db58185612d8f565b9350612dc58185602086016120d9565b612dce81611dbd565b840191505092915050565b6000604082019050612dee600083018561297d565b8181036020830152612e008184612da0565b90509392505050565b6000612e1582846129a7565b915081905092915050565b600081519050919050565b6000612e3682612e20565b612e4081856126cd565b9350612e508185602086016120d9565b612e5981611dbd565b840191505092915050565b6000608082019050612e79600083018761297d565b612e8660208301866121cb565b8181036040830152612e988185612da0565b90508181036060830152612eac8184612e2b565b905095945050505050565b7f4e487b7100000000000000000000000000000000000000000000000000000000600052603260045260246000fd5b7f4e487b7100000000000000000000000000000000000000000000000000000000600052601160045260246000fd5b6000612f20826121b2565b9150612f2b836121b2565b9250828201905080821115612f4357612f42612ee6565b5b92915050565b7f54544c20746f6f20736d616c6c00000000000000000000000000000000000000600082015250565b6000612f7f600d836126cd565b9150612f8a82612f49565b602082019050919050565b60006020820190508181036000830152612fae81612f72565b9050919050565b7f54544c20746f6f206c6172676500000000000000000000000000000000000000600082015250565b6000612feb600d836126cd565b9150612ff682612fb5565b602082019050919050565b6000602082019050818103600083015261301a81612fde565b9050919050565b600061302d82856127e7565b60148201915061303d8284612808565b6020820191508190509392505050565b7f4d65737361676520776974682073616d65206e6f6e63652070656e64696e6700600082015250565b6000613083601f836126cd565b915061308e8261304d565b602082019050919050565b600060208201905081810360008301526130b281613076565b9050919050565b60006130c4826121b2565b91507fffffffffffffffffffffffffffffffffffffffffffffffffffffffffffffffff82036130f6576130f5612ee6565b5b600182019050919050565b60008160001c9050919050565b6000819050919050565b600061312b61312683613101565b61310e565b9050919050565b600073ffffffffffffffffffffffffffffffffffffffff82169050919050565b600061316561316083613101565b613132565b9050919050565b600081546131798161284e565b61318381866120c8565b9450600182166000811461319e57600181146131b4576131e7565b60ff1983168652811515602002860193506131e7565b6131bd8561288a565b60005b838110156131df578154818901526001820191506020810190506131c0565b808801955050505b50505092915050565b600060a08301600080840154905061320781613118565b613214600087018261206d565b506001840154905061322581613152565b61323260208701826120ae565b506002840154905061324381613118565b613250604087018261206d565b506003840154905061326181613118565b61326e606087018261206d565b50600484018583036080870152613285838261316c565b925050819250505092915050565b600060208201905081810360008301526132ad81846131f0565b905092915050565b7f4f7261636c6520616c7265616479206164646564000000000000000000000000600082015250565b60006132eb6014836126cd565b91506132f6826132b5565b602082019050919050565b6000602082019050818103600083015261331a816132de565b9050919050565b7f4f7261636c65206e6f7420666f756e6400000000000000000000000000000000600082015250565b60006133576010836126cd565b915061336282613321565b602082019050919050565b600060208201905081810360008301526133868161334a565b9050919050565b7f4e6f7420656e6f756768207369676e6174757265730000000000000000000000600082015250565b60006133c36015836126cd565b91506133ce8261338d565b602082019050919050565b600060208201905081810360008301526133f2816133b6565b9050919050565b7f496e76616c6964207369676e6174757265000000000000000000000000000000600082015250565b600061342f6011836126cd565b915061343a826133f9565b602082019050919050565b6000602082019050818103600083015261345e81613422565b9050919050565b7f4475706c6963617465207369676e617475726520646574656374656400000000600082015250565b600061349b601c836126cd565b91506134a682613465565b602082019050919050565b600060208201905081810360008301526134ca8161348e565b9050919050565b7f4e6f7420656e6f75676820756e697175652076616c6964207369676e6174757260008201527f6573000000000000000000000000000000000000000000000000000000000000602082015250565b600061352d6022836126cd565b9150613538826134d1565b604082019050919050565b6000602082019050818103600083015261355c81613520565b9050919050565b600067ffffffffffffffff82111561357e5761357d611dce565b5b61358782611dbd565b9050602081019050919050565b60006135a76135a284613563565b611e2e565b9050828152602081018484840111156135c3576135c2611e7a565b5b6135ce8482856120d9565b509392505050565b600082601f8301126135eb576135ea611db8565b5b81516135fb848260208601613594565b91505092915050565b60006020828403121561361a57613619611d78565b5b600082015167ffffffffffffffff81111561363857613637611d7d565b5b613644848285016135d6565b91505092915050565b7f4e487b7100000000000000000000000000000000000000000000000000000000600052602160045260246000fd5b6000608082019050613691600083018761297d565b61369e602083018661231f565b6136ab604083018561297d565b6136b8606083018461297d565b9594505050505056fea2646970667358221220372f408eb51c39551e68c5830fc38810a08a6dcd2c366132ddfb547e159a9ec864736f6c634300081c0033",
  "linkReferences": {},
  "deployedLinkReferences": {}
}