{
  "_format": "hh-sol-artifact-1",
  "contractName": "AcurastToken",
  "sourceName": "contracts/token/AcurastToken.sol",
  "abi": [
    {
      "inputs": [
        {
          "internalType": "string",
          "name": "name",
          "type": "string"
        },
        {
          "internalType": "string",
          "name": "symbol",
          "type": "string"
        },
        {
          "components": [
            {
              "internalType": "address",
              "name": "source",
              "type": "address"
            },
            {
              "internalType": "uint128",
              "name": "amount",
              "type": "uint128"
            }
          ],
          "internalType": "struct AcurastToken.InitialBalance[]",
          "name": "_initialBalances",
          "type": "tuple[]"
        }
      ],
      "stateMutability": "nonpayable",
      "type": "constructor"
    },
    {
      "inputs": [],
      "name": "AccessControlBadConfirmation",
      "type": "error"
    },
    {
      "inputs": [
        {
          "internalType": "uint48",
          "name": "schedule",
          "type": "uint48"
        }
      ],
      "name": "AccessControlEnforcedDefaultAdminDelay",
      "type": "error"
    },
    {
      "inputs": [],
      "name": "AccessControlEnforcedDefaultAdminRules",
      "type": "error"
    },
    {
      "inputs": [
        {
          "internalType": "address",
          "name": "defaultAdmin",
          "type": "address"
        }
      ],
      "name": "AccessControlInvalidDefaultAdmin",
      "type": "error"
    },
    {
      "inputs": [
        {
          "internalType": "address",
          "name": "account",
          "type": "address"
        },
        {
          "internalType": "bytes32",
          "name": "neededRole",
          "type": "bytes32"
        }
      ],
      "name": "AccessControlUnauthorizedAccount",
      "type": "error"
    },
    {
      "inputs": [],
      "name": "ECDSAInvalidSignature",
      "type": "error"
    },
    {
      "inputs": [
        {
          "internalType": "uint256",
          "name": "length",
          "type": "uint256"
        }
      ],
      "name": "ECDSAInvalidSignatureLength",
      "type": "error"
    },
    {
      "inputs": [
        {
          "internalType": "bytes32",
          "name": "s",
          "type": "bytes32"
        }
      ],
      "name": "ECDSAInvalidSignatureS",
      "type": "error"
    },
    {
      "inputs": [
        {
          "internalType": "address",
          "name": "spender",
          "type": "address"
        },
        {
          "internalType": "uint256",
          "name": "allowance",
          "type": "uint256"
        },
        {
          "internalType": "uint256",
          "name": "needed",
          "type": "uint256"
        }
      ],
      "name": "ERC20InsufficientAllowance",
      "type": "error"
    },
    {
      "inputs": [
        {
          "internalType": "address",
          "name": "sender",
          "type": "address"
        },
        {
          "internalType": "uint256",
          "name": "balance",
          "type": "uint256"
        },
        {
          "internalType": "uint256",
          "name": "needed",
          "type": "uint256"
        }
      ],
      "name": "ERC20InsufficientBalance",
      "type": "error"
    },
    {
      "inputs": [
        {
          "internalType": "address",
          "name": "approver",
          "type": "address"
        }
      ],
      "name": "ERC20InvalidApprover",
      "type": "error"
    },
    {
      "inputs": [
        {
          "internalType": "address",
          "name": "receiver",
          "type": "address"
        }
      ],
      "name": "ERC20InvalidReceiver",
      "type": "error"
    },
    {
      "inputs": [
        {
          "internalType": "address",
          "name": "sender",
          "type": "address"
        }
      ],
      "name": "ERC20InvalidSender",
      "type": "error"
    },
    {
      "inputs": [
        {
          "internalType": "address",
          "name": "spender",
          "type": "address"
        }
      ],
      "name": "ERC20InvalidSpender",
      "type": "error"
    },
    {
      "inputs": [
        {
          "internalType": "uint256",
          "name": "deadline",
          "type": "uint256"
        }
      ],
      "name": "ERC2612ExpiredSignature",
      "type": "error"
    },
    {
      "inputs": [
        {
          "internalType": "address",
          "name": "signer",
          "type": "address"
        },
        {
          "internalType": "address",
          "name": "owner",
          "type": "address"
        }
      ],
      "name": "ERC2612InvalidSigner",
      "type": "error"
    },
    {
      "inputs": [
        {
          "internalType": "address",
          "name": "account",
          "type": "address"
        },
        {
          "internalType": "uint256",
          "name": "currentNonce",
          "type": "uint256"
        }
      ],
      "name": "InvalidAccountNonce",
      "type": "error"
    },
    {
      "inputs": [],
      "name": "InvalidShortString",
      "type": "error"
    },
    {
      "inputs": [
        {
          "internalType": "uint8",
          "name": "bits",
          "type": "uint8"
        },
        {
          "internalType": "uint256",
          "name": "value",
          "type": "uint256"
        }
      ],
      "name": "SafeCastOverflowedUintDowncast",
      "type": "error"
    },
    {
      "inputs": [
        {
          "internalType": "string",
          "name": "str",
          "type": "string"
        }
      ],
      "name": "StringTooLong",
      "type": "error"
    },
    {
      "inputs": [],
      "name": "TransferRestricted",
      "type": "error"
    },
    {
      "anonymous": false,
      "inputs": [
        {
          "indexed": true,
          "internalType": "address",
          "name": "owner",
          "type": "address"
        },
        {
          "indexed": true,
          "internalType": "address",
          "name": "spender",
          "type": "address"
        },
        {
          "indexed": false,
          "internalType": "uint256",
          "name": "value",
          "type": "uint256"
        }
      ],
      "name": "Approval",
      "type": "event"
    },
    {
      "anonymous": false,
      "inputs": [
        {
          "indexed": true,
          "internalType": "address",
          "name": "from",
          "type": "address"
        },
        {
          "indexed": false,
          "internalType": "uint256",
          "name": "amount",
          "type": "uint256"
        },
        {
          "indexed": true,
          "internalType": "address",
          "name": "sender",
          "type": "address"
        }
      ],
      "name": "CrosschainBurn",
      "type": "event"
    },
    {
      "anonymous": false,
      "inputs": [
        {
          "indexed": true,
          "internalType": "address",
          "name": "to",
          "type": "address"
        },
        {
          "indexed": false,
          "internalType": "uint256",
          "name": "amount",
          "type": "uint256"
        },
        {
          "indexed": true,
          "internalType": "address",
          "name": "sender",
          "type": "address"
        }
      ],
      "name": "CrosschainMint",
      "type": "event"
    },
    {
      "anonymous": false,
      "inputs": [],
      "name": "DefaultAdminDelayChangeCanceled",
      "type": "event"
    },
    {
      "anonymous": false,
      "inputs": [
        {
          "indexed": false,
          "internalType": "uint48",
          "name": "newDelay",
          "type": "uint48"
        },
        {
          "indexed": false,
          "internalType": "uint48",
          "name": "effectSchedule",
          "type": "uint48"
        }
      ],
      "name": "DefaultAdminDelayChangeScheduled",
      "type": "event"
    },
    {
      "anonymous": false,
      "inputs": [],
      "name": "DefaultAdminTransferCanceled",
      "type": "event"
    },
    {
      "anonymous": false,
      "inputs": [
        {
          "indexed": true,
          "internalType": "address",
          "name": "newAdmin",
          "type": "address"
        },
        {
          "indexed": false,
          "internalType": "uint48",
          "name": "acceptSchedule",
          "type": "uint48"
        }
      ],
      "name": "DefaultAdminTransferScheduled",
      "type": "event"
    },
    {
      "anonymous": false,
      "inputs": [],
      "name": "EIP712DomainChanged",
      "type": "event"
    },
    {
      "anonymous": false,
      "inputs": [
        {
          "indexed": true,
          "internalType": "address",
          "name": "oldAddress",
          "type": "address"
        },
        {
          "indexed": true,
          "internalType": "address",
          "name": "newAddress",
          "type": "address"
        }
      ],
      "name": "ERC20TransferRestrictorContractUpdated",
      "type": "event"
    },
    {
      "anonymous": false,
      "inputs": [
        {
          "indexed": true,
          "internalType": "bytes32",
          "name": "role",
          "type": "bytes32"
        },
        {
          "indexed": true,
          "internalType": "bytes32",
          "name": "previousAdminRole",
          "type": "bytes32"
        },
        {
          "indexed": true,
          "internalType": "bytes32",
          "name": "newAdminRole",
          "type": "bytes32"
        }
      ],
      "name": "RoleAdminChanged",
      "type": "event"
    },
    {
      "anonymous": false,
      "inputs": [
        {
          "indexed": true,
          "internalType": "bytes32",
          "name": "role",
          "type": "bytes32"
        },
        {
          "indexed": true,
          "internalType": "address",
          "name": "account",
          "type": "address"
        },
        {
          "indexed": true,
          "internalType": "address",
          "name": "sender",
          "type": "address"
        }
      ],
      "name": "RoleGranted",
      "type": "event"
    },
    {
      "anonymous": false,
      "inputs": [
        {
          "indexed": true,
          "internalType": "bytes32",
          "name": "role",
          "type": "bytes32"
        },
        {
          "indexed": true,
          "internalType": "address",
          "name": "account",
          "type": "address"
        },
        {
          "indexed": true,
          "internalType": "address",
          "name": "sender",
          "type": "address"
        }
      ],
      "name": "RoleRevoked",
      "type": "event"
    },
    {
      "anonymous": false,
      "inputs": [
        {
          "indexed": true,
          "internalType": "address",
          "name": "from",
          "type": "address"
        },
        {
          "indexed": true,
          "internalType": "address",
          "name": "to",
          "type": "address"
        },
        {
          "indexed": false,
          "internalType": "uint256",
          "name": "value",
          "type": "uint256"
        }
      ],
      "name": "Transfer",
      "type": "event"
    },
    {
      "inputs": [],
      "name": "DEFAULT_ADMIN_ROLE",
      "outputs": [
        {
          "internalType": "bytes32",
          "name": "",
          "type": "bytes32"
        }
      ],
      "stateMutability": "view",
      "type": "function"
    },
    {
      "inputs": [],
      "name": "DOMAIN_SEPARATOR",
      "outputs": [
        {
          "internalType": "bytes32",
          "name": "",
          "type": "bytes32"
        }
      ],
      "stateMutability": "view",
      "type": "function"
    },
    {
      "inputs": [],
      "name": "RESTRICTOR_UPDATER",
      "outputs": [
        {
          "internalType": "bytes32",
          "name": "",
          "type": "bytes32"
        }
      ],
      "stateMutability": "view",
      "type": "function"
    },
    {
      "inputs": [],
      "name": "TOKEN_BRIDGE",
      "outputs": [
        {
          "internalType": "bytes32",
          "name": "",
          "type": "bytes32"
        }
      ],
      "stateMutability": "view",
      "type": "function"
    },
    {
      "inputs": [],
      "name": "acceptDefaultAdminTransfer",
      "outputs": [],
      "stateMutability": "nonpayable",
      "type": "function"
    },
    {
      "inputs": [
        {
          "internalType": "address",
          "name": "owner",
          "type": "address"
        },
        {
          "internalType": "address",
          "name": "spender",
          "type": "address"
        }
      ],
      "name": "allowance",
      "outputs": [
        {
          "internalType": "uint256",
          "name": "",
          "type": "uint256"
        }
      ],
      "stateMutability": "view",
      "type": "function"
    },
    {
      "inputs": [
        {
          "internalType": "address",
          "name": "spender",
          "type": "address"
        },
        {
          "internalType": "uint256",
          "name": "value",
          "type": "uint256"
        }
      ],
      "name": "approve",
      "outputs": [
        {
          "internalType": "bool",
          "name": "",
          "type": "bool"
        }
      ],
      "stateMutability": "nonpayable",
      "type": "function"
    },
    {
      "inputs": [
        {
          "internalType": "address",
          "name": "account",
          "type": "address"
        }
      ],
      "name": "balanceOf",
      "outputs": [
        {
          "internalType": "uint256",
          "name": "",
          "type": "uint256"
        }
      ],
      "stateMutability": "view",
      "type": "function"
    },
    {
      "inputs": [
        {
          "internalType": "address",
          "name": "newAdmin",
          "type": "address"
        }
      ],
      "name": "beginDefaultAdminTransfer",
      "outputs": [],
      "stateMutability": "nonpayable",
      "type": "function"
    },
    {
      "inputs": [],
      "name": "cancelDefaultAdminTransfer",
      "outputs": [],
      "stateMutability": "nonpayable",
      "type": "function"
    },
    {
      "inputs": [
        {
          "internalType": "uint48",
          "name": "newDelay",
          "type": "uint48"
        }
      ],
      "name": "changeDefaultAdminDelay",
      "outputs": [],
      "stateMutability": "nonpayable",
      "type": "function"
    },
    {
      "inputs": [
        {
          "internalType": "address",
          "name": "from",
          "type": "address"
        },
        {
          "internalType": "uint256",
          "name": "value",
          "type": "uint256"
        }
      ],
      "name": "crosschainBurn",
      "outputs": [],
      "stateMutability": "nonpayable",
      "type": "function"
    },
    {
      "inputs": [
        {
          "internalType": "address",
          "name": "to",
          "type": "address"
        },
        {
          "internalType": "uint256",
          "name": "value",
          "type": "uint256"
        }
      ],
      "name": "crosschainMint",
      "outputs": [],
      "stateMutability": "nonpayable",
      "type": "function"
    },
    {
      "inputs": [],
      "name": "decimals",
      "outputs": [
        {
          "internalType": "uint8",
          "name": "",
          "type": "uint8"
        }
      ],
      "stateMutability": "view",
      "type": "function"
    },
    {
      "inputs": [],
      "name": "defaultAdmin",
      "outputs": [
        {
          "internalType": "address",
          "name": "",
          "type": "address"
        }
      ],
      "stateMutability": "view",
      "type": "function"
    },
    {
      "inputs": [],
      "name": "defaultAdminDelay",
      "outputs": [
        {
          "internalType": "uint48",
          "name": "",
          "type": "uint48"
        }
      ],
      "stateMutability": "view",
      "type": "function"
    },
    {
      "inputs": [],
      "name": "defaultAdminDelayIncreaseWait",
      "outputs": [
        {
          "internalType": "uint48",
          "name": "",
          "type": "uint48"
        }
      ],
      "stateMutability": "view",
      "type": "function"
    },
    {
      "inputs": [],
      "name": "eip712Domain",
      "outputs": [
        {
          "internalType": "bytes1",
          "name": "fields",
          "type": "bytes1"
        },
        {
          "internalType": "string",
          "name": "name",
          "type": "string"
        },
        {
          "internalType": "string",
          "name": "version",
          "type": "string"
        },
        {
          "internalType": "uint256",
          "name": "chainId",
          "type": "uint256"
        },
        {
          "internalType": "address",
          "name": "verifyingContract",
          "type": "address"
        },
        {
          "internalType": "bytes32",
          "name": "salt",
          "type": "bytes32"
        },
        {
          "internalType": "uint256[]",
          "name": "extensions",
          "type": "uint256[]"
        }
      ],
      "stateMutability": "view",
      "type": "function"
    },
    {
      "inputs": [
        {
          "internalType": "bytes32",
          "name": "role",
          "type": "bytes32"
        }
      ],
      "name": "getRoleAdmin",
      "outputs": [
        {
          "internalType": "bytes32",
          "name": "",
          "type": "bytes32"
        }
      ],
      "stateMutability": "view",
      "type": "function"
    },
    {
      "inputs": [
        {
          "internalType": "bytes32",
          "name": "role",
          "type": "bytes32"
        },
        {
          "internalType": "address",
          "name": "account",
          "type": "address"
        }
      ],
      "name": "grantRole",
      "outputs": [],
      "stateMutability": "nonpayable",
      "type": "function"
    },
    {
      "inputs": [
        {
          "internalType": "bytes32",
          "name": "role",
          "type": "bytes32"
        },
        {
          "internalType": "address",
          "name": "account",
          "type": "address"
        }
      ],
      "name": "hasRole",
      "outputs": [
        {
          "internalType": "bool",
          "name": "",
          "type": "bool"
        }
      ],
      "stateMutability": "view",
      "type": "function"
    },
    {
      "inputs": [],
      "name": "name",
      "outputs": [
        {
          "internalType": "string",
          "name": "",
          "type": "string"
        }
      ],
      "stateMutability": "view",
      "type": "function"
    },
    {
      "inputs": [
        {
          "internalType": "address",
          "name": "owner",
          "type": "address"
        }
      ],
      "name": "nonces",
      "outputs": [
        {
          "internalType": "uint256",
          "name": "",
          "type": "uint256"
        }
      ],
      "stateMutability": "view",
      "type": "function"
    },
    {
      "inputs": [],
      "name": "owner",
      "outputs": [
        {
          "internalType": "address",
          "name": "",
          "type": "address"
        }
      ],
      "stateMutability": "view",
      "type": "function"
    },
    {
      "inputs": [],
      "name": "pendingDefaultAdmin",
      "outputs": [
        {
          "internalType": "address",
          "name": "newAdmin",
          "type": "address"
        },
        {
          "internalType": "uint48",
          "name": "schedule",
          "type": "uint48"
        }
      ],
      "stateMutability": "view",
      "type": "function"
    },
    {
      "inputs": [],
      "name": "pendingDefaultAdminDelay",
      "outputs": [
        {
          "internalType": "uint48",
          "name": "newDelay",
          "type": "uint48"
        },
        {
          "internalType": "uint48",
          "name": "schedule",
          "type": "uint48"
        }
      ],
      "stateMutability": "view",
      "type": "function"
    },
    {
      "inputs": [
        {
          "internalType": "address",
          "name": "owner",
          "type": "address"
        },
        {
          "internalType": "address",
          "name": "spender",
          "type": "address"
        },
        {
          "internalType": "uint256",
          "name": "value",
          "type": "uint256"
        },
        {
          "internalType": "uint256",
          "name": "deadline",
          "type": "uint256"
        },
        {
          "internalType": "uint8",
          "name": "v",
          "type": "uint8"
        },
        {
          "internalType": "bytes32",
          "name": "r",
          "type": "bytes32"
        },
        {
          "internalType": "bytes32",
          "name": "s",
          "type": "bytes32"
        }
      ],
      "name": "permit",
      "outputs": [],
      "stateMutability": "nonpayable",
      "type": "function"
    },
    {
      "inputs": [
        {
          "internalType": "bytes32",
          "name": "role",
          "type": "bytes32"
        },
        {
          "internalType": "address",
          "name": "account",
          "type": "address"
        }
      ],
      "name": "renounceRole",
      "outputs": [],
      "stateMutability": "nonpayable",
      "type": "function"
    },
    {
      "inputs": [
        {
          "internalType": "bytes32",
          "name": "role",
          "type": "bytes32"
        },
        {
          "internalType": "address",
          "name": "account",
          "type": "address"
        }
      ],
      "name": "revokeRole",
      "outputs": [],
      "stateMutability": "nonpayable",
      "type": "function"
    },
    {
      "inputs": [],
      "name": "rollbackDefaultAdminDelay",
      "outputs": [],
      "stateMutability": "nonpayable",
      "type": "function"
    },
    {
      "inputs": [
        {
          "internalType": "bytes4",
          "name": "interfaceId",
          "type": "bytes4"
        }
      ],
      "name": "supportsInterface",
      "outputs": [
        {
          "internalType": "bool",
          "name": "",
          "type": "bool"
        }
      ],
      "stateMutability": "view",
      "type": "function"
    },
    {
      "inputs": [],
      "name": "symbol",
      "outputs": [
        {
          "internalType": "string",
          "name": "",
          "type": "string"
        }
      ],
      "stateMutability": "view",
      "type": "function"
    },
    {
      "inputs": [],
      "name": "totalSupply",
      "outputs": [
        {
          "internalType": "uint256",
          "name": "",
          "type": "uint256"
        }
      ],
      "stateMutability": "view",
      "type": "function"
    },
    {
      "inputs": [
        {
          "internalType": "address",
          "name": "to",
          "type": "address"
        },
        {
          "internalType": "uint256",
          "name": "value",
          "type": "uint256"
        }
      ],
      "name": "transfer",
      "outputs": [
        {
          "internalType": "bool",
          "name": "",
          "type": "bool"
        }
      ],
      "stateMutability": "nonpayable",
      "type": "function"
    },
    {
      "inputs": [
        {
          "internalType": "address",
          "name": "from",
          "type": "address"
        },
        {
          "internalType": "address",
          "name": "to",
          "type": "address"
        },
        {
          "internalType": "uint256",
          "name": "value",
          "type": "uint256"
        }
      ],
      "name": "transferFrom",
      "outputs": [
        {
          "internalType": "bool",
          "name": "",
          "type": "bool"
        }
      ],
      "stateMutability": "nonpayable",
      "type": "function"
    },
    {
      "inputs": [
        {
          "internalType": "address",
          "name": "_erc20TransferRestrictor",
          "type": "address"
        }
      ],
      "name": "updateErc20TransferRestrictor",
      "outputs": [],
      "stateMutability": "nonpayable",
      "type": "function"
    }
  ],
  "bytecode": "0x61016060405261dead600b60006101000a81548173ffffffffffffffffffffffffffffffffffffffff021916908373ffffffffffffffffffffffffffffffffffffffff1602179055506000600b60146101000a81548160ff02191690831515021790555034801561006f57600080fd5b5060405161514d38038061514d83398181016040528101906100919190610e21565b8282620697803383806040518060400160405280600181526020017f3100000000000000000000000000000000000000000000000000000000000000815250868681600390816100e191906110e9565b5080600490816100f191906110e9565b5050506101086005836104a260201b90919060201c565b61012081815250506101246006826104a260201b90919060201c565b6101408181525050818051906020012060e08181525050808051906020012061010081815250504660a081815250506101616104f260201b60201c565b608081815250503073ffffffffffffffffffffffffffffffffffffffff1660c08173ffffffffffffffffffffffffffffffffffffffff1681525050505050600073ffffffffffffffffffffffffffffffffffffffff168173ffffffffffffffffffffffffffffffffffffffff16036102115760006040517fc22c802200000000000000000000000000000000000000000000000000000000815260040161020891906111ca565b60405180910390fd5b816009601a6101000a81548165ffffffffffff021916908365ffffffffffff1602179055506102496000801b8261054d60201b60201c565b5050505050600061025e61062660201b60201c565b9050600081600a61026f9190611354565b905060005b835181101561049757600073ffffffffffffffffffffffffffffffffffffffff168482815181106102a8576102a761139f565b5b60200260200101516000015173ffffffffffffffffffffffffffffffffffffffff160361030a576040517f08c379a00000000000000000000000000000000000000000000000000000000081526004016103019061142b565b60405180910390fd5b600084828151811061031f5761031e61139f565b5b6020026020010151602001516fffffffffffffffffffffffffffffffff161161037d576040517f08c379a000000000000000000000000000000000000000000000000000000000815260040161037490611497565b60405180910390fd5b817fffffffffffffffffffffffffffffffffffffffffffffffffffffffffffffffff6103a991906114e6565b8482815181106103bc576103bb61139f565b5b6020026020010151602001516fffffffffffffffffffffffffffffffff16111561041b576040517f08c379a000000000000000000000000000000000000000000000000000000000815260040161041290611563565b60405180910390fd5b6000828583815181106104315761043061139f565b5b6020026020010151602001516fffffffffffffffffffffffffffffffff166104599190611583565b90506104898583815181106104715761047061139f565b5b6020026020010151600001518261062f60201b60201c565b508080600101915050610274565b5050505050506117b8565b60006020835110156104c4576104bd836106b760201b60201c565b90506104ec565b826104d48361071f60201b60201c565b60000190816104e391906110e9565b5060ff60001b90505b92915050565b60007f8b73c3c69bb8fe3d512ecc4cf759cc79239f7b179b0ffacaa9a75d522b39400f60e0516101005146306040516020016105329594939291906115ed565b60405160208183030381529060405280519060200120905090565b60008060001b830361060e57600073ffffffffffffffffffffffffffffffffffffffff1661057f61072960201b60201c565b73ffffffffffffffffffffffffffffffffffffffff16146105cc576040517f3fc3c27a00000000000000000000000000000000000000000000000000000000815260040160405180910390fd5b81600a60006101000a81548173ffffffffffffffffffffffffffffffffffffffff021916908373ffffffffffffffffffffffffffffffffffffffff1602179055505b61061e838361075360201b60201c565b905092915050565b6000600c905090565b600073ffffffffffffffffffffffffffffffffffffffff168273ffffffffffffffffffffffffffffffffffffffff16036106a15760006040517fec442f0500000000000000000000000000000000000000000000000000000000815260040161069891906111ca565b60405180910390fd5b6106b36000838361085160201b60201c565b5050565b600080829050601f8151111561070457826040517f305a27a90000000000000000000000000000000000000000000000000000000081526004016106fb9190611679565b60405180910390fd5b805181610710906116cb565b60001c1760001b915050919050565b6000819050919050565b6000600a60009054906101000a900473ffffffffffffffffffffffffffffffffffffffff16905090565b60006107658383610a7660201b60201c565b6108465760016008600085815260200190815260200160002060000160008473ffffffffffffffffffffffffffffffffffffffff1673ffffffffffffffffffffffffffffffffffffffff16815260200190815260200160002060006101000a81548160ff0219169083151502179055506107e3610ae160201b60201c565b73ffffffffffffffffffffffffffffffffffffffff168273ffffffffffffffffffffffffffffffffffffffff16847f2f8788117e7eff1d82e926ec794901d17c78024a50270940304540a733656f0d60405160405180910390a46001905061084b565b600090505b92915050565b600073ffffffffffffffffffffffffffffffffffffffff168373ffffffffffffffffffffffffffffffffffffffff16036108a35780600260008282546108979190611732565b92505081905550610976565b60008060008573ffffffffffffffffffffffffffffffffffffffff1673ffffffffffffffffffffffffffffffffffffffff1681526020019081526020016000205490508181101561092f578381836040517fe450d38c00000000000000000000000000000000000000000000000000000000815260040161092693929190611766565b60405180910390fd5b8181036000808673ffffffffffffffffffffffffffffffffffffffff1673ffffffffffffffffffffffffffffffffffffffff16815260200190815260200160002081905550505b600073ffffffffffffffffffffffffffffffffffffffff168273ffffffffffffffffffffffffffffffffffffffff16036109bf5780600260008282540392505081905550610a0c565b806000808473ffffffffffffffffffffffffffffffffffffffff1673ffffffffffffffffffffffffffffffffffffffff168152602001908152602001600020600082825401925050819055505b8173ffffffffffffffffffffffffffffffffffffffff168373ffffffffffffffffffffffffffffffffffffffff167fddf252ad1be2c89b69c2b068fc378daa952ba7f163c4a11628f55a4df523b3ef83604051610a69919061179d565b60405180910390a3505050565b60006008600084815260200190815260200160002060000160008373ffffffffffffffffffffffffffffffffffffffff1673ffffffffffffffffffffffffffffffffffffffff16815260200190815260200160002060009054906101000a900460ff16905092915050565b600033905090565b6000604051905090565b600080fd5b600080fd5b600080fd5b600080fd5b6000601f19601f8301169050919050565b7f4e487b7100000000000000000000000000000000000000000000000000000000600052604160045260246000fd5b610b5082610b07565b810181811067ffffffffffffffff82111715610b6f57610b6e610b18565b5b80604052505050565b6000610b82610ae9565b9050610b8e8282610b47565b919050565b600067ffffffffffffffff821115610bae57610bad610b18565b5b610bb782610b07565b9050602081019050919050565b60005b83811015610be2578082015181840152602081019050610bc7565b60008484015250505050565b6000610c01610bfc84610b93565b610b78565b905082815260208101848484011115610c1d57610c1c610b02565b5b610c28848285610bc4565b509392505050565b600082601f830112610c4557610c44610afd565b5b8151610c55848260208601610bee565b91505092915050565b600067ffffffffffffffff821115610c7957610c78610b18565b5b602082029050602081019050919050565b600080fd5b600080fd5b600073ffffffffffffffffffffffffffffffffffffffff82169050919050565b6000610cbf82610c94565b9050919050565b610ccf81610cb4565b8114610cda57600080fd5b50565b600081519050610cec81610cc6565b92915050565b60006fffffffffffffffffffffffffffffffff82169050919050565b610d1781610cf2565b8114610d2257600080fd5b50565b600081519050610d3481610d0e565b92915050565b600060408284031215610d5057610d4f610c8f565b5b610d5a6040610b78565b90506000610d6a84828501610cdd565b6000830152506020610d7e84828501610d25565b60208301525092915050565b6000610d9d610d9884610c5e565b610b78565b90508083825260208201905060408402830185811115610dc057610dbf610c8a565b5b835b81811015610de95780610dd58882610d3a565b845260208401935050604081019050610dc2565b5050509392505050565b600082601f830112610e0857610e07610afd565b5b8151610e18848260208601610d8a565b91505092915050565b600080600060608486031215610e3a57610e39610af3565b5b600084015167ffffffffffffffff811115610e5857610e57610af8565b5b610e6486828701610c30565b935050602084015167ffffffffffffffff811115610e8557610e84610af8565b5b610e9186828701610c30565b925050604084015167ffffffffffffffff811115610eb257610eb1610af8565b5b610ebe86828701610df3565b9150509250925092565b600081519050919050565b7f4e487b7100000000000000000000000000000000000000000000000000000000600052602260045260246000fd5b60006002820490506001821680610f1a57607f821691505b602082108103610f2d57610f2c610ed3565b5b50919050565b60008190508160005260206000209050919050565b60006020601f8301049050919050565b600082821b905092915050565b600060088302610f957fffffffffffffffffffffffffffffffffffffffffffffffffffffffffffffffff82610f58565b610f9f8683610f58565b95508019841693508086168417925050509392505050565b6000819050919050565b6000819050919050565b6000610fe6610fe1610fdc84610fb7565b610fc1565b610fb7565b9050919050565b6000819050919050565b61100083610fcb565b61101461100c82610fed565b848454610f65565b825550505050565b600090565b61102961101c565b611034818484610ff7565b505050565b5b818110156110585761104d600082611021565b60018101905061103a565b5050565b601f82111561109d5761106e81610f33565b61107784610f48565b81016020851015611086578190505b61109a61109285610f48565b830182611039565b50505b505050565b600082821c905092915050565b60006110c0600019846008026110a2565b1980831691505092915050565b60006110d983836110af565b9150826002028217905092915050565b6110f282610ec8565b67ffffffffffffffff81111561110b5761110a610b18565b5b6111158254610f02565b61112082828561105c565b600060209050601f8311600181146111535760008415611141578287015190505b61114b85826110cd565b8655506111b3565b601f19841661116186610f33565b60005b8281101561118957848901518255600182019150602085019450602081019050611164565b868310156111a657848901516111a2601f8916826110af565b8355505b6001600288020188555050505b505050505050565b6111c481610cb4565b82525050565b60006020820190506111df60008301846111bb565b92915050565b7f4e487b7100000000000000000000000000000000000000000000000000000000600052601160045260246000fd5b60008160011c9050919050565b6000808291508390505b600185111561126b57808604811115611247576112466111e5565b5b60018516156112565780820291505b808102905061126485611214565b945061122b565b94509492505050565b6000826112845760019050611340565b816112925760009050611340565b81600181146112a857600281146112b2576112e1565b6001915050611340565b60ff8411156112c4576112c36111e5565b5b8360020a9150848211156112db576112da6111e5565b5b50611340565b5060208310610133831016604e8410600b84101617156113165782820a905083811115611311576113106111e5565b5b611340565b6113238484846001611221565b9250905081840481111561133a576113396111e5565b5b81810290505b9392505050565b600060ff82169050919050565b600061135f82610fb7565b915061136a83611347565b92506113977fffffffffffffffffffffffffffffffffffffffffffffffffffffffffffffffff8484611274565b905092915050565b7f4e487b7100000000000000000000000000000000000000000000000000000000600052603260045260246000fd5b600082825260208201905092915050565b7f496e76616c696420616464726573730000000000000000000000000000000000600082015250565b6000611415600f836113ce565b9150611420826113df565b602082019050919050565b6000602082019050818103600083015261144481611408565b9050919050565b7f416d6f756e74206d7573742062652067726561746572207468616e2030000000600082015250565b6000611481601d836113ce565b915061148c8261144b565b602082019050919050565b600060208201905081810360008301526114b081611474565b9050919050565b7f4e487b7100000000000000000000000000000000000000000000000000000000600052601260045260246000fd5b60006114f182610fb7565b91506114fc83610fb7565b92508261150c5761150b6114b7565b5b828204905092915050565b7f416d6f756e7420746f6f206c6172676500000000000000000000000000000000600082015250565b600061154d6010836113ce565b915061155882611517565b602082019050919050565b6000602082019050818103600083015261157c81611540565b9050919050565b600061158e82610fb7565b915061159983610fb7565b92508282026115a781610fb7565b915082820484148315176115be576115bd6111e5565b5b5092915050565b6000819050919050565b6115d8816115c5565b82525050565b6115e781610fb7565b82525050565b600060a08201905061160260008301886115cf565b61160f60208301876115cf565b61161c60408301866115cf565b61162960608301856115de565b61163660808301846111bb565b9695505050505050565b600061164b82610ec8565b61165581856113ce565b9350611665818560208601610bc4565b61166e81610b07565b840191505092915050565b600060208201905081810360008301526116938184611640565b905092915050565b600081519050919050565b6000819050602082019050919050565b60006116c282516115c5565b80915050919050565b60006116d68261169b565b826116e0846116a6565b90506116eb816116b6565b9250602082101561172b576117267fffffffffffffffffffffffffffffffffffffffffffffffffffffffffffffffff83602003600802610f58565b831692505b5050919050565b600061173d82610fb7565b915061174883610fb7565b92508282019050808211156117605761175f6111e5565b5b92915050565b600060608201905061177b60008301866111bb565b61178860208301856115de565b61179560408301846115de565b949350505050565b60006020820190506117b260008301846115de565b92915050565b60805160a05160c05160e05161010051610120516101405161393b611812600039600061195b01526000611920015260006123a20152600061238101526000611695015260006116eb01526000611714015261393b6000f3fe608060405234801561001057600080fd5b506004361061021c5760003560e01c806370a0823111610125578063a217fddf116100ad578063cf6eefb71161007c578063cf6eefb714610624578063d505accf14610643578063d547741f1461065f578063d602b9fd1461067b578063dd62ed3e146106855761021c565b8063a217fddf146105ae578063a9059cbb146105cc578063cc8463c8146105fc578063cefc14291461061a5761021c565b806384ef8ffc116100f457806384ef8ffc146105055780638da5cb5b1461052357806391d148541461054157806395d89b4114610571578063a1eda53c1461058f5761021c565b806370a082311461046357806377fe0970146104935780637ecebe00146104b157806384b0196e146104e15761021c565b80632b8c49e3116101a857806336568abe1161017757806336568abe146103d55780634b6f556c146103f1578063634e93da1461040f578063649a5ec71461042b578063673cf952146104475761021c565b80632b8c49e3146103615780632f2ff15d1461037d578063313ce567146103995780633644e515146103b75761021c565b80630aa6220b116101ef5780630aa6220b146102bd57806318160ddd146102c757806318bf5077146102e557806323b872dd14610301578063248a9ca3146103315761021c565b806301ffc9a714610221578063022d63fb1461025157806306fdde031461026f578063095ea7b31461028d575b600080fd5b61023b60048036038101906102369190612d51565b6106b5565b6040516102489190612d99565b60405180910390f35b6102596106c7565b6040516102669190612dd5565b60405180910390f35b6102776106d2565b6040516102849190612e80565b60405180910390f35b6102a760048036038101906102a29190612f36565b610764565b6040516102b49190612d99565b60405180910390f35b6102c5610787565b005b6102cf61079f565b6040516102dc9190612f85565b60405180910390f35b6102ff60048036038101906102fa9190612f36565b6107a9565b005b61031b60048036038101906103169190612fa0565b61082c565b6040516103289190612d99565b60405180910390f35b61034b60048036038101906103469190613029565b610933565b6040516103589190613065565b60405180910390f35b61037b60048036038101906103769190612f36565b610953565b005b61039760048036038101906103929190613080565b6109d6565b005b6103a1610a20565b6040516103ae91906130dc565b60405180910390f35b6103bf610a29565b6040516103cc9190613065565b60405180910390f35b6103ef60048036038101906103ea9190613080565b610a38565b005b6103f9610b4d565b6040516104069190613065565b60405180910390f35b610429600480360381019061042491906130f7565b610b71565b005b61044560048036038101906104409190613150565b610b8b565b005b610461600480360381019061045c91906130f7565b610ba5565b005b61047d600480360381019061047891906130f7565b610cd9565b60405161048a9190612f85565b60405180910390f35b61049b610d21565b6040516104a89190613065565b60405180910390f35b6104cb60048036038101906104c691906130f7565b610d45565b6040516104d89190612f85565b60405180910390f35b6104e9610d57565b6040516104fc9796959493929190613285565b60405180910390f35b61050d610e01565b60405161051a9190613309565b60405180910390f35b61052b610e2b565b6040516105389190613309565b60405180910390f35b61055b60048036038101906105569190613080565b610e3a565b6040516105689190612d99565b60405180910390f35b610579610ea5565b6040516105869190612e80565b60405180910390f35b610597610f37565b6040516105a5929190613324565b60405180910390f35b6105b6610f97565b6040516105c39190613065565b60405180910390f35b6105e660048036038101906105e19190612f36565b610f9e565b6040516105f39190612d99565b60405180910390f35b6106046110a3565b6040516106119190612dd5565b60405180910390f35b610622611111565b005b61062c6111a7565b60405161063a92919061334d565b60405180910390f35b61065d600480360381019061065891906133a2565b6111ea565b005b61067960048036038101906106749190613080565b611332565b005b61068361137c565b005b61069f600480360381019061069a9190613444565b611394565b6040516106ac9190612f85565b60405180910390f35b60006106c08261141b565b9050919050565b600062069780905090565b6060600380546106e1906134b3565b80601f016020809104026020016040519081016040528092919081815260200182805461070d906134b3565b801561075a5780601f1061072f5761010080835404028352916020019161075a565b820191906000526020600020905b81548152906001019060200180831161073d57829003601f168201915b5050505050905090565b60008061076f611495565b905061077c81858561149d565b600191505092915050565b6000801b610794816114af565b61079c6114c3565b50565b6000600254905090565b6107b2336114d0565b6107bc828261153c565b6107c4611495565b73ffffffffffffffffffffffffffffffffffffffff168273ffffffffffffffffffffffffffffffffffffffff167fde22baff038e3a3e08407cbdf617deed74e869a7ba517df611e33131c6e6ea04836040516108209190612f85565b60405180910390a35050565b6000838383600b60149054906101000a900460ff1661091c57600b60009054906101000a900473ffffffffffffffffffffffffffffffffffffffff1673ffffffffffffffffffffffffffffffffffffffff1663f7ebc39a8484846040518463ffffffff1660e01b81526004016108a4939291906134e4565b602060405180830381865afa1580156108c1573d6000803e3d6000fd5b505050506040513d601f19601f820116820180604052508101906108e59190613547565b61091b576040517fe827105e00000000000000000000000000000000000000000000000000000000815260040160405180910390fd5b5b6109278787876115be565b93505050509392505050565b600060086000838152602001908152602001600020600101549050919050565b61095c336114d0565b61096682826115ed565b61096e611495565b73ffffffffffffffffffffffffffffffffffffffff168273ffffffffffffffffffffffffffffffffffffffff167fb90795a66650155983e242cac3e1ac1a4dc26f8ed2987f3ce416a34e00111fd4836040516109ca9190612f85565b60405180910390a35050565b6000801b8203610a12576040517f3fc3c27a00000000000000000000000000000000000000000000000000000000815260040160405180910390fd5b610a1c828261166f565b5050565b6000600c905090565b6000610a33611691565b905090565b6000801b82148015610a7c5750610a4d610e01565b73ffffffffffffffffffffffffffffffffffffffff168173ffffffffffffffffffffffffffffffffffffffff16145b15610b3f57600080610a8c6111a7565b91509150600073ffffffffffffffffffffffffffffffffffffffff168273ffffffffffffffffffffffffffffffffffffffff16141580610ad25750610ad081611748565b155b80610ae35750610ae18161175d565b155b15610b2557806040517f19ca5ebb000000000000000000000000000000000000000000000000000000008152600401610b1c9190612dd5565b60405180910390fd5b600960146101000a81549065ffffffffffff021916905550505b610b498282611771565b5050565b7f21a6e99c7a4b091041cf86a1445e6a86b27310f027e35beee9952395b383f47881565b6000801b610b7e816114af565b610b87826117ec565b5050565b6000801b610b98816114af565b610ba182611867565b5050565b7f4b82237e826284a64485c34869df77d9e0dd21a05283654e359749ef7a99e0e4610bcf816114af565b8173ffffffffffffffffffffffffffffffffffffffff16600b60009054906101000a900473ffffffffffffffffffffffffffffffffffffffff1673ffffffffffffffffffffffffffffffffffffffff167fde8ba322ead78a2cc96c88e0ee8e116043624f488fd24a107f4c33f0b409846560405160405180910390a381600b60006101000a81548173ffffffffffffffffffffffffffffffffffffffff021916908373ffffffffffffffffffffffffffffffffffffffff160217905550600073ffffffffffffffffffffffffffffffffffffffff168273ffffffffffffffffffffffffffffffffffffffff1614600b60146101000a81548160ff0219169083151502179055505050565b60008060008373ffffffffffffffffffffffffffffffffffffffff1673ffffffffffffffffffffffffffffffffffffffff168152602001908152602001600020549050919050565b7f4b82237e826284a64485c34869df77d9e0dd21a05283654e359749ef7a99e0e481565b6000610d50826118ce565b9050919050565b600060608060008060006060610d6b611917565b610d73611952565b46306000801b600067ffffffffffffffff811115610d9457610d93613574565b5b604051908082528060200260200182016040528015610dc25781602001602082028036833780820191505090505b507f0f00000000000000000000000000000000000000000000000000000000000000959493929190965096509650965096509650965090919293949596565b6000600a60009054906101000a900473ffffffffffffffffffffffffffffffffffffffff16905090565b6000610e35610e01565b905090565b60006008600084815260200190815260200160002060000160008373ffffffffffffffffffffffffffffffffffffffff1673ffffffffffffffffffffffffffffffffffffffff16815260200190815260200160002060009054906101000a900460ff16905092915050565b606060048054610eb4906134b3565b80601f0160208091040260200160405190810160405280929190818152602001828054610ee0906134b3565b8015610f2d5780601f10610f0257610100808354040283529160200191610f2d565b820191906000526020600020905b815481529060010190602001808311610f1057829003601f168201915b5050505050905090565b600080600a601a9054906101000a900465ffffffffffff169050610f5a81611748565b8015610f6c5750610f6a8161175d565b155b610f7857600080610f8f565b600a60149054906101000a900465ffffffffffff16815b915091509091565b6000801b81565b6000338383600b60149054906101000a900460ff1661108e57600b60009054906101000a900473ffffffffffffffffffffffffffffffffffffffff1673ffffffffffffffffffffffffffffffffffffffff1663f7ebc39a8484846040518463ffffffff1660e01b8152600401611016939291906134e4565b602060405180830381865afa158015611033573d6000803e3d6000fd5b505050506040513d601f19601f820116820180604052508101906110579190613547565b61108d576040517fe827105e00000000000000000000000000000000000000000000000000000000815260040160405180910390fd5b5b611098868661198d565b935050505092915050565b600080600a601a9054906101000a900465ffffffffffff1690506110c681611748565b80156110d757506110d68161175d565b5b6110f5576009601a9054906101000a900465ffffffffffff1661110b565b600a60149054906101000a900465ffffffffffff165b91505090565b600061111b6111a7565b5090508073ffffffffffffffffffffffffffffffffffffffff1661113d611495565b73ffffffffffffffffffffffffffffffffffffffff161461119c57611160611495565b6040517fc22c80220000000000000000000000000000000000000000000000000000000081526004016111939190613309565b60405180910390fd5b6111a46119b0565b50565b600080600960009054906101000a900473ffffffffffffffffffffffffffffffffffffffff16600960149054906101000a900465ffffffffffff16915091509091565b8342111561122f57836040517f627913020000000000000000000000000000000000000000000000000000000081526004016112269190612f85565b60405180910390fd5b60007f6e71edae12b1b97f4d1f60370fef10105fa2faae0126114a169c64845d6126c988888861125e8c611a7f565b89604051602001611274969594939291906135a3565b604051602081830303815290604052805190602001209050600061129782611ad6565b905060006112a782878787611af0565b90508973ffffffffffffffffffffffffffffffffffffffff168173ffffffffffffffffffffffffffffffffffffffff161461131b57808a6040517f4b800e46000000000000000000000000000000000000000000000000000000008152600401611312929190613604565b60405180910390fd5b6113268a8a8a61149d565b50505050505050505050565b6000801b820361136e576040517f3fc3c27a00000000000000000000000000000000000000000000000000000000815260040160405180910390fd5b6113788282611b20565b5050565b6000801b611389816114af565b611391611b42565b50565b6000600160008473ffffffffffffffffffffffffffffffffffffffff1673ffffffffffffffffffffffffffffffffffffffff16815260200190815260200160002060008373ffffffffffffffffffffffffffffffffffffffff1673ffffffffffffffffffffffffffffffffffffffff16815260200190815260200160002054905092915050565b60007f31498786000000000000000000000000000000000000000000000000000000007bffffffffffffffffffffffffffffffffffffffffffffffffffffffff1916827bffffffffffffffffffffffffffffffffffffffffffffffffffffffff1916148061148e575061148d82611b4f565b5b9050919050565b600033905090565b6114aa8383836001611bc9565b505050565b6114c0816114bb611495565b611da0565b50565b6114ce600080611df1565b565b6114fa7f21a6e99c7a4b091041cf86a1445e6a86b27310f027e35beee9952395b383f47882610e3a565b611539576040517f08c379a000000000000000000000000000000000000000000000000000000000815260040161153090613679565b60405180910390fd5b50565b600073ffffffffffffffffffffffffffffffffffffffff168273ffffffffffffffffffffffffffffffffffffffff16036115ae5760006040517fec442f050000000000000000000000000000000000000000000000000000000081526004016115a59190613309565b60405180910390fd5b6115ba60008383611ee1565b5050565b6000806115c9611495565b90506115d6858285612106565b6115e185858561219b565b60019150509392505050565b600073ffffffffffffffffffffffffffffffffffffffff168273ffffffffffffffffffffffffffffffffffffffff160361165f5760006040517f96c6fd1e0000000000000000000000000000000000000000000000000000000081526004016116569190613309565b60405180910390fd5b61166b82600083611ee1565b5050565b61167882610933565b611681816114af565b61168b838361228f565b50505050565b60007f000000000000000000000000000000000000000000000000000000000000000073ffffffffffffffffffffffffffffffffffffffff163073ffffffffffffffffffffffffffffffffffffffff1614801561170d57507f000000000000000000000000000000000000000000000000000000000000000046145b1561173a577f00000000000000000000000000000000000000000000000000000000000000009050611745565b61174261235c565b90505b90565b6000808265ffffffffffff1614159050919050565b6000428265ffffffffffff16109050919050565b611779611495565b73ffffffffffffffffffffffffffffffffffffffff168173ffffffffffffffffffffffffffffffffffffffff16146117dd576040517f6697b23200000000000000000000000000000000000000000000000000000000815260040160405180910390fd5b6117e782826123f2565b505050565b60006117f66110a3565b6117ff42612475565b61180991906136c8565b905061181582826124cf565b8173ffffffffffffffffffffffffffffffffffffffff167f3377dc44241e779dd06afab5b788a35ca5f3b778836e2990bdb26a2a4b2e5ed68260405161185b9190612dd5565b60405180910390a25050565b600061187282612582565b61187b42612475565b61188591906136c8565b90506118918282611df1565b7ff1038c18cf84a56e432fdbfaf746924b7ea511dfe03a6506a0ceba4888788d9b82826040516118c2929190613324565b60405180910390a15050565b6000600760008373ffffffffffffffffffffffffffffffffffffffff1673ffffffffffffffffffffffffffffffffffffffff168152602001908152602001600020549050919050565b606061194d60057f00000000000000000000000000000000000000000000000000000000000000006125e190919063ffffffff16565b905090565b606061198860067f00000000000000000000000000000000000000000000000000000000000000006125e190919063ffffffff16565b905090565b600080611998611495565b90506119a581858561219b565b600191505092915050565b6000806119bb6111a7565b915091506119c881611748565b15806119da57506119d88161175d565b155b15611a1c57806040517f19ca5ebb000000000000000000000000000000000000000000000000000000008152600401611a139190612dd5565b60405180910390fd5b611a306000801b611a2b610e01565b6123f2565b50611a3e6000801b8361228f565b50600960006101000a81549073ffffffffffffffffffffffffffffffffffffffff0219169055600960146101000a81549065ffffffffffff02191690555050565b6000600760008373ffffffffffffffffffffffffffffffffffffffff1673ffffffffffffffffffffffffffffffffffffffff1681526020019081526020016000206000815480929190600101919050559050919050565b6000611ae9611ae3611691565b83612691565b9050919050565b600080600080611b02888888886126d2565b925092509250611b1282826127c6565b829350505050949350505050565b611b2982610933565b611b32816114af565b611b3c83836123f2565b50505050565b611b4d6000806124cf565b565b60007f7965db0b000000000000000000000000000000000000000000000000000000007bffffffffffffffffffffffffffffffffffffffffffffffffffffffff1916827bffffffffffffffffffffffffffffffffffffffffffffffffffffffff19161480611bc25750611bc18261292a565b5b9050919050565b600073ffffffffffffffffffffffffffffffffffffffff168473ffffffffffffffffffffffffffffffffffffffff1603611c3b5760006040517fe602df05000000000000000000000000000000000000000000000000000000008152600401611c329190613309565b60405180910390fd5b600073ffffffffffffffffffffffffffffffffffffffff168373ffffffffffffffffffffffffffffffffffffffff1603611cad5760006040517f94280d62000000000000000000000000000000000000000000000000000000008152600401611ca49190613309565b60405180910390fd5b81600160008673ffffffffffffffffffffffffffffffffffffffff1673ffffffffffffffffffffffffffffffffffffffff16815260200190815260200160002060008573ffffffffffffffffffffffffffffffffffffffff1673ffffffffffffffffffffffffffffffffffffffff168152602001908152602001600020819055508015611d9a578273ffffffffffffffffffffffffffffffffffffffff168473ffffffffffffffffffffffffffffffffffffffff167f8c5be1e5ebec7d5bd14f71427d1e84f3dd0314c0f7b2291e5b200ac8c7c3b92584604051611d919190612f85565b60405180910390a35b50505050565b611daa8282610e3a565b611ded5780826040517fe2517d3f000000000000000000000000000000000000000000000000000000008152600401611de4929190613702565b60405180910390fd5b5050565b6000600a601a9054906101000a900465ffffffffffff169050611e1381611748565b15611e9257611e218161175d565b15611e6457600a60149054906101000a900465ffffffffffff166009601a6101000a81548165ffffffffffff021916908365ffffffffffff160217905550611e91565b7f2b1fa2edafe6f7b9e97c1a9e0c3660e645beb2dcaa2d45bdbf9beaf5472e1ec560405160405180910390a15b5b82600a60146101000a81548165ffffffffffff021916908365ffffffffffff16021790555081600a601a6101000a81548165ffffffffffff021916908365ffffffffffff160217905550505050565b600073ffffffffffffffffffffffffffffffffffffffff168373ffffffffffffffffffffffffffffffffffffffff1603611f33578060026000828254611f27919061372b565b92505081905550612006565b60008060008573ffffffffffffffffffffffffffffffffffffffff1673ffffffffffffffffffffffffffffffffffffffff16815260200190815260200160002054905081811015611fbf578381836040517fe450d38c000000000000000000000000000000000000000000000000000000008152600401611fb69392919061375f565b60405180910390fd5b8181036000808673ffffffffffffffffffffffffffffffffffffffff1673ffffffffffffffffffffffffffffffffffffffff16815260200190815260200160002081905550505b600073ffffffffffffffffffffffffffffffffffffffff168273ffffffffffffffffffffffffffffffffffffffff160361204f578060026000828254039250508190555061209c565b806000808473ffffffffffffffffffffffffffffffffffffffff1673ffffffffffffffffffffffffffffffffffffffff168152602001908152602001600020600082825401925050819055505b8173ffffffffffffffffffffffffffffffffffffffff168373ffffffffffffffffffffffffffffffffffffffff167fddf252ad1be2c89b69c2b068fc378daa952ba7f163c4a11628f55a4df523b3ef836040516120f99190612f85565b60405180910390a3505050565b60006121128484611394565b90507fffffffffffffffffffffffffffffffffffffffffffffffffffffffffffffffff8110156121955781811015612185578281836040517ffb8f41b200000000000000000000000000000000000000000000000000000000815260040161217c9392919061375f565b60405180910390fd5b61219484848484036000611bc9565b5b50505050565b600073ffffffffffffffffffffffffffffffffffffffff168373ffffffffffffffffffffffffffffffffffffffff160361220d5760006040517f96c6fd1e0000000000000000000000000000000000000000000000000000000081526004016122049190613309565b60405180910390fd5b600073ffffffffffffffffffffffffffffffffffffffff168273ffffffffffffffffffffffffffffffffffffffff160361227f5760006040517fec442f050000000000000000000000000000000000000000000000000000000081526004016122769190613309565b60405180910390fd5b61228a838383611ee1565b505050565b60008060001b830361234a57600073ffffffffffffffffffffffffffffffffffffffff166122bb610e01565b73ffffffffffffffffffffffffffffffffffffffff1614612308576040517f3fc3c27a00000000000000000000000000000000000000000000000000000000815260040160405180910390fd5b81600a60006101000a81548173ffffffffffffffffffffffffffffffffffffffff021916908373ffffffffffffffffffffffffffffffffffffffff1602179055505b61235483836129a4565b905092915050565b60007f8b73c3c69bb8fe3d512ecc4cf759cc79239f7b179b0ffacaa9a75d522b39400f7f00000000000000000000000000000000000000000000000000000000000000007f000000000000000000000000000000000000000000000000000000000000000046306040516020016123d7959493929190613796565b60405160208183030381529060405280519060200120905090565b60008060001b831480156124385750612409610e01565b73ffffffffffffffffffffffffffffffffffffffff168273ffffffffffffffffffffffffffffffffffffffff16145b1561246357600a60006101000a81549073ffffffffffffffffffffffffffffffffffffffff02191690555b61246d8383612a96565b905092915050565b600065ffffffffffff80168211156124c7576030826040517f6dfcc6500000000000000000000000000000000000000000000000000000000081526004016124be92919061382e565b60405180910390fd5b819050919050565b60006124d96111a7565b91505082600960006101000a81548173ffffffffffffffffffffffffffffffffffffffff021916908373ffffffffffffffffffffffffffffffffffffffff16021790555081600960146101000a81548165ffffffffffff021916908365ffffffffffff16021790555061254b81611748565b1561257d577f8886ebfc4259abdbc16601dd8fb5678e54878f47b3c34836cfc51154a960510960405160405180910390a15b505050565b60008061258d6110a3565b90508065ffffffffffff168365ffffffffffff16116125b75782816125b29190613857565b6125d9565b6125d88365ffffffffffff166125cb6106c7565b65ffffffffffff16612b89565b5b915050919050565b606060ff60001b83146125fe576125f783612ba0565b905061268b565b81805461260a906134b3565b80601f0160208091040260200160405190810160405280929190818152602001828054612636906134b3565b80156126835780601f1061265857610100808354040283529160200191612683565b820191906000526020600020905b81548152906001019060200180831161266657829003601f168201915b505050505090505b92915050565b60006040517f190100000000000000000000000000000000000000000000000000000000000081528360028201528260228201526042812091505092915050565b60008060007f7fffffffffffffffffffffffffffffff5d576e7357a4501ddfe92f46681b20a08460001c11156127125760006003859250925092506127bc565b6000600188888888604051600081526020016040526040516127379493929190613891565b6020604051602081039080840390855afa158015612759573d6000803e3d6000fd5b505050602060405103519050600073ffffffffffffffffffffffffffffffffffffffff168173ffffffffffffffffffffffffffffffffffffffff16036127ad57600060016000801b935093509350506127bc565b8060008060001b935093509350505b9450945094915050565b600060038111156127da576127d96138d6565b5b8260038111156127ed576127ec6138d6565b5b03156129265760016003811115612807576128066138d6565b5b82600381111561281a576128196138d6565b5b03612851576040517ff645eedf00000000000000000000000000000000000000000000000000000000815260040160405180910390fd5b60026003811115612865576128646138d6565b5b826003811115612878576128776138d6565b5b036128bd578060001c6040517ffce698f70000000000000000000000000000000000000000000000000000000081526004016128b49190612f85565b60405180910390fd5b6003808111156128d0576128cf6138d6565b5b8260038111156128e3576128e26138d6565b5b0361292557806040517fd78bce0c00000000000000000000000000000000000000000000000000000000815260040161291c9190613065565b60405180910390fd5b5b5050565b60007f33331994000000000000000000000000000000000000000000000000000000007bffffffffffffffffffffffffffffffffffffffffffffffffffffffff1916827bffffffffffffffffffffffffffffffffffffffffffffffffffffffff1916148061299d575061299c82612c14565b5b9050919050565b60006129b08383610e3a565b612a8b5760016008600085815260200190815260200160002060000160008473ffffffffffffffffffffffffffffffffffffffff1673ffffffffffffffffffffffffffffffffffffffff16815260200190815260200160002060006101000a81548160ff021916908315150217905550612a28611495565b73ffffffffffffffffffffffffffffffffffffffff168273ffffffffffffffffffffffffffffffffffffffff16847f2f8788117e7eff1d82e926ec794901d17c78024a50270940304540a733656f0d60405160405180910390a460019050612a90565b600090505b92915050565b6000612aa28383610e3a565b15612b7e5760006008600085815260200190815260200160002060000160008473ffffffffffffffffffffffffffffffffffffffff1673ffffffffffffffffffffffffffffffffffffffff16815260200190815260200160002060006101000a81548160ff021916908315150217905550612b1b611495565b73ffffffffffffffffffffffffffffffffffffffff168273ffffffffffffffffffffffffffffffffffffffff16847ff6391f5c32d9c69d2a47ea670b442974b53935d1edc7fd64eb21e047a839171b60405160405180910390a460019050612b83565b600090505b92915050565b6000612b988284108484612c7e565b905092915050565b60606000612bad83612c98565b90506000602067ffffffffffffffff811115612bcc57612bcb613574565b5b6040519080825280601f01601f191660200182016040528015612bfe5781602001600182028036833780820191505090505b5090508181528360208201528092505050919050565b60007f01ffc9a7000000000000000000000000000000000000000000000000000000007bffffffffffffffffffffffffffffffffffffffffffffffffffffffff1916827bffffffffffffffffffffffffffffffffffffffffffffffffffffffff1916149050919050565b6000612c8984612ce8565b82841802821890509392505050565b60008060ff8360001c169050601f811115612cdf576040517fb3512b0c00000000000000000000000000000000000000000000000000000000815260040160405180910390fd5b80915050919050565b60008115159050919050565b600080fd5b60007fffffffff0000000000000000000000000000000000000000000000000000000082169050919050565b612d2e81612cf9565b8114612d3957600080fd5b50565b600081359050612d4b81612d25565b92915050565b600060208284031215612d6757612d66612cf4565b5b6000612d7584828501612d3c565b91505092915050565b60008115159050919050565b612d9381612d7e565b82525050565b6000602082019050612dae6000830184612d8a565b92915050565b600065ffffffffffff82169050919050565b612dcf81612db4565b82525050565b6000602082019050612dea6000830184612dc6565b92915050565b600081519050919050565b600082825260208201905092915050565b60005b83811015612e2a578082015181840152602081019050612e0f565b60008484015250505050565b6000601f19601f8301169050919050565b6000612e5282612df0565b612e5c8185612dfb565b9350612e6c818560208601612e0c565b612e7581612e36565b840191505092915050565b60006020820190508181036000830152612e9a8184612e47565b905092915050565b600073ffffffffffffffffffffffffffffffffffffffff82169050919050565b6000612ecd82612ea2565b9050919050565b612edd81612ec2565b8114612ee857600080fd5b50565b600081359050612efa81612ed4565b92915050565b6000819050919050565b612f1381612f00565b8114612f1e57600080fd5b50565b600081359050612f3081612f0a565b92915050565b60008060408385031215612f4d57612f4c612cf4565b5b6000612f5b85828601612eeb565b9250506020612f6c85828601612f21565b9150509250929050565b612f7f81612f00565b82525050565b6000602082019050612f9a6000830184612f76565b92915050565b600080600060608486031215612fb957612fb8612cf4565b5b6000612fc786828701612eeb565b9350506020612fd886828701612eeb565b9250506040612fe986828701612f21565b9150509250925092565b6000819050919050565b61300681612ff3565b811461301157600080fd5b50565b60008135905061302381612ffd565b92915050565b60006020828403121561303f5761303e612cf4565b5b600061304d84828501613014565b91505092915050565b61305f81612ff3565b82525050565b600060208201905061307a6000830184613056565b92915050565b6000806040838503121561309757613096612cf4565b5b60006130a585828601613014565b92505060206130b685828601612eeb565b9150509250929050565b600060ff82169050919050565b6130d6816130c0565b82525050565b60006020820190506130f160008301846130cd565b92915050565b60006020828403121561310d5761310c612cf4565b5b600061311b84828501612eeb565b91505092915050565b61312d81612db4565b811461313857600080fd5b50565b60008135905061314a81613124565b92915050565b60006020828403121561316657613165612cf4565b5b60006131748482850161313b565b91505092915050565b60007fff0000000000000000000000000000000000000000000000000000000000000082169050919050565b6131b28161317d565b82525050565b6131c181612ec2565b82525050565b600081519050919050565b600082825260208201905092915050565b6000819050602082019050919050565b6131fc81612f00565b82525050565b600061320e83836131f3565b60208301905092915050565b6000602082019050919050565b6000613232826131c7565b61323c81856131d2565b9350613247836131e3565b8060005b8381101561327857815161325f8882613202565b975061326a8361321a565b92505060018101905061324b565b5085935050505092915050565b600060e08201905061329a600083018a6131a9565b81810360208301526132ac8189612e47565b905081810360408301526132c08188612e47565b90506132cf6060830187612f76565b6132dc60808301866131b8565b6132e960a0830185613056565b81810360c08301526132fb8184613227565b905098975050505050505050565b600060208201905061331e60008301846131b8565b92915050565b60006040820190506133396000830185612dc6565b6133466020830184612dc6565b9392505050565b600060408201905061336260008301856131b8565b61336f6020830184612dc6565b9392505050565b61337f816130c0565b811461338a57600080fd5b50565b60008135905061339c81613376565b92915050565b600080600080600080600060e0888a0312156133c1576133c0612cf4565b5b60006133cf8a828b01612eeb565b97505060206133e08a828b01612eeb565b96505060406133f18a828b01612f21565b95505060606134028a828b01612f21565b94505060806134138a828b0161338d565b93505060a06134248a828b01613014565b92505060c06134358a828b01613014565b91505092959891949750929550565b6000806040838503121561345b5761345a612cf4565b5b600061346985828601612eeb565b925050602061347a85828601612eeb565b9150509250929050565b7f4e487b7100000000000000000000000000000000000000000000000000000000600052602260045260246000fd5b600060028204905060018216806134cb57607f821691505b6020821081036134de576134dd613484565b5b50919050565b60006060820190506134f960008301866131b8565b61350660208301856131b8565b6135136040830184612f76565b949350505050565b61352481612d7e565b811461352f57600080fd5b50565b6000815190506135418161351b565b92915050565b60006020828403121561355d5761355c612cf4565b5b600061356b84828501613532565b91505092915050565b7f4e487b7100000000000000000000000000000000000000000000000000000000600052604160045260246000fd5b600060c0820190506135b86000830189613056565b6135c560208301886131b8565b6135d260408301876131b8565b6135df6060830186612f76565b6135ec6080830185612f76565b6135f960a0830184612f76565b979650505050505050565b600060408201905061361960008301856131b8565b61362660208301846131b8565b9392505050565b7f41637545524332303a2063616c6c6572206973206e6f74206120627269646765600082015250565b6000613663602083612dfb565b915061366e8261362d565b602082019050919050565b6000602082019050818103600083015261369281613656565b9050919050565b7f4e487b7100000000000000000000000000000000000000000000000000000000600052601160045260246000fd5b60006136d382612db4565b91506136de83612db4565b9250828201905065ffffffffffff8111156136fc576136fb613699565b5b92915050565b600060408201905061371760008301856131b8565b6137246020830184613056565b9392505050565b600061373682612f00565b915061374183612f00565b925082820190508082111561375957613758613699565b5b92915050565b600060608201905061377460008301866131b8565b6137816020830185612f76565b61378e6040830184612f76565b949350505050565b600060a0820190506137ab6000830188613056565b6137b86020830187613056565b6137c56040830186613056565b6137d26060830185612f76565b6137df60808301846131b8565b9695505050505050565b6000819050919050565b6000819050919050565b600061381861381361380e846137e9565b6137f3565b6130c0565b9050919050565b613828816137fd565b82525050565b6000604082019050613843600083018561381f565b6138506020830184612f76565b9392505050565b600061386282612db4565b915061386d83612db4565b9250828203905065ffffffffffff81111561388b5761388a613699565b5b92915050565b60006080820190506138a66000830187613056565b6138b360208301866130cd565b6138c06040830185613056565b6138cd6060830184613056565b95945050505050565b7f4e487b7100000000000000000000000000000000000000000000000000000000600052602160045260246000fdfea2646970667358221220adbdf0bebbf724a30d6e03354e42488b092d10bc95a5194a58512574021b723d64736f6c634300081c0033",
  "linkReferences": {},
  "deployedLinkReferences": {}
}