{
  "_format": "hh-sol-artifact-1",
  "contractName": "HyperdriveTokenBridge",
  "sourceName": "contracts/bridge/HyperdriveTokenBridge.sol",
  "abi": [
    {
      "inputs": [
        {
          "internalType": "address",
          "name": "_token",
          "type": "address"
        },
        {
          "internalType": "address",
          "name": "_ibcContract",
          "type": "address"
        },
        {
          "internalType": "bytes32",
          "name": "_tokenPalletAccount",
          "type": "bytes32"
        },
        {
          "internalType": "address",
          "name": "_owner",
          "type": "address"
        }
      ],
      "stateMutability": "nonpayable",
      "type": "constructor"
    },
    {
      "inputs": [
        {
          "internalType": "address",
          "name": "owner",
          "type": "address"
        }
      ],
      "name": "OwnableInvalidOwner",
      "type": "error"
    },
    {
      "inputs": [
        {
          "internalType": "address",
          "name": "account",
          "type": "address"
        }
      ],
      "name": "OwnableUnauthorizedAccount",
      "type": "error"
    },
    {
      "anonymous": false,
      "inputs": [
        {
          "indexed": true,
          "internalType": "address",
          "name": "oldAddress",
          "type": "address"
        },
        {
          "indexed": true,
          "internalType": "address",
          "name": "newAddress",
          "type": "address"
        }
      ],
      "name": "IbcContractUpdated",
      "type": "event"
    },
    {
      "anonymous": false,
      "inputs": [
        {
          "indexed": true,
          "internalType": "uint256",
          "name": "oldTTL",
          "type": "uint256"
        },
        {
          "indexed": true,
          "internalType": "uint256",
          "name": "newTTL",
          "type": "uint256"
        }
      ],
      "name": "OutgoingTTLUpdated",
      "type": "event"
    },
    {
      "anonymous": false,
      "inputs": [
        {
          "indexed": true,
          "internalType": "address",
          "name": "previousOwner",
          "type": "address"
        },
        {
          "indexed": true,
          "internalType": "address",
          "name": "newOwner",
          "type": "address"
        }
      ],
      "name": "OwnershipTransferred",
      "type": "event"
    },
    {
      "anonymous": false,
      "inputs": [
        {
          "indexed": true,
          "internalType": "bytes32",
          "name": "oldAddress",
          "type": "bytes32"
        },
        {
          "indexed": true,
          "internalType": "bytes32",
          "name": "newAddress",
          "type": "bytes32"
        }
      ],
      "name": "TokenPalletAccountUpdated",
      "type": "event"
    },
    {
      "anonymous": false,
      "inputs": [
        {
          "indexed": false,
          "internalType": "uint256",
          "name": "amount",
          "type": "uint256"
        },
        {
          "indexed": true,
          "internalType": "address",
          "name": "dest",
          "type": "address"
        },
        {
          "indexed": false,
          "internalType": "uint64",
          "name": "transferNonce",
          "type": "uint64"
        }
      ],
      "name": "TransferReceived",
      "type": "event"
    },
    {
      "anonymous": false,
      "inputs": [
        {
          "indexed": true,
          "internalType": "bool",
          "name": "restricted",
          "type": "bool"
        },
        {
          "indexed": true,
          "internalType": "address",
          "name": "restrictorAddress",
          "type": "address"
        }
      ],
      "name": "TransferRestrictionsUpdated",
      "type": "event"
    },
    {
      "anonymous": false,
      "inputs": [
        {
          "indexed": false,
          "internalType": "uint128",
          "name": "amount",
          "type": "uint128"
        },
        {
          "indexed": false,
          "internalType": "uint256",
          "name": "fee",
          "type": "uint256"
        },
        {
          "indexed": true,
          "internalType": "bytes32",
          "name": "dest",
          "type": "bytes32"
        },
        {
          "indexed": false,
          "internalType": "uint64",
          "name": "transferNonce",
          "type": "uint64"
        }
      ],
      "name": "TransferRetried",
      "type": "event"
    },
    {
      "anonymous": false,
      "inputs": [
        {
          "indexed": false,
          "internalType": "uint128",
          "name": "amount",
          "type": "uint128"
        },
        {
          "indexed": false,
          "internalType": "uint256",
          "name": "fee",
          "type": "uint256"
        },
        {
          "indexed": true,
          "internalType": "bytes32",
          "name": "dest",
          "type": "bytes32"
        },
        {
          "indexed": false,
          "internalType": "uint64",
          "name": "transferNonce",
          "type": "uint64"
        }
      ],
      "name": "TransferSent",
      "type": "event"
    },
    {
      "inputs": [],
      "name": "BRIDGE_TRANSFER_ACTION",
      "outputs": [
        {
          "internalType": "uint8",
          "name": "",
          "type": "uint8"
        }
      ],
      "stateMutability": "view",
      "type": "function"
    },
    {
      "inputs": [],
      "name": "ENABLE_ACTION",
      "outputs": [
        {
          "internalType": "uint8",
          "name": "",
          "type": "uint8"
        }
      ],
      "stateMutability": "view",
      "type": "function"
    },
    {
      "inputs": [],
      "name": "ibcContract",
      "outputs": [
        {
          "internalType": "address",
          "name": "",
          "type": "address"
        }
      ],
      "stateMutability": "view",
      "type": "function"
    },
    {
      "inputs": [
        {
          "internalType": "uint64",
          "name": "",
          "type": "uint64"
        }
      ],
      "name": "incomingTransferNonces",
      "outputs": [
        {
          "internalType": "bool",
          "name": "",
          "type": "bool"
        }
      ],
      "stateMutability": "view",
      "type": "function"
    },
    {
      "inputs": [],
      "name": "nextTransferNonce",
      "outputs": [
        {
          "internalType": "uint64",
          "name": "",
          "type": "uint64"
        }
      ],
      "stateMutability": "view",
      "type": "function"
    },
    {
      "inputs": [],
      "name": "outgoingTTL",
      "outputs": [
        {
          "internalType": "uint256",
          "name": "",
          "type": "uint256"
        }
      ],
      "stateMutability": "view",
      "type": "function"
    },
    {
      "inputs": [
        {
          "internalType": "uint64",
          "name": "",
          "type": "uint64"
        }
      ],
      "name": "outgoingTransfers",
      "outputs": [
        {
          "internalType": "address",
          "name": "sender",
          "type": "address"
        },
        {
          "internalType": "uint128",
          "name": "amount",
          "type": "uint128"
        },
        {
          "internalType": "bytes32",
          "name": "dest",
          "type": "bytes32"
        }
      ],
      "stateMutability": "view",
      "type": "function"
    },
    {
      "inputs": [],
      "name": "owner",
      "outputs": [
        {
          "internalType": "address",
          "name": "",
          "type": "address"
        }
      ],
      "stateMutability": "view",
      "type": "function"
    },
    {
      "inputs": [
        {
          "internalType": "bytes32",
          "name": "sender",
          "type": "bytes32"
        },
        {
          "internalType": "bytes",
          "name": "payload",
          "type": "bytes"
        }
      ],
      "name": "processMessage",
      "outputs": [],
      "stateMutability": "nonpayable",
      "type": "function"
    },
    {
      "inputs": [],
      "name": "renounceOwnership",
      "outputs": [],
      "stateMutability": "nonpayable",
      "type": "function"
    },
    {
      "inputs": [
        {
          "internalType": "uint64",
          "name": "transferNonce",
          "type": "uint64"
        }
      ],
      "name": "retryTransferNative",
      "outputs": [],
      "stateMutability": "payable",
      "type": "function"
    },
    {
      "inputs": [
        {
          "internalType": "uint256",
          "name": "_outgoingTTL",
          "type": "uint256"
        }
      ],
      "name": "setOutgoingTTL",
      "outputs": [],
      "stateMutability": "nonpayable",
      "type": "function"
    },
    {
      "inputs": [],
      "name": "token",
      "outputs": [
        {
          "internalType": "contract AcurastToken",
          "name": "",
          "type": "address"
        }
      ],
      "stateMutability": "view",
      "type": "function"
    },
    {
      "inputs": [],
      "name": "tokenPalletAccount",
      "outputs": [
        {
          "internalType": "bytes32",
          "name": "",
          "type": "bytes32"
        }
      ],
      "stateMutability": "view",
      "type": "function"
    },
    {
      "inputs": [
        {
          "internalType": "uint128",
          "name": "amount",
          "type": "uint128"
        },
        {
          "internalType": "bytes32",
          "name": "dest",
          "type": "bytes32"
        }
      ],
      "name": "transferNative",
      "outputs": [],
      "stateMutability": "payable",
      "type": "function"
    },
    {
      "inputs": [
        {
          "internalType": "address",
          "name": "newOwner",
          "type": "address"
        }
      ],
      "name": "transferOwnership",
      "outputs": [],
      "stateMutability": "nonpayable",
      "type": "function"
    },
    {
      "inputs": [
        {
          "internalType": "address",
          "name": "_ibcContract",
          "type": "address"
        }
      ],
      "name": "updateIbcContract",
      "outputs": [],
      "stateMutability": "nonpayable",
      "type": "function"
    },
    {
      "inputs": [
        {
          "internalType": "bytes32",
          "name": "_tokenPalletAccount",
          "type": "bytes32"
        }
      ],
      "name": "updateTokenPalletAccount",
      "outputs": [],
      "stateMutability": "nonpayable",
      "type": "function"
    }
  ],
  "bytecode": "0x608060405234801561001057600080fd5b506040516132c33803806132c38339818101604052810190610032919061043e565b80600073ffffffffffffffffffffffffffffffffffffffff168173ffffffffffffffffffffffffffffffffffffffff16036100a55760006040517f1e4fbdf700000000000000000000000000000000000000000000000000000000815260040161009c91906104b4565b60405180910390fd5b6100b4816102e160201b60201c565b50600073ffffffffffffffffffffffffffffffffffffffff168473ffffffffffffffffffffffffffffffffffffffff1603610124576040517f08c379a000000000000000000000000000000000000000000000000000000000815260040161011b9061052c565b60405180910390fd5b600073ffffffffffffffffffffffffffffffffffffffff168373ffffffffffffffffffffffffffffffffffffffff1603610193576040517f08c379a000000000000000000000000000000000000000000000000000000000815260040161018a90610598565b60405180910390fd5b600073ffffffffffffffffffffffffffffffffffffffff168173ffffffffffffffffffffffffffffffffffffffff1603610202576040517f08c379a00000000000000000000000000000000000000000000000000000000081526004016101f990610604565b60405180910390fd5b6000801b8203610247576040517f08c379a000000000000000000000000000000000000000000000000000000000815260040161023e90610670565b60405180910390fd5b83600160006101000a81548173ffffffffffffffffffffffffffffffffffffffff021916908373ffffffffffffffffffffffffffffffffffffffff16021790555082600260006101000a81548173ffffffffffffffffffffffffffffffffffffffff021916908373ffffffffffffffffffffffffffffffffffffffff16021790555081600381905550603260048190555050505050610690565b60008060009054906101000a900473ffffffffffffffffffffffffffffffffffffffff169050816000806101000a81548173ffffffffffffffffffffffffffffffffffffffff021916908373ffffffffffffffffffffffffffffffffffffffff1602179055508173ffffffffffffffffffffffffffffffffffffffff168173ffffffffffffffffffffffffffffffffffffffff167f8be0079c531659141344cd1fd0a4f28419497f9722a3daafe3b4186f6b6457e060405160405180910390a35050565b600080fd5b600073ffffffffffffffffffffffffffffffffffffffff82169050919050565b60006103d5826103aa565b9050919050565b6103e5816103ca565b81146103f057600080fd5b50565b600081519050610402816103dc565b92915050565b6000819050919050565b61041b81610408565b811461042657600080fd5b50565b60008151905061043881610412565b92915050565b60008060008060808587031215610458576104576103a5565b5b6000610466878288016103f3565b9450506020610477878288016103f3565b935050604061048887828801610429565b9250506060610499878288016103f3565b91505092959194509250565b6104ae816103ca565b82525050565b60006020820190506104c960008301846104a5565b92915050565b600082825260208201905092915050565b7f496e76616c696420746f6b656e20616464726573730000000000000000000000600082015250565b60006105166015836104cf565b9150610521826104e0565b602082019050919050565b6000602082019050818103600083015261054581610509565b9050919050565b7f496e76616c69642049424320636f6e7472616374206164647265737300000000600082015250565b6000610582601c836104cf565b915061058d8261054c565b602082019050919050565b600060208201905081810360008301526105b181610575565b9050919050565b7f496e76616c6964206f776e657220616464726573730000000000000000000000600082015250565b60006105ee6015836104cf565b91506105f9826105b8565b602082019050919050565b6000602082019050818103600083015261061d816105e1565b9050919050565b7f496e76616c696420746f6b656e2070616c6c6574206163636f756e7400000000600082015250565b600061065a601c836104cf565b915061066582610624565b602082019050919050565b600060208201905081810360008301526106898161064d565b9050919050565b612c248061069f6000396000f3fe6080604052600436106101095760003560e01c80638da5cb5b11610095578063c66466cc11610064578063c66466cc14610319578063d318ed4714610356578063dba2d3f71461037f578063f2fde38b146103aa578063fc0c546a146103d357610109565b80638da5cb5b1461027e57806399189e44146102a9578063a8e99e8a146102d2578063c235ffae146102ee57610109565b8063650ccaae116100dc578063650ccaae146101ab57806367f81fc0146101ea578063715018a6146102135780637b09d29f1461022a57806382dee11f1461025557610109565b806322beeba31461010e578063280884041461013957806329f928c2146101645780633a66cef614610180575b600080fd5b34801561011a57600080fd5b506101236103fe565b6040516101309190611962565b60405180910390f35b34801561014557600080fd5b5061014e610404565b60405161015b91906119a0565b60405180910390f35b61017e600480360381019061017991906119fb565b61041e565b005b34801561018c57600080fd5b506101956107c1565b6040516101a29190611a41565b60405180910390f35b3480156101b757600080fd5b506101d260048036038101906101cd91906119fb565b6107c7565b6040516101e193929190611ac8565b60405180910390f35b3480156101f657600080fd5b50610211600480360381019061020c9190611b2b565b61082d565b005b34801561021f57600080fd5b50610228610998565b005b34801561023657600080fd5b5061023f6109ac565b60405161024c9190611b74565b60405180910390f35b34801561026157600080fd5b5061027c60048036038101906102779190611bbb565b6109b1565b005b34801561028a57600080fd5b50610293610a38565b6040516102a09190611be8565b60405180910390f35b3480156102b557600080fd5b506102d060048036038101906102cb9190611d49565b610a61565b005b6102ec60048036038101906102e79190611dd1565b61103d565b005b3480156102fa57600080fd5b506103036115c8565b6040516103109190611be8565b60405180910390f35b34801561032557600080fd5b50610340600480360381019061033b91906119fb565b6115ee565b60405161034d9190611e2c565b60405180910390f35b34801561036257600080fd5b5061037d60048036038101906103789190611e73565b61160e565b005b34801561038b57600080fd5b50610394611745565b6040516103a19190611b74565b60405180910390f35b3480156103b657600080fd5b506103d160048036038101906103cc9190611e73565b61174a565b005b3480156103df57600080fd5b506103e86117d0565b6040516103f59190611eff565b60405180910390f35b60035481565b600660009054906101000a900467ffffffffffffffff1681565b6000600760008367ffffffffffffffff1667ffffffffffffffff16815260200190815260200160002060010160009054906101000a90046fffffffffffffffffffffffffffffffff166fffffffffffffffffffffffffffffffff16116104b9576040517f08c379a00000000000000000000000000000000000000000000000000000000081526004016104b090611f77565b60405180910390fd5b6000600760008367ffffffffffffffff1667ffffffffffffffff1681526020019081526020016000206040518060600160405290816000820160009054906101000a900473ffffffffffffffffffffffffffffffffffffffff1673ffffffffffffffffffffffffffffffffffffffff1673ffffffffffffffffffffffffffffffffffffffff1681526020016001820160009054906101000a90046fffffffffffffffffffffffffffffffff166fffffffffffffffffffffffffffffffff166fffffffffffffffffffffffffffffffff168152602001600282015481525050905060008282600001514243856020015186604001516040516020016105c29695949392919061208d565b604051602081830303815290604052805190602001209050600080836020015160008686604001516040516020016105fe959493929190612143565b60405160208183030381529060405290506000600260009054906101000a900473ffffffffffffffffffffffffffffffffffffffff1673ffffffffffffffffffffffffffffffffffffffff163484600354856004546040516024016106669493929190612221565b6040516020818303038152906040527fc8a24482000000000000000000000000000000000000000000000000000000007bffffffffffffffffffffffffffffffffffffffffffffffffffffffff19166020820180517bffffffffffffffffffffffffffffffffffffffffffffffffffffffff83818316178352505050506040516106f091906122a9565b60006040518083038185875af1925050503d806000811461072d576040519150601f19603f3d011682016040523d82523d6000602084013e610732565b606091505b5050905080610776576040517f08c379a000000000000000000000000000000000000000000000000000000000815260040161076d9061230c565b60405180910390fd5b83604001517f7b7c7265e9f7caf9daa1958d754d4ab541e342a2cea21d0cec22ac8b5f8dc058856020015134886040516107b29392919061232c565b60405180910390a25050505050565b60045481565b60076020528060005260406000206000915090508060000160009054906101000a900473ffffffffffffffffffffffffffffffffffffffff16908060010160009054906101000a90046fffffffffffffffffffffffffffffffff16908060020154905083565b6108356117f6565b6000600260009054906101000a900473ffffffffffffffffffffffffffffffffffffffff1690506000808273ffffffffffffffffffffffffffffffffffffffff166379502c556040518163ffffffff1660e01b815260040160a060405180830381865afa1580156108aa573d6000803e3d6000fd5b505050506040513d601f19601f820116820180604052508101906108ce91906123a4565b5093509350505081841015610918576040517f08c379a000000000000000000000000000000000000000000000000000000000815260040161090f9061246b565b60405180910390fd5b8084111561095b576040517f08c379a0000000000000000000000000000000000000000000000000000000008152600401610952906124d7565b60405180910390fd5b836004547fa485a88a368ebaead07316d0ecff078ceb5d1b46efd14b94247270d4171cd4db60405160405180910390a38360048190555050505050565b6109a06117f6565b6109aa600061187d565b565b600181565b6109b96117f6565b6000801b81036109fe576040517f08c379a00000000000000000000000000000000000000000000000000000000081526004016109f590612543565b60405180910390fd5b806003547fa14e2697861aa95e9c5e36a1d08f76fe80944fba775ae48272e7139f7cdbbe1460405160405180910390a38060038190555050565b60008060009054906101000a900473ffffffffffffffffffffffffffffffffffffffff16905090565b600260009054906101000a900473ffffffffffffffffffffffffffffffffffffffff1673ffffffffffffffffffffffffffffffffffffffff163373ffffffffffffffffffffffffffffffffffffffff1614610af1576040517f08c379a0000000000000000000000000000000000000000000000000000000008152600401610ae8906125af565b60405180910390fd5b6003548214610b35576040517f08c379a0000000000000000000000000000000000000000000000000000000008152600401610b2c9061261b565b60405180910390fd5b600481511015610b7a576040517f08c379a0000000000000000000000000000000000000000000000000000000008152600401610b7190612687565b60405180910390fd5b6000602082015160e01c9050600060ff168163ffffffff1603610e74576034825114610bdb576040517f08c379a0000000000000000000000000000000000000000000000000000000008152600401610bd2906126f3565b60405180910390fd5b6000806000806020860186516034811015610bf557600080fd5b600482015160801c9550601482015160e01c9450601882015160c01c9350602082015160601c92505050600073ffffffffffffffffffffffffffffffffffffffff168173ffffffffffffffffffffffffffffffffffffffff1603610c8e576040517f08c379a0000000000000000000000000000000000000000000000000000000008152600401610c859061275f565b60405180910390fd5b60008363ffffffff1614610cd7576040517f08c379a0000000000000000000000000000000000000000000000000000000008152600401610cce906127cb565b60405180910390fd5b600560008367ffffffffffffffff1667ffffffffffffffff16815260200190815260200160002060009054906101000a900460ff1615610d4c576040517f08c379a0000000000000000000000000000000000000000000000000000000008152600401610d4390612837565b60405180910390fd5b6001600560008467ffffffffffffffff1667ffffffffffffffff16815260200190815260200160002060006101000a81548160ff021916908315150217905550600160009054906101000a900473ffffffffffffffffffffffffffffffffffffffff1673ffffffffffffffffffffffffffffffffffffffff166318bf507782866040518363ffffffff1660e01b8152600401610de9929190612888565b600060405180830381600087803b158015610e0357600080fd5b505af1158015610e17573d6000803e3d6000fd5b505050508073ffffffffffffffffffffffffffffffffffffffff167fde636fb71b3af63b99a21464b8c5bd0d2178cbaa4efd63a2119576c0a6b344b88584604051610e639291906128b1565b60405180910390a250505050611038565b600160ff168163ffffffff1603610ffc576005825114610ec9576040517f08c379a0000000000000000000000000000000000000000000000000000000008152600401610ec0906126f3565b60405180910390fd5b6000602483015160f81c905060018160ff1603610fbb57600160009054906101000a900473ffffffffffffffffffffffffffffffffffffffff1673ffffffffffffffffffffffffffffffffffffffff1663673cf95260006040518263ffffffff1660e01b8152600401610f3c9190611be8565b600060405180830381600087803b158015610f5657600080fd5b505af1158015610f6a573d6000803e3d6000fd5b50505050600073ffffffffffffffffffffffffffffffffffffffff16600015157f440c074adff92acf6879ecd3ea751d6d345c5f2773a23fb59d897a2627570f9860405160405180910390a3610ff6565b6040517f08c379a0000000000000000000000000000000000000000000000000000000008152600401610fed90612926565b60405180910390fd5b50611037565b6040517f08c379a000000000000000000000000000000000000000000000000000000000815260040161102e90612992565b60405180910390fd5b5b505050565b6000826fffffffffffffffffffffffffffffffff1611611092576040517f08c379a0000000000000000000000000000000000000000000000000000000008152600401611089906129fe565b60405180910390fd5b6000801b81036110d7576040517f08c379a00000000000000000000000000000000000000000000000000000000081526004016110ce90612a6a565b60405180910390fd5b816fffffffffffffffffffffffffffffffff16600160009054906101000a900473ffffffffffffffffffffffffffffffffffffffff1673ffffffffffffffffffffffffffffffffffffffff166370a08231336040518263ffffffff1660e01b81526004016111459190611be8565b602060405180830381865afa158015611162573d6000803e3d6000fd5b505050506040513d601f19601f820116820180604052508101906111869190612a8a565b10156111c7576040517f08c379a00000000000000000000000000000000000000000000000000000000081526004016111be90612b03565b60405180910390fd5b6000600660009054906101000a900467ffffffffffffffff1690506006600081819054906101000a900467ffffffffffffffff168092919061120890612b52565b91906101000a81548167ffffffffffffffff021916908367ffffffffffffffff16021790555050600081334243878760405160200161124c9695949392919061208d565b6040516020818303038152906040528051906020012090506000808560008587604051602001611280959493929190612143565b6040516020818303038152906040529050600160009054906101000a900473ffffffffffffffffffffffffffffffffffffffff1673ffffffffffffffffffffffffffffffffffffffff16632b8c49e333876040518363ffffffff1660e01b81526004016112ee929190612888565b600060405180830381600087803b15801561130857600080fd5b505af115801561131c573d6000803e3d6000fd5b5050505060405180606001604052803373ffffffffffffffffffffffffffffffffffffffff168152602001866fffffffffffffffffffffffffffffffff16815260200185815250600760008567ffffffffffffffff1667ffffffffffffffff16815260200190815260200160002060008201518160000160006101000a81548173ffffffffffffffffffffffffffffffffffffffff021916908373ffffffffffffffffffffffffffffffffffffffff16021790555060208201518160010160006101000a8154816fffffffffffffffffffffffffffffffff02191690836fffffffffffffffffffffffffffffffff160217905550604082015181600201559050506000600260009054906101000a900473ffffffffffffffffffffffffffffffffffffffff1673ffffffffffffffffffffffffffffffffffffffff163484600354856004546040516024016114749493929190612221565b6040516020818303038152906040527fc8a24482000000000000000000000000000000000000000000000000000000007bffffffffffffffffffffffffffffffffffffffffffffffffffffffff19166020820180517bffffffffffffffffffffffffffffffffffffffffffffffffffffffff83818316178352505050506040516114fe91906122a9565b60006040518083038185875af1925050503d806000811461153b576040519150601f19603f3d011682016040523d82523d6000602084013e611540565b606091505b5050905080611584576040517f08c379a000000000000000000000000000000000000000000000000000000000815260040161157b9061230c565b60405180910390fd5b847f4aaeea5927f5ee2313f28d32b8208e35b5427738124e7b6f46a68f8faf3038ad8734876040516115b89392919061232c565b60405180910390a2505050505050565b600260009054906101000a900473ffffffffffffffffffffffffffffffffffffffff1681565b60056020528060005260406000206000915054906101000a900460ff1681565b6116166117f6565b600073ffffffffffffffffffffffffffffffffffffffff168173ffffffffffffffffffffffffffffffffffffffff1603611685576040517f08c379a000000000000000000000000000000000000000000000000000000000815260040161167c90612bce565b60405180910390fd5b8073ffffffffffffffffffffffffffffffffffffffff16600260009054906101000a900473ffffffffffffffffffffffffffffffffffffffff1673ffffffffffffffffffffffffffffffffffffffff167fb4f4eb2c59e82e78670d9c46b2710303f24fb6d764a4a7fb86b3036d5622774060405160405180910390a380600260006101000a81548173ffffffffffffffffffffffffffffffffffffffff021916908373ffffffffffffffffffffffffffffffffffffffff16021790555050565b600081565b6117526117f6565b600073ffffffffffffffffffffffffffffffffffffffff168173ffffffffffffffffffffffffffffffffffffffff16036117c45760006040517f1e4fbdf70000000000000000000000000000000000000000000000000000000081526004016117bb9190611be8565b60405180910390fd5b6117cd8161187d565b50565b600160009054906101000a900473ffffffffffffffffffffffffffffffffffffffff1681565b6117fe611941565b73ffffffffffffffffffffffffffffffffffffffff1661181c610a38565b73ffffffffffffffffffffffffffffffffffffffff161461187b5761183f611941565b6040517f118cdaa70000000000000000000000000000000000000000000000000000000081526004016118729190611be8565b60405180910390fd5b565b60008060009054906101000a900473ffffffffffffffffffffffffffffffffffffffff169050816000806101000a81548173ffffffffffffffffffffffffffffffffffffffff021916908373ffffffffffffffffffffffffffffffffffffffff1602179055508173ffffffffffffffffffffffffffffffffffffffff168173ffffffffffffffffffffffffffffffffffffffff167f8be0079c531659141344cd1fd0a4f28419497f9722a3daafe3b4186f6b6457e060405160405180910390a35050565b600033905090565b6000819050919050565b61195c81611949565b82525050565b60006020820190506119776000830184611953565b92915050565b600067ffffffffffffffff82169050919050565b61199a8161197d565b82525050565b60006020820190506119b56000830184611991565b92915050565b6000604051905090565b600080fd5b600080fd5b6119d88161197d565b81146119e357600080fd5b50565b6000813590506119f5816119cf565b92915050565b600060208284031215611a1157611a106119c5565b5b6000611a1f848285016119e6565b91505092915050565b6000819050919050565b611a3b81611a28565b82525050565b6000602082019050611a566000830184611a32565b92915050565b600073ffffffffffffffffffffffffffffffffffffffff82169050919050565b6000611a8782611a5c565b9050919050565b611a9781611a7c565b82525050565b60006fffffffffffffffffffffffffffffffff82169050919050565b611ac281611a9d565b82525050565b6000606082019050611add6000830186611a8e565b611aea6020830185611ab9565b611af76040830184611953565b949350505050565b611b0881611a28565b8114611b1357600080fd5b50565b600081359050611b2581611aff565b92915050565b600060208284031215611b4157611b406119c5565b5b6000611b4f84828501611b16565b91505092915050565b600060ff82169050919050565b611b6e81611b58565b82525050565b6000602082019050611b896000830184611b65565b92915050565b611b9881611949565b8114611ba357600080fd5b50565b600081359050611bb581611b8f565b92915050565b600060208284031215611bd157611bd06119c5565b5b6000611bdf84828501611ba6565b91505092915050565b6000602082019050611bfd6000830184611a8e565b92915050565b600080fd5b600080fd5b6000601f19601f8301169050919050565b7f4e487b7100000000000000000000000000000000000000000000000000000000600052604160045260246000fd5b611c5682611c0d565b810181811067ffffffffffffffff82111715611c7557611c74611c1e565b5b80604052505050565b6000611c886119bb565b9050611c948282611c4d565b919050565b600067ffffffffffffffff821115611cb457611cb3611c1e565b5b611cbd82611c0d565b9050602081019050919050565b82818337600083830152505050565b6000611cec611ce784611c99565b611c7e565b905082815260208101848484011115611d0857611d07611c08565b5b611d13848285611cca565b509392505050565b600082601f830112611d3057611d2f611c03565b5b8135611d40848260208601611cd9565b91505092915050565b60008060408385031215611d6057611d5f6119c5565b5b6000611d6e85828601611ba6565b925050602083013567ffffffffffffffff811115611d8f57611d8e6119ca565b5b611d9b85828601611d1b565b9150509250929050565b611dae81611a9d565b8114611db957600080fd5b50565b600081359050611dcb81611da5565b92915050565b60008060408385031215611de857611de76119c5565b5b6000611df685828601611dbc565b9250506020611e0785828601611ba6565b9150509250929050565b60008115159050919050565b611e2681611e11565b82525050565b6000602082019050611e416000830184611e1d565b92915050565b611e5081611a7c565b8114611e5b57600080fd5b50565b600081359050611e6d81611e47565b92915050565b600060208284031215611e8957611e886119c5565b5b6000611e9784828501611e5e565b91505092915050565b6000819050919050565b6000611ec5611ec0611ebb84611a5c565b611ea0565b611a5c565b9050919050565b6000611ed782611eaa565b9050919050565b6000611ee982611ecc565b9050919050565b611ef981611ede565b82525050565b6000602082019050611f146000830184611ef0565b92915050565b600082825260208201905092915050565b7f5472616e73666572206e6f7420666f756e640000000000000000000000000000600082015250565b6000611f61601283611f1a565b9150611f6c82611f2b565b602082019050919050565b60006020820190508181036000830152611f9081611f54565b9050919050565b60008160c01b9050919050565b6000611faf82611f97565b9050919050565b611fc7611fc28261197d565b611fa4565b82525050565b60008160601b9050919050565b6000611fe582611fcd565b9050919050565b6000611ff782611fda565b9050919050565b61200f61200a82611a7c565b611fec565b82525050565b6000819050919050565b61203061202b82611a28565b612015565b82525050565b60008160801b9050919050565b600061204e82612036565b9050919050565b61206661206182611a9d565b612043565b82525050565b6000819050919050565b61208761208282611949565b61206c565b82525050565b60006120998289611fb6565b6008820191506120a98288611ffe565b6014820191506120b9828761201f565b6020820191506120c9828661201f565b6020820191506120d98285612055565b6010820191506120e98284612076565b602082019150819050979650505050505050565b600063ffffffff82169050919050565b60008160e01b9050919050565b60006121258261210d565b9050919050565b61213d612138826120fd565b61211a565b82525050565b600061214f828861212c565b60048201915061215f8287612055565b60108201915061216f828661212c565b60048201915061217f8285611fb6565b60088201915061218f8284612076565b6020820191508190509695505050505050565b600081519050919050565b600082825260208201905092915050565b60005b838110156121dc5780820151818401526020810190506121c1565b60008484015250505050565b60006121f3826121a2565b6121fd81856121ad565b935061220d8185602086016121be565b61221681611c0d565b840191505092915050565b60006080820190506122366000830187611953565b6122436020830186611953565b818103604083015261225581856121e8565b90506122646060830184611a32565b95945050505050565b600081905092915050565b6000612283826121a2565b61228d818561226d565b935061229d8185602086016121be565b80840191505092915050565b60006122b58284612278565b915081905092915050565b7f73656e644d657373616765206661696c65640000000000000000000000000000600082015250565b60006122f6601283611f1a565b9150612301826122c0565b602082019050919050565b60006020820190508181036000830152612325816122e9565b9050919050565b60006060820190506123416000830186611ab9565b61234e6020830185611a32565b61235b6040830184611991565b949350505050565b61236c81611b58565b811461237757600080fd5b50565b60008151905061238981612363565b92915050565b60008151905061239e81611aff565b92915050565b600080600080600060a086880312156123c0576123bf6119c5565b5b60006123ce8882890161237a565b95505060206123df8882890161237a565b94505060406123f08882890161238f565b93505060606124018882890161238f565b92505060806124128882890161238f565b9150509295509295909350565b7f4f7574676f696e6754544c20746f6f20736d616c6c0000000000000000000000600082015250565b6000612455601583611f1a565b91506124608261241f565b602082019050919050565b6000602082019050818103600083015261248481612448565b9050919050565b7f4f7574676f696e6754544c20746f6f206c617267650000000000000000000000600082015250565b60006124c1601583611f1a565b91506124cc8261248b565b602082019050919050565b600060208201905081810360008301526124f0816124b4565b9050919050565b7f496e76616c696420746f6b656e2070616c6c6574206163636f756e7400000000600082015250565b600061252d601c83611f1a565b9150612538826124f7565b602082019050919050565b6000602082019050818103600083015261255c81612520565b9050919050565b7f556e617574686f72697a6564206f726967696e00000000000000000000000000600082015250565b6000612599601383611f1a565b91506125a482612563565b602082019050919050565b600060208201905081810360008301526125c88161258c565b9050919050565b7f556e617574686f72697a65642073656e64657200000000000000000000000000600082015250565b6000612605601383611f1a565b9150612610826125cf565b602082019050919050565b60006020820190508181036000830152612634816125f8565b9050919050565b7f496e76616c696420616374696f6e000000000000000000000000000000000000600082015250565b6000612671600e83611f1a565b915061267c8261263b565b602082019050919050565b600060208201905081810360008301526126a081612664565b9050919050565b7f496e76616c696420616374696f6e207061796c6f616400000000000000000000600082015250565b60006126dd601683611f1a565b91506126e8826126a7565b602082019050919050565b6000602082019050818103600083015261270c816126d0565b9050919050565b7f496e76616c696420726563697069656e74000000000000000000000000000000600082015250565b6000612749601183611f1a565b915061275482612713565b602082019050919050565b600060208201905081810360008301526127788161273c565b9050919050565b7f556e737570706f72746564206173736574496400000000000000000000000000600082015250565b60006127b5601383611f1a565b91506127c08261277f565b602082019050919050565b600060208201905081810360008301526127e4816127a8565b9050919050565b7f5472616e7366657220616c726561647920726563656976656400000000000000600082015250565b6000612821601983611f1a565b915061282c826127eb565b602082019050919050565b6000602082019050818103600083015261285081612814565b9050919050565b600061287261286d61286884611a9d565b611ea0565b611a28565b9050919050565b61288281612857565b82525050565b600060408201905061289d6000830185611a8e565b6128aa6020830184612879565b9392505050565b60006040820190506128c66000830185612879565b6128d36020830184611991565b9392505050565b7f496e76616c696420656e61626c6520666c616700000000000000000000000000600082015250565b6000612910601383611f1a565b915061291b826128da565b602082019050919050565b6000602082019050818103600083015261293f81612903565b9050919050565b7f556e737570706f7274656420616374696f6e0000000000000000000000000000600082015250565b600061297c601283611f1a565b915061298782612946565b602082019050919050565b600060208201905081810360008301526129ab8161296f565b9050919050565b7f43616e6e6f74207472616e73666572203020616d6f756e740000000000000000600082015250565b60006129e8601883611f1a565b91506129f3826129b2565b602082019050919050565b60006020820190508181036000830152612a17816129db565b9050919050565b7f496e76616c69642064657374696e6174696f6e00000000000000000000000000600082015250565b6000612a54601383611f1a565b9150612a5f82612a1e565b602082019050919050565b60006020820190508181036000830152612a8381612a47565b9050919050565b600060208284031215612aa057612a9f6119c5565b5b6000612aae8482850161238f565b91505092915050565b7f496e73756666696369656e74204143552062616c616e63650000000000000000600082015250565b6000612aed601883611f1a565b9150612af882612ab7565b602082019050919050565b60006020820190508181036000830152612b1c81612ae0565b9050919050565b7f4e487b7100000000000000000000000000000000000000000000000000000000600052601160045260246000fd5b6000612b5d8261197d565b915067ffffffffffffffff8203612b7757612b76612b23565b5b600182019050919050565b7f496e76616c69642049424320636f6e7472616374206164647265737300000000600082015250565b6000612bb8601c83611f1a565b9150612bc382612b82565b602082019050919050565b60006020820190508181036000830152612be781612bab565b905091905056fea2646970667358221220c145e66acbe9ad1532c343666ab0f97efa8d5d61852274857dd280ce33b838d564736f6c634300081c0033",
  "linkReferences": {},
  "deployedLinkReferences": {}
}