{
  "_format": "hh-sol-artifact-1",
  "contractName": "Ibc",
  "sourceName": "contracts/ibc.sol",
  "abi": [
    {
      "inputs": [],
      "stateMutability": "nonpayable",
      "type": "constructor"
    },
    {
      "inputs": [
        {
          "internalType": "address",
          "name": "target",
          "type": "address"
        }
      ],
      "name": "AddressEmptyCode",
      "type": "error"
    },
    {
      "inputs": [],
      "name": "ECDSAInvalidSignature",
      "type": "error"
    },
    {
      "inputs": [
        {
          "internalType": "uint256",
          "name": "length",
          "type": "uint256"
        }
      ],
      "name": "ECDSAInvalidSignatureLength",
      "type": "error"
    },
    {
      "inputs": [
        {
          "internalType": "bytes32",
          "name": "s",
          "type": "bytes32"
        }
      ],
      "name": "ECDSAInvalidSignatureS",
      "type": "error"
    },
    {
      "inputs": [
        {
          "internalType": "address",
          "name": "implementation",
          "type": "address"
        }
      ],
      "name": "ERC1967InvalidImplementation",
      "type": "error"
    },
    {
      "inputs": [],
      "name": "ERC1967NonPayable",
      "type": "error"
    },
    {
      "inputs": [],
      "name": "FailedCall",
      "type": "error"
    },
    {
      "inputs": [],
      "name": "InvalidInitialization",
      "type": "error"
    },
    {
      "inputs": [],
      "name": "NotInitializing",
      "type": "error"
    },
    {
      "inputs": [
        {
          "internalType": "address",
          "name": "owner",
          "type": "address"
        }
      ],
      "name": "OwnableInvalidOwner",
      "type": "error"
    },
    {
      "inputs": [
        {
          "internalType": "address",
          "name": "account",
          "type": "address"
        }
      ],
      "name": "OwnableUnauthorizedAccount",
      "type": "error"
    },
    {
      "inputs": [],
      "name": "UUPSUnauthorizedCallContext",
      "type": "error"
    },
    {
      "inputs": [
        {
          "internalType": "bytes32",
          "name": "slot",
          "type": "bytes32"
        }
      ],
      "name": "UUPSUnsupportedProxiableUUID",
      "type": "error"
    },
    {
      "anonymous": false,
      "inputs": [
        {
          "indexed": false,
          "internalType": "uint64",
          "name": "version",
          "type": "uint64"
        }
      ],
      "name": "Initialized",
      "type": "event"
    },
    {
      "anonymous": false,
      "inputs": [
        {
          "indexed": false,
          "internalType": "bytes32",
          "name": "id",
          "type": "bytes32"
        }
      ],
      "name": "MessageDelivered",
      "type": "event"
    },
    {
      "anonymous": false,
      "inputs": [
        {
          "indexed": false,
          "internalType": "bytes32",
          "name": "id",
          "type": "bytes32"
        }
      ],
      "name": "MessageProcessed",
      "type": "event"
    },
    {
      "anonymous": false,
      "inputs": [
        {
          "indexed": false,
          "internalType": "bytes32",
          "name": "sender",
          "type": "bytes32"
        },
        {
          "indexed": false,
          "internalType": "address",
          "name": "recipient",
          "type": "address"
        },
        {
          "indexed": false,
          "internalType": "bytes",
          "name": "payload",
          "type": "bytes"
        },
        {
          "indexed": false,
          "internalType": "string",
          "name": "reason",
          "type": "string"
        }
      ],
      "name": "MessageProcessedWithErrors",
      "type": "event"
    },
    {
      "anonymous": false,
      "inputs": [
        {
          "components": [
            {
              "internalType": "bytes32",
              "name": "id",
              "type": "bytes32"
            },
            {
              "internalType": "address",
              "name": "sender",
              "type": "address"
            },
            {
              "internalType": "bytes32",
              "name": "nonce",
              "type": "bytes32"
            },
            {
              "internalType": "address",
              "name": "recipient",
              "type": "address"
            },
            {
              "internalType": "bytes",
              "name": "payload",
              "type": "bytes"
            }
          ],
          "indexed": false,
          "internalType": "struct Ibc.OutgoingMessage",
          "name": "message",
          "type": "tuple"
        }
      ],
      "name": "MessageReadyToSend",
      "type": "event"
    },
    {
      "anonymous": false,
      "inputs": [
        {
          "indexed": true,
          "internalType": "address",
          "name": "oracle",
          "type": "address"
        }
      ],
      "name": "OracleAdded",
      "type": "event"
    },
    {
      "anonymous": false,
      "inputs": [
        {
          "indexed": true,
          "internalType": "address",
          "name": "oracle",
          "type": "address"
        }
      ],
      "name": "OracleRemoved",
      "type": "event"
    },
    {
      "anonymous": false,
      "inputs": [
        {
          "indexed": true,
          "internalType": "address",
          "name": "previousOwner",
          "type": "address"
        },
        {
          "indexed": true,
          "internalType": "address",
          "name": "newOwner",
          "type": "address"
        }
      ],
      "name": "OwnershipTransferred",
      "type": "event"
    },
    {
      "anonymous": false,
      "inputs": [
        {
          "indexed": true,
          "internalType": "address",
          "name": "implementation",
          "type": "address"
        }
      ],
      "name": "Upgraded",
      "type": "event"
    },
    {
      "inputs": [],
      "name": "UPGRADE_INTERFACE_VERSION",
      "outputs": [
        {
          "internalType": "string",
          "name": "",
          "type": "string"
        }
      ],
      "stateMutability": "view",
      "type": "function"
    },
    {
      "inputs": [
        {
          "internalType": "address",
          "name": "oracle",
          "type": "address"
        }
      ],
      "name": "addOracle",
      "outputs": [],
      "stateMutability": "nonpayable",
      "type": "function"
    },
    {
      "inputs": [
        {
          "internalType": "bytes32[]",
          "name": "clean",
          "type": "bytes32[]"
        }
      ],
      "name": "cleanIncomingIndex",
      "outputs": [],
      "stateMutability": "nonpayable",
      "type": "function"
    },
    {
      "inputs": [],
      "name": "config",
      "outputs": [
        {
          "internalType": "uint8",
          "name": "minDeliverySignatures",
          "type": "uint8"
        },
        {
          "internalType": "uint8",
          "name": "minReceiptSignatures",
          "type": "uint8"
        },
        {
          "internalType": "uint256",
          "name": "minTTL",
          "type": "uint256"
        },
        {
          "internalType": "uint256",
          "name": "maxTTL",
          "type": "uint256"
        },
        {
          "internalType": "uint256",
          "name": "incomingTTL",
          "type": "uint256"
        }
      ],
      "stateMutability": "view",
      "type": "function"
    },
    {
      "inputs": [
        {
          "internalType": "uint8",
          "name": "minDeliverySignatures",
          "type": "uint8"
        },
        {
          "internalType": "uint8",
          "name": "minReceiptSignatures",
          "type": "uint8"
        },
        {
          "internalType": "uint256",
          "name": "minTTL",
          "type": "uint256"
        },
        {
          "internalType": "uint256",
          "name": "maxTTL",
          "type": "uint256"
        },
        {
          "internalType": "uint256",
          "name": "incomingTTL",
          "type": "uint256"
        }
      ],
      "name": "configure",
      "outputs": [],
      "stateMutability": "nonpayable",
      "type": "function"
    },
    {
      "inputs": [
        {
          "internalType": "bytes32",
          "name": "id",
          "type": "bytes32"
        },
        {
          "internalType": "bytes[]",
          "name": "signatures",
          "type": "bytes[]"
        }
      ],
      "name": "confirmMessageDelivery",
      "outputs": [],
      "stateMutability": "nonpayable",
      "type": "function"
    },
    {
      "inputs": [
        {
          "internalType": "bytes32",
          "name": "",
          "type": "bytes32"
        }
      ],
      "name": "incoming",
      "outputs": [
        {
          "components": [
            {
              "internalType": "bytes32",
              "name": "id",
              "type": "bytes32"
            },
            {
              "internalType": "bytes32",
              "name": "sender",
              "type": "bytes32"
            },
            {
              "internalType": "bytes32",
              "name": "nonce",
              "type": "bytes32"
            },
            {
              "internalType": "address",
              "name": "recipient",
              "type": "address"
            },
            {
              "internalType": "bytes",
              "name": "payload",
              "type": "bytes"
            }
          ],
          "internalType": "struct Ibc.IncomingMessage",
          "name": "message",
          "type": "tuple"
        },
        {
          "internalType": "uint256",
          "name": "currentBlock",
          "type": "uint256"
        },
        {
          "internalType": "address",
          "name": "relayer",
          "type": "address"
        }
      ],
      "stateMutability": "view",
      "type": "function"
    },
    {
      "inputs": [
        {
          "internalType": "address",
          "name": "initialOwner",
          "type": "address"
        }
      ],
      "name": "initialize",
      "outputs": [],
      "stateMutability": "nonpayable",
      "type": "function"
    },
    {
      "inputs": [],
      "name": "messageCounter",
      "outputs": [
        {
          "internalType": "uint256",
          "name": "",
          "type": "uint256"
        }
      ],
      "stateMutability": "view",
      "type": "function"
    },
    {
      "inputs": [
        {
          "internalType": "address",
          "name": "",
          "type": "address"
        }
      ],
      "name": "oraclePublicKeys",
      "outputs": [
        {
          "internalType": "bool",
          "name": "",
          "type": "bool"
        }
      ],
      "stateMutability": "view",
      "type": "function"
    },
    {
      "inputs": [
        {
          "internalType": "bytes32",
          "name": "",
          "type": "bytes32"
        }
      ],
      "name": "outgoing",
      "outputs": [
        {
          "components": [
            {
              "internalType": "bytes32",
              "name": "id",
              "type": "bytes32"
            },
            {
              "internalType": "address",
              "name": "sender",
              "type": "address"
            },
            {
              "internalType": "bytes32",
              "name": "nonce",
              "type": "bytes32"
            },
            {
              "internalType": "address",
              "name": "recipient",
              "type": "address"
            },
            {
              "internalType": "bytes",
              "name": "payload",
              "type": "bytes"
            }
          ],
          "internalType": "struct Ibc.OutgoingMessage",
          "name": "message",
          "type": "tuple"
        },
        {
          "internalType": "uint256",
          "name": "currentBlock",
          "type": "uint256"
        },
        {
          "internalType": "uint256",
          "name": "ttlBlock",
          "type": "uint256"
        },
        {
          "internalType": "uint256",
          "name": "fee",
          "type": "uint256"
        },
        {
          "internalType": "address",
          "name": "payer",
          "type": "address"
        }
      ],
      "stateMutability": "view",
      "type": "function"
    },
    {
      "inputs": [],
      "name": "owner",
      "outputs": [
        {
          "internalType": "address",
          "name": "",
          "type": "address"
        }
      ],
      "stateMutability": "view",
      "type": "function"
    },
    {
      "inputs": [],
      "name": "proxiableUUID",
      "outputs": [
        {
          "internalType": "bytes32",
          "name": "",
          "type": "bytes32"
        }
      ],
      "stateMutability": "view",
      "type": "function"
    },
    {
      "inputs": [
        {
          "internalType": "bytes32",
          "name": "sender",
          "type": "bytes32"
        },
        {
          "internalType": "bytes32",
          "name": "nonce",
          "type": "bytes32"
        },
        {
          "internalType": "address",
          "name": "recipient",
          "type": "address"
        },
        {
          "internalType": "bytes",
          "name": "payload",
          "type": "bytes"
        },
        {
          "internalType": "bytes[]",
          "name": "signatures",
          "type": "bytes[]"
        }
      ],
      "name": "receiveMessage",
      "outputs": [],
      "stateMutability": "nonpayable",
      "type": "function"
    },
    {
      "inputs": [
        {
          "internalType": "address",
          "name": "oracle",
          "type": "address"
        }
      ],
      "name": "removeOracle",
      "outputs": [],
      "stateMutability": "nonpayable",
      "type": "function"
    },
    {
      "inputs": [],
      "name": "renounceOwnership",
      "outputs": [],
      "stateMutability": "nonpayable",
      "type": "function"
    },
    {
      "inputs": [
        {
          "internalType": "bytes32",
          "name": "nonce",
          "type": "bytes32"
        },
        {
          "internalType": "address",
          "name": "recipient",
          "type": "address"
        },
        {
          "internalType": "bytes",
          "name": "payload",
          "type": "bytes"
        },
        {
          "internalType": "uint256",
          "name": "ttl",
          "type": "uint256"
        }
      ],
      "name": "sendMessage",
      "outputs": [
        {
          "internalType": "bool",
          "name": "",
          "type": "bool"
        }
      ],
      "stateMutability": "payable",
      "type": "function"
    },
    {
      "inputs": [
        {
          "internalType": "address",
          "name": "newOwner",
          "type": "address"
        }
      ],
      "name": "transferOwnership",
      "outputs": [],
      "stateMutability": "nonpayable",
      "type": "function"
    },
    {
      "inputs": [
        {
          "internalType": "address",
          "name": "newImplementation",
          "type": "address"
        },
        {
          "internalType": "bytes",
          "name": "data",
          "type": "bytes"
        }
      ],
      "name": "upgradeToAndCall",
      "outputs": [],
      "stateMutability": "payable",
      "type": "function"
    }
  ],
  "bytecode": "0x60a06040523073ffffffffffffffffffffffffffffffffffffffff1660809073ffffffffffffffffffffffffffffffffffffffff1681525034801561004357600080fd5b5061005261005760201b60201c565b6101c1565b600061006761015b60201b60201c565b90508060000160089054906101000a900460ff16156100b2576040517ff92ee8a900000000000000000000000000000000000000000000000000000000815260040160405180910390fd5b67ffffffffffffffff80168160000160009054906101000a900467ffffffffffffffff1667ffffffffffffffff16146101585767ffffffffffffffff8160000160006101000a81548167ffffffffffffffff021916908367ffffffffffffffff1602179055507fc7f505b2f371ae2175ee4913f4499e1f2633a7b5936321eed1cdaeb6115181d267ffffffffffffffff60405161014f91906101a6565b60405180910390a15b50565b60007ff0c57e16840df040f15088dc2f81fe391c3923bec73e23a9662efc9c229c6a00905090565b600067ffffffffffffffff82169050919050565b6101a081610183565b82525050565b60006020820190506101bb6000830184610197565b92915050565b6080516143be6101ea60003960008181611cde01528181611d330152611eee01526143be6000f3fe6080604052600436106101145760003560e01c80638da5cb5b116100a0578063c4d66de811610064578063c4d66de814610388578063df5dd1a5146103b1578063f2fde38b146103da578063f936ff7414610403578063fdc85fc41461043357610114565b80638da5cb5b1461029f5780638f618b16146102ca578063aa810c42146102f3578063ad3cb1cc14610334578063b6c72acf1461035f57610114565b806352d1902d116100e757806352d1902d146101c85780635f947ceb146101f3578063715018a61461021c57806379502c55146102335780637c106ea91461026257610114565b80632852ab6b146101195780634ae593a7146101425780634f1ef28614610181578063529c75881461019d575b600080fd5b34801561012557600080fd5b50610140600480360381019061013b9190612b81565b61045c565b005b34801561014e57600080fd5b5061016960048036038101906101649190612bdd565b61079e565b60405161017893929190612d77565b60405180910390f35b61019b60048036038101906101969190612de1565b6108f8565b005b3480156101a957600080fd5b506101b2610917565b6040516101bf9190612e3d565b60405180910390f35b3480156101d457600080fd5b506101dd61091d565b6040516101ea9190612e67565b60405180910390f35b3480156101ff57600080fd5b5061021a60048036038101906102159190612e82565b610950565b005b34801561022857600080fd5b50610231610d6d565b005b34801561023f57600080fd5b50610248610d81565b604051610259959493929190612f51565b60405180910390f35b34801561026e57600080fd5b5061028960048036038101906102849190612fa4565b610dbf565b6040516102969190612fec565b60405180910390f35b3480156102ab57600080fd5b506102b4610ddf565b6040516102c19190613007565b60405180910390f35b3480156102d657600080fd5b506102f160048036038101906102ec919061307d565b610e17565b005b3480156102ff57600080fd5b5061031a60048036038101906103159190612bdd565b610f3b565b60405161032b959493929190613140565b60405180910390f35b34801561034057600080fd5b506103496110ed565b60405161035691906131ef565b60405180910390f35b34801561036b57600080fd5b5061038660048036038101906103819190613269565b611126565b005b34801561039457600080fd5b506103af60048036038101906103aa9190612fa4565b61118d565b005b3480156103bd57600080fd5b506103d860048036038101906103d39190612fa4565b6113ba565b005b3480156103e657600080fd5b5061040160048036038101906103fc9190612fa4565b6114ec565b005b61041d600480360381019061041891906132e4565b611572565b60405161042a9190612fec565b60405180910390f35b34801561043f57600080fd5b5061045a60048036038101906104559190612fa4565b6118f0565b005b6000801b6004600084815260200190815260200160002060000160000154036104ba576040517f08c379a00000000000000000000000000000000000000000000000000000000081526004016104b1906133b3565b60405180910390fd5b4360046000848152602001908152602001600020600601541015610513576040517f08c379a000000000000000000000000000000000000000000000000000000000815260040161050a9061341f565b60405180910390fd5b60006004600084815260200190815260200160002060000160010160009054906101000a900473ffffffffffffffffffffffffffffffffffffffff1660046000858152602001908152602001600020600001600201546004600086815260200190815260200160002060000160030160009054906101000a900473ffffffffffffffffffffffffffffffffffffffff1660046000878152602001908152602001600020600001600401336040516020016105d19594939291906135ab565b60405160208183030381529060405280519060200120905061060581836000800160009054906101000a900460ff16611a19565b6004600084815260200190815260200160002060080160009054906101000a900473ffffffffffffffffffffffffffffffffffffffff1673ffffffffffffffffffffffffffffffffffffffff166108fc60046000868152602001908152602001600020600701549081150290604051600060405180830381858888f19350505050158015610697573d6000803e3d6000fd5b506004600084815260200190815260200160002060008082016000808201600090556001820160006101000a81549073ffffffffffffffffffffffffffffffffffffffff021916905560028201600090556003820160006101000a81549073ffffffffffffffffffffffffffffffffffffffff021916905560048201600061071f91906128ae565b50506005820160009055600682016000905560078201600090556008820160006101000a81549073ffffffffffffffffffffffffffffffffffffffff021916905550507ffa39010b12e169f2d7e9a76e381216416dbf5eb59db117ae979592ee9f323885836040516107919190612e67565b60405180910390a1505050565b6005602052806000526040600020600091509050806000016040518060a00160405290816000820154815260200160018201548152602001600282015481526020016003820160009054906101000a900473ffffffffffffffffffffffffffffffffffffffff1673ffffffffffffffffffffffffffffffffffffffff1673ffffffffffffffffffffffffffffffffffffffff168152602001600482018054610845906134d7565b80601f0160208091040260200160405190810160405280929190818152602001828054610871906134d7565b80156108be5780601f10610893576101008083540402835291602001916108be565b820191906000526020600020905b8154815290600101906020018083116108a157829003601f168201915b505050505081525050908060050154908060060160009054906101000a900473ffffffffffffffffffffffffffffffffffffffff16905083565b610900611cdc565b61090982611dc2565b6109138282611dcd565b5050565b60065481565b6000610927611eec565b7f360894a13ba1a3210667c828492db98dca3e2076cc3735a920a3ca505d382bbc60001b905090565b6000858585856040516020016109699493929190613637565b60405160208183030381529060405280519060200120905061099d81836000800160019054906101000a900460ff16611a19565b600086866040516020016109b2929190613681565b6040516020818303038152906040528051906020012090506000801b600560008381526020019081526020016000206000016000015414610a28576040517f08c379a0000000000000000000000000000000000000000000000000000000008152600401610a1f906136f9565b60405180910390fd5b60405180606001604052806040518060a001604052808481526020018a81526020018981526020018873ffffffffffffffffffffffffffffffffffffffff1681526020018781525081526020014381526020013373ffffffffffffffffffffffffffffffffffffffff168152506005600083815260200190815260200160002060008201518160000160008201518160000155602082015181600101556040820151816002015560608201518160030160006101000a81548173ffffffffffffffffffffffffffffffffffffffff021916908373ffffffffffffffffffffffffffffffffffffffff1602179055506080820151816004019081610b2b91906138b0565b5050506020820151816005015560408201518160060160006101000a81548173ffffffffffffffffffffffffffffffffffffffff021916908373ffffffffffffffffffffffffffffffffffffffff16021790555090505060008573ffffffffffffffffffffffffffffffffffffffff163b11610bdc576040517f08c379a0000000000000000000000000000000000000000000000000000000008152600401610bd3906139ce565b60405180910390fd5b6000808673ffffffffffffffffffffffffffffffffffffffff168987604051602401610c09929190613a38565b6040516020818303038152906040527f99189e44000000000000000000000000000000000000000000000000000000007bffffffffffffffffffffffffffffffffffffffffffffffffffffffff19166020820180517bffffffffffffffffffffffffffffffffffffffffffffffffffffffff8381831617835250505050604051610c939190613a68565b6000604051808303816000865af19150503d8060008114610cd0576040519150601f19603f3d011682016040523d82523d6000602084013e610cd5565b606091505b509150915081610d2b576000610cea82611f73565b90507fc3e1862113ac26ceb701a885d6235d414b60b961be5e6a13f27f016c3eeb70468a898984604051610d219493929190613a7f565b60405180910390a1505b7f1915d13f149e2654a02a939345885f8654759bd3347d96fe012c6913df7f86b883604051610d5a9190612e67565b60405180910390a1505050505050505050565b610d75611fde565b610d7f6000612065565b565b60008060000160009054906101000a900460ff16908060000160019054906101000a900460ff16908060010154908060020154908060030154905085565b60076020528060005260406000206000915054906101000a900460ff1681565b600080610dea61213c565b90508060000160009054906101000a900473ffffffffffffffffffffffffffffffffffffffff1691505090565b610e1f611fde565b60005b82829050811015610f36574360006003015460056000868686818110610e4b57610e4a613ad2565b5b90506020020135815260200190815260200160002060050154610e6e9190613b30565b1015610f295760056000848484818110610e8b57610e8a613ad2565b5b9050602002013581526020019081526020016000206000808201600080820160009055600182016000905560028201600090556003820160006101000a81549073ffffffffffffffffffffffffffffffffffffffff0219169055600482016000610ef591906128ae565b505060058201600090556006820160006101000a81549073ffffffffffffffffffffffffffffffffffffffff021916905550505b8080600101915050610e22565b505050565b6004602052806000526040600020600091509050806000016040518060a0016040529081600082015481526020016001820160009054906101000a900473ffffffffffffffffffffffffffffffffffffffff1673ffffffffffffffffffffffffffffffffffffffff1673ffffffffffffffffffffffffffffffffffffffff168152602001600282015481526020016003820160009054906101000a900473ffffffffffffffffffffffffffffffffffffffff1673ffffffffffffffffffffffffffffffffffffffff1673ffffffffffffffffffffffffffffffffffffffff16815260200160048201805461102e906134d7565b80601f016020809104026020016040519081016040528092919081815260200182805461105a906134d7565b80156110a75780601f1061107c576101008083540402835291602001916110a7565b820191906000526020600020905b81548152906001019060200180831161108a57829003601f168201915b505050505081525050908060050154908060060154908060070154908060080160009054906101000a900473ffffffffffffffffffffffffffffffffffffffff16905085565b6040518060400160405280600581526020017f352e302e3000000000000000000000000000000000000000000000000000000081525081565b61112e611fde565b846000800160006101000a81548160ff021916908360ff160217905550836000800160016101000a81548160ff021916908360ff1602179055508260006001018190555081600060020181905550806000600301819055505050505050565b6000611197612164565b905060008160000160089054906101000a900460ff1615905060008260000160009054906101000a900467ffffffffffffffff1690506000808267ffffffffffffffff161480156111e55750825b9050600060018367ffffffffffffffff1614801561121a575060003073ffffffffffffffffffffffffffffffffffffffff163b145b905081158015611228575080155b1561125f576040517ff92ee8a900000000000000000000000000000000000000000000000000000000815260040160405180910390fd5b60018560000160006101000a81548167ffffffffffffffff021916908367ffffffffffffffff16021790555083156112af5760018560000160086101000a81548160ff0219169083151502179055505b6112b88661218c565b6112c06121a0565b6040518060a00160405280600160ff168152602001600160ff1681526020016014815260200160c88152602001601e8152506000808201518160000160006101000a81548160ff021916908360ff16021790555060208201518160000160016101000a81548160ff021916908360ff16021790555060408201518160010155606082015181600201556080820151816003015590505083156113b25760008560000160086101000a81548160ff0219169083151502179055507fc7f505b2f371ae2175ee4913f4499e1f2633a7b5936321eed1cdaeb6115181d260016040516113a99190613bb3565b60405180910390a15b505050505050565b6113c2611fde565b600760008273ffffffffffffffffffffffffffffffffffffffff1673ffffffffffffffffffffffffffffffffffffffff16815260200190815260200160002060009054906101000a900460ff161561144f576040517f08c379a000000000000000000000000000000000000000000000000000000000815260040161144690613c1a565b60405180910390fd5b6001600760008373ffffffffffffffffffffffffffffffffffffffff1673ffffffffffffffffffffffffffffffffffffffff16815260200190815260200160002060006101000a81548160ff0219169083151502179055508073ffffffffffffffffffffffffffffffffffffffff167e47706786c922d17b39285dc59d696bafea72c0b003d3841ae1202076f4c2e460405160405180910390a250565b6114f4611fde565b600073ffffffffffffffffffffffffffffffffffffffff168173ffffffffffffffffffffffffffffffffffffffff16036115665760006040517f1e4fbdf700000000000000000000000000000000000000000000000000000000815260040161155d9190613007565b60405180910390fd5b61156f81612065565b50565b600080600101548210156115bb576040517f08c379a00000000000000000000000000000000000000000000000000000000081526004016115b290613c86565b60405180910390fd5b600060020154821115611603576040517f08c379a00000000000000000000000000000000000000000000000000000000081526004016115fa90613cf2565b60405180910390fd5b60003386604051602001611618929190613d12565b60405160208183030381529060405280519060200120905060006004600083815260200190815260200160002060060154146116a757436004600083815260200190815260200160002060060154106116a6576040517f08c379a000000000000000000000000000000000000000000000000000000000815260040161169d90613d8a565b60405180910390fd5b5b6040518060a001604052806040518060a001604052808481526020013373ffffffffffffffffffffffffffffffffffffffff1681526020018981526020018873ffffffffffffffffffffffffffffffffffffffff168152602001878152508152602001438152602001844361171c9190613b30565b81526020013481526020013373ffffffffffffffffffffffffffffffffffffffff16815250600460008381526020019081526020016000206000820151816000016000820151816000015560208201518160010160006101000a81548173ffffffffffffffffffffffffffffffffffffffff021916908373ffffffffffffffffffffffffffffffffffffffff1602179055506040820151816002015560608201518160030160006101000a81548173ffffffffffffffffffffffffffffffffffffffff021916908373ffffffffffffffffffffffffffffffffffffffff160217905550608082015181600401908161181491906138b0565b50505060208201518160050155604082015181600601556060820151816007015560808201518160080160006101000a81548173ffffffffffffffffffffffffffffffffffffffff021916908373ffffffffffffffffffffffffffffffffffffffff1602179055509050506006600081548092919061189290613daa565b91905055507f5e6d938c08cc700747b34ecac565dfbe73fbef6a5eb7ea110f430ad6c244a7d8600460008381526020019081526020016000206000016040516118db9190613f84565b60405180910390a16001915050949350505050565b6118f8611fde565b600760008273ffffffffffffffffffffffffffffffffffffffff1673ffffffffffffffffffffffffffffffffffffffff16815260200190815260200160002060009054906101000a900460ff16611984576040517f08c379a000000000000000000000000000000000000000000000000000000000815260040161197b90613ff2565b60405180910390fd5b600760008273ffffffffffffffffffffffffffffffffffffffff1673ffffffffffffffffffffffffffffffffffffffff16815260200190815260200160002060006101000a81549060ff02191690558073ffffffffffffffffffffffffffffffffffffffff167f9c8e7d83025bef8a04c664b2f753f64b8814bdb7e27291d7e50935f18cc3c71260405160405180910390a250565b8060ff1682511015611a60576040517f08c379a0000000000000000000000000000000000000000000000000000000008152600401611a579061405e565b60405180910390fd5b6000825167ffffffffffffffff811115611a7d57611a7c61296b565b5b604051908082528060200260200182016040528015611aab5781602001602082028036833780820191505090505b5090506000805b8451811015611c8d576000611ae187878481518110611ad457611ad3613ad2565b5b60200260200101516121aa565b9050600760008273ffffffffffffffffffffffffffffffffffffffff1673ffffffffffffffffffffffffffffffffffffffff16815260200190815260200160002060009054906101000a900460ff16611b6f576040517f08c379a0000000000000000000000000000000000000000000000000000000008152600401611b66906140ca565b60405180910390fd5b60005b83811015611c0f578173ffffffffffffffffffffffffffffffffffffffff16858281518110611ba457611ba3613ad2565b5b602002602001015173ffffffffffffffffffffffffffffffffffffffff1603611c02576040517f08c379a0000000000000000000000000000000000000000000000000000000008152600401611bf990614136565b60405180910390fd5b8080600101915050611b72565b5080848481518110611c2457611c23613ad2565b5b602002602001019073ffffffffffffffffffffffffffffffffffffffff16908173ffffffffffffffffffffffffffffffffffffffff16815250508280611c6990613daa565b9350508460ff168310611c7f5750505050611cd7565b508080600101915050611ab2565b508260ff16811015611cd4576040517f08c379a0000000000000000000000000000000000000000000000000000000008152600401611ccb906141c8565b60405180910390fd5b50505b505050565b7f000000000000000000000000000000000000000000000000000000000000000073ffffffffffffffffffffffffffffffffffffffff163073ffffffffffffffffffffffffffffffffffffffff161480611d8957507f000000000000000000000000000000000000000000000000000000000000000073ffffffffffffffffffffffffffffffffffffffff16611d706121d6565b73ffffffffffffffffffffffffffffffffffffffff1614155b15611dc0576040517fe07c8dba00000000000000000000000000000000000000000000000000000000815260040160405180910390fd5b565b611dca611fde565b50565b8173ffffffffffffffffffffffffffffffffffffffff166352d1902d6040518163ffffffff1660e01b8152600401602060405180830381865afa925050508015611e3557506040513d601f19601f82011682018060405250810190611e3291906141fd565b60015b611e7657816040517f4c9c8ce3000000000000000000000000000000000000000000000000000000008152600401611e6d9190613007565b60405180910390fd5b7f360894a13ba1a3210667c828492db98dca3e2076cc3735a920a3ca505d382bbc60001b8114611edd57806040517faa1d49a4000000000000000000000000000000000000000000000000000000008152600401611ed49190612e67565b60405180910390fd5b611ee7838361222d565b505050565b7f000000000000000000000000000000000000000000000000000000000000000073ffffffffffffffffffffffffffffffffffffffff163073ffffffffffffffffffffffffffffffffffffffff1614611f71576040517fe07c8dba00000000000000000000000000000000000000000000000000000000815260040160405180910390fd5b565b6060604482511015611fbc576040518060400160405280600f81526020017f556e6b6e6f776e206661696c75726500000000000000000000000000000000008152509050611fd9565b60048201915081806020019051810190611fd691906142cb565b90505b919050565b611fe66122a0565b73ffffffffffffffffffffffffffffffffffffffff16612004610ddf565b73ffffffffffffffffffffffffffffffffffffffff1614612063576120276122a0565b6040517f118cdaa700000000000000000000000000000000000000000000000000000000815260040161205a9190613007565b60405180910390fd5b565b600061206f61213c565b905060008160000160009054906101000a900473ffffffffffffffffffffffffffffffffffffffff169050828260000160006101000a81548173ffffffffffffffffffffffffffffffffffffffff021916908373ffffffffffffffffffffffffffffffffffffffff1602179055508273ffffffffffffffffffffffffffffffffffffffff168173ffffffffffffffffffffffffffffffffffffffff167f8be0079c531659141344cd1fd0a4f28419497f9722a3daafe3b4186f6b6457e060405160405180910390a3505050565b60007f9016d09d72d40fdae2fd8ceac6b6234c7706214fd39c1cd1e609a0528c199300905090565b60007ff0c57e16840df040f15088dc2f81fe391c3923bec73e23a9662efc9c229c6a00905090565b6121946122a8565b61219d816122e8565b50565b6121a86122a8565b565b6000806000806121ba868661236e565b9250925092506121ca82826123ca565b82935050505092915050565b60006122047f360894a13ba1a3210667c828492db98dca3e2076cc3735a920a3ca505d382bbc60001b61252e565b60000160009054906101000a900473ffffffffffffffffffffffffffffffffffffffff16905090565b61223682612538565b8173ffffffffffffffffffffffffffffffffffffffff167fbc7cd75a20ee27fd9adebab32041f755214dbc6bffa90cc0225b39da2e5c2d3b60405160405180910390a26000815111156122935761228d8282612605565b5061229c565b61229b612689565b5b5050565b600033905090565b6122b06126c6565b6122e6576040517fd7e6bcf800000000000000000000000000000000000000000000000000000000815260040160405180910390fd5b565b6122f06122a8565b600073ffffffffffffffffffffffffffffffffffffffff168173ffffffffffffffffffffffffffffffffffffffff16036123625760006040517f1e4fbdf70000000000000000000000000000000000000000000000000000000081526004016123599190613007565b60405180910390fd5b61236b81612065565b50565b600080600060418451036123b35760008060006020870151925060408701519150606087015160001a90506123a5888285856126e6565b9550955095505050506123c3565b60006002855160001b9250925092505b9250925092565b600060038111156123de576123dd614314565b5b8260038111156123f1576123f0614314565b5b031561252a576001600381111561240b5761240a614314565b5b82600381111561241e5761241d614314565b5b03612455576040517ff645eedf00000000000000000000000000000000000000000000000000000000815260040160405180910390fd5b6002600381111561246957612468614314565b5b82600381111561247c5761247b614314565b5b036124c1578060001c6040517ffce698f70000000000000000000000000000000000000000000000000000000081526004016124b89190612e3d565b60405180910390fd5b6003808111156124d4576124d3614314565b5b8260038111156124e7576124e6614314565b5b0361252957806040517fd78bce0c0000000000000000000000000000000000000000000000000000000081526004016125209190612e67565b60405180910390fd5b5b5050565b6000819050919050565b60008173ffffffffffffffffffffffffffffffffffffffff163b0361259457806040517f4c9c8ce300000000000000000000000000000000000000000000000000000000815260040161258b9190613007565b60405180910390fd5b806125c17f360894a13ba1a3210667c828492db98dca3e2076cc3735a920a3ca505d382bbc60001b61252e565b60000160006101000a81548173ffffffffffffffffffffffffffffffffffffffff021916908373ffffffffffffffffffffffffffffffffffffffff16021790555050565b60606000808473ffffffffffffffffffffffffffffffffffffffff168460405161262f9190613a68565b600060405180830381855af49150503d806000811461266a576040519150601f19603f3d011682016040523d82523d6000602084013e61266f565b606091505b509150915061267f8583836127da565b9250505092915050565b60003411156126c4576040517fb398979f00000000000000000000000000000000000000000000000000000000815260040160405180910390fd5b565b60006126d0612164565b60000160089054906101000a900460ff16905090565b60008060007f7fffffffffffffffffffffffffffffff5d576e7357a4501ddfe92f46681b20a08460001c11156127265760006003859250925092506127d0565b60006001888888886040516000815260200160405260405161274b9493929190614343565b6020604051602081039080840390855afa15801561276d573d6000803e3d6000fd5b505050602060405103519050600073ffffffffffffffffffffffffffffffffffffffff168173ffffffffffffffffffffffffffffffffffffffff16036127c157600060016000801b935093509350506127d0565b8060008060001b935093509350505b9450945094915050565b6060826127ef576127ea82612869565b612861565b60008251148015612817575060008473ffffffffffffffffffffffffffffffffffffffff163b145b1561285957836040517f9996b3150000000000000000000000000000000000000000000000000000000081526004016128509190613007565b60405180910390fd5b819050612862565b5b9392505050565b60008151111561287c5780518082602001fd5b6040517fd6bda27500000000000000000000000000000000000000000000000000000000815260040160405180910390fd5b5080546128ba906134d7565b6000825580601f106128cc57506128eb565b601f0160209004906000526020600020908101906128ea91906128ee565b5b50565b5b808211156129075760008160009055506001016128ef565b5090565b6000604051905090565b600080fd5b600080fd5b6000819050919050565b6129328161291f565b811461293d57600080fd5b50565b60008135905061294f81612929565b92915050565b600080fd5b6000601f19601f8301169050919050565b7f4e487b7100000000000000000000000000000000000000000000000000000000600052604160045260246000fd5b6129a38261295a565b810181811067ffffffffffffffff821117156129c2576129c161296b565b5b80604052505050565b60006129d561290b565b90506129e1828261299a565b919050565b600067ffffffffffffffff821115612a0157612a0061296b565b5b602082029050602081019050919050565b600080fd5b600080fd5b600067ffffffffffffffff821115612a3757612a3661296b565b5b612a408261295a565b9050602081019050919050565b82818337600083830152505050565b6000612a6f612a6a84612a1c565b6129cb565b905082815260208101848484011115612a8b57612a8a612a17565b5b612a96848285612a4d565b509392505050565b600082601f830112612ab357612ab2612955565b5b8135612ac3848260208601612a5c565b91505092915050565b6000612adf612ada846129e6565b6129cb565b90508083825260208201905060208402830185811115612b0257612b01612a12565b5b835b81811015612b4957803567ffffffffffffffff811115612b2757612b26612955565b5b808601612b348982612a9e565b85526020850194505050602081019050612b04565b5050509392505050565b600082601f830112612b6857612b67612955565b5b8135612b78848260208601612acc565b91505092915050565b60008060408385031215612b9857612b97612915565b5b6000612ba685828601612940565b925050602083013567ffffffffffffffff811115612bc757612bc661291a565b5b612bd385828601612b53565b9150509250929050565b600060208284031215612bf357612bf2612915565b5b6000612c0184828501612940565b91505092915050565b612c138161291f565b82525050565b600073ffffffffffffffffffffffffffffffffffffffff82169050919050565b6000612c4482612c19565b9050919050565b612c5481612c39565b82525050565b600081519050919050565b600082825260208201905092915050565b60005b83811015612c94578082015181840152602081019050612c79565b60008484015250505050565b6000612cab82612c5a565b612cb58185612c65565b9350612cc5818560208601612c76565b612cce8161295a565b840191505092915050565b600060a083016000830151612cf16000860182612c0a565b506020830151612d046020860182612c0a565b506040830151612d176040860182612c0a565b506060830151612d2a6060860182612c4b565b5060808301518482036080860152612d428282612ca0565b9150508091505092915050565b6000819050919050565b612d6281612d4f565b82525050565b612d7181612c39565b82525050565b60006060820190508181036000830152612d918186612cd9565b9050612da06020830185612d59565b612dad6040830184612d68565b949350505050565b612dbe81612c39565b8114612dc957600080fd5b50565b600081359050612ddb81612db5565b92915050565b60008060408385031215612df857612df7612915565b5b6000612e0685828601612dcc565b925050602083013567ffffffffffffffff811115612e2757612e2661291a565b5b612e3385828601612a9e565b9150509250929050565b6000602082019050612e526000830184612d59565b92915050565b612e618161291f565b82525050565b6000602082019050612e7c6000830184612e58565b92915050565b600080600080600060a08688031215612e9e57612e9d612915565b5b6000612eac88828901612940565b9550506020612ebd88828901612940565b9450506040612ece88828901612dcc565b935050606086013567ffffffffffffffff811115612eef57612eee61291a565b5b612efb88828901612a9e565b925050608086013567ffffffffffffffff811115612f1c57612f1b61291a565b5b612f2888828901612b53565b9150509295509295909350565b600060ff82169050919050565b612f4b81612f35565b82525050565b600060a082019050612f666000830188612f42565b612f736020830187612f42565b612f806040830186612d59565b612f8d6060830185612d59565b612f9a6080830184612d59565b9695505050505050565b600060208284031215612fba57612fb9612915565b5b6000612fc884828501612dcc565b91505092915050565b60008115159050919050565b612fe681612fd1565b82525050565b60006020820190506130016000830184612fdd565b92915050565b600060208201905061301c6000830184612d68565b92915050565b600080fd5b60008083601f84011261303d5761303c612955565b5b8235905067ffffffffffffffff81111561305a57613059613022565b5b60208301915083602082028301111561307657613075612a12565b5b9250929050565b6000806020838503121561309457613093612915565b5b600083013567ffffffffffffffff8111156130b2576130b161291a565b5b6130be85828601613027565b92509250509250929050565b600060a0830160008301516130e26000860182612c0a565b5060208301516130f56020860182612c4b565b5060408301516131086040860182612c0a565b50606083015161311b6060860182612c4b565b50608083015184820360808601526131338282612ca0565b9150508091505092915050565b600060a082019050818103600083015261315a81886130ca565b90506131696020830187612d59565b6131766040830186612d59565b6131836060830185612d59565b6131906080830184612d68565b9695505050505050565b600081519050919050565b600082825260208201905092915050565b60006131c18261319a565b6131cb81856131a5565b93506131db818560208601612c76565b6131e48161295a565b840191505092915050565b6000602082019050818103600083015261320981846131b6565b905092915050565b61321a81612f35565b811461322557600080fd5b50565b60008135905061323781613211565b92915050565b61324681612d4f565b811461325157600080fd5b50565b6000813590506132638161323d565b92915050565b600080600080600060a0868803121561328557613284612915565b5b600061329388828901613228565b95505060206132a488828901613228565b94505060406132b588828901613254565b93505060606132c688828901613254565b92505060806132d788828901613254565b9150509295509295909350565b600080600080608085870312156132fe576132fd612915565b5b600061330c87828801612940565b945050602061331d87828801612dcc565b935050604085013567ffffffffffffffff81111561333e5761333d61291a565b5b61334a87828801612a9e565b925050606061335b87828801613254565b91505092959194509250565b7f4d657373616765206e6f7420666f756e64000000000000000000000000000000600082015250565b600061339d6011836131a5565b91506133a882613367565b602082019050919050565b600060208201905081810360008301526133cc81613390565b9050919050565b7f44656c697665727920636f6e6669726d6174696f6e206f766572647565000000600082015250565b6000613409601d836131a5565b9150613414826133d3565b602082019050919050565b60006020820190508181036000830152613438816133fc565b9050919050565b60008160601b9050919050565b60006134578261343f565b9050919050565b60006134698261344c565b9050919050565b61348161347c82612c39565b61345e565b82525050565b6000819050919050565b6134a261349d8261291f565b613487565b82525050565b7f4e487b7100000000000000000000000000000000000000000000000000000000600052602260045260246000fd5b600060028204905060018216806134ef57607f821691505b602082108103613502576135016134a8565b5b50919050565b600081905092915050565b60008190508160005260206000209050919050565b60008154613535816134d7565b61353f8186613508565b9450600182166000811461355a576001811461356f576135a2565b60ff19831686528115158202860193506135a2565b61357885613513565b60005b8381101561359a5781548189015260018201915060208101905061357b565b838801955050505b50505092915050565b60006135b78288613470565b6014820191506135c78287613491565b6020820191506135d78286613470565b6014820191506135e78285613528565b91506135f38284613470565b6014820191508190509695505050505050565b600061361182612c5a565b61361b8185613508565b935061362b818560208601612c76565b80840191505092915050565b60006136438287613491565b6020820191506136538286613491565b6020820191506136638285613470565b6014820191506136738284613606565b915081905095945050505050565b600061368d8285613491565b60208201915061369d8284613491565b6020820191508190509392505050565b7f4d65737361676520616c72656164792072656365697665640000000000000000600082015250565b60006136e36018836131a5565b91506136ee826136ad565b602082019050919050565b60006020820190508181036000830152613712816136d6565b9050919050565b60006020601f8301049050919050565b600082821b905092915050565b6000600883026137667fffffffffffffffffffffffffffffffffffffffffffffffffffffffffffffffff82613729565b6137708683613729565b95508019841693508086168417925050509392505050565b6000819050919050565b60006137ad6137a86137a384612d4f565b613788565b612d4f565b9050919050565b6000819050919050565b6137c783613792565b6137db6137d3826137b4565b848454613736565b825550505050565b600090565b6137f06137e3565b6137fb8184846137be565b505050565b5b8181101561381f576138146000826137e8565b600181019050613801565b5050565b601f8211156138645761383581613513565b61383e84613719565b8101602085101561384d578190505b61386161385985613719565b830182613800565b50505b505050565b600082821c905092915050565b600061388760001984600802613869565b1980831691505092915050565b60006138a08383613876565b9150826002028217905092915050565b6138b982612c5a565b67ffffffffffffffff8111156138d2576138d161296b565b5b6138dc82546134d7565b6138e7828285613823565b600060209050601f83116001811461391a5760008415613908578287015190505b6139128582613894565b86555061397a565b601f19841661392886613513565b60005b828110156139505784890151825560018201915060208501945060208101905061392b565b8683101561396d5784890151613969601f891682613876565b8355505b6001600288020188555050505b505050505050565b7f526563697069656e74206973206e6f74206120636f6e74726163740000000000600082015250565b60006139b8601b836131a5565b91506139c382613982565b602082019050919050565b600060208201905081810360008301526139e7816139ab565b9050919050565b600082825260208201905092915050565b6000613a0a82612c5a565b613a1481856139ee565b9350613a24818560208601612c76565b613a2d8161295a565b840191505092915050565b6000604082019050613a4d6000830185612e58565b8181036020830152613a5f81846139ff565b90509392505050565b6000613a748284613606565b915081905092915050565b6000608082019050613a946000830187612e58565b613aa16020830186612d68565b8181036040830152613ab381856139ff565b90508181036060830152613ac781846131b6565b905095945050505050565b7f4e487b7100000000000000000000000000000000000000000000000000000000600052603260045260246000fd5b7f4e487b7100000000000000000000000000000000000000000000000000000000600052601160045260246000fd5b6000613b3b82612d4f565b9150613b4683612d4f565b9250828201905080821115613b5e57613b5d613b01565b5b92915050565b6000819050919050565b600067ffffffffffffffff82169050919050565b6000613b9d613b98613b9384613b64565b613788565b613b6e565b9050919050565b613bad81613b82565b82525050565b6000602082019050613bc86000830184613ba4565b92915050565b7f4f7261636c6520616c7265616479206164646564000000000000000000000000600082015250565b6000613c046014836131a5565b9150613c0f82613bce565b602082019050919050565b60006020820190508181036000830152613c3381613bf7565b9050919050565b7f54544c20746f6f20736d616c6c00000000000000000000000000000000000000600082015250565b6000613c70600d836131a5565b9150613c7b82613c3a565b602082019050919050565b60006020820190508181036000830152613c9f81613c63565b9050919050565b7f54544c20746f6f206c6172676500000000000000000000000000000000000000600082015250565b6000613cdc600d836131a5565b9150613ce782613ca6565b602082019050919050565b60006020820190508181036000830152613d0b81613ccf565b9050919050565b6000613d1e8285613470565b601482019150613d2e8284613491565b6020820191508190509392505050565b7f4d65737361676520776974682073616d65206e6f6e63652070656e64696e6700600082015250565b6000613d74601f836131a5565b9150613d7f82613d3e565b602082019050919050565b60006020820190508181036000830152613da381613d67565b9050919050565b6000613db582612d4f565b91507fffffffffffffffffffffffffffffffffffffffffffffffffffffffffffffffff8203613de757613de6613b01565b5b600182019050919050565b60008160001c9050919050565b6000819050919050565b6000613e1c613e1783613df2565b613dff565b9050919050565b600073ffffffffffffffffffffffffffffffffffffffff82169050919050565b6000613e56613e5183613df2565b613e23565b9050919050565b60008154613e6a816134d7565b613e748186612c65565b94506001821660008114613e8f5760018114613ea557613ed8565b60ff198316865281151560200286019350613ed8565b613eae85613513565b60005b83811015613ed057815481890152600182019150602081019050613eb1565b808801955050505b50505092915050565b600060a083016000808401549050613ef881613e09565b613f056000870182612c0a565b5060018401549050613f1681613e43565b613f236020870182612c4b565b5060028401549050613f3481613e09565b613f416040870182612c0a565b5060038401549050613f5281613e43565b613f5f6060870182612c4b565b50600484018583036080870152613f768382613e5d565b925050819250505092915050565b60006020820190508181036000830152613f9e8184613ee1565b905092915050565b7f4f7261636c65206e6f7420666f756e6400000000000000000000000000000000600082015250565b6000613fdc6010836131a5565b9150613fe782613fa6565b602082019050919050565b6000602082019050818103600083015261400b81613fcf565b9050919050565b7f4e6f7420656e6f756768207369676e6174757265730000000000000000000000600082015250565b60006140486015836131a5565b915061405382614012565b602082019050919050565b600060208201905081810360008301526140778161403b565b9050919050565b7f496e76616c6964207369676e6174757265000000000000000000000000000000600082015250565b60006140b46011836131a5565b91506140bf8261407e565b602082019050919050565b600060208201905081810360008301526140e3816140a7565b9050919050565b7f4475706c6963617465207369676e617475726520646574656374656400000000600082015250565b6000614120601c836131a5565b915061412b826140ea565b602082019050919050565b6000602082019050818103600083015261414f81614113565b9050919050565b7f4e6f7420656e6f75676820756e697175652076616c6964207369676e6174757260008201527f6573000000000000000000000000000000000000000000000000000000000000602082015250565b60006141b26022836131a5565b91506141bd82614156565b604082019050919050565b600060208201905081810360008301526141e1816141a5565b9050919050565b6000815190506141f781612929565b92915050565b60006020828403121561421357614212612915565b5b6000614221848285016141e8565b91505092915050565b600067ffffffffffffffff8211156142455761424461296b565b5b61424e8261295a565b9050602081019050919050565b600061426e6142698461422a565b6129cb565b90508281526020810184848401111561428a57614289612a17565b5b614295848285612c76565b509392505050565b600082601f8301126142b2576142b1612955565b5b81516142c284826020860161425b565b91505092915050565b6000602082840312156142e1576142e0612915565b5b600082015167ffffffffffffffff8111156142ff576142fe61291a565b5b61430b8482850161429d565b91505092915050565b7f4e487b7100000000000000000000000000000000000000000000000000000000600052602160045260246000fd5b60006080820190506143586000830187612e58565b6143656020830186612f42565b6143726040830185612e58565b61437f6060830184612e58565b9594505050505056fea2646970667358221220645a7b5af5de600f0c0448ebc04eda1bc9b8acd91f62ae57a47a97e45d33a07964736f6c634300081c0033",
  "linkReferences": {},
  "deployedLinkReferences": {}
}