{
  "_format": "hh-sol-artifact-1",
  "contractName": "Ibc",
  "sourceName": "contracts/ibc.sol",
  "abi": [
    {
      "inputs": [],
      "stateMutability": "nonpayable",
      "type": "constructor"
    },
    {
      "inputs": [],
      "name": "ECDSAInvalidSignature",
      "type": "error"
    },
    {
      "inputs": [
        {
          "internalType": "uint256",
          "name": "length",
          "type": "uint256"
        }
      ],
      "name": "ECDSAInvalidSignatureLength",
      "type": "error"
    },
    {
      "inputs": [
        {
          "internalType": "bytes32",
          "name": "s",
          "type": "bytes32"
        }
      ],
      "name": "ECDSAInvalidSignatureS",
      "type": "error"
    },
    {
      "inputs": [
        {
          "internalType": "address",
          "name": "owner",
          "type": "address"
        }
      ],
      "name": "OwnableInvalidOwner",
      "type": "error"
    },
    {
      "inputs": [
        {
          "internalType": "address",
          "name": "account",
          "type": "address"
        }
      ],
      "name": "OwnableUnauthorizedAccount",
      "type": "error"
    },
    {
      "anonymous": false,
      "inputs": [
        {
          "indexed": false,
          "internalType": "bytes32",
          "name": "id",
          "type": "bytes32"
        }
      ],
      "name": "MessageDelivered",
      "type": "event"
    },
    {
      "anonymous": false,
      "inputs": [
        {
          "indexed": false,
          "internalType": "bytes32",
          "name": "id",
          "type": "bytes32"
        }
      ],
      "name": "MessageProcessed",
      "type": "event"
    },
    {
      "anonymous": false,
      "inputs": [
        {
          "indexed": false,
          "internalType": "uint8",
          "name": "senderIndex",
          "type": "uint8"
        },
        {
          "indexed": false,
          "internalType": "bytes32",
          "name": "sender",
          "type": "bytes32"
        },
        {
          "indexed": false,
          "internalType": "address",
          "name": "recipient",
          "type": "address"
        },
        {
          "indexed": false,
          "internalType": "bytes",
          "name": "payload",
          "type": "bytes"
        },
        {
          "indexed": false,
          "internalType": "string",
          "name": "reason",
          "type": "string"
        }
      ],
      "name": "MessageProcessedWithErrors",
      "type": "event"
    },
    {
      "anonymous": false,
      "inputs": [
        {
          "components": [
            {
              "internalType": "bytes32",
              "name": "id",
              "type": "bytes32"
            },
            {
              "internalType": "address",
              "name": "sender",
              "type": "address"
            },
            {
              "internalType": "bytes32",
              "name": "nonce",
              "type": "bytes32"
            },
            {
              "internalType": "uint8",
              "name": "recipientIndex",
              "type": "uint8"
            },
            {
              "internalType": "bytes32",
              "name": "recipient",
              "type": "bytes32"
            },
            {
              "internalType": "bytes",
              "name": "payload",
              "type": "bytes"
            }
          ],
          "indexed": false,
          "internalType": "struct Ibc.OutgoingMessage",
          "name": "message",
          "type": "tuple"
        }
      ],
      "name": "MessageReadyToSend",
      "type": "event"
    },
    {
      "anonymous": false,
      "inputs": [
        {
          "indexed": true,
          "internalType": "address",
          "name": "oracle",
          "type": "address"
        }
      ],
      "name": "OracleAdded",
      "type": "event"
    },
    {
      "anonymous": false,
      "inputs": [
        {
          "indexed": true,
          "internalType": "address",
          "name": "oracle",
          "type": "address"
        }
      ],
      "name": "OracleRemoved",
      "type": "event"
    },
    {
      "anonymous": false,
      "inputs": [
        {
          "indexed": true,
          "internalType": "address",
          "name": "previousOwner",
          "type": "address"
        },
        {
          "indexed": true,
          "internalType": "address",
          "name": "newOwner",
          "type": "address"
        }
      ],
      "name": "OwnershipTransferred",
      "type": "event"
    },
    {
      "inputs": [],
      "name": "ACURAST_INDEX",
      "outputs": [
        {
          "internalType": "uint8",
          "name": "",
          "type": "uint8"
        }
      ],
      "stateMutability": "view",
      "type": "function"
    },
    {
      "inputs": [],
      "name": "ETHEREUM_INDEX",
      "outputs": [
        {
          "internalType": "uint8",
          "name": "",
          "type": "uint8"
        }
      ],
      "stateMutability": "view",
      "type": "function"
    },
    {
      "inputs": [
        {
          "internalType": "address",
          "name": "oracle",
          "type": "address"
        }
      ],
      "name": "addOracle",
      "outputs": [],
      "stateMutability": "nonpayable",
      "type": "function"
    },
    {
      "inputs": [
        {
          "internalType": "bytes32[]",
          "name": "clean",
          "type": "bytes32[]"
        }
      ],
      "name": "cleanIncomingIndex",
      "outputs": [],
      "stateMutability": "nonpayable",
      "type": "function"
    },
    {
      "inputs": [],
      "name": "config",
      "outputs": [
        {
          "internalType": "uint8",
          "name": "minDeliverySignatures",
          "type": "uint8"
        },
        {
          "internalType": "uint8",
          "name": "minReceiptSignatures",
          "type": "uint8"
        },
        {
          "internalType": "uint256",
          "name": "minTTL",
          "type": "uint256"
        },
        {
          "internalType": "uint256",
          "name": "maxTTL",
          "type": "uint256"
        },
        {
          "internalType": "uint256",
          "name": "incomingTTL",
          "type": "uint256"
        }
      ],
      "stateMutability": "view",
      "type": "function"
    },
    {
      "inputs": [
        {
          "internalType": "uint8",
          "name": "minDeliverySignatures",
          "type": "uint8"
        },
        {
          "internalType": "uint8",
          "name": "minReceiptSignatures",
          "type": "uint8"
        },
        {
          "internalType": "uint256",
          "name": "minTTL",
          "type": "uint256"
        },
        {
          "internalType": "uint256",
          "name": "maxTTL",
          "type": "uint256"
        },
        {
          "internalType": "uint256",
          "name": "incomingTTL",
          "type": "uint256"
        }
      ],
      "name": "configure",
      "outputs": [],
      "stateMutability": "nonpayable",
      "type": "function"
    },
    {
      "inputs": [
        {
          "internalType": "bytes32",
          "name": "id",
          "type": "bytes32"
        },
        {
          "internalType": "bytes[]",
          "name": "signatures",
          "type": "bytes[]"
        }
      ],
      "name": "confirmMessageDelivery",
      "outputs": [],
      "stateMutability": "nonpayable",
      "type": "function"
    },
    {
      "inputs": [
        {
          "internalType": "bytes32",
          "name": "",
          "type": "bytes32"
        }
      ],
      "name": "incoming",
      "outputs": [
        {
          "components": [
            {
              "internalType": "bytes32",
              "name": "id",
              "type": "bytes32"
            },
            {
              "internalType": "uint8",
              "name": "senderIndex",
              "type": "uint8"
            },
            {
              "internalType": "bytes32",
              "name": "sender",
              "type": "bytes32"
            },
            {
              "internalType": "bytes32",
              "name": "nonce",
              "type": "bytes32"
            },
            {
              "internalType": "address",
              "name": "recipient",
              "type": "address"
            },
            {
              "internalType": "bytes",
              "name": "payload",
              "type": "bytes"
            }
          ],
          "internalType": "struct Ibc.IncomingMessage",
          "name": "message",
          "type": "tuple"
        },
        {
          "internalType": "uint256",
          "name": "currentBlock",
          "type": "uint256"
        },
        {
          "internalType": "address",
          "name": "relayer",
          "type": "address"
        }
      ],
      "stateMutability": "view",
      "type": "function"
    },
    {
      "inputs": [],
      "name": "messageCounter",
      "outputs": [
        {
          "internalType": "uint256",
          "name": "",
          "type": "uint256"
        }
      ],
      "stateMutability": "view",
      "type": "function"
    },
    {
      "inputs": [
        {
          "internalType": "address",
          "name": "",
          "type": "address"
        }
      ],
      "name": "oraclePublicKeys",
      "outputs": [
        {
          "internalType": "bool",
          "name": "",
          "type": "bool"
        }
      ],
      "stateMutability": "view",
      "type": "function"
    },
    {
      "inputs": [
        {
          "internalType": "bytes32",
          "name": "",
          "type": "bytes32"
        }
      ],
      "name": "outgoing",
      "outputs": [
        {
          "components": [
            {
              "internalType": "bytes32",
              "name": "id",
              "type": "bytes32"
            },
            {
              "internalType": "address",
              "name": "sender",
              "type": "address"
            },
            {
              "internalType": "bytes32",
              "name": "nonce",
              "type": "bytes32"
            },
            {
              "internalType": "uint8",
              "name": "recipientIndex",
              "type": "uint8"
            },
            {
              "internalType": "bytes32",
              "name": "recipient",
              "type": "bytes32"
            },
            {
              "internalType": "bytes",
              "name": "payload",
              "type": "bytes"
            }
          ],
          "internalType": "struct Ibc.OutgoingMessage",
          "name": "message",
          "type": "tuple"
        },
        {
          "internalType": "uint256",
          "name": "currentBlock",
          "type": "uint256"
        },
        {
          "internalType": "uint256",
          "name": "ttlBlock",
          "type": "uint256"
        },
        {
          "internalType": "uint256",
          "name": "fee",
          "type": "uint256"
        },
        {
          "internalType": "address",
          "name": "payer",
          "type": "address"
        }
      ],
      "stateMutability": "view",
      "type": "function"
    },
    {
      "inputs": [],
      "name": "owner",
      "outputs": [
        {
          "internalType": "address",
          "name": "",
          "type": "address"
        }
      ],
      "stateMutability": "view",
      "type": "function"
    },
    {
      "inputs": [
        {
          "internalType": "bytes32",
          "name": "acruastSender",
          "type": "bytes32"
        },
        {
          "internalType": "bytes32",
          "name": "nonce",
          "type": "bytes32"
        },
        {
          "internalType": "uint8",
          "name": "recipientIndex",
          "type": "uint8"
        },
        {
          "internalType": "address",
          "name": "recipient",
          "type": "address"
        },
        {
          "internalType": "bytes",
          "name": "payload",
          "type": "bytes"
        },
        {
          "internalType": "bytes[]",
          "name": "signatures",
          "type": "bytes[]"
        }
      ],
      "name": "receiveMessage",
      "outputs": [],
      "stateMutability": "nonpayable",
      "type": "function"
    },
    {
      "inputs": [
        {
          "internalType": "address",
          "name": "oracle",
          "type": "address"
        }
      ],
      "name": "removeOracle",
      "outputs": [],
      "stateMutability": "nonpayable",
      "type": "function"
    },
    {
      "inputs": [],
      "name": "renounceOwnership",
      "outputs": [],
      "stateMutability": "nonpayable",
      "type": "function"
    },
    {
      "inputs": [
        {
          "internalType": "bytes32",
          "name": "nonce",
          "type": "bytes32"
        },
        {
          "internalType": "bytes32",
          "name": "recipient",
          "type": "bytes32"
        },
        {
          "internalType": "bytes",
          "name": "payload",
          "type": "bytes"
        },
        {
          "internalType": "uint256",
          "name": "ttl",
          "type": "uint256"
        }
      ],
      "name": "sendMessage",
      "outputs": [
        {
          "internalType": "bool",
          "name": "",
          "type": "bool"
        }
      ],
      "stateMutability": "payable",
      "type": "function"
    },
    {
      "inputs": [
        {
          "internalType": "address",
          "name": "newOwner",
          "type": "address"
        }
      ],
      "name": "transferOwnership",
      "outputs": [],
      "stateMutability": "nonpayable",
      "type": "function"
    }
  ],
  "bytecode": "0x608060405234801561001057600080fd5b5033600073ffffffffffffffffffffffffffffffffffffffff168173ffffffffffffffffffffffffffffffffffffffff16036100845760006040517f1e4fbdf700000000000000000000000000000000000000000000000000000000815260040161007b9190610235565b60405180910390fd5b6100938161013060201b60201c565b506040518060a00160405280600160ff168152602001600160ff1681526020016014815260200160c88152602001601e815250600160008201518160000160006101000a81548160ff021916908360ff16021790555060208201518160000160016101000a81548160ff021916908360ff160217905550604082015181600101556060820151816002015560808201518160030155905050610250565b60008060009054906101000a900473ffffffffffffffffffffffffffffffffffffffff169050816000806101000a81548173ffffffffffffffffffffffffffffffffffffffff021916908373ffffffffffffffffffffffffffffffffffffffff1602179055508173ffffffffffffffffffffffffffffffffffffffff168173ffffffffffffffffffffffffffffffffffffffff167f8be0079c531659141344cd1fd0a4f28419497f9722a3daafe3b4186f6b6457e060405160405180910390a35050565b600073ffffffffffffffffffffffffffffffffffffffff82169050919050565b600061021f826101f4565b9050919050565b61022f81610214565b82525050565b600060208201905061024a6000830184610226565b92915050565b613a1a8061025f6000396000f3fe6080604052600436106100fe5760003560e01c80638da5cb5b11610095578063c83ae34411610064578063c83ae3441461032b578063c8a2448214610356578063df5dd1a514610386578063f2fde38b146103af578063fdc85fc4146103d8576100fe565b80638da5cb5b1461026d5780638f618b1614610298578063aa810c42146102c1578063b6c72acf14610302576100fe565b8063715018a6116100d1578063715018a6146101bf57806379502c55146101d65780637c106ea91461020557806385b4205814610242576100fe565b80631d162598146101035780632852ab6b1461012c5780634ae593a714610155578063529c758814610194575b600080fd5b34801561010f57600080fd5b5061012a60048036038101906101259190612236565b610401565b005b34801561013857600080fd5b50610153600480360381019061014e91906122fb565b610899565b005b34801561016157600080fd5b5061017c60048036038101906101779190612357565b610bb1565b60405161018b939291906124e1565b60405180910390f35b3480156101a057600080fd5b506101a9610d28565b6040516101b6919061251f565b60405180910390f35b3480156101cb57600080fd5b506101d4610d2e565b005b3480156101e257600080fd5b506101eb610d42565b6040516101fc959493929190612549565b60405180910390f35b34801561021157600080fd5b5061022c6004803603810190610227919061259c565b610d80565b60405161023991906125e4565b60405180910390f35b34801561024e57600080fd5b50610257610da0565b60405161026491906125ff565b60405180910390f35b34801561027957600080fd5b50610282610da5565b60405161028f919061261a565b60405180910390f35b3480156102a457600080fd5b506102bf60048036038101906102ba9190612690565b610dce565b005b3480156102cd57600080fd5b506102e860048036038101906102e39190612357565b610f06565b6040516102f9959493929190612766565b60405180910390f35b34801561030e57600080fd5b50610329600480360381019061032491906127ec565b611089565b005b34801561033757600080fd5b506103406110f1565b60405161034d91906125ff565b60405180910390f35b610370600480360381019061036b9190612867565b6110f6565b60405161037d91906125e4565b60405180910390f35b34801561039257600080fd5b506103ad60048036038101906103a8919061259c565b61144c565b005b3480156103bb57600080fd5b506103d660048036038101906103d1919061259c565b61157e565b005b3480156103e457600080fd5b506103ff60048036038101906103fa919061259c565b611604565b005b6000868686868660405160200161041c9594939291906129c5565b604051602081830303815290604052805190602001209050600360ff168560ff161461047d576040517f08c379a000000000000000000000000000000000000000000000000000000000815260040161047490612a7d565b60405180910390fd5b61049a8183600160000160019054906101000a900460ff1661172d565b600087876040516020016104af929190612a9d565b6040516020818303038152906040528051906020012090506000801b600660008381526020019081526020016000206000016000015414610525576040517f08c379a000000000000000000000000000000000000000000000000000000000815260040161051c90612b15565b60405180910390fd5b60405180606001604052806040518060c00160405280848152602001600060ff1681526020018b81526020018a81526020018873ffffffffffffffffffffffffffffffffffffffff1681526020018781525081526020014381526020013373ffffffffffffffffffffffffffffffffffffffff16815250600660008381526020019081526020016000206000820151816000016000820151816000015560208201518160010160006101000a81548160ff021916908360ff160217905550604082015181600201556060820151816003015560808201518160040160006101000a81548173ffffffffffffffffffffffffffffffffffffffff021916908373ffffffffffffffffffffffffffffffffffffffff16021790555060a08201518160050190816106539190612d41565b5050506020820151816006015560408201518160070160006101000a81548173ffffffffffffffffffffffffffffffffffffffff021916908373ffffffffffffffffffffffffffffffffffffffff16021790555090505060008573ffffffffffffffffffffffffffffffffffffffff163b11610704576040517f08c379a00000000000000000000000000000000000000000000000000000000081526004016106fb90612e5f565b60405180910390fd5b6000808673ffffffffffffffffffffffffffffffffffffffff168a87604051602401610731929190612ed8565b6040516020818303038152906040527f99189e44000000000000000000000000000000000000000000000000000000007bffffffffffffffffffffffffffffffffffffffffffffffffffffffff19166020820180517bffffffffffffffffffffffffffffffffffffffffffffffffffffffff83818316178352505050506040516107bb9190612f08565b6000604051808303816000865af19150503d80600081146107f8576040519150601f19603f3d011682016040523d82523d6000602084013e6107fd565b606091505b509150915081610856576000610812826119f8565b90507fc239aebd2a06afc574c2d68036bce2d5244b3c7e95dd5889f466a6947fa48eda60008c8a8a8560405161084c959493929190612f63565b60405180910390a1505b7f1915d13f149e2654a02a939345885f8654759bd3347d96fe012c6913df7f86b8836040516108859190612fc4565b60405180910390a150505050505050505050565b6000801b6005600084815260200190815260200160002060000160000154036108f7576040517f08c379a00000000000000000000000000000000000000000000000000000000081526004016108ee9061302b565b60405180910390fd5b4360056000848152602001908152602001600020600701541015610950576040517f08c379a000000000000000000000000000000000000000000000000000000000815260040161094790613097565b60405180910390fd5b60006005600084815260200190815260200160002060000160010160009054906101000a900473ffffffffffffffffffffffffffffffffffffffff166005600085815260200190815260200160002060000160020154600560008681526020019081526020016000206000016004015460056000878152602001908152602001600020600001600501336040516020016109ee95949392919061313a565b604051602081830303815290604052805190602001209050610a238183600160000160009054906101000a900460ff1661172d565b6005600084815260200190815260200160002060090160009054906101000a900473ffffffffffffffffffffffffffffffffffffffff1673ffffffffffffffffffffffffffffffffffffffff166108fc60056000868152602001908152602001600020600801549081150290604051600060405180830381858888f19350505050158015610ab5573d6000803e3d6000fd5b506005600084815260200190815260200160002060008082016000808201600090556001820160006101000a81549073ffffffffffffffffffffffffffffffffffffffff021916905560028201600090556003820160006101000a81549060ff02191690556004820160009055600582016000610b329190611ecc565b50506006820160009055600782016000905560088201600090556009820160006101000a81549073ffffffffffffffffffffffffffffffffffffffff021916905550507ffa39010b12e169f2d7e9a76e381216416dbf5eb59db117ae979592ee9f32388583604051610ba49190612fc4565b60405180910390a1505050565b6006602052806000526040600020600091509050806000016040518060c0016040529081600082015481526020016001820160009054906101000a900460ff1660ff1660ff16815260200160028201548152602001600382015481526020016004820160009054906101000a900473ffffffffffffffffffffffffffffffffffffffff1673ffffffffffffffffffffffffffffffffffffffff1673ffffffffffffffffffffffffffffffffffffffff168152602001600582018054610c7590612b64565b80601f0160208091040260200160405190810160405280929190818152602001828054610ca190612b64565b8015610cee5780601f10610cc357610100808354040283529160200191610cee565b820191906000526020600020905b815481529060010190602001808311610cd157829003601f168201915b505050505081525050908060060154908060070160009054906101000a900473ffffffffffffffffffffffffffffffffffffffff16905083565b60075481565b610d36611a63565b610d406000611aea565b565b60018060000160009054906101000a900460ff16908060000160019054906101000a900460ff16908060010154908060020154908060030154905085565b60086020528060005260406000206000915054906101000a900460ff1681565b600081565b60008060009054906101000a900473ffffffffffffffffffffffffffffffffffffffff16905090565b610dd6611a63565b60005b82829050811015610f01574360016003015460066000868686818110610e0257610e01613195565b5b90506020020135815260200190815260200160002060060154610e2591906131f3565b1015610ef45760066000848484818110610e4257610e41613195565b5b90506020020135815260200190815260200160002060008082016000808201600090556001820160006101000a81549060ff0219169055600282016000905560038201600090556004820160006101000a81549073ffffffffffffffffffffffffffffffffffffffff0219169055600582016000610ec09190611ecc565b505060068201600090556007820160006101000a81549073ffffffffffffffffffffffffffffffffffffffff021916905550505b8080600101915050610dd9565b505050565b6005602052806000526040600020600091509050806000016040518060c0016040529081600082015481526020016001820160009054906101000a900473ffffffffffffffffffffffffffffffffffffffff1673ffffffffffffffffffffffffffffffffffffffff1673ffffffffffffffffffffffffffffffffffffffff168152602001600282015481526020016003820160009054906101000a900460ff1660ff1660ff16815260200160048201548152602001600582018054610fca90612b64565b80601f0160208091040260200160405190810160405280929190818152602001828054610ff690612b64565b80156110435780601f1061101857610100808354040283529160200191611043565b820191906000526020600020905b81548152906001019060200180831161102657829003601f168201915b505050505081525050908060060154908060070154908060080154908060090160009054906101000a900473ffffffffffffffffffffffffffffffffffffffff16905085565b611091611a63565b84600160000160006101000a81548160ff021916908360ff16021790555083600160000160016101000a81548160ff021916908360ff16021790555082600180018190555081600160020181905550806001600301819055505050505050565b600381565b6000600180015482101561113f576040517f08c379a000000000000000000000000000000000000000000000000000000000815260040161113690613273565b60405180910390fd5b600160020154821115611187576040517f08c379a000000000000000000000000000000000000000000000000000000000815260040161117e906132df565b60405180910390fd5b6000338660405160200161119c9291906132ff565b604051602081830303815290604052805190602001209050600060056000838152602001908152602001600020600701541461122b574360056000838152602001908152602001600020600701541061122a576040517f08c379a000000000000000000000000000000000000000000000000000000000815260040161122190613377565b60405180910390fd5b5b6040518060a001604052806040518060c001604052808481526020013373ffffffffffffffffffffffffffffffffffffffff168152602001898152602001600060ff168152602001888152602001878152508152602001438152602001844361129491906131f3565b81526020013481526020013373ffffffffffffffffffffffffffffffffffffffff16815250600560008381526020019081526020016000206000820151816000016000820151816000015560208201518160010160006101000a81548173ffffffffffffffffffffffffffffffffffffffff021916908373ffffffffffffffffffffffffffffffffffffffff1602179055506040820151816002015560608201518160030160006101000a81548160ff021916908360ff1602179055506080820151816004015560a08201518160050190816113709190612d41565b50505060208201518160060155604082015181600701556060820151816008015560808201518160090160006101000a81548173ffffffffffffffffffffffffffffffffffffffff021916908373ffffffffffffffffffffffffffffffffffffffff160217905550905050600760008154809291906113ee90613397565b91905055507f164a225b23eeadc41f48acd565ef67a5f3c3496fa1ae34d1f974df6ce63fed6d6005600083815260200190815260200160002060000160405161143791906135b6565b60405180910390a16001915050949350505050565b611454611a63565b600860008273ffffffffffffffffffffffffffffffffffffffff1673ffffffffffffffffffffffffffffffffffffffff16815260200190815260200160002060009054906101000a900460ff16156114e1576040517f08c379a00000000000000000000000000000000000000000000000000000000081526004016114d890613624565b60405180910390fd5b6001600860008373ffffffffffffffffffffffffffffffffffffffff1673ffffffffffffffffffffffffffffffffffffffff16815260200190815260200160002060006101000a81548160ff0219169083151502179055508073ffffffffffffffffffffffffffffffffffffffff167e47706786c922d17b39285dc59d696bafea72c0b003d3841ae1202076f4c2e460405160405180910390a250565b611586611a63565b600073ffffffffffffffffffffffffffffffffffffffff168173ffffffffffffffffffffffffffffffffffffffff16036115f85760006040517f1e4fbdf70000000000000000000000000000000000000000000000000000000081526004016115ef919061261a565b60405180910390fd5b61160181611aea565b50565b61160c611a63565b600860008273ffffffffffffffffffffffffffffffffffffffff1673ffffffffffffffffffffffffffffffffffffffff16815260200190815260200160002060009054906101000a900460ff16611698576040517f08c379a000000000000000000000000000000000000000000000000000000000815260040161168f90613690565b60405180910390fd5b600860008273ffffffffffffffffffffffffffffffffffffffff1673ffffffffffffffffffffffffffffffffffffffff16815260200190815260200160002060006101000a81549060ff02191690558073ffffffffffffffffffffffffffffffffffffffff167f9c8e7d83025bef8a04c664b2f753f64b8814bdb7e27291d7e50935f18cc3c71260405160405180910390a250565b8060ff1682511015611774576040517f08c379a000000000000000000000000000000000000000000000000000000000815260040161176b906136fc565b60405180910390fd5b6000825167ffffffffffffffff81111561179157611790612025565b5b6040519080825280602002602001820160405280156117bf5781602001602082028036833780820191505090505b5090506000805b84518110156119a95760006117fd6117dd88611bae565b8784815181106117f0576117ef613195565b5b6020026020010151611be4565b9050600860008273ffffffffffffffffffffffffffffffffffffffff1673ffffffffffffffffffffffffffffffffffffffff16815260200190815260200160002060009054906101000a900460ff1661188b576040517f08c379a000000000000000000000000000000000000000000000000000000000815260040161188290613768565b60405180910390fd5b60005b8381101561192b578173ffffffffffffffffffffffffffffffffffffffff168582815181106118c0576118bf613195565b5b602002602001015173ffffffffffffffffffffffffffffffffffffffff160361191e576040517f08c379a0000000000000000000000000000000000000000000000000000000008152600401611915906137d4565b60405180910390fd5b808060010191505061188e565b50808484815181106119405761193f613195565b5b602002602001019073ffffffffffffffffffffffffffffffffffffffff16908173ffffffffffffffffffffffffffffffffffffffff1681525050828061198590613397565b9350508460ff16831061199b57505050506119f3565b5080806001019150506117c6565b508260ff168110156119f0576040517f08c379a00000000000000000000000000000000000000000000000000000000081526004016119e790613866565b60405180910390fd5b50505b505050565b6060604482511015611a41576040518060400160405280600f81526020017f556e6b6e6f776e206661696c75726500000000000000000000000000000000008152509050611a5e565b60048201915081806020019051810190611a5b9190613927565b90505b919050565b611a6b611c10565b73ffffffffffffffffffffffffffffffffffffffff16611a89610da5565b73ffffffffffffffffffffffffffffffffffffffff1614611ae857611aac611c10565b6040517f118cdaa7000000000000000000000000000000000000000000000000000000008152600401611adf919061261a565b60405180910390fd5b565b60008060009054906101000a900473ffffffffffffffffffffffffffffffffffffffff169050816000806101000a81548173ffffffffffffffffffffffffffffffffffffffff021916908373ffffffffffffffffffffffffffffffffffffffff1602179055508173ffffffffffffffffffffffffffffffffffffffff168173ffffffffffffffffffffffffffffffffffffffff167f8be0079c531659141344cd1fd0a4f28419497f9722a3daafe3b4186f6b6457e060405160405180910390a35050565b60007f19457468657265756d205369676e6564204d6573736167653a0a33320000000060005281601c52603c6000209050919050565b600080600080611bf48686611c18565b925092509250611c048282611c74565b82935050505092915050565b600033905090565b60008060006041845103611c5d5760008060006020870151925060408701519150606087015160001a9050611c4f88828585611dd8565b955095509550505050611c6d565b60006002855160001b9250925092505b9250925092565b60006003811115611c8857611c87613970565b5b826003811115611c9b57611c9a613970565b5b0315611dd45760016003811115611cb557611cb4613970565b5b826003811115611cc857611cc7613970565b5b03611cff576040517ff645eedf00000000000000000000000000000000000000000000000000000000815260040160405180910390fd5b60026003811115611d1357611d12613970565b5b826003811115611d2657611d25613970565b5b03611d6b578060001c6040517ffce698f7000000000000000000000000000000000000000000000000000000008152600401611d62919061251f565b60405180910390fd5b600380811115611d7e57611d7d613970565b5b826003811115611d9157611d90613970565b5b03611dd357806040517fd78bce0c000000000000000000000000000000000000000000000000000000008152600401611dca9190612fc4565b60405180910390fd5b5b5050565b60008060007f7fffffffffffffffffffffffffffffff5d576e7357a4501ddfe92f46681b20a08460001c1115611e18576000600385925092509250611ec2565b600060018888888860405160008152602001604052604051611e3d949392919061399f565b6020604051602081039080840390855afa158015611e5f573d6000803e3d6000fd5b505050602060405103519050600073ffffffffffffffffffffffffffffffffffffffff168173ffffffffffffffffffffffffffffffffffffffff1603611eb357600060016000801b93509350935050611ec2565b8060008060001b935093509350505b9450945094915050565b508054611ed890612b64565b6000825580601f10611eea5750611f09565b601f016020900490600052602060002090810190611f089190611f0c565b5b50565b5b80821115611f25576000816000905550600101611f0d565b5090565b6000604051905090565b600080fd5b600080fd5b6000819050919050565b611f5081611f3d565b8114611f5b57600080fd5b50565b600081359050611f6d81611f47565b92915050565b600060ff82169050919050565b611f8981611f73565b8114611f9457600080fd5b50565b600081359050611fa681611f80565b92915050565b600073ffffffffffffffffffffffffffffffffffffffff82169050919050565b6000611fd782611fac565b9050919050565b611fe781611fcc565b8114611ff257600080fd5b50565b60008135905061200481611fde565b92915050565b600080fd5b600080fd5b6000601f19601f8301169050919050565b7f4e487b7100000000000000000000000000000000000000000000000000000000600052604160045260246000fd5b61205d82612014565b810181811067ffffffffffffffff8211171561207c5761207b612025565b5b80604052505050565b600061208f611f29565b905061209b8282612054565b919050565b600067ffffffffffffffff8211156120bb576120ba612025565b5b6120c482612014565b9050602081019050919050565b82818337600083830152505050565b60006120f36120ee846120a0565b612085565b90508281526020810184848401111561210f5761210e61200f565b5b61211a8482856120d1565b509392505050565b600082601f8301126121375761213661200a565b5b81356121478482602086016120e0565b91505092915050565b600067ffffffffffffffff82111561216b5761216a612025565b5b602082029050602081019050919050565b600080fd5b600061219461218f84612150565b612085565b905080838252602082019050602084028301858111156121b7576121b661217c565b5b835b818110156121fe57803567ffffffffffffffff8111156121dc576121db61200a565b5b8086016121e98982612122565b855260208501945050506020810190506121b9565b5050509392505050565b600082601f83011261221d5761221c61200a565b5b813561222d848260208601612181565b91505092915050565b60008060008060008060c0878903121561225357612252611f33565b5b600061226189828a01611f5e565b965050602061227289828a01611f5e565b955050604061228389828a01611f97565b945050606061229489828a01611ff5565b935050608087013567ffffffffffffffff8111156122b5576122b4611f38565b5b6122c189828a01612122565b92505060a087013567ffffffffffffffff8111156122e2576122e1611f38565b5b6122ee89828a01612208565b9150509295509295509295565b6000806040838503121561231257612311611f33565b5b600061232085828601611f5e565b925050602083013567ffffffffffffffff81111561234157612340611f38565b5b61234d85828601612208565b9150509250929050565b60006020828403121561236d5761236c611f33565b5b600061237b84828501611f5e565b91505092915050565b61238d81611f3d565b82525050565b61239c81611f73565b82525050565b6123ab81611fcc565b82525050565b600081519050919050565b600082825260208201905092915050565b60005b838110156123eb5780820151818401526020810190506123d0565b60008484015250505050565b6000612402826123b1565b61240c81856123bc565b935061241c8185602086016123cd565b61242581612014565b840191505092915050565b600060c0830160008301516124486000860182612384565b50602083015161245b6020860182612393565b50604083015161246e6040860182612384565b5060608301516124816060860182612384565b50608083015161249460808601826123a2565b5060a083015184820360a08601526124ac82826123f7565b9150508091505092915050565b6000819050919050565b6124cc816124b9565b82525050565b6124db81611fcc565b82525050565b600060608201905081810360008301526124fb8186612430565b905061250a60208301856124c3565b61251760408301846124d2565b949350505050565b600060208201905061253460008301846124c3565b92915050565b61254381611f73565b82525050565b600060a08201905061255e600083018861253a565b61256b602083018761253a565b61257860408301866124c3565b61258560608301856124c3565b61259260808301846124c3565b9695505050505050565b6000602082840312156125b2576125b1611f33565b5b60006125c084828501611ff5565b91505092915050565b60008115159050919050565b6125de816125c9565b82525050565b60006020820190506125f960008301846125d5565b92915050565b6000602082019050612614600083018461253a565b92915050565b600060208201905061262f60008301846124d2565b92915050565b600080fd5b60008083601f8401126126505761264f61200a565b5b8235905067ffffffffffffffff81111561266d5761266c612635565b5b6020830191508360208202830111156126895761268861217c565b5b9250929050565b600080602083850312156126a7576126a6611f33565b5b600083013567ffffffffffffffff8111156126c5576126c4611f38565b5b6126d18582860161263a565b92509250509250929050565b600060c0830160008301516126f56000860182612384565b50602083015161270860208601826123a2565b50604083015161271b6040860182612384565b50606083015161272e6060860182612393565b5060808301516127416080860182612384565b5060a083015184820360a086015261275982826123f7565b9150508091505092915050565b600060a082019050818103600083015261278081886126dd565b905061278f60208301876124c3565b61279c60408301866124c3565b6127a960608301856124c3565b6127b660808301846124d2565b9695505050505050565b6127c9816124b9565b81146127d457600080fd5b50565b6000813590506127e6816127c0565b92915050565b600080600080600060a0868803121561280857612807611f33565b5b600061281688828901611f97565b955050602061282788828901611f97565b9450506040612838888289016127d7565b9350506060612849888289016127d7565b925050608061285a888289016127d7565b9150509295509295909350565b6000806000806080858703121561288157612880611f33565b5b600061288f87828801611f5e565b94505060206128a087828801611f5e565b935050604085013567ffffffffffffffff8111156128c1576128c0611f38565b5b6128cd87828801612122565b92505060606128de878288016127d7565b91505092959194509250565b6000819050919050565b61290561290082611f3d565b6128ea565b82525050565b60008160f81b9050919050565b60006129238261290b565b9050919050565b61293b61293682611f73565b612918565b82525050565b60008160601b9050919050565b600061295982612941565b9050919050565b600061296b8261294e565b9050919050565b61298361297e82611fcc565b612960565b82525050565b600081905092915050565b600061299f826123b1565b6129a98185612989565b93506129b98185602086016123cd565b80840191505092915050565b60006129d182886128f4565b6020820191506129e182876128f4565b6020820191506129f1828661292a565b600182019150612a018285612972565b601482019150612a118284612994565b91508190509695505050505050565b600082825260208201905092915050565b7f4d65737361676520726563697069656e74496e64657820696e76616c69640000600082015250565b6000612a67601e83612a20565b9150612a7282612a31565b602082019050919050565b60006020820190508181036000830152612a9681612a5a565b9050919050565b6000612aa982856128f4565b602082019150612ab982846128f4565b6020820191508190509392505050565b7f4d65737361676520616c72656164792072656365697665640000000000000000600082015250565b6000612aff601883612a20565b9150612b0a82612ac9565b602082019050919050565b60006020820190508181036000830152612b2e81612af2565b9050919050565b7f4e487b7100000000000000000000000000000000000000000000000000000000600052602260045260246000fd5b60006002820490506001821680612b7c57607f821691505b602082108103612b8f57612b8e612b35565b5b50919050565b60008190508160005260206000209050919050565b60006020601f8301049050919050565b600082821b905092915050565b600060088302612bf77fffffffffffffffffffffffffffffffffffffffffffffffffffffffffffffffff82612bba565b612c018683612bba565b95508019841693508086168417925050509392505050565b6000819050919050565b6000612c3e612c39612c34846124b9565b612c19565b6124b9565b9050919050565b6000819050919050565b612c5883612c23565b612c6c612c6482612c45565b848454612bc7565b825550505050565b600090565b612c81612c74565b612c8c818484612c4f565b505050565b5b81811015612cb057612ca5600082612c79565b600181019050612c92565b5050565b601f821115612cf557612cc681612b95565b612ccf84612baa565b81016020851015612cde578190505b612cf2612cea85612baa565b830182612c91565b50505b505050565b600082821c905092915050565b6000612d1860001984600802612cfa565b1980831691505092915050565b6000612d318383612d07565b9150826002028217905092915050565b612d4a826123b1565b67ffffffffffffffff811115612d6357612d62612025565b5b612d6d8254612b64565b612d78828285612cb4565b600060209050601f831160018114612dab5760008415612d99578287015190505b612da38582612d25565b865550612e0b565b601f198416612db986612b95565b60005b82811015612de157848901518255600182019150602085019450602081019050612dbc565b86831015612dfe5784890151612dfa601f891682612d07565b8355505b6001600288020188555050505b505050505050565b7f526563697069656e74206973206e6f74206120636f6e74726163740000000000600082015250565b6000612e49601b83612a20565b9150612e5482612e13565b602082019050919050565b60006020820190508181036000830152612e7881612e3c565b9050919050565b612e8881611f3d565b82525050565b600082825260208201905092915050565b6000612eaa826123b1565b612eb48185612e8e565b9350612ec48185602086016123cd565b612ecd81612014565b840191505092915050565b6000604082019050612eed6000830185612e7f565b8181036020830152612eff8184612e9f565b90509392505050565b6000612f148284612994565b915081905092915050565b600081519050919050565b6000612f3582612f1f565b612f3f8185612a20565b9350612f4f8185602086016123cd565b612f5881612014565b840191505092915050565b600060a082019050612f78600083018861253a565b612f856020830187612e7f565b612f9260408301866124d2565b8181036060830152612fa48185612e9f565b90508181036080830152612fb88184612f2a565b90509695505050505050565b6000602082019050612fd96000830184612e7f565b92915050565b7f4d657373616765206e6f7420666f756e64000000000000000000000000000000600082015250565b6000613015601183612a20565b915061302082612fdf565b602082019050919050565b6000602082019050818103600083015261304481613008565b9050919050565b7f44656c697665727920636f6e6669726d6174696f6e206f766572647565000000600082015250565b6000613081601d83612a20565b915061308c8261304b565b602082019050919050565b600060208201905081810360008301526130b081613074565b9050919050565b600081546130c481612b64565b6130ce8186612989565b945060018216600081146130e957600181146130fe57613131565b60ff1983168652811515820286019350613131565b61310785612b95565b60005b838110156131295781548189015260018201915060208101905061310a565b838801955050505b50505092915050565b60006131468288612972565b60148201915061315682876128f4565b60208201915061316682866128f4565b60208201915061317682856130b7565b91506131828284612972565b6014820191508190509695505050505050565b7f4e487b7100000000000000000000000000000000000000000000000000000000600052603260045260246000fd5b7f4e487b7100000000000000000000000000000000000000000000000000000000600052601160045260246000fd5b60006131fe826124b9565b9150613209836124b9565b9250828201905080821115613221576132206131c4565b5b92915050565b7f54544c20746f6f20736d616c6c00000000000000000000000000000000000000600082015250565b600061325d600d83612a20565b915061326882613227565b602082019050919050565b6000602082019050818103600083015261328c81613250565b9050919050565b7f54544c20746f6f206c6172676500000000000000000000000000000000000000600082015250565b60006132c9600d83612a20565b91506132d482613293565b602082019050919050565b600060208201905081810360008301526132f8816132bc565b9050919050565b600061330b8285612972565b60148201915061331b82846128f4565b6020820191508190509392505050565b7f4d65737361676520776974682073616d65206e6f6e63652070656e64696e6700600082015250565b6000613361601f83612a20565b915061336c8261332b565b602082019050919050565b6000602082019050818103600083015261339081613354565b9050919050565b60006133a2826124b9565b91507fffffffffffffffffffffffffffffffffffffffffffffffffffffffffffffffff82036133d4576133d36131c4565b5b600182019050919050565b60008160001c9050919050565b6000819050919050565b6000613409613404836133df565b6133ec565b9050919050565b600073ffffffffffffffffffffffffffffffffffffffff82169050919050565b600061344361343e836133df565b613410565b9050919050565b600060ff82169050919050565b600061346a613465836133df565b61344a565b9050919050565b6000815461347e81612b64565b61348881866123bc565b945060018216600081146134a357600181146134b9576134ec565b60ff1983168652811515602002860193506134ec565b6134c285612b95565b60005b838110156134e4578154818901526001820191506020810190506134c5565b808801955050505b50505092915050565b600060c08301600080840154905061350c816133f6565b6135196000870182612384565b506001840154905061352a81613430565b61353760208701826123a2565b5060028401549050613548816133f6565b6135556040870182612384565b506003840154905061356681613457565b6135736060870182612393565b5060048401549050613584816133f6565b6135916080870182612384565b506005840185830360a08701526135a88382613471565b925050819250505092915050565b600060208201905081810360008301526135d081846134f5565b905092915050565b7f4f7261636c6520616c7265616479206164646564000000000000000000000000600082015250565b600061360e601483612a20565b9150613619826135d8565b602082019050919050565b6000602082019050818103600083015261363d81613601565b9050919050565b7f4f7261636c65206e6f7420666f756e6400000000000000000000000000000000600082015250565b600061367a601083612a20565b915061368582613644565b602082019050919050565b600060208201905081810360008301526136a98161366d565b9050919050565b7f4e6f7420656e6f756768207369676e6174757265730000000000000000000000600082015250565b60006136e6601583612a20565b91506136f1826136b0565b602082019050919050565b60006020820190508181036000830152613715816136d9565b9050919050565b7f496e76616c6964207369676e6174757265000000000000000000000000000000600082015250565b6000613752601183612a20565b915061375d8261371c565b602082019050919050565b6000602082019050818103600083015261378181613745565b9050919050565b7f4475706c6963617465207369676e617475726520646574656374656400000000600082015250565b60006137be601c83612a20565b91506137c982613788565b602082019050919050565b600060208201905081810360008301526137ed816137b1565b9050919050565b7f4e6f7420656e6f75676820756e697175652076616c6964207369676e6174757260008201527f6573000000000000000000000000000000000000000000000000000000000000602082015250565b6000613850602283612a20565b915061385b826137f4565b604082019050919050565b6000602082019050818103600083015261387f81613843565b9050919050565b600067ffffffffffffffff8211156138a1576138a0612025565b5b6138aa82612014565b9050602081019050919050565b60006138ca6138c584613886565b612085565b9050828152602081018484840111156138e6576138e561200f565b5b6138f18482856123cd565b509392505050565b600082601f83011261390e5761390d61200a565b5b815161391e8482602086016138b7565b91505092915050565b60006020828403121561393d5761393c611f33565b5b600082015167ffffffffffffffff81111561395b5761395a611f38565b5b613967848285016138f9565b91505092915050565b7f4e487b7100000000000000000000000000000000000000000000000000000000600052602160045260246000fd5b60006080820190506139b46000830187612e7f565b6139c1602083018661253a565b6139ce6040830185612e7f565b6139db6060830184612e7f565b9594505050505056fea2646970667358221220a663e34ac86ae4874e0ed9a0cc0a4453dbba568a4cee33fd35ffda557eb5750564736f6c634300081c0033",
  "linkReferences": {},
  "deployedLinkReferences": {}
}