{
  "_format": "hh-sol-artifact-1",
  "contractName": "AcurastToken",
  "sourceName": "contracts/acu.sol",
  "abi": [
    {
      "inputs": [
        {
          "internalType": "string",
          "name": "_name",
          "type": "string"
        },
        {
          "internalType": "string",
          "name": "_symbol",
          "type": "string"
        },
        {
          "internalType": "address",
          "name": "_ibcContract",
          "type": "address"
        },
        {
          "internalType": "bytes32",
          "name": "_tokenPalletAccount",
          "type": "bytes32"
        },
        {
          "components": [
            {
              "internalType": "address",
              "name": "source",
              "type": "address"
            },
            {
              "internalType": "uint128",
              "name": "amount",
              "type": "uint128"
            }
          ],
          "internalType": "struct AcuERC20.InitialBalance[]",
          "name": "_initialBalances",
          "type": "tuple[]"
        },
        {
          "internalType": "address[]",
          "name": "_allowedDestinations",
          "type": "address[]"
        }
      ],
      "stateMutability": "nonpayable",
      "type": "constructor"
    },
    {
      "inputs": [],
      "name": "ECDSAInvalidSignature",
      "type": "error"
    },
    {
      "inputs": [
        {
          "internalType": "uint256",
          "name": "length",
          "type": "uint256"
        }
      ],
      "name": "ECDSAInvalidSignatureLength",
      "type": "error"
    },
    {
      "inputs": [
        {
          "internalType": "bytes32",
          "name": "s",
          "type": "bytes32"
        }
      ],
      "name": "ECDSAInvalidSignatureS",
      "type": "error"
    },
    {
      "inputs": [
        {
          "internalType": "address",
          "name": "spender",
          "type": "address"
        },
        {
          "internalType": "uint256",
          "name": "allowance",
          "type": "uint256"
        },
        {
          "internalType": "uint256",
          "name": "needed",
          "type": "uint256"
        }
      ],
      "name": "ERC20InsufficientAllowance",
      "type": "error"
    },
    {
      "inputs": [
        {
          "internalType": "address",
          "name": "sender",
          "type": "address"
        },
        {
          "internalType": "uint256",
          "name": "balance",
          "type": "uint256"
        },
        {
          "internalType": "uint256",
          "name": "needed",
          "type": "uint256"
        }
      ],
      "name": "ERC20InsufficientBalance",
      "type": "error"
    },
    {
      "inputs": [
        {
          "internalType": "address",
          "name": "approver",
          "type": "address"
        }
      ],
      "name": "ERC20InvalidApprover",
      "type": "error"
    },
    {
      "inputs": [
        {
          "internalType": "address",
          "name": "receiver",
          "type": "address"
        }
      ],
      "name": "ERC20InvalidReceiver",
      "type": "error"
    },
    {
      "inputs": [
        {
          "internalType": "address",
          "name": "sender",
          "type": "address"
        }
      ],
      "name": "ERC20InvalidSender",
      "type": "error"
    },
    {
      "inputs": [
        {
          "internalType": "address",
          "name": "spender",
          "type": "address"
        }
      ],
      "name": "ERC20InvalidSpender",
      "type": "error"
    },
    {
      "inputs": [
        {
          "internalType": "uint256",
          "name": "deadline",
          "type": "uint256"
        }
      ],
      "name": "ERC2612ExpiredSignature",
      "type": "error"
    },
    {
      "inputs": [
        {
          "internalType": "address",
          "name": "signer",
          "type": "address"
        },
        {
          "internalType": "address",
          "name": "owner",
          "type": "address"
        }
      ],
      "name": "ERC2612InvalidSigner",
      "type": "error"
    },
    {
      "inputs": [
        {
          "internalType": "address",
          "name": "account",
          "type": "address"
        },
        {
          "internalType": "uint256",
          "name": "currentNonce",
          "type": "uint256"
        }
      ],
      "name": "InvalidAccountNonce",
      "type": "error"
    },
    {
      "inputs": [],
      "name": "InvalidShortString",
      "type": "error"
    },
    {
      "inputs": [],
      "name": "NotEnabled",
      "type": "error"
    },
    {
      "inputs": [
        {
          "internalType": "address",
          "name": "owner",
          "type": "address"
        }
      ],
      "name": "OwnableInvalidOwner",
      "type": "error"
    },
    {
      "inputs": [
        {
          "internalType": "address",
          "name": "account",
          "type": "address"
        }
      ],
      "name": "OwnableUnauthorizedAccount",
      "type": "error"
    },
    {
      "inputs": [
        {
          "internalType": "string",
          "name": "str",
          "type": "string"
        }
      ],
      "name": "StringTooLong",
      "type": "error"
    },
    {
      "anonymous": false,
      "inputs": [
        {
          "indexed": true,
          "internalType": "address",
          "name": "owner",
          "type": "address"
        },
        {
          "indexed": true,
          "internalType": "address",
          "name": "spender",
          "type": "address"
        },
        {
          "indexed": false,
          "internalType": "uint256",
          "name": "value",
          "type": "uint256"
        }
      ],
      "name": "Approval",
      "type": "event"
    },
    {
      "anonymous": false,
      "inputs": [],
      "name": "EIP712DomainChanged",
      "type": "event"
    },
    {
      "anonymous": false,
      "inputs": [
        {
          "indexed": false,
          "internalType": "bool",
          "name": "enabled",
          "type": "bool"
        }
      ],
      "name": "Enabled",
      "type": "event"
    },
    {
      "anonymous": false,
      "inputs": [
        {
          "indexed": true,
          "internalType": "address",
          "name": "oldAddress",
          "type": "address"
        },
        {
          "indexed": true,
          "internalType": "address",
          "name": "newAddress",
          "type": "address"
        }
      ],
      "name": "IbcContractUpdated",
      "type": "event"
    },
    {
      "anonymous": false,
      "inputs": [
        {
          "indexed": true,
          "internalType": "uint256",
          "name": "oldTTL",
          "type": "uint256"
        },
        {
          "indexed": true,
          "internalType": "uint256",
          "name": "newTTL",
          "type": "uint256"
        }
      ],
      "name": "OutgoingTTLUpdated",
      "type": "event"
    },
    {
      "anonymous": false,
      "inputs": [
        {
          "indexed": true,
          "internalType": "address",
          "name": "previousOwner",
          "type": "address"
        },
        {
          "indexed": true,
          "internalType": "address",
          "name": "newOwner",
          "type": "address"
        }
      ],
      "name": "OwnershipTransferred",
      "type": "event"
    },
    {
      "anonymous": false,
      "inputs": [
        {
          "indexed": true,
          "internalType": "bytes32",
          "name": "oldAddress",
          "type": "bytes32"
        },
        {
          "indexed": true,
          "internalType": "bytes32",
          "name": "newAddress",
          "type": "bytes32"
        }
      ],
      "name": "TokenPalletAccountUpdated",
      "type": "event"
    },
    {
      "anonymous": false,
      "inputs": [
        {
          "indexed": true,
          "internalType": "address",
          "name": "from",
          "type": "address"
        },
        {
          "indexed": true,
          "internalType": "address",
          "name": "to",
          "type": "address"
        },
        {
          "indexed": false,
          "internalType": "uint256",
          "name": "value",
          "type": "uint256"
        }
      ],
      "name": "Transfer",
      "type": "event"
    },
    {
      "anonymous": false,
      "inputs": [
        {
          "indexed": false,
          "internalType": "uint256",
          "name": "amount",
          "type": "uint256"
        },
        {
          "indexed": true,
          "internalType": "address",
          "name": "dest",
          "type": "address"
        },
        {
          "indexed": false,
          "internalType": "uint32",
          "name": "transferNonce",
          "type": "uint32"
        }
      ],
      "name": "TransferReceived",
      "type": "event"
    },
    {
      "anonymous": false,
      "inputs": [
        {
          "indexed": false,
          "internalType": "uint128",
          "name": "amount",
          "type": "uint128"
        },
        {
          "indexed": false,
          "internalType": "uint256",
          "name": "fee",
          "type": "uint256"
        },
        {
          "indexed": true,
          "internalType": "bytes32",
          "name": "dest",
          "type": "bytes32"
        },
        {
          "indexed": false,
          "internalType": "uint32",
          "name": "transferNonce",
          "type": "uint32"
        }
      ],
      "name": "TransferRetried",
      "type": "event"
    },
    {
      "anonymous": false,
      "inputs": [
        {
          "indexed": false,
          "internalType": "uint128",
          "name": "amount",
          "type": "uint128"
        },
        {
          "indexed": false,
          "internalType": "uint256",
          "name": "fee",
          "type": "uint256"
        },
        {
          "indexed": true,
          "internalType": "bytes32",
          "name": "dest",
          "type": "bytes32"
        },
        {
          "indexed": false,
          "internalType": "uint32",
          "name": "transferNonce",
          "type": "uint32"
        }
      ],
      "name": "TransferSent",
      "type": "event"
    },
    {
      "inputs": [],
      "name": "BRIDGE_TRANSFER_ACTION",
      "outputs": [
        {
          "internalType": "uint8",
          "name": "",
          "type": "uint8"
        }
      ],
      "stateMutability": "view",
      "type": "function"
    },
    {
      "inputs": [],
      "name": "DOMAIN_SEPARATOR",
      "outputs": [
        {
          "internalType": "bytes32",
          "name": "",
          "type": "bytes32"
        }
      ],
      "stateMutability": "view",
      "type": "function"
    },
    {
      "inputs": [],
      "name": "ENABLE_ACTION",
      "outputs": [
        {
          "internalType": "uint8",
          "name": "",
          "type": "uint8"
        }
      ],
      "stateMutability": "view",
      "type": "function"
    },
    {
      "inputs": [
        {
          "internalType": "address[]",
          "name": "_allowedDestinations",
          "type": "address[]"
        },
        {
          "internalType": "bool",
          "name": "allow",
          "type": "bool"
        }
      ],
      "name": "allowDestinations",
      "outputs": [],
      "stateMutability": "nonpayable",
      "type": "function"
    },
    {
      "inputs": [
        {
          "internalType": "address",
          "name": "owner",
          "type": "address"
        },
        {
          "internalType": "address",
          "name": "spender",
          "type": "address"
        }
      ],
      "name": "allowance",
      "outputs": [
        {
          "internalType": "uint256",
          "name": "",
          "type": "uint256"
        }
      ],
      "stateMutability": "view",
      "type": "function"
    },
    {
      "inputs": [
        {
          "internalType": "address",
          "name": "",
          "type": "address"
        }
      ],
      "name": "allowedDestinations",
      "outputs": [
        {
          "internalType": "bool",
          "name": "",
          "type": "bool"
        }
      ],
      "stateMutability": "view",
      "type": "function"
    },
    {
      "inputs": [
        {
          "internalType": "address",
          "name": "spender",
          "type": "address"
        },
        {
          "internalType": "uint256",
          "name": "value",
          "type": "uint256"
        }
      ],
      "name": "approve",
      "outputs": [
        {
          "internalType": "bool",
          "name": "",
          "type": "bool"
        }
      ],
      "stateMutability": "nonpayable",
      "type": "function"
    },
    {
      "inputs": [
        {
          "internalType": "address",
          "name": "account",
          "type": "address"
        }
      ],
      "name": "balanceOf",
      "outputs": [
        {
          "internalType": "uint256",
          "name": "",
          "type": "uint256"
        }
      ],
      "stateMutability": "view",
      "type": "function"
    },
    {
      "inputs": [],
      "name": "decimals",
      "outputs": [
        {
          "internalType": "uint8",
          "name": "",
          "type": "uint8"
        }
      ],
      "stateMutability": "view",
      "type": "function"
    },
    {
      "inputs": [],
      "name": "eip712Domain",
      "outputs": [
        {
          "internalType": "bytes1",
          "name": "fields",
          "type": "bytes1"
        },
        {
          "internalType": "string",
          "name": "name",
          "type": "string"
        },
        {
          "internalType": "string",
          "name": "version",
          "type": "string"
        },
        {
          "internalType": "uint256",
          "name": "chainId",
          "type": "uint256"
        },
        {
          "internalType": "address",
          "name": "verifyingContract",
          "type": "address"
        },
        {
          "internalType": "bytes32",
          "name": "salt",
          "type": "bytes32"
        },
        {
          "internalType": "uint256[]",
          "name": "extensions",
          "type": "uint256[]"
        }
      ],
      "stateMutability": "view",
      "type": "function"
    },
    {
      "inputs": [],
      "name": "enabled",
      "outputs": [
        {
          "internalType": "bool",
          "name": "",
          "type": "bool"
        }
      ],
      "stateMutability": "view",
      "type": "function"
    },
    {
      "inputs": [],
      "name": "ibcContract",
      "outputs": [
        {
          "internalType": "address",
          "name": "",
          "type": "address"
        }
      ],
      "stateMutability": "view",
      "type": "function"
    },
    {
      "inputs": [
        {
          "internalType": "uint32",
          "name": "",
          "type": "uint32"
        }
      ],
      "name": "incomingTransferNonces",
      "outputs": [
        {
          "internalType": "bool",
          "name": "",
          "type": "bool"
        }
      ],
      "stateMutability": "view",
      "type": "function"
    },
    {
      "inputs": [],
      "name": "name",
      "outputs": [
        {
          "internalType": "string",
          "name": "",
          "type": "string"
        }
      ],
      "stateMutability": "view",
      "type": "function"
    },
    {
      "inputs": [],
      "name": "nextTransferNonce",
      "outputs": [
        {
          "internalType": "uint32",
          "name": "",
          "type": "uint32"
        }
      ],
      "stateMutability": "view",
      "type": "function"
    },
    {
      "inputs": [
        {
          "internalType": "address",
          "name": "owner",
          "type": "address"
        }
      ],
      "name": "nonces",
      "outputs": [
        {
          "internalType": "uint256",
          "name": "",
          "type": "uint256"
        }
      ],
      "stateMutability": "view",
      "type": "function"
    },
    {
      "inputs": [],
      "name": "outgoingTTL",
      "outputs": [
        {
          "internalType": "uint256",
          "name": "",
          "type": "uint256"
        }
      ],
      "stateMutability": "view",
      "type": "function"
    },
    {
      "inputs": [
        {
          "internalType": "uint32",
          "name": "",
          "type": "uint32"
        }
      ],
      "name": "outgoingTransfers",
      "outputs": [
        {
          "internalType": "address",
          "name": "sender",
          "type": "address"
        },
        {
          "internalType": "uint128",
          "name": "amount",
          "type": "uint128"
        },
        {
          "internalType": "bytes32",
          "name": "dest",
          "type": "bytes32"
        }
      ],
      "stateMutability": "view",
      "type": "function"
    },
    {
      "inputs": [],
      "name": "owner",
      "outputs": [
        {
          "internalType": "address",
          "name": "",
          "type": "address"
        }
      ],
      "stateMutability": "view",
      "type": "function"
    },
    {
      "inputs": [
        {
          "internalType": "address",
          "name": "owner",
          "type": "address"
        },
        {
          "internalType": "address",
          "name": "spender",
          "type": "address"
        },
        {
          "internalType": "uint256",
          "name": "value",
          "type": "uint256"
        },
        {
          "internalType": "uint256",
          "name": "deadline",
          "type": "uint256"
        },
        {
          "internalType": "uint8",
          "name": "v",
          "type": "uint8"
        },
        {
          "internalType": "bytes32",
          "name": "r",
          "type": "bytes32"
        },
        {
          "internalType": "bytes32",
          "name": "s",
          "type": "bytes32"
        }
      ],
      "name": "permit",
      "outputs": [],
      "stateMutability": "nonpayable",
      "type": "function"
    },
    {
      "inputs": [
        {
          "internalType": "bytes32",
          "name": "sender",
          "type": "bytes32"
        },
        {
          "internalType": "bytes",
          "name": "payload",
          "type": "bytes"
        }
      ],
      "name": "processMessage",
      "outputs": [],
      "stateMutability": "nonpayable",
      "type": "function"
    },
    {
      "inputs": [],
      "name": "renounceOwnership",
      "outputs": [],
      "stateMutability": "nonpayable",
      "type": "function"
    },
    {
      "inputs": [
        {
          "internalType": "uint32",
          "name": "transferNonce",
          "type": "uint32"
        }
      ],
      "name": "retryTransferNative",
      "outputs": [],
      "stateMutability": "payable",
      "type": "function"
    },
    {
      "inputs": [
        {
          "internalType": "uint256",
          "name": "_outgoingTTL",
          "type": "uint256"
        }
      ],
      "name": "setOutgoingTTL",
      "outputs": [],
      "stateMutability": "nonpayable",
      "type": "function"
    },
    {
      "inputs": [],
      "name": "symbol",
      "outputs": [
        {
          "internalType": "string",
          "name": "",
          "type": "string"
        }
      ],
      "stateMutability": "view",
      "type": "function"
    },
    {
      "inputs": [],
      "name": "tokenPalletAccount",
      "outputs": [
        {
          "internalType": "bytes32",
          "name": "",
          "type": "bytes32"
        }
      ],
      "stateMutability": "view",
      "type": "function"
    },
    {
      "inputs": [],
      "name": "totalSupply",
      "outputs": [
        {
          "internalType": "uint256",
          "name": "",
          "type": "uint256"
        }
      ],
      "stateMutability": "view",
      "type": "function"
    },
    {
      "inputs": [
        {
          "internalType": "address",
          "name": "to",
          "type": "address"
        },
        {
          "internalType": "uint256",
          "name": "value",
          "type": "uint256"
        }
      ],
      "name": "transfer",
      "outputs": [
        {
          "internalType": "bool",
          "name": "",
          "type": "bool"
        }
      ],
      "stateMutability": "nonpayable",
      "type": "function"
    },
    {
      "inputs": [
        {
          "internalType": "address",
          "name": "from",
          "type": "address"
        },
        {
          "internalType": "address",
          "name": "to",
          "type": "address"
        },
        {
          "internalType": "uint256",
          "name": "value",
          "type": "uint256"
        }
      ],
      "name": "transferFrom",
      "outputs": [
        {
          "internalType": "bool",
          "name": "",
          "type": "bool"
        }
      ],
      "stateMutability": "nonpayable",
      "type": "function"
    },
    {
      "inputs": [
        {
          "internalType": "uint128",
          "name": "amount",
          "type": "uint128"
        },
        {
          "internalType": "bytes32",
          "name": "dest",
          "type": "bytes32"
        }
      ],
      "name": "transferNative",
      "outputs": [],
      "stateMutability": "payable",
      "type": "function"
    },
    {
      "inputs": [
        {
          "internalType": "address",
          "name": "newOwner",
          "type": "address"
        }
      ],
      "name": "transferOwnership",
      "outputs": [],
      "stateMutability": "nonpayable",
      "type": "function"
    },
    {
      "inputs": [
        {
          "internalType": "address",
          "name": "_ibcContract",
          "type": "address"
        }
      ],
      "name": "updateIbcContract",
      "outputs": [],
      "stateMutability": "nonpayable",
      "type": "function"
    },
    {
      "inputs": [
        {
          "internalType": "bytes32",
          "name": "_tokenPalletAccount",
          "type": "bytes32"
        }
      ],
      "name": "updateTokenPalletAccount",
      "outputs": [],
      "stateMutability": "nonpayable",
      "type": "function"
    }
  ],
  "bytecode": "0x61016060405234801561001157600080fd5b50604051615b21380380615b2183398181016040528101906100339190610d89565b858583833384806040518060400160405280600181526020017f31000000000000000000000000000000000000000000000000000000000000008152508787816003908161008191906110a7565b50806004908161009191906110a7565b5050506100a860058361035760201b90919060201c565b61012081815250506100c460068261035760201b90919060201c565b6101408181525050818051906020012060e08181525050808051906020012061010081815250504660a081815250506101016103a760201b60201c565b608081815250503073ffffffffffffffffffffffffffffffffffffffff1660c08173ffffffffffffffffffffffffffffffffffffffff1681525050505050600073ffffffffffffffffffffffffffffffffffffffff168173ffffffffffffffffffffffffffffffffffffffff16036101b15760006040517f1e4fbdf70000000000000000000000000000000000000000000000000000000081526004016101a89190611188565b60405180910390fd5b6101c08161040260201b60201c565b506000600860146101000a81548160ff02191690831515021790555060005b82518110156102775761026a8382815181106101fe576101fd6111a3565b5b6020026020010151600001516102186104c860201b60201c565b600a6102249190611341565b858481518110610237576102366111a3565b5b6020026020010151602001516fffffffffffffffffffffffffffffffff1661025f919061138c565b6104d160201b60201c565b80806001019150506101df565b5061028981600161055960201b60201c565b50505050600073ffffffffffffffffffffffffffffffffffffffff168473ffffffffffffffffffffffffffffffffffffffff16036102fc576040517f08c379a00000000000000000000000000000000000000000000000000000000081526004016102f39061142b565b60405180910390fd5b83600a60006101000a81548173ffffffffffffffffffffffffffffffffffffffff021916908373ffffffffffffffffffffffffffffffffffffffff16021790555082600b819055506032600c81905550505050505050611634565b600060208351101561037957610372836105f660201b60201c565b90506103a1565b826103898361065e60201b60201c565b600001908161039891906110a7565b5060ff60001b90505b92915050565b60007f8b73c3c69bb8fe3d512ecc4cf759cc79239f7b179b0ffacaa9a75d522b39400f60e0516101005146306040516020016103e7959493929190611469565b60405160208183030381529060405280519060200120905090565b6000600860009054906101000a900473ffffffffffffffffffffffffffffffffffffffff16905081600860006101000a81548173ffffffffffffffffffffffffffffffffffffffff021916908373ffffffffffffffffffffffffffffffffffffffff1602179055508173ffffffffffffffffffffffffffffffffffffffff168173ffffffffffffffffffffffffffffffffffffffff167f8be0079c531659141344cd1fd0a4f28419497f9722a3daafe3b4186f6b6457e060405160405180910390a35050565b6000600c905090565b600073ffffffffffffffffffffffffffffffffffffffff168273ffffffffffffffffffffffffffffffffffffffff16036105435760006040517fec442f0500000000000000000000000000000000000000000000000000000000815260040161053a9190611188565b60405180910390fd5b6105556000838361066860201b60201c565b5050565b61056761088d60201b60201c565b60005b82518110156105f157816009600085848151811061058b5761058a6111a3565b5b602002602001015173ffffffffffffffffffffffffffffffffffffffff1673ffffffffffffffffffffffffffffffffffffffff16815260200190815260200160002060006101000a81548160ff021916908315150217905550808060010191505061056a565b505050565b600080829050601f8151111561064357826040517f305a27a900000000000000000000000000000000000000000000000000000000815260040161063a91906114f5565b60405180910390fd5b80518161064f90611547565b60001c1760001b915050919050565b6000819050919050565b600073ffffffffffffffffffffffffffffffffffffffff168373ffffffffffffffffffffffffffffffffffffffff16036106ba5780600260008282546106ae91906115ae565b9250508190555061078d565b60008060008573ffffffffffffffffffffffffffffffffffffffff1673ffffffffffffffffffffffffffffffffffffffff16815260200190815260200160002054905081811015610746578381836040517fe450d38c00000000000000000000000000000000000000000000000000000000815260040161073d939291906115e2565b60405180910390fd5b8181036000808673ffffffffffffffffffffffffffffffffffffffff1673ffffffffffffffffffffffffffffffffffffffff16815260200190815260200160002081905550505b600073ffffffffffffffffffffffffffffffffffffffff168273ffffffffffffffffffffffffffffffffffffffff16036107d65780600260008282540392505081905550610823565b806000808473ffffffffffffffffffffffffffffffffffffffff1673ffffffffffffffffffffffffffffffffffffffff168152602001908152602001600020600082825401925050819055505b8173ffffffffffffffffffffffffffffffffffffffff168373ffffffffffffffffffffffffffffffffffffffff167fddf252ad1be2c89b69c2b068fc378daa952ba7f163c4a11628f55a4df523b3ef836040516108809190611619565b60405180910390a3505050565b61089b61092660201b60201c565b73ffffffffffffffffffffffffffffffffffffffff166108bf61092e60201b60201c565b73ffffffffffffffffffffffffffffffffffffffff1614610924576108e861092660201b60201c565b6040517f118cdaa700000000000000000000000000000000000000000000000000000000815260040161091b9190611188565b60405180910390fd5b565b600033905090565b6000600860009054906101000a900473ffffffffffffffffffffffffffffffffffffffff16905090565b6000604051905090565b600080fd5b600080fd5b600080fd5b600080fd5b6000601f19601f8301169050919050565b7f4e487b7100000000000000000000000000000000000000000000000000000000600052604160045260246000fd5b6109bf82610976565b810181811067ffffffffffffffff821117156109de576109dd610987565b5b80604052505050565b60006109f1610958565b90506109fd82826109b6565b919050565b600067ffffffffffffffff821115610a1d57610a1c610987565b5b610a2682610976565b9050602081019050919050565b60005b83811015610a51578082015181840152602081019050610a36565b60008484015250505050565b6000610a70610a6b84610a02565b6109e7565b905082815260208101848484011115610a8c57610a8b610971565b5b610a97848285610a33565b509392505050565b600082601f830112610ab457610ab361096c565b5b8151610ac4848260208601610a5d565b91505092915050565b600073ffffffffffffffffffffffffffffffffffffffff82169050919050565b6000610af882610acd565b9050919050565b610b0881610aed565b8114610b1357600080fd5b50565b600081519050610b2581610aff565b92915050565b6000819050919050565b610b3e81610b2b565b8114610b4957600080fd5b50565b600081519050610b5b81610b35565b92915050565b600067ffffffffffffffff821115610b7c57610b7b610987565b5b602082029050602081019050919050565b600080fd5b600080fd5b60006fffffffffffffffffffffffffffffffff82169050919050565b610bbc81610b97565b8114610bc757600080fd5b50565b600081519050610bd981610bb3565b92915050565b600060408284031215610bf557610bf4610b92565b5b610bff60406109e7565b90506000610c0f84828501610b16565b6000830152506020610c2384828501610bca565b60208301525092915050565b6000610c42610c3d84610b61565b6109e7565b90508083825260208201905060408402830185811115610c6557610c64610b8d565b5b835b81811015610c8e5780610c7a8882610bdf565b845260208401935050604081019050610c67565b5050509392505050565b600082601f830112610cad57610cac61096c565b5b8151610cbd848260208601610c2f565b91505092915050565b600067ffffffffffffffff821115610ce157610ce0610987565b5b602082029050602081019050919050565b6000610d05610d0084610cc6565b6109e7565b90508083825260208201905060208402830185811115610d2857610d27610b8d565b5b835b81811015610d515780610d3d8882610b16565b845260208401935050602081019050610d2a565b5050509392505050565b600082601f830112610d7057610d6f61096c565b5b8151610d80848260208601610cf2565b91505092915050565b60008060008060008060c08789031215610da657610da5610962565b5b600087015167ffffffffffffffff811115610dc457610dc3610967565b5b610dd089828a01610a9f565b965050602087015167ffffffffffffffff811115610df157610df0610967565b5b610dfd89828a01610a9f565b9550506040610e0e89828a01610b16565b9450506060610e1f89828a01610b4c565b935050608087015167ffffffffffffffff811115610e4057610e3f610967565b5b610e4c89828a01610c98565b92505060a087015167ffffffffffffffff811115610e6d57610e6c610967565b5b610e7989828a01610d5b565b9150509295509295509295565b600081519050919050565b7f4e487b7100000000000000000000000000000000000000000000000000000000600052602260045260246000fd5b60006002820490506001821680610ed857607f821691505b602082108103610eeb57610eea610e91565b5b50919050565b60008190508160005260206000209050919050565b60006020601f8301049050919050565b600082821b905092915050565b600060088302610f537fffffffffffffffffffffffffffffffffffffffffffffffffffffffffffffffff82610f16565b610f5d8683610f16565b95508019841693508086168417925050509392505050565b6000819050919050565b6000819050919050565b6000610fa4610f9f610f9a84610f75565b610f7f565b610f75565b9050919050565b6000819050919050565b610fbe83610f89565b610fd2610fca82610fab565b848454610f23565b825550505050565b600090565b610fe7610fda565b610ff2818484610fb5565b505050565b5b818110156110165761100b600082610fdf565b600181019050610ff8565b5050565b601f82111561105b5761102c81610ef1565b61103584610f06565b81016020851015611044578190505b61105861105085610f06565b830182610ff7565b50505b505050565b600082821c905092915050565b600061107e60001984600802611060565b1980831691505092915050565b6000611097838361106d565b9150826002028217905092915050565b6110b082610e86565b67ffffffffffffffff8111156110c9576110c8610987565b5b6110d38254610ec0565b6110de82828561101a565b600060209050601f83116001811461111157600084156110ff578287015190505b611109858261108b565b865550611171565b601f19841661111f86610ef1565b60005b8281101561114757848901518255600182019150602085019450602081019050611122565b868310156111645784890151611160601f89168261106d565b8355505b6001600288020188555050505b505050505050565b61118281610aed565b82525050565b600060208201905061119d6000830184611179565b92915050565b7f4e487b7100000000000000000000000000000000000000000000000000000000600052603260045260246000fd5b7f4e487b7100000000000000000000000000000000000000000000000000000000600052601160045260246000fd5b60008160011c9050919050565b6000808291508390505b600185111561125857808604811115611234576112336111d2565b5b60018516156112435780820291505b808102905061125185611201565b9450611218565b94509492505050565b600082611271576001905061132d565b8161127f576000905061132d565b8160018114611295576002811461129f576112ce565b600191505061132d565b60ff8411156112b1576112b06111d2565b5b8360020a9150848211156112c8576112c76111d2565b5b5061132d565b5060208310610133831016604e8410600b84101617156113035782820a9050838111156112fe576112fd6111d2565b5b61132d565b611310848484600161120e565b92509050818404811115611327576113266111d2565b5b81810290505b9392505050565b600060ff82169050919050565b600061134c82610f75565b915061135783611334565b92506113847fffffffffffffffffffffffffffffffffffffffffffffffffffffffffffffffff8484611261565b905092915050565b600061139782610f75565b91506113a283610f75565b92508282026113b081610f75565b915082820484148315176113c7576113c66111d2565b5b5092915050565b600082825260208201905092915050565b7f496e76616c69642049424320636f6e7472616374206164647265737300000000600082015250565b6000611415601c836113ce565b9150611420826113df565b602082019050919050565b6000602082019050818103600083015261144481611408565b9050919050565b61145481610b2b565b82525050565b61146381610f75565b82525050565b600060a08201905061147e600083018861144b565b61148b602083018761144b565b611498604083018661144b565b6114a5606083018561145a565b6114b26080830184611179565b9695505050505050565b60006114c782610e86565b6114d181856113ce565b93506114e1818560208601610a33565b6114ea81610976565b840191505092915050565b6000602082019050818103600083015261150f81846114bc565b905092915050565b600081519050919050565b6000819050602082019050919050565b600061153e8251610b2b565b80915050919050565b600061155282611517565b8261155c84611522565b905061156781611532565b925060208210156115a7576115a27fffffffffffffffffffffffffffffffffffffffffffffffffffffffffffffffff83602003600802610f16565b831692505b5050919050565b60006115b982610f75565b91506115c483610f75565b92508282019050808211156115dc576115db6111d2565b5b92915050565b60006060820190506115f76000830186611179565b611604602083018561145a565b611611604083018461145a565b949350505050565b600060208201905061162e600083018461145a565b92915050565b60805160a05160c05160e05161010051610120516101405161449361168e60003960006120a301526000612068015260006127440152600061272301526000611e1601526000611e6c01526000611e9501526144936000f3fe6080604052600436106101ee5760003560e01c80637ecebe001161010d578063b62c2cb6116100a0578063d505accf1161006f578063d505accf146106ef578063dba2d3f714610718578063dd62ed3e14610743578063eb250d1e14610780578063f2fde38b146107bf576101ee565b8063b62c2cb614610635578063c235ffae1461065e578063d2aaaf8514610689578063d318ed47146106c6576101ee565b806395d89b41116100dc57806395d89b411461058857806399189e44146105b3578063a8e99e8a146105dc578063a9059cbb146105f8576101ee565b80637ecebe00146104c657806382dee11f1461050357806384b0196e1461052c5780638da5cb5b1461055d576101ee565b80633644e5151161018557806370638ce51161015457806370638ce51461042b57806370a0823114610447578063715018a6146104845780637b09d29f1461049b576101ee565b80633644e5151461036f5780633a66cef61461039a57806348c45526146103c557806367f81fc014610402576101ee565b8063238dafe0116101c1578063238dafe0146102b157806323b872dd146102dc5780632808840414610319578063313ce56714610344576101ee565b806306fdde03146101f3578063095ea7b31461021e57806318160ddd1461025b57806322beeba314610286575b600080fd5b3480156101ff57600080fd5b506102086107e8565b6040516102159190612e56565b60405180910390f35b34801561022a57600080fd5b5061024560048036038101906102409190612f20565b61087a565b6040516102529190612f7b565b60405180910390f35b34801561026757600080fd5b5061027061089d565b60405161027d9190612fa5565b60405180910390f35b34801561029257600080fd5b5061029b6108a7565b6040516102a89190612fd9565b60405180910390f35b3480156102bd57600080fd5b506102c66108ad565b6040516102d39190612f7b565b60405180910390f35b3480156102e857600080fd5b5061030360048036038101906102fe9190612ff4565b6108c4565b6040516103109190612f7b565b60405180910390f35b34801561032557600080fd5b5061032e6108e5565b60405161033b9190613066565b60405180910390f35b34801561035057600080fd5b506103596108fb565b604051610366919061309d565b60405180910390f35b34801561037b57600080fd5b50610384610904565b6040516103919190612fd9565b60405180910390f35b3480156103a657600080fd5b506103af610913565b6040516103bc9190612fa5565b60405180910390f35b3480156103d157600080fd5b506103ec60048036038101906103e791906130e4565b610919565b6040516103f99190612f7b565b60405180910390f35b34801561040e57600080fd5b5061042960048036038101906104249190613111565b610939565b005b610445600480360381019061044091906130e4565b610aa4565b005b34801561045357600080fd5b5061046e6004803603810190610469919061313e565b610e21565b60405161047b9190612fa5565b60405180910390f35b34801561049057600080fd5b50610499610e69565b005b3480156104a757600080fd5b506104b0610e7d565b6040516104bd919061309d565b60405180910390f35b3480156104d257600080fd5b506104ed60048036038101906104e8919061313e565b610e82565b6040516104fa9190612fa5565b60405180910390f35b34801561050f57600080fd5b5061052a60048036038101906105259190613197565b610e94565b005b34801561053857600080fd5b50610541610ed6565b60405161055497969594939291906132cc565b60405180910390f35b34801561056957600080fd5b50610572610f80565b60405161057f9190613350565b60405180910390f35b34801561059457600080fd5b5061059d610faa565b6040516105aa9190612e56565b60405180910390f35b3480156105bf57600080fd5b506105da60048036038101906105d591906134a0565b61103c565b005b6105f660048036038101906105f19190613544565b61146e565b005b34801561060457600080fd5b5061061f600480360381019061061a9190612f20565b611894565b60405161062c9190612f7b565b60405180910390f35b34801561064157600080fd5b5061065c60048036038101906106579190613678565b6118b3565b005b34801561066a57600080fd5b5061067361194a565b6040516106809190613350565b60405180910390f35b34801561069557600080fd5b506106b060048036038101906106ab919061313e565b611970565b6040516106bd9190612f7b565b60405180910390f35b3480156106d257600080fd5b506106ed60048036038101906106e8919061313e565b611990565b005b3480156106fb57600080fd5b5061071660048036038101906107119190613700565b611ac7565b005b34801561072457600080fd5b5061072d611c0f565b60405161073a919061309d565b60405180910390f35b34801561074f57600080fd5b5061076a600480360381019061076591906137a2565b611c14565b6040516107779190612fa5565b60405180910390f35b34801561078c57600080fd5b506107a760048036038101906107a291906130e4565b611c9b565b6040516107b6939291906137f1565b60405180910390f35b3480156107cb57600080fd5b506107e660048036038101906107e1919061313e565b611d01565b005b6060600380546107f790613857565b80601f016020809104026020016040519081016040528092919081815260200182805461082390613857565b80156108705780601f1061084557610100808354040283529160200191610870565b820191906000526020600020905b81548152906001019060200180831161085357829003601f168201915b5050505050905090565b600080610885611d87565b9050610892818585611d8f565b600191505092915050565b6000600254905090565b600b5481565b6000600860149054906101000a900460ff16905090565b6000826108d081611da1565b6108db858585611de3565b9150509392505050565b600e60009054906101000a900463ffffffff1681565b6000600c905090565b600061090e611e12565b905090565b600c5481565b600d6020528060005260406000206000915054906101000a900460ff1681565b610941611ec9565b6000600a60009054906101000a900473ffffffffffffffffffffffffffffffffffffffff1690506000808273ffffffffffffffffffffffffffffffffffffffff166379502c556040518163ffffffff1660e01b815260040160a060405180830381865afa1580156109b6573d6000803e3d6000fd5b505050506040513d601f19601f820116820180604052508101906109da91906138b2565b5093509350505081841015610a24576040517f08c379a0000000000000000000000000000000000000000000000000000000008152600401610a1b90613979565b60405180910390fd5b80841115610a67576040517f08c379a0000000000000000000000000000000000000000000000000000000008152600401610a5e906139e5565b60405180910390fd5b83600c547fa485a88a368ebaead07316d0ecff078ceb5d1b46efd14b94247270d4171cd4db60405160405180910390a383600c8190555050505050565b6000600f60008363ffffffff1663ffffffff16815260200190815260200160002060010160009054906101000a90046fffffffffffffffffffffffffffffffff166fffffffffffffffffffffffffffffffff1611610b37576040517f08c379a0000000000000000000000000000000000000000000000000000000008152600401610b2e90613a51565b60405180910390fd5b6000600f60008363ffffffff1663ffffffff1681526020019081526020016000206040518060600160405290816000820160009054906101000a900473ffffffffffffffffffffffffffffffffffffffff1673ffffffffffffffffffffffffffffffffffffffff1673ffffffffffffffffffffffffffffffffffffffff1681526020016001820160009054906101000a90046fffffffffffffffffffffffffffffffff166fffffffffffffffffffffffffffffffff166fffffffffffffffffffffffffffffffff1681526020016002820154815250509050600082604051602001610c229190613aa7565b60405160208183030381529060405280519060200120905060008083602001516000868660400151604051602001610c5e959493929190613b19565b60405160208183030381529060405290506000600a60009054906101000a900473ffffffffffffffffffffffffffffffffffffffff1673ffffffffffffffffffffffffffffffffffffffff163484600b5485600c54604051602401610cc69493929190613bcd565b6040516020818303038152906040527fc8a24482000000000000000000000000000000000000000000000000000000007bffffffffffffffffffffffffffffffffffffffffffffffffffffffff19166020820180517bffffffffffffffffffffffffffffffffffffffffffffffffffffffff8381831617835250505050604051610d509190613c55565b60006040518083038185875af1925050503d8060008114610d8d576040519150601f19603f3d011682016040523d82523d6000602084013e610d92565b606091505b5050905080610dd6576040517f08c379a0000000000000000000000000000000000000000000000000000000008152600401610dcd90613cb8565b60405180910390fd5b83604001517fcf5d7bf366de9aefdb2e7cfff5076e740720703fa9341ca5df34db66baf7456a85602001513488604051610e1293929190613cd8565b60405180910390a25050505050565b60008060008373ffffffffffffffffffffffffffffffffffffffff1673ffffffffffffffffffffffffffffffffffffffff168152602001908152602001600020549050919050565b610e71611ec9565b610e7b6000611f50565b565b600181565b6000610e8d82612016565b9050919050565b610e9c611ec9565b80600b547fa14e2697861aa95e9c5e36a1d08f76fe80944fba775ae48272e7139f7cdbbe1460405160405180910390a380600b8190555050565b600060608060008060006060610eea61205f565b610ef261209a565b46306000801b600067ffffffffffffffff811115610f1357610f12613375565b5b604051908082528060200260200182016040528015610f415781602001602082028036833780820191505090505b507f0f00000000000000000000000000000000000000000000000000000000000000959493929190965096509650965096509650965090919293949596565b6000600860009054906101000a900473ffffffffffffffffffffffffffffffffffffffff16905090565b606060048054610fb990613857565b80601f0160208091040260200160405190810160405280929190818152602001828054610fe590613857565b80156110325780601f1061100757610100808354040283529160200191611032565b820191906000526020600020905b81548152906001019060200180831161101557829003601f168201915b5050505050905090565b600a60009054906101000a900473ffffffffffffffffffffffffffffffffffffffff1673ffffffffffffffffffffffffffffffffffffffff163373ffffffffffffffffffffffffffffffffffffffff16146110cc576040517f08c379a00000000000000000000000000000000000000000000000000000000081526004016110c390613d5b565b60405180910390fd5b600b548214611110576040517f08c379a000000000000000000000000000000000000000000000000000000000815260040161110790613dc7565b60405180910390fd5b600481511015611155576040517f08c379a000000000000000000000000000000000000000000000000000000000815260040161114c90613e33565b60405180910390fd5b6000602082015160e01c9050600060ff168163ffffffff16036113b65760308251146111b6576040517f08c379a00000000000000000000000000000000000000000000000000000000081526004016111ad90613e9f565b60405180910390fd5b600080600080602486015160801c9350603486015160e01c9250603886015160e01c9150603c86015160601c9050600073ffffffffffffffffffffffffffffffffffffffff168173ffffffffffffffffffffffffffffffffffffffff1603611253576040517f08c379a000000000000000000000000000000000000000000000000000000000815260040161124a90613f0b565b60405180910390fd5b60008363ffffffff161461129c576040517f08c379a000000000000000000000000000000000000000000000000000000000815260040161129390613f77565b60405180910390fd5b600d60008363ffffffff1663ffffffff16815260200190815260200160002060009054906101000a900460ff1615611309576040517f08c379a000000000000000000000000000000000000000000000000000000000815260040161130090613fe3565b60405180910390fd5b6001600d60008463ffffffff1663ffffffff16815260200190815260200160002060006101000a81548160ff02191690831515021790555061135d81856fffffffffffffffffffffffffffffffff166120d5565b8073ffffffffffffffffffffffffffffffffffffffff167fbdde8979688e10cf227fc00e2a09f04c8eccc879b4b872c96532e71c0dd7b21085846040516113a592919061403e565b60405180910390a250505050611469565b600160ff168163ffffffff160361142d57600582511461140b576040517f08c379a000000000000000000000000000000000000000000000000000000000815260040161140290613e9f565b60405180910390fd5b6000602483015160f81c905061142760008260ff161415612157565b50611468565b6040517f08c379a000000000000000000000000000000000000000000000000000000000815260040161145f906140b3565b60405180910390fd5b5b505050565b6114766121ab565b6000826fffffffffffffffffffffffffffffffff16116114cb576040517f08c379a00000000000000000000000000000000000000000000000000000000081526004016114c29061411f565b60405180910390fd5b816fffffffffffffffffffffffffffffffff166114e733610e21565b1015611528576040517f08c379a000000000000000000000000000000000000000000000000000000000815260040161151f9061418b565b60405180910390fd5b6000600e60009054906101000a900463ffffffff169050600e600081819054906101000a900463ffffffff1680929190611561906141da565b91906101000a81548163ffffffff021916908363ffffffff160217905550506000816040516020016115939190613aa7565b60405160208183030381529060405280519060200120905060008085600085876040516020016115c7959493929190613b19565b60405160208183030381529060405290506115f433866fffffffffffffffffffffffffffffffff166121eb565b60405180606001604052803373ffffffffffffffffffffffffffffffffffffffff168152602001866fffffffffffffffffffffffffffffffff16815260200185815250600f60008563ffffffff1663ffffffff16815260200190815260200160002060008201518160000160006101000a81548173ffffffffffffffffffffffffffffffffffffffff021916908373ffffffffffffffffffffffffffffffffffffffff16021790555060208201518160010160006101000a8154816fffffffffffffffffffffffffffffffff02191690836fffffffffffffffffffffffffffffffff160217905550604082015181600201559050506000600a60009054906101000a900473ffffffffffffffffffffffffffffffffffffffff1673ffffffffffffffffffffffffffffffffffffffff163484600b5485600c546040516024016117409493929190613bcd565b6040516020818303038152906040527fc8a24482000000000000000000000000000000000000000000000000000000007bffffffffffffffffffffffffffffffffffffffffffffffffffffffff19166020820180517bffffffffffffffffffffffffffffffffffffffffffffffffffffffff83818316178352505050506040516117ca9190613c55565b60006040518083038185875af1925050503d8060008114611807576040519150601f19603f3d011682016040523d82523d6000602084013e61180c565b606091505b5050905080611850576040517f08c379a000000000000000000000000000000000000000000000000000000000815260040161184790613cb8565b60405180910390fd5b847fddbf1bcef359cc7e89612599db42f6e24e6bc1bf00d20a205ebe94a2066df50887348760405161188493929190613cd8565b60405180910390a2505050505050565b6000826118a081611da1565b6118aa848461226d565b91505092915050565b6118bb611ec9565b60005b82518110156119455781600960008584815181106118df576118de614206565b5b602002602001015173ffffffffffffffffffffffffffffffffffffffff1673ffffffffffffffffffffffffffffffffffffffff16815260200190815260200160002060006101000a81548160ff02191690831515021790555080806001019150506118be565b505050565b600a60009054906101000a900473ffffffffffffffffffffffffffffffffffffffff1681565b60096020528060005260406000206000915054906101000a900460ff1681565b611998611ec9565b600073ffffffffffffffffffffffffffffffffffffffff168173ffffffffffffffffffffffffffffffffffffffff1603611a07576040517f08c379a00000000000000000000000000000000000000000000000000000000081526004016119fe90614281565b60405180910390fd5b8073ffffffffffffffffffffffffffffffffffffffff16600a60009054906101000a900473ffffffffffffffffffffffffffffffffffffffff1673ffffffffffffffffffffffffffffffffffffffff167fb4f4eb2c59e82e78670d9c46b2710303f24fb6d764a4a7fb86b3036d5622774060405160405180910390a380600a60006101000a81548173ffffffffffffffffffffffffffffffffffffffff021916908373ffffffffffffffffffffffffffffffffffffffff16021790555050565b83421115611b0c57836040517f62791302000000000000000000000000000000000000000000000000000000008152600401611b039190612fa5565b60405180910390fd5b60007f6e71edae12b1b97f4d1f60370fef10105fa2faae0126114a169c64845d6126c9888888611b3b8c612290565b89604051602001611b51969594939291906142a1565b6040516020818303038152906040528051906020012090506000611b74826122e7565b90506000611b8482878787612301565b90508973ffffffffffffffffffffffffffffffffffffffff168173ffffffffffffffffffffffffffffffffffffffff1614611bf857808a6040517f4b800e46000000000000000000000000000000000000000000000000000000008152600401611bef929190614302565b60405180910390fd5b611c038a8a8a611d8f565b50505050505050505050565b600081565b6000600160008473ffffffffffffffffffffffffffffffffffffffff1673ffffffffffffffffffffffffffffffffffffffff16815260200190815260200160002060008373ffffffffffffffffffffffffffffffffffffffff1673ffffffffffffffffffffffffffffffffffffffff16815260200190815260200160002054905092915050565b600f6020528060005260406000206000915090508060000160009054906101000a900473ffffffffffffffffffffffffffffffffffffffff16908060010160009054906101000a90046fffffffffffffffffffffffffffffffff16908060020154905083565b611d09611ec9565b600073ffffffffffffffffffffffffffffffffffffffff168173ffffffffffffffffffffffffffffffffffffffff1603611d7b5760006040517f1e4fbdf7000000000000000000000000000000000000000000000000000000008152600401611d729190613350565b60405180910390fd5b611d8481611f50565b50565b600033905090565b611d9c8383836001612331565b505050565b611daa81612508565b611de0576040517f7ea8ac5600000000000000000000000000000000000000000000000000000000815260040160405180910390fd5b50565b600080611dee611d87565b9050611dfb858285612575565b611e0685858561260a565b60019150509392505050565b60007f000000000000000000000000000000000000000000000000000000000000000073ffffffffffffffffffffffffffffffffffffffff163073ffffffffffffffffffffffffffffffffffffffff16148015611e8e57507f000000000000000000000000000000000000000000000000000000000000000046145b15611ebb577f00000000000000000000000000000000000000000000000000000000000000009050611ec6565b611ec36126fe565b90505b90565b611ed1611d87565b73ffffffffffffffffffffffffffffffffffffffff16611eef610f80565b73ffffffffffffffffffffffffffffffffffffffff1614611f4e57611f12611d87565b6040517f118cdaa7000000000000000000000000000000000000000000000000000000008152600401611f459190613350565b60405180910390fd5b565b6000600860009054906101000a900473ffffffffffffffffffffffffffffffffffffffff16905081600860006101000a81548173ffffffffffffffffffffffffffffffffffffffff021916908373ffffffffffffffffffffffffffffffffffffffff1602179055508173ffffffffffffffffffffffffffffffffffffffff168173ffffffffffffffffffffffffffffffffffffffff167f8be0079c531659141344cd1fd0a4f28419497f9722a3daafe3b4186f6b6457e060405160405180910390a35050565b6000600760008373ffffffffffffffffffffffffffffffffffffffff1673ffffffffffffffffffffffffffffffffffffffff168152602001908152602001600020549050919050565b606061209560057f000000000000000000000000000000000000000000000000000000000000000061279490919063ffffffff16565b905090565b60606120d060067f000000000000000000000000000000000000000000000000000000000000000061279490919063ffffffff16565b905090565b600073ffffffffffffffffffffffffffffffffffffffff168273ffffffffffffffffffffffffffffffffffffffff16036121475760006040517fec442f0500000000000000000000000000000000000000000000000000000000815260040161213e9190613350565b60405180910390fd5b61215360008383612844565b5050565b80600860146101000a81548160ff0219169083151502179055507f54ca1f89aee2b8d11c89b7813c6aa99caa0f8c55c8eccf8b70c3bb42029fa134816040516121a09190612f7b565b60405180910390a150565b6121b36108ad565b6121e9576040517f7ea8ac5600000000000000000000000000000000000000000000000000000000815260040160405180910390fd5b565b600073ffffffffffffffffffffffffffffffffffffffff168273ffffffffffffffffffffffffffffffffffffffff160361225d5760006040517f96c6fd1e0000000000000000000000000000000000000000000000000000000081526004016122549190613350565b60405180910390fd5b61226982600083612844565b5050565b600080612278611d87565b905061228581858561260a565b600191505092915050565b6000600760008373ffffffffffffffffffffffffffffffffffffffff1673ffffffffffffffffffffffffffffffffffffffff1681526020019081526020016000206000815480929190600101919050559050919050565b60006122fa6122f4611e12565b83612a69565b9050919050565b60008060008061231388888888612aaa565b9250925092506123238282612b9e565b829350505050949350505050565b600073ffffffffffffffffffffffffffffffffffffffff168473ffffffffffffffffffffffffffffffffffffffff16036123a35760006040517fe602df0500000000000000000000000000000000000000000000000000000000815260040161239a9190613350565b60405180910390fd5b600073ffffffffffffffffffffffffffffffffffffffff168373ffffffffffffffffffffffffffffffffffffffff16036124155760006040517f94280d6200000000000000000000000000000000000000000000000000000000815260040161240c9190613350565b60405180910390fd5b81600160008673ffffffffffffffffffffffffffffffffffffffff1673ffffffffffffffffffffffffffffffffffffffff16815260200190815260200160002060008573ffffffffffffffffffffffffffffffffffffffff1673ffffffffffffffffffffffffffffffffffffffff168152602001908152602001600020819055508015612502578273ffffffffffffffffffffffffffffffffffffffff168473ffffffffffffffffffffffffffffffffffffffff167f8c5be1e5ebec7d5bd14f71427d1e84f3dd0314c0f7b2291e5b200ac8c7c3b925846040516124f99190612fa5565b60405180910390a35b50505050565b6000600860149054906101000a900460ff168061256e5750600960008373ffffffffffffffffffffffffffffffffffffffff1673ffffffffffffffffffffffffffffffffffffffff16815260200190815260200160002060009054906101000a900460ff165b9050919050565b60006125818484611c14565b90507fffffffffffffffffffffffffffffffffffffffffffffffffffffffffffffffff81101561260457818110156125f4578281836040517ffb8f41b20000000000000000000000000000000000000000000000000000000081526004016125eb9392919061432b565b60405180910390fd5b61260384848484036000612331565b5b50505050565b600073ffffffffffffffffffffffffffffffffffffffff168373ffffffffffffffffffffffffffffffffffffffff160361267c5760006040517f96c6fd1e0000000000000000000000000000000000000000000000000000000081526004016126739190613350565b60405180910390fd5b600073ffffffffffffffffffffffffffffffffffffffff168273ffffffffffffffffffffffffffffffffffffffff16036126ee5760006040517fec442f050000000000000000000000000000000000000000000000000000000081526004016126e59190613350565b60405180910390fd5b6126f9838383612844565b505050565b60007f8b73c3c69bb8fe3d512ecc4cf759cc79239f7b179b0ffacaa9a75d522b39400f7f00000000000000000000000000000000000000000000000000000000000000007f00000000000000000000000000000000000000000000000000000000000000004630604051602001612779959493929190614362565b60405160208183030381529060405280519060200120905090565b606060ff60001b83146127b1576127aa83612d02565b905061283e565b8180546127bd90613857565b80601f01602080910402602001604051908101604052809291908181526020018280546127e990613857565b80156128365780601f1061280b57610100808354040283529160200191612836565b820191906000526020600020905b81548152906001019060200180831161281957829003601f168201915b505050505090505b92915050565b600073ffffffffffffffffffffffffffffffffffffffff168373ffffffffffffffffffffffffffffffffffffffff160361289657806002600082825461288a91906143b5565b92505081905550612969565b60008060008573ffffffffffffffffffffffffffffffffffffffff1673ffffffffffffffffffffffffffffffffffffffff16815260200190815260200160002054905081811015612922578381836040517fe450d38c0000000000000000000000000000000000000000000000000000000081526004016129199392919061432b565b60405180910390fd5b8181036000808673ffffffffffffffffffffffffffffffffffffffff1673ffffffffffffffffffffffffffffffffffffffff16815260200190815260200160002081905550505b600073ffffffffffffffffffffffffffffffffffffffff168273ffffffffffffffffffffffffffffffffffffffff16036129b257806002600082825403925050819055506129ff565b806000808473ffffffffffffffffffffffffffffffffffffffff1673ffffffffffffffffffffffffffffffffffffffff168152602001908152602001600020600082825401925050819055505b8173ffffffffffffffffffffffffffffffffffffffff168373ffffffffffffffffffffffffffffffffffffffff167fddf252ad1be2c89b69c2b068fc378daa952ba7f163c4a11628f55a4df523b3ef83604051612a5c9190612fa5565b60405180910390a3505050565b60006040517f190100000000000000000000000000000000000000000000000000000000000081528360028201528260228201526042812091505092915050565b60008060007f7fffffffffffffffffffffffffffffff5d576e7357a4501ddfe92f46681b20a08460001c1115612aea576000600385925092509250612b94565b600060018888888860405160008152602001604052604051612b0f94939291906143e9565b6020604051602081039080840390855afa158015612b31573d6000803e3d6000fd5b505050602060405103519050600073ffffffffffffffffffffffffffffffffffffffff168173ffffffffffffffffffffffffffffffffffffffff1603612b8557600060016000801b93509350935050612b94565b8060008060001b935093509350505b9450945094915050565b60006003811115612bb257612bb161442e565b5b826003811115612bc557612bc461442e565b5b0315612cfe5760016003811115612bdf57612bde61442e565b5b826003811115612bf257612bf161442e565b5b03612c29576040517ff645eedf00000000000000000000000000000000000000000000000000000000815260040160405180910390fd5b60026003811115612c3d57612c3c61442e565b5b826003811115612c5057612c4f61442e565b5b03612c95578060001c6040517ffce698f7000000000000000000000000000000000000000000000000000000008152600401612c8c9190612fa5565b60405180910390fd5b600380811115612ca857612ca761442e565b5b826003811115612cbb57612cba61442e565b5b03612cfd57806040517fd78bce0c000000000000000000000000000000000000000000000000000000008152600401612cf49190612fd9565b60405180910390fd5b5b5050565b60606000612d0f83612d76565b90506000602067ffffffffffffffff811115612d2e57612d2d613375565b5b6040519080825280601f01601f191660200182016040528015612d605781602001600182028036833780820191505090505b5090508181528360208201528092505050919050565b60008060ff8360001c169050601f811115612dbd576040517fb3512b0c00000000000000000000000000000000000000000000000000000000815260040160405180910390fd5b80915050919050565b600081519050919050565b600082825260208201905092915050565b60005b83811015612e00578082015181840152602081019050612de5565b60008484015250505050565b6000601f19601f8301169050919050565b6000612e2882612dc6565b612e328185612dd1565b9350612e42818560208601612de2565b612e4b81612e0c565b840191505092915050565b60006020820190508181036000830152612e708184612e1d565b905092915050565b6000604051905090565b600080fd5b600080fd5b600073ffffffffffffffffffffffffffffffffffffffff82169050919050565b6000612eb782612e8c565b9050919050565b612ec781612eac565b8114612ed257600080fd5b50565b600081359050612ee481612ebe565b92915050565b6000819050919050565b612efd81612eea565b8114612f0857600080fd5b50565b600081359050612f1a81612ef4565b92915050565b60008060408385031215612f3757612f36612e82565b5b6000612f4585828601612ed5565b9250506020612f5685828601612f0b565b9150509250929050565b60008115159050919050565b612f7581612f60565b82525050565b6000602082019050612f906000830184612f6c565b92915050565b612f9f81612eea565b82525050565b6000602082019050612fba6000830184612f96565b92915050565b6000819050919050565b612fd381612fc0565b82525050565b6000602082019050612fee6000830184612fca565b92915050565b60008060006060848603121561300d5761300c612e82565b5b600061301b86828701612ed5565b935050602061302c86828701612ed5565b925050604061303d86828701612f0b565b9150509250925092565b600063ffffffff82169050919050565b61306081613047565b82525050565b600060208201905061307b6000830184613057565b92915050565b600060ff82169050919050565b61309781613081565b82525050565b60006020820190506130b2600083018461308e565b92915050565b6130c181613047565b81146130cc57600080fd5b50565b6000813590506130de816130b8565b92915050565b6000602082840312156130fa576130f9612e82565b5b6000613108848285016130cf565b91505092915050565b60006020828403121561312757613126612e82565b5b600061313584828501612f0b565b91505092915050565b60006020828403121561315457613153612e82565b5b600061316284828501612ed5565b91505092915050565b61317481612fc0565b811461317f57600080fd5b50565b6000813590506131918161316b565b92915050565b6000602082840312156131ad576131ac612e82565b5b60006131bb84828501613182565b91505092915050565b60007fff0000000000000000000000000000000000000000000000000000000000000082169050919050565b6131f9816131c4565b82525050565b61320881612eac565b82525050565b600081519050919050565b600082825260208201905092915050565b6000819050602082019050919050565b61324381612eea565b82525050565b6000613255838361323a565b60208301905092915050565b6000602082019050919050565b60006132798261320e565b6132838185613219565b935061328e8361322a565b8060005b838110156132bf5781516132a68882613249565b97506132b183613261565b925050600181019050613292565b5085935050505092915050565b600060e0820190506132e1600083018a6131f0565b81810360208301526132f38189612e1d565b905081810360408301526133078188612e1d565b90506133166060830187612f96565b61332360808301866131ff565b61333060a0830185612fca565b81810360c0830152613342818461326e565b905098975050505050505050565b600060208201905061336560008301846131ff565b92915050565b600080fd5b600080fd5b7f4e487b7100000000000000000000000000000000000000000000000000000000600052604160045260246000fd5b6133ad82612e0c565b810181811067ffffffffffffffff821117156133cc576133cb613375565b5b80604052505050565b60006133df612e78565b90506133eb82826133a4565b919050565b600067ffffffffffffffff82111561340b5761340a613375565b5b61341482612e0c565b9050602081019050919050565b82818337600083830152505050565b600061344361343e846133f0565b6133d5565b90508281526020810184848401111561345f5761345e613370565b5b61346a848285613421565b509392505050565b600082601f8301126134875761348661336b565b5b8135613497848260208601613430565b91505092915050565b600080604083850312156134b7576134b6612e82565b5b60006134c585828601613182565b925050602083013567ffffffffffffffff8111156134e6576134e5612e87565b5b6134f285828601613472565b9150509250929050565b60006fffffffffffffffffffffffffffffffff82169050919050565b613521816134fc565b811461352c57600080fd5b50565b60008135905061353e81613518565b92915050565b6000806040838503121561355b5761355a612e82565b5b60006135698582860161352f565b925050602061357a85828601613182565b9150509250929050565b600067ffffffffffffffff82111561359f5761359e613375565b5b602082029050602081019050919050565b600080fd5b60006135c86135c384613584565b6133d5565b905080838252602082019050602084028301858111156135eb576135ea6135b0565b5b835b8181101561361457806136008882612ed5565b8452602084019350506020810190506135ed565b5050509392505050565b600082601f8301126136335761363261336b565b5b81356136438482602086016135b5565b91505092915050565b61365581612f60565b811461366057600080fd5b50565b6000813590506136728161364c565b92915050565b6000806040838503121561368f5761368e612e82565b5b600083013567ffffffffffffffff8111156136ad576136ac612e87565b5b6136b98582860161361e565b92505060206136ca85828601613663565b9150509250929050565b6136dd81613081565b81146136e857600080fd5b50565b6000813590506136fa816136d4565b92915050565b600080600080600080600060e0888a03121561371f5761371e612e82565b5b600061372d8a828b01612ed5565b975050602061373e8a828b01612ed5565b965050604061374f8a828b01612f0b565b95505060606137608a828b01612f0b565b94505060806137718a828b016136eb565b93505060a06137828a828b01613182565b92505060c06137938a828b01613182565b91505092959891949750929550565b600080604083850312156137b9576137b8612e82565b5b60006137c785828601612ed5565b92505060206137d885828601612ed5565b9150509250929050565b6137eb816134fc565b82525050565b600060608201905061380660008301866131ff565b61381360208301856137e2565b6138206040830184612fca565b949350505050565b7f4e487b7100000000000000000000000000000000000000000000000000000000600052602260045260246000fd5b6000600282049050600182168061386f57607f821691505b60208210810361388257613881613828565b5b50919050565b600081519050613897816136d4565b92915050565b6000815190506138ac81612ef4565b92915050565b600080600080600060a086880312156138ce576138cd612e82565b5b60006138dc88828901613888565b95505060206138ed88828901613888565b94505060406138fe8882890161389d565b935050606061390f8882890161389d565b92505060806139208882890161389d565b9150509295509295909350565b7f4f7574676f696e6754544c20746f6f20736d616c6c0000000000000000000000600082015250565b6000613963601583612dd1565b915061396e8261392d565b602082019050919050565b6000602082019050818103600083015261399281613956565b9050919050565b7f4f7574676f696e6754544c20746f6f206c617267650000000000000000000000600082015250565b60006139cf601583612dd1565b91506139da82613999565b602082019050919050565b600060208201905081810360008301526139fe816139c2565b9050919050565b7f5472616e73666572206e6f7420666f756e640000000000000000000000000000600082015250565b6000613a3b601283612dd1565b9150613a4682613a05565b602082019050919050565b60006020820190508181036000830152613a6a81613a2e565b9050919050565b60008160e01b9050919050565b6000613a8982613a71565b9050919050565b613aa1613a9c82613047565b613a7e565b82525050565b6000613ab38284613a90565b60048201915081905092915050565b60008160801b9050919050565b6000613ada82613ac2565b9050919050565b613af2613aed826134fc565b613acf565b82525050565b6000819050919050565b613b13613b0e82612fc0565b613af8565b82525050565b6000613b258288613a90565b600482019150613b358287613ae1565b601082019150613b458286613a90565b600482019150613b558285613a90565b600482019150613b658284613b02565b6020820191508190509695505050505050565b600081519050919050565b600082825260208201905092915050565b6000613b9f82613b78565b613ba98185613b83565b9350613bb9818560208601612de2565b613bc281612e0c565b840191505092915050565b6000608082019050613be26000830187612fca565b613bef6020830186612fca565b8181036040830152613c018185613b94565b9050613c106060830184612f96565b95945050505050565b600081905092915050565b6000613c2f82613b78565b613c398185613c19565b9350613c49818560208601612de2565b80840191505092915050565b6000613c618284613c24565b915081905092915050565b7f73656e644d657373616765206661696c65640000000000000000000000000000600082015250565b6000613ca2601283612dd1565b9150613cad82613c6c565b602082019050919050565b60006020820190508181036000830152613cd181613c95565b9050919050565b6000606082019050613ced60008301866137e2565b613cfa6020830185612f96565b613d076040830184613057565b949350505050565b7f556e617574686f72697a6564206f726967696e00000000000000000000000000600082015250565b6000613d45601383612dd1565b9150613d5082613d0f565b602082019050919050565b60006020820190508181036000830152613d7481613d38565b9050919050565b7f556e617574686f72697a65642073656e64657200000000000000000000000000600082015250565b6000613db1601383612dd1565b9150613dbc82613d7b565b602082019050919050565b60006020820190508181036000830152613de081613da4565b9050919050565b7f496e76616c696420616374696f6e000000000000000000000000000000000000600082015250565b6000613e1d600e83612dd1565b9150613e2882613de7565b602082019050919050565b60006020820190508181036000830152613e4c81613e10565b9050919050565b7f496e76616c696420616374696f6e207061796c6f616400000000000000000000600082015250565b6000613e89601683612dd1565b9150613e9482613e53565b602082019050919050565b60006020820190508181036000830152613eb881613e7c565b9050919050565b7f496e76616c696420726563697069656e74000000000000000000000000000000600082015250565b6000613ef5601183612dd1565b9150613f0082613ebf565b602082019050919050565b60006020820190508181036000830152613f2481613ee8565b9050919050565b7f556e737570706f72746564206173736574496400000000000000000000000000600082015250565b6000613f61601383612dd1565b9150613f6c82613f2b565b602082019050919050565b60006020820190508181036000830152613f9081613f54565b9050919050565b7f5472616e7366657220616c726561647920726563656976656400000000000000600082015250565b6000613fcd601983612dd1565b9150613fd882613f97565b602082019050919050565b60006020820190508181036000830152613ffc81613fc0565b9050919050565b6000819050919050565b600061402861402361401e846134fc565b614003565b612eea565b9050919050565b6140388161400d565b82525050565b6000604082019050614053600083018561402f565b6140606020830184613057565b9392505050565b7f556e737570706f7274656420616374696f6e0000000000000000000000000000600082015250565b600061409d601283612dd1565b91506140a882614067565b602082019050919050565b600060208201905081810360008301526140cc81614090565b9050919050565b7f43616e6e6f74207472616e73666572203020616d6f756e740000000000000000600082015250565b6000614109601883612dd1565b9150614114826140d3565b602082019050919050565b60006020820190508181036000830152614138816140fc565b9050919050565b7f496e73756666696369656e74204143552062616c616e63650000000000000000600082015250565b6000614175601883612dd1565b91506141808261413f565b602082019050919050565b600060208201905081810360008301526141a481614168565b9050919050565b7f4e487b7100000000000000000000000000000000000000000000000000000000600052601160045260246000fd5b60006141e582613047565b915063ffffffff82036141fb576141fa6141ab565b5b600182019050919050565b7f4e487b7100000000000000000000000000000000000000000000000000000000600052603260045260246000fd5b7f496e76616c69642049424320636f6e7472616374206164647265737300000000600082015250565b600061426b601c83612dd1565b915061427682614235565b602082019050919050565b6000602082019050818103600083015261429a8161425e565b9050919050565b600060c0820190506142b66000830189612fca565b6142c360208301886131ff565b6142d060408301876131ff565b6142dd6060830186612f96565b6142ea6080830185612f96565b6142f760a0830184612f96565b979650505050505050565b600060408201905061431760008301856131ff565b61432460208301846131ff565b9392505050565b600060608201905061434060008301866131ff565b61434d6020830185612f96565b61435a6040830184612f96565b949350505050565b600060a0820190506143776000830188612fca565b6143846020830187612fca565b6143916040830186612fca565b61439e6060830185612f96565b6143ab60808301846131ff565b9695505050505050565b60006143c082612eea565b91506143cb83612eea565b92508282019050808211156143e3576143e26141ab565b5b92915050565b60006080820190506143fe6000830187612fca565b61440b602083018661308e565b6144186040830185612fca565b6144256060830184612fca565b95945050505050565b7f4e487b7100000000000000000000000000000000000000000000000000000000600052602160045260246000fdfea2646970667358221220d3aa56b01ed530db58f583d15a75ccb766007a0599caa25d62f71b07e83e585164736f6c634300081c0033",
  "linkReferences": {},
  "deployedLinkReferences": {}
}