{
  "_format": "hh-sol-artifact-1",
  "contractName": "Ibc",
  "sourceName": "contracts/bridge/Ibc.sol",
  "abi": [
    {
      "inputs": [],
      "stateMutability": "nonpayable",
      "type": "constructor"
    },
    {
      "inputs": [],
      "name": "ECDSAInvalidSignature",
      "type": "error"
    },
    {
      "inputs": [
        {
          "internalType": "uint256",
          "name": "length",
          "type": "uint256"
        }
      ],
      "name": "ECDSAInvalidSignatureLength",
      "type": "error"
    },
    {
      "inputs": [
        {
          "internalType": "bytes32",
          "name": "s",
          "type": "bytes32"
        }
      ],
      "name": "ECDSAInvalidSignatureS",
      "type": "error"
    },
    {
      "inputs": [
        {
          "internalType": "address",
          "name": "owner",
          "type": "address"
        }
      ],
      "name": "OwnableInvalidOwner",
      "type": "error"
    },
    {
      "inputs": [
        {
          "internalType": "address",
          "name": "account",
          "type": "address"
        }
      ],
      "name": "OwnableUnauthorizedAccount",
      "type": "error"
    },
    {
      "inputs": [],
      "name": "ReentrancyGuardReentrantCall",
      "type": "error"
    },
    {
      "anonymous": false,
      "inputs": [
        {
          "indexed": false,
          "internalType": "bytes32",
          "name": "id",
          "type": "bytes32"
        }
      ],
      "name": "MessageDelivered",
      "type": "event"
    },
    {
      "anonymous": false,
      "inputs": [
        {
          "indexed": false,
          "internalType": "bytes32",
          "name": "id",
          "type": "bytes32"
        }
      ],
      "name": "MessageProcessed",
      "type": "event"
    },
    {
      "anonymous": false,
      "inputs": [
        {
          "indexed": false,
          "internalType": "uint8",
          "name": "senderIndex",
          "type": "uint8"
        },
        {
          "indexed": false,
          "internalType": "bytes32",
          "name": "sender",
          "type": "bytes32"
        },
        {
          "indexed": false,
          "internalType": "address",
          "name": "recipient",
          "type": "address"
        },
        {
          "indexed": false,
          "internalType": "bytes",
          "name": "payload",
          "type": "bytes"
        },
        {
          "indexed": false,
          "internalType": "string",
          "name": "reason",
          "type": "string"
        }
      ],
      "name": "MessageProcessedWithErrors",
      "type": "event"
    },
    {
      "anonymous": false,
      "inputs": [
        {
          "components": [
            {
              "internalType": "bytes32",
              "name": "id",
              "type": "bytes32"
            },
            {
              "internalType": "address",
              "name": "sender",
              "type": "address"
            },
            {
              "internalType": "bytes32",
              "name": "nonce",
              "type": "bytes32"
            },
            {
              "internalType": "uint8",
              "name": "recipientIndex",
              "type": "uint8"
            },
            {
              "internalType": "bytes32",
              "name": "recipient",
              "type": "bytes32"
            },
            {
              "internalType": "bytes",
              "name": "payload",
              "type": "bytes"
            }
          ],
          "indexed": false,
          "internalType": "struct Ibc.OutgoingMessage",
          "name": "message",
          "type": "tuple"
        }
      ],
      "name": "MessageReadyToSend",
      "type": "event"
    },
    {
      "anonymous": false,
      "inputs": [
        {
          "indexed": true,
          "internalType": "address",
          "name": "oracle",
          "type": "address"
        }
      ],
      "name": "OracleAdded",
      "type": "event"
    },
    {
      "anonymous": false,
      "inputs": [
        {
          "indexed": true,
          "internalType": "address",
          "name": "oracle",
          "type": "address"
        }
      ],
      "name": "OracleRemoved",
      "type": "event"
    },
    {
      "anonymous": false,
      "inputs": [
        {
          "indexed": true,
          "internalType": "address",
          "name": "previousOwner",
          "type": "address"
        },
        {
          "indexed": true,
          "internalType": "address",
          "name": "newOwner",
          "type": "address"
        }
      ],
      "name": "OwnershipTransferred",
      "type": "event"
    },
    {
      "inputs": [],
      "name": "ACURAST_INDEX",
      "outputs": [
        {
          "internalType": "uint8",
          "name": "",
          "type": "uint8"
        }
      ],
      "stateMutability": "view",
      "type": "function"
    },
    {
      "inputs": [],
      "name": "ETHEREUM_INDEX",
      "outputs": [
        {
          "internalType": "uint8",
          "name": "",
          "type": "uint8"
        }
      ],
      "stateMutability": "view",
      "type": "function"
    },
    {
      "inputs": [
        {
          "internalType": "address",
          "name": "oracle",
          "type": "address"
        }
      ],
      "name": "addOracle",
      "outputs": [],
      "stateMutability": "nonpayable",
      "type": "function"
    },
    {
      "inputs": [
        {
          "internalType": "bytes32[]",
          "name": "clean",
          "type": "bytes32[]"
        }
      ],
      "name": "cleanIncomingIndex",
      "outputs": [],
      "stateMutability": "nonpayable",
      "type": "function"
    },
    {
      "inputs": [],
      "name": "config",
      "outputs": [
        {
          "internalType": "uint8",
          "name": "minDeliverySignatures",
          "type": "uint8"
        },
        {
          "internalType": "uint8",
          "name": "minReceiptSignatures",
          "type": "uint8"
        },
        {
          "internalType": "uint256",
          "name": "minTTL",
          "type": "uint256"
        },
        {
          "internalType": "uint256",
          "name": "maxTTL",
          "type": "uint256"
        },
        {
          "internalType": "uint256",
          "name": "incomingTTL",
          "type": "uint256"
        }
      ],
      "stateMutability": "view",
      "type": "function"
    },
    {
      "inputs": [
        {
          "internalType": "uint8",
          "name": "minDeliverySignatures",
          "type": "uint8"
        },
        {
          "internalType": "uint8",
          "name": "minReceiptSignatures",
          "type": "uint8"
        },
        {
          "internalType": "uint256",
          "name": "minTTL",
          "type": "uint256"
        },
        {
          "internalType": "uint256",
          "name": "maxTTL",
          "type": "uint256"
        },
        {
          "internalType": "uint256",
          "name": "incomingTTL",
          "type": "uint256"
        }
      ],
      "name": "configure",
      "outputs": [],
      "stateMutability": "nonpayable",
      "type": "function"
    },
    {
      "inputs": [
        {
          "internalType": "bytes32",
          "name": "id",
          "type": "bytes32"
        },
        {
          "internalType": "bytes[]",
          "name": "signatures",
          "type": "bytes[]"
        }
      ],
      "name": "confirmMessageDelivery",
      "outputs": [],
      "stateMutability": "nonpayable",
      "type": "function"
    },
    {
      "inputs": [
        {
          "internalType": "bytes32",
          "name": "",
          "type": "bytes32"
        }
      ],
      "name": "incoming",
      "outputs": [
        {
          "components": [
            {
              "internalType": "bytes32",
              "name": "id",
              "type": "bytes32"
            },
            {
              "internalType": "uint8",
              "name": "senderIndex",
              "type": "uint8"
            },
            {
              "internalType": "bytes32",
              "name": "sender",
              "type": "bytes32"
            },
            {
              "internalType": "bytes32",
              "name": "nonce",
              "type": "bytes32"
            },
            {
              "internalType": "address",
              "name": "recipient",
              "type": "address"
            },
            {
              "internalType": "bytes",
              "name": "payload",
              "type": "bytes"
            }
          ],
          "internalType": "struct Ibc.IncomingMessage",
          "name": "message",
          "type": "tuple"
        },
        {
          "internalType": "uint256",
          "name": "currentBlock",
          "type": "uint256"
        },
        {
          "internalType": "bytes32",
          "name": "relayer",
          "type": "bytes32"
        }
      ],
      "stateMutability": "view",
      "type": "function"
    },
    {
      "inputs": [],
      "name": "messageCounter",
      "outputs": [
        {
          "internalType": "uint256",
          "name": "",
          "type": "uint256"
        }
      ],
      "stateMutability": "view",
      "type": "function"
    },
    {
      "inputs": [
        {
          "internalType": "address",
          "name": "",
          "type": "address"
        }
      ],
      "name": "oraclePublicKeys",
      "outputs": [
        {
          "internalType": "bool",
          "name": "",
          "type": "bool"
        }
      ],
      "stateMutability": "view",
      "type": "function"
    },
    {
      "inputs": [
        {
          "internalType": "bytes32",
          "name": "",
          "type": "bytes32"
        }
      ],
      "name": "outgoing",
      "outputs": [
        {
          "components": [
            {
              "internalType": "bytes32",
              "name": "id",
              "type": "bytes32"
            },
            {
              "internalType": "address",
              "name": "sender",
              "type": "address"
            },
            {
              "internalType": "bytes32",
              "name": "nonce",
              "type": "bytes32"
            },
            {
              "internalType": "uint8",
              "name": "recipientIndex",
              "type": "uint8"
            },
            {
              "internalType": "bytes32",
              "name": "recipient",
              "type": "bytes32"
            },
            {
              "internalType": "bytes",
              "name": "payload",
              "type": "bytes"
            }
          ],
          "internalType": "struct Ibc.OutgoingMessage",
          "name": "message",
          "type": "tuple"
        },
        {
          "internalType": "uint256",
          "name": "currentBlock",
          "type": "uint256"
        },
        {
          "internalType": "uint256",
          "name": "ttlBlock",
          "type": "uint256"
        },
        {
          "internalType": "uint256",
          "name": "fee",
          "type": "uint256"
        }
      ],
      "stateMutability": "view",
      "type": "function"
    },
    {
      "inputs": [],
      "name": "owner",
      "outputs": [
        {
          "internalType": "address",
          "name": "",
          "type": "address"
        }
      ],
      "stateMutability": "view",
      "type": "function"
    },
    {
      "inputs": [
        {
          "internalType": "bytes32",
          "name": "acurastSender",
          "type": "bytes32"
        },
        {
          "internalType": "bytes32",
          "name": "nonce",
          "type": "bytes32"
        },
        {
          "internalType": "uint8",
          "name": "recipientIndex",
          "type": "uint8"
        },
        {
          "internalType": "address",
          "name": "recipient",
          "type": "address"
        },
        {
          "internalType": "bytes",
          "name": "payload",
          "type": "bytes"
        },
        {
          "internalType": "bytes32",
          "name": "relayer",
          "type": "bytes32"
        },
        {
          "internalType": "bytes[]",
          "name": "signatures",
          "type": "bytes[]"
        }
      ],
      "name": "receiveMessage",
      "outputs": [],
      "stateMutability": "nonpayable",
      "type": "function"
    },
    {
      "inputs": [
        {
          "internalType": "address",
          "name": "oracle",
          "type": "address"
        }
      ],
      "name": "removeOracle",
      "outputs": [],
      "stateMutability": "nonpayable",
      "type": "function"
    },
    {
      "inputs": [],
      "name": "renounceOwnership",
      "outputs": [],
      "stateMutability": "nonpayable",
      "type": "function"
    },
    {
      "inputs": [
        {
          "internalType": "bytes32",
          "name": "nonce",
          "type": "bytes32"
        },
        {
          "internalType": "bytes32",
          "name": "recipient",
          "type": "bytes32"
        },
        {
          "internalType": "bytes",
          "name": "payload",
          "type": "bytes"
        },
        {
          "internalType": "uint256",
          "name": "ttl",
          "type": "uint256"
        }
      ],
      "name": "sendMessage",
      "outputs": [
        {
          "internalType": "bool",
          "name": "",
          "type": "bool"
        }
      ],
      "stateMutability": "payable",
      "type": "function"
    },
    {
      "inputs": [
        {
          "internalType": "address",
          "name": "newOwner",
          "type": "address"
        }
      ],
      "name": "transferOwnership",
      "outputs": [],
      "stateMutability": "nonpayable",
      "type": "function"
    }
  ],
  "bytecode": "0x608060405234801561001057600080fd5b5033600073ffffffffffffffffffffffffffffffffffffffff168173ffffffffffffffffffffffffffffffffffffffff16036100845760006040517f1e4fbdf700000000000000000000000000000000000000000000000000000000815260040161007b919061023c565b60405180910390fd5b6100938161013760201b60201c565b50600180819055506040518060a00160405280600160ff168152602001600160ff1681526020016014815260200160c88152602001601e815250600260008201518160000160006101000a81548160ff021916908360ff16021790555060208201518160000160016101000a81548160ff021916908360ff160217905550604082015181600101556060820151816002015560808201518160030155905050610257565b60008060009054906101000a900473ffffffffffffffffffffffffffffffffffffffff169050816000806101000a81548173ffffffffffffffffffffffffffffffffffffffff021916908373ffffffffffffffffffffffffffffffffffffffff1602179055508173ffffffffffffffffffffffffffffffffffffffff168173ffffffffffffffffffffffffffffffffffffffff167f8be0079c531659141344cd1fd0a4f28419497f9722a3daafe3b4186f6b6457e060405160405180910390a35050565b600073ffffffffffffffffffffffffffffffffffffffff82169050919050565b6000610226826101fb565b9050919050565b6102368161021b565b82525050565b6000602082019050610251600083018461022d565b92915050565b61397b806102666000396000f3fe6080604052600436106100fe5760003560e01c80638da5cb5b11610095578063c83ae34411610064578063c83ae3441461032a578063c8a2448214610355578063df5dd1a514610385578063f2fde38b146103ae578063fdc85fc4146103d7576100fe565b80638da5cb5b1461026d5780638f618b1614610298578063aa810c42146102c1578063b6c72acf14610301576100fe565b8063715018a6116100d1578063715018a6146101bf57806379502c55146101d65780637c106ea91461020557806385b4205814610242576100fe565b80632852ab6b146101035780632f99ddcd1461012c5780634ae593a714610155578063529c758814610194575b600080fd5b34801561010f57600080fd5b5061012a600480360381019061012591906120c6565b610400565b005b34801561013857600080fd5b50610153600480360381019061014e91906121b9565b6106f2565b005b34801561016157600080fd5b5061017c60048036038101906101779190612293565b610b53565b60405161018b9392919061241d565b60405180910390f35b3480156101a057600080fd5b506101a9610caa565b6040516101b6919061245b565b60405180910390f35b3480156101cb57600080fd5b506101d4610cb0565b005b3480156101e257600080fd5b506101eb610cc4565b6040516101fc959493929190612485565b60405180910390f35b34801561021157600080fd5b5061022c600480360381019061022791906124d8565b610d02565b6040516102399190612520565b60405180910390f35b34801561024e57600080fd5b50610257610d22565b604051610264919061253b565b60405180910390f35b34801561027957600080fd5b50610282610d27565b60405161028f9190612565565b60405180910390f35b3480156102a457600080fd5b506102bf60048036038101906102ba91906125db565b610d50565b005b3480156102cd57600080fd5b506102e860048036038101906102e39190612293565b610e69565b6040516102f894939291906126b1565b60405180910390f35b34801561030d57600080fd5b5061032860048036038101906103239190612729565b610fc6565b005b34801561033657600080fd5b5061033f61102e565b60405161034c919061253b565b60405180910390f35b61036f600480360381019061036a91906127a4565b611033565b60405161037c9190612520565b60405180910390f35b34801561039157600080fd5b506103ac60048036038101906103a791906124d8565b611326565b005b3480156103ba57600080fd5b506103d560048036038101906103d091906124d8565b611458565b005b3480156103e357600080fd5b506103fe60048036038101906103f991906124d8565b6114de565b005b6000801b60066000848152602001908152602001600020600001600001540361045e576040517f08c379a000000000000000000000000000000000000000000000000000000000815260040161045590612884565b60405180910390fd5b43600660008481526020019081526020016000206007015410156104b7576040517f08c379a00000000000000000000000000000000000000000000000000000000081526004016104ae906128f0565b60405180910390fd5b600060036006600085815260200190815260200160002060000160010160009054906101000a900473ffffffffffffffffffffffffffffffffffffffff1660066000868152602001908152602001600020600001600201546006600087815260200190815260200160002060000160030160009054906101000a900460ff16600660008881526020019081526020016000206000016004015460066000898152602001908152602001600020600001600501336040516020016105809796959493929190612ab2565b6040516020818303038152906040528051906020012090506105b58183600260000160009054906101000a900460ff16611607565b60006006600085815260200190815260200160002060080154905060003390506006600086815260200190815260200160002060008082016000808201600090556001820160006101000a81549073ffffffffffffffffffffffffffffffffffffffff021916905560028201600090556003820160006101000a81549060ff021916905560048201600090556005820160006106519190611df3565b505060068201600090556007820160009055600882016000905550508073ffffffffffffffffffffffffffffffffffffffff166108fc839081150290604051600060405180830381858888f193505050501580156106b3573d6000803e3d6000fd5b507ffa39010b12e169f2d7e9a76e381216416dbf5eb59db117ae979592ee9f323885856040516106e39190612b2f565b60405180910390a15050505050565b6106fa6118d0565b600080888888888860405160200161071796959493929190612b7b565b604051602081830303815290604052805190602001209050600360ff168660ff1614610778576040517f08c379a000000000000000000000000000000000000000000000000000000000815260040161076f90612c33565b60405180910390fd5b6107958183600260000160019054906101000a900460ff16611607565b600088886040516020016107aa929190612c53565b6040516020818303038152906040528051906020012090506000801b600760008381526020019081526020016000206000016000015414610820576040517f08c379a000000000000000000000000000000000000000000000000000000000815260040161081790612ccb565b60405180910390fd5b60405180606001604052806040518060c00160405280848152602001600060ff1681526020018c81526020018b81526020018973ffffffffffffffffffffffffffffffffffffffff16815260200188815250815260200143815260200185815250600760008381526020019081526020016000206000820151816000016000820151816000015560208201518160010160006101000a81548160ff021916908360ff160217905550604082015181600201556060820151816003015560808201518160040160006101000a81548173ffffffffffffffffffffffffffffffffffffffff021916908373ffffffffffffffffffffffffffffffffffffffff16021790555060a08201518160050190816109389190612e82565b505050602082015181600601556040820151816007015590505060008673ffffffffffffffffffffffffffffffffffffffff163b116109ac576040517f08c379a00000000000000000000000000000000000000000000000000000000081526004016109a390612fa0565b60405180910390fd5b6000808773ffffffffffffffffffffffffffffffffffffffff168b886040516024016109d992919061300a565b6040516020818303038152906040527f99189e44000000000000000000000000000000000000000000000000000000007bffffffffffffffffffffffffffffffffffffffffffffffffffffffff19166020820180517bffffffffffffffffffffffffffffffffffffffffffffffffffffffff8381831617835250505050604051610a63919061303a565b6000604051808303816000865af19150503d8060008114610aa0576040519150601f19603f3d011682016040523d82523d6000602084013e610aa5565b606091505b509150915081610b06576000610aba82611916565b90507fc239aebd2a06afc574c2d68036bce2d5244b3c7e95dd5889f466a6947fa48eda60008d8b8b85604051610af4959493929190613095565b60405180910390a15050505050610b42565b7f1915d13f149e2654a02a939345885f8654759bd3347d96fe012c6913df7f86b883604051610b359190612b2f565b60405180910390a1505050505b610b4a611981565b50505050505050565b6007602052806000526040600020600091509050806000016040518060c0016040529081600082015481526020016001820160009054906101000a900460ff1660ff1660ff16815260200160028201548152602001600382015481526020016004820160009054906101000a900473ffffffffffffffffffffffffffffffffffffffff1673ffffffffffffffffffffffffffffffffffffffff1673ffffffffffffffffffffffffffffffffffffffff168152602001600582018054610c17906129de565b80601f0160208091040260200160405190810160405280929190818152602001828054610c43906129de565b8015610c905780601f10610c6557610100808354040283529160200191610c90565b820191906000526020600020905b815481529060010190602001808311610c7357829003601f168201915b505050505081525050908060060154908060070154905083565b60085481565b610cb861198a565b610cc26000611a11565b565b60028060000160009054906101000a900460ff16908060000160019054906101000a900460ff16908060010154908060020154908060030154905085565b60096020528060005260406000206000915054906101000a900460ff1681565b600081565b60008060009054906101000a900473ffffffffffffffffffffffffffffffffffffffff16905090565b610d5861198a565b60005b82829050811015610e64574360026003015460076000868686818110610d8457610d836130f6565b5b90506020020135815260200190815260200160002060060154610da79190613154565b1015610e575760076000848484818110610dc457610dc36130f6565b5b90506020020135815260200190815260200160002060008082016000808201600090556001820160006101000a81549060ff0219169055600282016000905560038201600090556004820160006101000a81549073ffffffffffffffffffffffffffffffffffffffff0219169055600582016000610e429190611df3565b50506006820160009055600782016000905550505b8080600101915050610d5b565b505050565b6006602052806000526040600020600091509050806000016040518060c0016040529081600082015481526020016001820160009054906101000a900473ffffffffffffffffffffffffffffffffffffffff1673ffffffffffffffffffffffffffffffffffffffff1673ffffffffffffffffffffffffffffffffffffffff168152602001600282015481526020016003820160009054906101000a900460ff1660ff1660ff16815260200160048201548152602001600582018054610f2d906129de565b80601f0160208091040260200160405190810160405280929190818152602001828054610f59906129de565b8015610fa65780601f10610f7b57610100808354040283529160200191610fa6565b820191906000526020600020905b815481529060010190602001808311610f8957829003601f168201915b505050505081525050908060060154908060070154908060080154905084565b610fce61198a565b84600260000160006101000a81548160ff021916908360ff16021790555083600260000160016101000a81548160ff021916908360ff16021790555082600260010181905550816002800181905550806002600301819055505050505050565b600381565b600060026001015482101561107d576040517f08c379a0000000000000000000000000000000000000000000000000000000008152600401611074906131d4565b60405180910390fd5b60028001548211156110c4576040517f08c379a00000000000000000000000000000000000000000000000000000000081526004016110bb90613240565b60405180910390fd5b600033866040516020016110d9929190613260565b60405160208183030381529060405280519060200120905060006006600083815260200190815260200160002060070154146111685743600660008381526020019081526020016000206007015410611167576040517f08c379a000000000000000000000000000000000000000000000000000000000815260040161115e906132d8565b60405180910390fd5b5b60405180608001604052806040518060c001604052808481526020013373ffffffffffffffffffffffffffffffffffffffff168152602001898152602001600060ff16815260200188815260200187815250815260200143815260200184436111d19190613154565b815260200134815250600660008381526020019081526020016000206000820151816000016000820151816000015560208201518160010160006101000a81548173ffffffffffffffffffffffffffffffffffffffff021916908373ffffffffffffffffffffffffffffffffffffffff1602179055506040820151816002015560608201518160030160006101000a81548160ff021916908360ff1602179055506080820151816004015560a08201518160050190816112919190612e82565b505050602082015181600601556040820151816007015560608201518160080155905050600860008154809291906112c8906132f8565b91905055507f164a225b23eeadc41f48acd565ef67a5f3c3496fa1ae34d1f974df6ce63fed6d600660008381526020019081526020016000206000016040516113119190613517565b60405180910390a16001915050949350505050565b61132e61198a565b600960008273ffffffffffffffffffffffffffffffffffffffff1673ffffffffffffffffffffffffffffffffffffffff16815260200190815260200160002060009054906101000a900460ff16156113bb576040517f08c379a00000000000000000000000000000000000000000000000000000000081526004016113b290613585565b60405180910390fd5b6001600960008373ffffffffffffffffffffffffffffffffffffffff1673ffffffffffffffffffffffffffffffffffffffff16815260200190815260200160002060006101000a81548160ff0219169083151502179055508073ffffffffffffffffffffffffffffffffffffffff167e47706786c922d17b39285dc59d696bafea72c0b003d3841ae1202076f4c2e460405160405180910390a250565b61146061198a565b600073ffffffffffffffffffffffffffffffffffffffff168173ffffffffffffffffffffffffffffffffffffffff16036114d25760006040517f1e4fbdf70000000000000000000000000000000000000000000000000000000081526004016114c99190612565565b60405180910390fd5b6114db81611a11565b50565b6114e661198a565b600960008273ffffffffffffffffffffffffffffffffffffffff1673ffffffffffffffffffffffffffffffffffffffff16815260200190815260200160002060009054906101000a900460ff16611572576040517f08c379a0000000000000000000000000000000000000000000000000000000008152600401611569906135f1565b60405180910390fd5b600960008273ffffffffffffffffffffffffffffffffffffffff1673ffffffffffffffffffffffffffffffffffffffff16815260200190815260200160002060006101000a81549060ff02191690558073ffffffffffffffffffffffffffffffffffffffff167f9c8e7d83025bef8a04c664b2f753f64b8814bdb7e27291d7e50935f18cc3c71260405160405180910390a250565b8060ff168251101561164e576040517f08c379a00000000000000000000000000000000000000000000000000000000081526004016116459061365d565b60405180910390fd5b60008160ff1667ffffffffffffffff81111561166d5761166c611eb0565b5b60405190808252806020026020018201604052801561169b5781602001602082028036833780820191505090505b5090506000805b84518110156118825760006116d96116b988611ad5565b8784815181106116cc576116cb6130f6565b5b6020026020010151611b0b565b9050600960008273ffffffffffffffffffffffffffffffffffffffff1673ffffffffffffffffffffffffffffffffffffffff16815260200190815260200160002060009054906101000a900460ff16611767576040517f08c379a000000000000000000000000000000000000000000000000000000000815260040161175e906136c9565b60405180910390fd5b60005b83811015611807578173ffffffffffffffffffffffffffffffffffffffff1685828151811061179c5761179b6130f6565b5b602002602001015173ffffffffffffffffffffffffffffffffffffffff16036117fa576040517f08c379a00000000000000000000000000000000000000000000000000000000081526004016117f190613735565b60405180910390fd5b808060010191505061176a565b508084848151811061181c5761181b6130f6565b5b602002602001019073ffffffffffffffffffffffffffffffffffffffff16908173ffffffffffffffffffffffffffffffffffffffff16815250508280611861906132f8565b9350508460ff1683106118745750611882565b5080806001019150506116a2565b508260ff168110156118c9576040517f08c379a00000000000000000000000000000000000000000000000000000000081526004016118c0906137c7565b60405180910390fd5b5050505050565b60026001540361190c576040517f3ee5aeb500000000000000000000000000000000000000000000000000000000815260040160405180910390fd5b6002600181905550565b606060448251101561195f576040518060400160405280600f81526020017f556e6b6e6f776e206661696c7572650000000000000000000000000000000000815250905061197c565b600482019150818060200190518101906119799190613888565b90505b919050565b60018081905550565b611992611b37565b73ffffffffffffffffffffffffffffffffffffffff166119b0610d27565b73ffffffffffffffffffffffffffffffffffffffff1614611a0f576119d3611b37565b6040517f118cdaa7000000000000000000000000000000000000000000000000000000008152600401611a069190612565565b60405180910390fd5b565b60008060009054906101000a900473ffffffffffffffffffffffffffffffffffffffff169050816000806101000a81548173ffffffffffffffffffffffffffffffffffffffff021916908373ffffffffffffffffffffffffffffffffffffffff1602179055508173ffffffffffffffffffffffffffffffffffffffff168173ffffffffffffffffffffffffffffffffffffffff167f8be0079c531659141344cd1fd0a4f28419497f9722a3daafe3b4186f6b6457e060405160405180910390a35050565b60007f19457468657265756d205369676e6564204d6573736167653a0a33320000000060005281601c52603c6000209050919050565b600080600080611b1b8686611b3f565b925092509250611b2b8282611b9b565b82935050505092915050565b600033905090565b60008060006041845103611b845760008060006020870151925060408701519150606087015160001a9050611b7688828585611cff565b955095509550505050611b94565b60006002855160001b9250925092505b9250925092565b60006003811115611baf57611bae6138d1565b5b826003811115611bc257611bc16138d1565b5b0315611cfb5760016003811115611bdc57611bdb6138d1565b5b826003811115611bef57611bee6138d1565b5b03611c26576040517ff645eedf00000000000000000000000000000000000000000000000000000000815260040160405180910390fd5b60026003811115611c3a57611c396138d1565b5b826003811115611c4d57611c4c6138d1565b5b03611c92578060001c6040517ffce698f7000000000000000000000000000000000000000000000000000000008152600401611c89919061245b565b60405180910390fd5b600380811115611ca557611ca46138d1565b5b826003811115611cb857611cb76138d1565b5b03611cfa57806040517fd78bce0c000000000000000000000000000000000000000000000000000000008152600401611cf19190612b2f565b60405180910390fd5b5b5050565b60008060007f7fffffffffffffffffffffffffffffff5d576e7357a4501ddfe92f46681b20a08460001c1115611d3f576000600385925092509250611de9565b600060018888888860405160008152602001604052604051611d649493929190613900565b6020604051602081039080840390855afa158015611d86573d6000803e3d6000fd5b505050602060405103519050600073ffffffffffffffffffffffffffffffffffffffff168173ffffffffffffffffffffffffffffffffffffffff1603611dda57600060016000801b93509350935050611de9565b8060008060001b935093509350505b9450945094915050565b508054611dff906129de565b6000825580601f10611e115750611e30565b601f016020900490600052602060002090810190611e2f9190611e33565b5b50565b5b80821115611e4c576000816000905550600101611e34565b5090565b6000604051905090565b600080fd5b600080fd5b6000819050919050565b611e7781611e64565b8114611e8257600080fd5b50565b600081359050611e9481611e6e565b92915050565b600080fd5b6000601f19601f8301169050919050565b7f4e487b7100000000000000000000000000000000000000000000000000000000600052604160045260246000fd5b611ee882611e9f565b810181811067ffffffffffffffff82111715611f0757611f06611eb0565b5b80604052505050565b6000611f1a611e50565b9050611f268282611edf565b919050565b600067ffffffffffffffff821115611f4657611f45611eb0565b5b602082029050602081019050919050565b600080fd5b600080fd5b600067ffffffffffffffff821115611f7c57611f7b611eb0565b5b611f8582611e9f565b9050602081019050919050565b82818337600083830152505050565b6000611fb4611faf84611f61565b611f10565b905082815260208101848484011115611fd057611fcf611f5c565b5b611fdb848285611f92565b509392505050565b600082601f830112611ff857611ff7611e9a565b5b8135612008848260208601611fa1565b91505092915050565b600061202461201f84611f2b565b611f10565b9050808382526020820190506020840283018581111561204757612046611f57565b5b835b8181101561208e57803567ffffffffffffffff81111561206c5761206b611e9a565b5b8086016120798982611fe3565b85526020850194505050602081019050612049565b5050509392505050565b600082601f8301126120ad576120ac611e9a565b5b81356120bd848260208601612011565b91505092915050565b600080604083850312156120dd576120dc611e5a565b5b60006120eb85828601611e85565b925050602083013567ffffffffffffffff81111561210c5761210b611e5f565b5b61211885828601612098565b9150509250929050565b600060ff82169050919050565b61213881612122565b811461214357600080fd5b50565b6000813590506121558161212f565b92915050565b600073ffffffffffffffffffffffffffffffffffffffff82169050919050565b60006121868261215b565b9050919050565b6121968161217b565b81146121a157600080fd5b50565b6000813590506121b38161218d565b92915050565b600080600080600080600060e0888a0312156121d8576121d7611e5a565b5b60006121e68a828b01611e85565b97505060206121f78a828b01611e85565b96505060406122088a828b01612146565b95505060606122198a828b016121a4565b945050608088013567ffffffffffffffff81111561223a57612239611e5f565b5b6122468a828b01611fe3565b93505060a06122578a828b01611e85565b92505060c088013567ffffffffffffffff81111561227857612277611e5f565b5b6122848a828b01612098565b91505092959891949750929550565b6000602082840312156122a9576122a8611e5a565b5b60006122b784828501611e85565b91505092915050565b6122c981611e64565b82525050565b6122d881612122565b82525050565b6122e78161217b565b82525050565b600081519050919050565b600082825260208201905092915050565b60005b8381101561232757808201518184015260208101905061230c565b60008484015250505050565b600061233e826122ed565b61234881856122f8565b9350612358818560208601612309565b61236181611e9f565b840191505092915050565b600060c08301600083015161238460008601826122c0565b50602083015161239760208601826122cf565b5060408301516123aa60408601826122c0565b5060608301516123bd60608601826122c0565b5060808301516123d060808601826122de565b5060a083015184820360a08601526123e88282612333565b9150508091505092915050565b6000819050919050565b612408816123f5565b82525050565b61241781611e64565b82525050565b60006060820190508181036000830152612437818661236c565b905061244660208301856123ff565b612453604083018461240e565b949350505050565b600060208201905061247060008301846123ff565b92915050565b61247f81612122565b82525050565b600060a08201905061249a6000830188612476565b6124a76020830187612476565b6124b460408301866123ff565b6124c160608301856123ff565b6124ce60808301846123ff565b9695505050505050565b6000602082840312156124ee576124ed611e5a565b5b60006124fc848285016121a4565b91505092915050565b60008115159050919050565b61251a81612505565b82525050565b60006020820190506125356000830184612511565b92915050565b60006020820190506125506000830184612476565b92915050565b61255f8161217b565b82525050565b600060208201905061257a6000830184612556565b92915050565b600080fd5b60008083601f84011261259b5761259a611e9a565b5b8235905067ffffffffffffffff8111156125b8576125b7612580565b5b6020830191508360208202830111156125d4576125d3611f57565b5b9250929050565b600080602083850312156125f2576125f1611e5a565b5b600083013567ffffffffffffffff8111156126105761260f611e5f565b5b61261c85828601612585565b92509250509250929050565b600060c08301600083015161264060008601826122c0565b50602083015161265360208601826122de565b50604083015161266660408601826122c0565b50606083015161267960608601826122cf565b50608083015161268c60808601826122c0565b5060a083015184820360a08601526126a48282612333565b9150508091505092915050565b600060808201905081810360008301526126cb8187612628565b90506126da60208301866123ff565b6126e760408301856123ff565b6126f460608301846123ff565b95945050505050565b612706816123f5565b811461271157600080fd5b50565b600081359050612723816126fd565b92915050565b600080600080600060a0868803121561274557612744611e5a565b5b600061275388828901612146565b955050602061276488828901612146565b945050604061277588828901612714565b935050606061278688828901612714565b925050608061279788828901612714565b9150509295509295909350565b600080600080608085870312156127be576127bd611e5a565b5b60006127cc87828801611e85565b94505060206127dd87828801611e85565b935050604085013567ffffffffffffffff8111156127fe576127fd611e5f565b5b61280a87828801611fe3565b925050606061281b87828801612714565b91505092959194509250565b600082825260208201905092915050565b7f4d657373616765206e6f7420666f756e64000000000000000000000000000000600082015250565b600061286e601183612827565b915061287982612838565b602082019050919050565b6000602082019050818103600083015261289d81612861565b9050919050565b7f44656c697665727920636f6e6669726d6174696f6e206f766572647565000000600082015250565b60006128da601d83612827565b91506128e5826128a4565b602082019050919050565b60006020820190508181036000830152612909816128cd565b9050919050565b60008160f81b9050919050565b600061292882612910565b9050919050565b61294061293b82612122565b61291d565b82525050565b60008160601b9050919050565b600061295e82612946565b9050919050565b600061297082612953565b9050919050565b6129886129838261217b565b612965565b82525050565b6000819050919050565b6129a96129a482611e64565b61298e565b82525050565b7f4e487b7100000000000000000000000000000000000000000000000000000000600052602260045260246000fd5b600060028204905060018216806129f657607f821691505b602082108103612a0957612a086129af565b5b50919050565b600081905092915050565b60008190508160005260206000209050919050565b60008154612a3c816129de565b612a468186612a0f565b94506001821660008114612a615760018114612a7657612aa9565b60ff1983168652811515820286019350612aa9565b612a7f85612a1a565b60005b83811015612aa157815481890152600182019150602081019050612a82565b838801955050505b50505092915050565b6000612abe828a61292f565b600182019150612ace8289612977565b601482019150612ade8288612998565b602082019150612aee828761292f565b600182019150612afe8286612998565b602082019150612b0e8285612a2f565b9150612b1a8284612977565b60148201915081905098975050505050505050565b6000602082019050612b44600083018461240e565b92915050565b6000612b55826122ed565b612b5f8185612a0f565b9350612b6f818560208601612309565b80840191505092915050565b6000612b87828961292f565b600182019150612b978288612998565b602082019150612ba78287612998565b602082019150612bb7828661292f565b600182019150612bc78285612977565b601482019150612bd78284612b4a565b9150819050979650505050505050565b7f4d65737361676520726563697069656e74496e64657820696e76616c69640000600082015250565b6000612c1d601e83612827565b9150612c2882612be7565b602082019050919050565b60006020820190508181036000830152612c4c81612c10565b9050919050565b6000612c5f8285612998565b602082019150612c6f8284612998565b6020820191508190509392505050565b7f4d65737361676520616c72656164792072656365697665640000000000000000600082015250565b6000612cb5601883612827565b9150612cc082612c7f565b602082019050919050565b60006020820190508181036000830152612ce481612ca8565b9050919050565b60006020601f8301049050919050565b600082821b905092915050565b600060088302612d387fffffffffffffffffffffffffffffffffffffffffffffffffffffffffffffffff82612cfb565b612d428683612cfb565b95508019841693508086168417925050509392505050565b6000819050919050565b6000612d7f612d7a612d75846123f5565b612d5a565b6123f5565b9050919050565b6000819050919050565b612d9983612d64565b612dad612da582612d86565b848454612d08565b825550505050565b600090565b612dc2612db5565b612dcd818484612d90565b505050565b5b81811015612df157612de6600082612dba565b600181019050612dd3565b5050565b601f821115612e3657612e0781612a1a565b612e1084612ceb565b81016020851015612e1f578190505b612e33612e2b85612ceb565b830182612dd2565b50505b505050565b600082821c905092915050565b6000612e5960001984600802612e3b565b1980831691505092915050565b6000612e728383612e48565b9150826002028217905092915050565b612e8b826122ed565b67ffffffffffffffff811115612ea457612ea3611eb0565b5b612eae82546129de565b612eb9828285612df5565b600060209050601f831160018114612eec5760008415612eda578287015190505b612ee48582612e66565b865550612f4c565b601f198416612efa86612a1a565b60005b82811015612f2257848901518255600182019150602085019450602081019050612efd565b86831015612f3f5784890151612f3b601f891682612e48565b8355505b6001600288020188555050505b505050505050565b7f526563697069656e74206973206e6f74206120636f6e74726163740000000000600082015250565b6000612f8a601b83612827565b9150612f9582612f54565b602082019050919050565b60006020820190508181036000830152612fb981612f7d565b9050919050565b600082825260208201905092915050565b6000612fdc826122ed565b612fe68185612fc0565b9350612ff6818560208601612309565b612fff81611e9f565b840191505092915050565b600060408201905061301f600083018561240e565b81810360208301526130318184612fd1565b90509392505050565b60006130468284612b4a565b915081905092915050565b600081519050919050565b600061306782613051565b6130718185612827565b9350613081818560208601612309565b61308a81611e9f565b840191505092915050565b600060a0820190506130aa6000830188612476565b6130b7602083018761240e565b6130c46040830186612556565b81810360608301526130d68185612fd1565b905081810360808301526130ea818461305c565b90509695505050505050565b7f4e487b7100000000000000000000000000000000000000000000000000000000600052603260045260246000fd5b7f4e487b7100000000000000000000000000000000000000000000000000000000600052601160045260246000fd5b600061315f826123f5565b915061316a836123f5565b925082820190508082111561318257613181613125565b5b92915050565b7f54544c20746f6f20736d616c6c00000000000000000000000000000000000000600082015250565b60006131be600d83612827565b91506131c982613188565b602082019050919050565b600060208201905081810360008301526131ed816131b1565b9050919050565b7f54544c20746f6f206c6172676500000000000000000000000000000000000000600082015250565b600061322a600d83612827565b9150613235826131f4565b602082019050919050565b600060208201905081810360008301526132598161321d565b9050919050565b600061326c8285612977565b60148201915061327c8284612998565b6020820191508190509392505050565b7f4d65737361676520776974682073616d65206e6f6e63652070656e64696e6700600082015250565b60006132c2601f83612827565b91506132cd8261328c565b602082019050919050565b600060208201905081810360008301526132f1816132b5565b9050919050565b6000613303826123f5565b91507fffffffffffffffffffffffffffffffffffffffffffffffffffffffffffffffff820361333557613334613125565b5b600182019050919050565b60008160001c9050919050565b6000819050919050565b600061336a61336583613340565b61334d565b9050919050565b600073ffffffffffffffffffffffffffffffffffffffff82169050919050565b60006133a461339f83613340565b613371565b9050919050565b600060ff82169050919050565b60006133cb6133c683613340565b6133ab565b9050919050565b600081546133df816129de565b6133e981866122f8565b94506001821660008114613404576001811461341a5761344d565b60ff19831686528115156020028601935061344d565b61342385612a1a565b60005b8381101561344557815481890152600182019150602081019050613426565b808801955050505b50505092915050565b600060c08301600080840154905061346d81613357565b61347a60008701826122c0565b506001840154905061348b81613391565b61349860208701826122de565b50600284015490506134a981613357565b6134b660408701826122c0565b50600384015490506134c7816133b8565b6134d460608701826122cf565b50600484015490506134e581613357565b6134f260808701826122c0565b506005840185830360a087015261350983826133d2565b925050819250505092915050565b600060208201905081810360008301526135318184613456565b905092915050565b7f4f7261636c6520616c7265616479206164646564000000000000000000000000600082015250565b600061356f601483612827565b915061357a82613539565b602082019050919050565b6000602082019050818103600083015261359e81613562565b9050919050565b7f4f7261636c65206e6f7420666f756e6400000000000000000000000000000000600082015250565b60006135db601083612827565b91506135e6826135a5565b602082019050919050565b6000602082019050818103600083015261360a816135ce565b9050919050565b7f4e6f7420656e6f756768207369676e6174757265730000000000000000000000600082015250565b6000613647601583612827565b915061365282613611565b602082019050919050565b600060208201905081810360008301526136768161363a565b9050919050565b7f496e76616c6964207369676e6174757265000000000000000000000000000000600082015250565b60006136b3601183612827565b91506136be8261367d565b602082019050919050565b600060208201905081810360008301526136e2816136a6565b9050919050565b7f4475706c6963617465207369676e617475726520646574656374656400000000600082015250565b600061371f601c83612827565b915061372a826136e9565b602082019050919050565b6000602082019050818103600083015261374e81613712565b9050919050565b7f4e6f7420656e6f75676820756e697175652076616c6964207369676e6174757260008201527f6573000000000000000000000000000000000000000000000000000000000000602082015250565b60006137b1602283612827565b91506137bc82613755565b604082019050919050565b600060208201905081810360008301526137e0816137a4565b9050919050565b600067ffffffffffffffff82111561380257613801611eb0565b5b61380b82611e9f565b9050602081019050919050565b600061382b613826846137e7565b611f10565b90508281526020810184848401111561384757613846611f5c565b5b613852848285612309565b509392505050565b600082601f83011261386f5761386e611e9a565b5b815161387f848260208601613818565b91505092915050565b60006020828403121561389e5761389d611e5a565b5b600082015167ffffffffffffffff8111156138bc576138bb611e5f565b5b6138c88482850161385a565b91505092915050565b7f4e487b7100000000000000000000000000000000000000000000000000000000600052602160045260246000fd5b6000608082019050613915600083018761240e565b6139226020830186612476565b61392f604083018561240e565b61393c606083018461240e565b9594505050505056fea2646970667358221220a3788bdbaa4f8d94a82b079ae8f39a464850b800873dc040675e30868be72acc64736f6c634300081c0033",
  "linkReferences": {},
  "deployedLinkReferences": {}
}