{
  "_format": "hh-sol-artifact-1",
  "contractName": "Ibc",
  "sourceName": "contracts/ibc.sol",
  "abi": [
    {
      "inputs": [],
      "stateMutability": "nonpayable",
      "type": "constructor"
    },
    {
      "inputs": [],
      "name": "ECDSAInvalidSignature",
      "type": "error"
    },
    {
      "inputs": [
        {
          "internalType": "uint256",
          "name": "length",
          "type": "uint256"
        }
      ],
      "name": "ECDSAInvalidSignatureLength",
      "type": "error"
    },
    {
      "inputs": [
        {
          "internalType": "bytes32",
          "name": "s",
          "type": "bytes32"
        }
      ],
      "name": "ECDSAInvalidSignatureS",
      "type": "error"
    },
    {
      "inputs": [
        {
          "internalType": "address",
          "name": "owner",
          "type": "address"
        }
      ],
      "name": "OwnableInvalidOwner",
      "type": "error"
    },
    {
      "inputs": [
        {
          "internalType": "address",
          "name": "account",
          "type": "address"
        }
      ],
      "name": "OwnableUnauthorizedAccount",
      "type": "error"
    },
    {
      "anonymous": false,
      "inputs": [
        {
          "indexed": false,
          "internalType": "bytes32",
          "name": "id",
          "type": "bytes32"
        }
      ],
      "name": "MessageDelivered",
      "type": "event"
    },
    {
      "anonymous": false,
      "inputs": [
        {
          "indexed": false,
          "internalType": "bytes32",
          "name": "id",
          "type": "bytes32"
        }
      ],
      "name": "MessageProcessed",
      "type": "event"
    },
    {
      "anonymous": false,
      "inputs": [
        {
          "indexed": false,
          "internalType": "uint8",
          "name": "senderIndex",
          "type": "uint8"
        },
        {
          "indexed": false,
          "internalType": "bytes32",
          "name": "sender",
          "type": "bytes32"
        },
        {
          "indexed": false,
          "internalType": "address",
          "name": "recipient",
          "type": "address"
        },
        {
          "indexed": false,
          "internalType": "bytes",
          "name": "payload",
          "type": "bytes"
        },
        {
          "indexed": false,
          "internalType": "string",
          "name": "reason",
          "type": "string"
        }
      ],
      "name": "MessageProcessedWithErrors",
      "type": "event"
    },
    {
      "anonymous": false,
      "inputs": [
        {
          "components": [
            {
              "internalType": "bytes32",
              "name": "id",
              "type": "bytes32"
            },
            {
              "internalType": "address",
              "name": "sender",
              "type": "address"
            },
            {
              "internalType": "bytes32",
              "name": "nonce",
              "type": "bytes32"
            },
            {
              "internalType": "uint8",
              "name": "recipientIndex",
              "type": "uint8"
            },
            {
              "internalType": "bytes32",
              "name": "recipient",
              "type": "bytes32"
            },
            {
              "internalType": "bytes",
              "name": "payload",
              "type": "bytes"
            }
          ],
          "indexed": false,
          "internalType": "struct Ibc.OutgoingMessage",
          "name": "message",
          "type": "tuple"
        }
      ],
      "name": "MessageReadyToSend",
      "type": "event"
    },
    {
      "anonymous": false,
      "inputs": [
        {
          "indexed": true,
          "internalType": "address",
          "name": "oracle",
          "type": "address"
        }
      ],
      "name": "OracleAdded",
      "type": "event"
    },
    {
      "anonymous": false,
      "inputs": [
        {
          "indexed": true,
          "internalType": "address",
          "name": "oracle",
          "type": "address"
        }
      ],
      "name": "OracleRemoved",
      "type": "event"
    },
    {
      "anonymous": false,
      "inputs": [
        {
          "indexed": true,
          "internalType": "address",
          "name": "previousOwner",
          "type": "address"
        },
        {
          "indexed": true,
          "internalType": "address",
          "name": "newOwner",
          "type": "address"
        }
      ],
      "name": "OwnershipTransferred",
      "type": "event"
    },
    {
      "inputs": [],
      "name": "ACURAST_INDEX",
      "outputs": [
        {
          "internalType": "uint8",
          "name": "",
          "type": "uint8"
        }
      ],
      "stateMutability": "view",
      "type": "function"
    },
    {
      "inputs": [],
      "name": "ETHEREUM_INDEX",
      "outputs": [
        {
          "internalType": "uint8",
          "name": "",
          "type": "uint8"
        }
      ],
      "stateMutability": "view",
      "type": "function"
    },
    {
      "inputs": [
        {
          "internalType": "address",
          "name": "oracle",
          "type": "address"
        }
      ],
      "name": "addOracle",
      "outputs": [],
      "stateMutability": "nonpayable",
      "type": "function"
    },
    {
      "inputs": [
        {
          "internalType": "bytes32[]",
          "name": "clean",
          "type": "bytes32[]"
        }
      ],
      "name": "cleanIncomingIndex",
      "outputs": [],
      "stateMutability": "nonpayable",
      "type": "function"
    },
    {
      "inputs": [],
      "name": "config",
      "outputs": [
        {
          "internalType": "uint8",
          "name": "minDeliverySignatures",
          "type": "uint8"
        },
        {
          "internalType": "uint8",
          "name": "minReceiptSignatures",
          "type": "uint8"
        },
        {
          "internalType": "uint256",
          "name": "minTTL",
          "type": "uint256"
        },
        {
          "internalType": "uint256",
          "name": "maxTTL",
          "type": "uint256"
        },
        {
          "internalType": "uint256",
          "name": "incomingTTL",
          "type": "uint256"
        }
      ],
      "stateMutability": "view",
      "type": "function"
    },
    {
      "inputs": [
        {
          "internalType": "uint8",
          "name": "minDeliverySignatures",
          "type": "uint8"
        },
        {
          "internalType": "uint8",
          "name": "minReceiptSignatures",
          "type": "uint8"
        },
        {
          "internalType": "uint256",
          "name": "minTTL",
          "type": "uint256"
        },
        {
          "internalType": "uint256",
          "name": "maxTTL",
          "type": "uint256"
        },
        {
          "internalType": "uint256",
          "name": "incomingTTL",
          "type": "uint256"
        }
      ],
      "name": "configure",
      "outputs": [],
      "stateMutability": "nonpayable",
      "type": "function"
    },
    {
      "inputs": [
        {
          "internalType": "bytes32",
          "name": "id",
          "type": "bytes32"
        },
        {
          "internalType": "bytes[]",
          "name": "signatures",
          "type": "bytes[]"
        }
      ],
      "name": "confirmMessageDelivery",
      "outputs": [],
      "stateMutability": "nonpayable",
      "type": "function"
    },
    {
      "inputs": [
        {
          "internalType": "bytes32",
          "name": "",
          "type": "bytes32"
        }
      ],
      "name": "incoming",
      "outputs": [
        {
          "components": [
            {
              "internalType": "bytes32",
              "name": "id",
              "type": "bytes32"
            },
            {
              "internalType": "uint8",
              "name": "senderIndex",
              "type": "uint8"
            },
            {
              "internalType": "bytes32",
              "name": "sender",
              "type": "bytes32"
            },
            {
              "internalType": "bytes32",
              "name": "nonce",
              "type": "bytes32"
            },
            {
              "internalType": "address",
              "name": "recipient",
              "type": "address"
            },
            {
              "internalType": "bytes",
              "name": "payload",
              "type": "bytes"
            }
          ],
          "internalType": "struct Ibc.IncomingMessage",
          "name": "message",
          "type": "tuple"
        },
        {
          "internalType": "uint256",
          "name": "currentBlock",
          "type": "uint256"
        },
        {
          "internalType": "bytes32",
          "name": "relayer",
          "type": "bytes32"
        }
      ],
      "stateMutability": "view",
      "type": "function"
    },
    {
      "inputs": [],
      "name": "messageCounter",
      "outputs": [
        {
          "internalType": "uint256",
          "name": "",
          "type": "uint256"
        }
      ],
      "stateMutability": "view",
      "type": "function"
    },
    {
      "inputs": [
        {
          "internalType": "address",
          "name": "",
          "type": "address"
        }
      ],
      "name": "oraclePublicKeys",
      "outputs": [
        {
          "internalType": "bool",
          "name": "",
          "type": "bool"
        }
      ],
      "stateMutability": "view",
      "type": "function"
    },
    {
      "inputs": [
        {
          "internalType": "bytes32",
          "name": "",
          "type": "bytes32"
        }
      ],
      "name": "outgoing",
      "outputs": [
        {
          "components": [
            {
              "internalType": "bytes32",
              "name": "id",
              "type": "bytes32"
            },
            {
              "internalType": "address",
              "name": "sender",
              "type": "address"
            },
            {
              "internalType": "bytes32",
              "name": "nonce",
              "type": "bytes32"
            },
            {
              "internalType": "uint8",
              "name": "recipientIndex",
              "type": "uint8"
            },
            {
              "internalType": "bytes32",
              "name": "recipient",
              "type": "bytes32"
            },
            {
              "internalType": "bytes",
              "name": "payload",
              "type": "bytes"
            }
          ],
          "internalType": "struct Ibc.OutgoingMessage",
          "name": "message",
          "type": "tuple"
        },
        {
          "internalType": "uint256",
          "name": "currentBlock",
          "type": "uint256"
        },
        {
          "internalType": "uint256",
          "name": "ttlBlock",
          "type": "uint256"
        },
        {
          "internalType": "uint256",
          "name": "fee",
          "type": "uint256"
        },
        {
          "internalType": "address",
          "name": "payer",
          "type": "address"
        }
      ],
      "stateMutability": "view",
      "type": "function"
    },
    {
      "inputs": [],
      "name": "owner",
      "outputs": [
        {
          "internalType": "address",
          "name": "",
          "type": "address"
        }
      ],
      "stateMutability": "view",
      "type": "function"
    },
    {
      "inputs": [
        {
          "internalType": "bytes32",
          "name": "acruastSender",
          "type": "bytes32"
        },
        {
          "internalType": "bytes32",
          "name": "nonce",
          "type": "bytes32"
        },
        {
          "internalType": "uint8",
          "name": "recipientIndex",
          "type": "uint8"
        },
        {
          "internalType": "address",
          "name": "recipient",
          "type": "address"
        },
        {
          "internalType": "bytes",
          "name": "payload",
          "type": "bytes"
        },
        {
          "internalType": "bytes32",
          "name": "relayer",
          "type": "bytes32"
        },
        {
          "internalType": "bytes[]",
          "name": "signatures",
          "type": "bytes[]"
        }
      ],
      "name": "receiveMessage",
      "outputs": [],
      "stateMutability": "nonpayable",
      "type": "function"
    },
    {
      "inputs": [
        {
          "internalType": "address",
          "name": "oracle",
          "type": "address"
        }
      ],
      "name": "removeOracle",
      "outputs": [],
      "stateMutability": "nonpayable",
      "type": "function"
    },
    {
      "inputs": [],
      "name": "renounceOwnership",
      "outputs": [],
      "stateMutability": "nonpayable",
      "type": "function"
    },
    {
      "inputs": [
        {
          "internalType": "bytes32",
          "name": "nonce",
          "type": "bytes32"
        },
        {
          "internalType": "bytes32",
          "name": "recipient",
          "type": "bytes32"
        },
        {
          "internalType": "bytes",
          "name": "payload",
          "type": "bytes"
        },
        {
          "internalType": "uint256",
          "name": "ttl",
          "type": "uint256"
        }
      ],
      "name": "sendMessage",
      "outputs": [
        {
          "internalType": "bool",
          "name": "",
          "type": "bool"
        }
      ],
      "stateMutability": "payable",
      "type": "function"
    },
    {
      "inputs": [
        {
          "internalType": "address",
          "name": "newOwner",
          "type": "address"
        }
      ],
      "name": "transferOwnership",
      "outputs": [],
      "stateMutability": "nonpayable",
      "type": "function"
    }
  ],
  "bytecode": "0x608060405234801561001057600080fd5b5033600073ffffffffffffffffffffffffffffffffffffffff168173ffffffffffffffffffffffffffffffffffffffff16036100845760006040517f1e4fbdf700000000000000000000000000000000000000000000000000000000815260040161007b9190610235565b60405180910390fd5b6100938161013060201b60201c565b506040518060a00160405280600160ff168152602001600160ff1681526020016014815260200160c88152602001601e815250600160008201518160000160006101000a81548160ff021916908360ff16021790555060208201518160000160016101000a81548160ff021916908360ff160217905550604082015181600101556060820151816002015560808201518160030155905050610250565b60008060009054906101000a900473ffffffffffffffffffffffffffffffffffffffff169050816000806101000a81548173ffffffffffffffffffffffffffffffffffffffff021916908373ffffffffffffffffffffffffffffffffffffffff1602179055508173ffffffffffffffffffffffffffffffffffffffff168173ffffffffffffffffffffffffffffffffffffffff167f8be0079c531659141344cd1fd0a4f28419497f9722a3daafe3b4186f6b6457e060405160405180910390a35050565b600073ffffffffffffffffffffffffffffffffffffffff82169050919050565b600061021f826101f4565b9050919050565b61022f81610214565b82525050565b600060208201905061024a6000830184610226565b92915050565b613a078061025f6000396000f3fe6080604052600436106100fe5760003560e01c80638da5cb5b11610095578063c83ae34411610064578063c83ae3441461032b578063c8a2448214610356578063df5dd1a514610386578063f2fde38b146103af578063fdc85fc4146103d8576100fe565b80638da5cb5b1461026d5780638f618b1614610298578063aa810c42146102c1578063b6c72acf14610302576100fe565b8063715018a6116100d1578063715018a6146101bf57806379502c55146101d65780637c106ea91461020557806385b4205814610242576100fe565b80632852ab6b146101035780632f99ddcd1461012c5780634ae593a714610155578063529c758814610194575b600080fd5b34801561010f57600080fd5b5061012a60048036038101906101259190612144565b610401565b005b34801561013857600080fd5b50610153600480360381019061014e9190612237565b610744565b005b34801561016157600080fd5b5061017c60048036038101906101779190612311565b610b95565b60405161018b9392919061249b565b60405180910390f35b3480156101a057600080fd5b506101a9610cec565b6040516101b691906124d9565b60405180910390f35b3480156101cb57600080fd5b506101d4610cf2565b005b3480156101e257600080fd5b506101eb610d06565b6040516101fc959493929190612503565b60405180910390f35b34801561021157600080fd5b5061022c60048036038101906102279190612556565b610d44565b604051610239919061259e565b60405180910390f35b34801561024e57600080fd5b50610257610d64565b60405161026491906125b9565b60405180910390f35b34801561027957600080fd5b50610282610d69565b60405161028f91906125e3565b60405180910390f35b3480156102a457600080fd5b506102bf60048036038101906102ba9190612659565b610d92565b005b3480156102cd57600080fd5b506102e860048036038101906102e39190612311565b610eab565b6040516102f995949392919061272f565b60405180910390f35b34801561030e57600080fd5b50610329600480360381019061032491906127b5565b61102e565b005b34801561033757600080fd5b50610340611096565b60405161034d91906125b9565b60405180910390f35b610370600480360381019061036b9190612830565b61109b565b60405161037d919061259e565b60405180910390f35b34801561039257600080fd5b506103ad60048036038101906103a89190612556565b6113f1565b005b3480156103bb57600080fd5b506103d660048036038101906103d19190612556565b611523565b005b3480156103e457600080fd5b506103ff60048036038101906103fa9190612556565b6115a9565b005b6000801b60056000848152602001908152602001600020600001600001540361045f576040517f08c379a000000000000000000000000000000000000000000000000000000000815260040161045690612910565b60405180910390fd5b43600560008481526020019081526020016000206007015410156104b8576040517f08c379a00000000000000000000000000000000000000000000000000000000081526004016104af9061297c565b60405180910390fd5b600060036005600085815260200190815260200160002060000160010160009054906101000a900473ffffffffffffffffffffffffffffffffffffffff1660056000868152602001908152602001600020600001600201546005600087815260200190815260200160002060000160030160009054906101000a900460ff16600560008881526020019081526020016000206000016004015460056000898152602001908152602001600020600001600501336040516020016105819796959493929190612b3e565b6040516020818303038152906040528051906020012090506105b68183600160000160009054906101000a900460ff166116d2565b6005600084815260200190815260200160002060090160009054906101000a900473ffffffffffffffffffffffffffffffffffffffff1673ffffffffffffffffffffffffffffffffffffffff166108fc60056000868152602001908152602001600020600801549081150290604051600060405180830381858888f19350505050158015610648573d6000803e3d6000fd5b506005600084815260200190815260200160002060008082016000808201600090556001820160006101000a81549073ffffffffffffffffffffffffffffffffffffffff021916905560028201600090556003820160006101000a81549060ff021916905560048201600090556005820160006106c59190611e71565b50506006820160009055600782016000905560088201600090556009820160006101000a81549073ffffffffffffffffffffffffffffffffffffffff021916905550507ffa39010b12e169f2d7e9a76e381216416dbf5eb59db117ae979592ee9f323885836040516107379190612bbb565b60405180910390a1505050565b600080888888888860405160200161076196959493929190612c07565b604051602081830303815290604052805190602001209050600360ff168660ff16146107c2576040517f08c379a00000000000000000000000000000000000000000000000000000000081526004016107b990612cbf565b60405180910390fd5b6107df8183600160000160019054906101000a900460ff166116d2565b600088886040516020016107f4929190612cdf565b6040516020818303038152906040528051906020012090506000801b60066000838152602001908152602001600020600001600001541461086a576040517f08c379a000000000000000000000000000000000000000000000000000000000815260040161086190612d57565b60405180910390fd5b60405180606001604052806040518060c00160405280848152602001600060ff1681526020018c81526020018b81526020018973ffffffffffffffffffffffffffffffffffffffff16815260200188815250815260200143815260200185815250600660008381526020019081526020016000206000820151816000016000820151816000015560208201518160010160006101000a81548160ff021916908360ff160217905550604082015181600201556060820151816003015560808201518160040160006101000a81548173ffffffffffffffffffffffffffffffffffffffff021916908373ffffffffffffffffffffffffffffffffffffffff16021790555060a08201518160050190816109829190612f0e565b505050602082015181600601556040820151816007015590505060008673ffffffffffffffffffffffffffffffffffffffff163b116109f6576040517f08c379a00000000000000000000000000000000000000000000000000000000081526004016109ed9061302c565b60405180910390fd5b6000808773ffffffffffffffffffffffffffffffffffffffff168b88604051602401610a23929190613096565b6040516020818303038152906040527f99189e44000000000000000000000000000000000000000000000000000000007bffffffffffffffffffffffffffffffffffffffffffffffffffffffff19166020820180517bffffffffffffffffffffffffffffffffffffffffffffffffffffffff8381831617835250505050604051610aad91906130c6565b6000604051808303816000865af19150503d8060008114610aea576040519150601f19603f3d011682016040523d82523d6000602084013e610aef565b606091505b509150915081610b50576000610b048261199d565b90507fc239aebd2a06afc574c2d68036bce2d5244b3c7e95dd5889f466a6947fa48eda60008d8b8b85604051610b3e959493929190613121565b60405180910390a15050505050610b8c565b7f1915d13f149e2654a02a939345885f8654759bd3347d96fe012c6913df7f86b883604051610b7f9190612bbb565b60405180910390a1505050505b50505050505050565b6006602052806000526040600020600091509050806000016040518060c0016040529081600082015481526020016001820160009054906101000a900460ff1660ff1660ff16815260200160028201548152602001600382015481526020016004820160009054906101000a900473ffffffffffffffffffffffffffffffffffffffff1673ffffffffffffffffffffffffffffffffffffffff1673ffffffffffffffffffffffffffffffffffffffff168152602001600582018054610c5990612a6a565b80601f0160208091040260200160405190810160405280929190818152602001828054610c8590612a6a565b8015610cd25780601f10610ca757610100808354040283529160200191610cd2565b820191906000526020600020905b815481529060010190602001808311610cb557829003601f168201915b505050505081525050908060060154908060070154905083565b60075481565b610cfa611a08565b610d046000611a8f565b565b60018060000160009054906101000a900460ff16908060000160019054906101000a900460ff16908060010154908060020154908060030154905085565b60086020528060005260406000206000915054906101000a900460ff1681565b600081565b60008060009054906101000a900473ffffffffffffffffffffffffffffffffffffffff16905090565b610d9a611a08565b60005b82829050811015610ea6574360016003015460066000868686818110610dc657610dc5613182565b5b90506020020135815260200190815260200160002060060154610de991906131e0565b1015610e995760066000848484818110610e0657610e05613182565b5b90506020020135815260200190815260200160002060008082016000808201600090556001820160006101000a81549060ff0219169055600282016000905560038201600090556004820160006101000a81549073ffffffffffffffffffffffffffffffffffffffff0219169055600582016000610e849190611e71565b50506006820160009055600782016000905550505b8080600101915050610d9d565b505050565b6005602052806000526040600020600091509050806000016040518060c0016040529081600082015481526020016001820160009054906101000a900473ffffffffffffffffffffffffffffffffffffffff1673ffffffffffffffffffffffffffffffffffffffff1673ffffffffffffffffffffffffffffffffffffffff168152602001600282015481526020016003820160009054906101000a900460ff1660ff1660ff16815260200160048201548152602001600582018054610f6f90612a6a565b80601f0160208091040260200160405190810160405280929190818152602001828054610f9b90612a6a565b8015610fe85780601f10610fbd57610100808354040283529160200191610fe8565b820191906000526020600020905b815481529060010190602001808311610fcb57829003601f168201915b505050505081525050908060060154908060070154908060080154908060090160009054906101000a900473ffffffffffffffffffffffffffffffffffffffff16905085565b611036611a08565b84600160000160006101000a81548160ff021916908360ff16021790555083600160000160016101000a81548160ff021916908360ff16021790555082600180018190555081600160020181905550806001600301819055505050505050565b600381565b600060018001548210156110e4576040517f08c379a00000000000000000000000000000000000000000000000000000000081526004016110db90613260565b60405180910390fd5b60016002015482111561112c576040517f08c379a0000000000000000000000000000000000000000000000000000000008152600401611123906132cc565b60405180910390fd5b600033866040516020016111419291906132ec565b60405160208183030381529060405280519060200120905060006005600083815260200190815260200160002060070154146111d057436005600083815260200190815260200160002060070154106111cf576040517f08c379a00000000000000000000000000000000000000000000000000000000081526004016111c690613364565b60405180910390fd5b5b6040518060a001604052806040518060c001604052808481526020013373ffffffffffffffffffffffffffffffffffffffff168152602001898152602001600060ff168152602001888152602001878152508152602001438152602001844361123991906131e0565b81526020013481526020013373ffffffffffffffffffffffffffffffffffffffff16815250600560008381526020019081526020016000206000820151816000016000820151816000015560208201518160010160006101000a81548173ffffffffffffffffffffffffffffffffffffffff021916908373ffffffffffffffffffffffffffffffffffffffff1602179055506040820151816002015560608201518160030160006101000a81548160ff021916908360ff1602179055506080820151816004015560a08201518160050190816113159190612f0e565b50505060208201518160060155604082015181600701556060820151816008015560808201518160090160006101000a81548173ffffffffffffffffffffffffffffffffffffffff021916908373ffffffffffffffffffffffffffffffffffffffff1602179055509050506007600081548092919061139390613384565b91905055507f164a225b23eeadc41f48acd565ef67a5f3c3496fa1ae34d1f974df6ce63fed6d600560008381526020019081526020016000206000016040516113dc91906135a3565b60405180910390a16001915050949350505050565b6113f9611a08565b600860008273ffffffffffffffffffffffffffffffffffffffff1673ffffffffffffffffffffffffffffffffffffffff16815260200190815260200160002060009054906101000a900460ff1615611486576040517f08c379a000000000000000000000000000000000000000000000000000000000815260040161147d90613611565b60405180910390fd5b6001600860008373ffffffffffffffffffffffffffffffffffffffff1673ffffffffffffffffffffffffffffffffffffffff16815260200190815260200160002060006101000a81548160ff0219169083151502179055508073ffffffffffffffffffffffffffffffffffffffff167e47706786c922d17b39285dc59d696bafea72c0b003d3841ae1202076f4c2e460405160405180910390a250565b61152b611a08565b600073ffffffffffffffffffffffffffffffffffffffff168173ffffffffffffffffffffffffffffffffffffffff160361159d5760006040517f1e4fbdf700000000000000000000000000000000000000000000000000000000815260040161159491906125e3565b60405180910390fd5b6115a681611a8f565b50565b6115b1611a08565b600860008273ffffffffffffffffffffffffffffffffffffffff1673ffffffffffffffffffffffffffffffffffffffff16815260200190815260200160002060009054906101000a900460ff1661163d576040517f08c379a00000000000000000000000000000000000000000000000000000000081526004016116349061367d565b60405180910390fd5b600860008273ffffffffffffffffffffffffffffffffffffffff1673ffffffffffffffffffffffffffffffffffffffff16815260200190815260200160002060006101000a81549060ff02191690558073ffffffffffffffffffffffffffffffffffffffff167f9c8e7d83025bef8a04c664b2f753f64b8814bdb7e27291d7e50935f18cc3c71260405160405180910390a250565b8060ff1682511015611719576040517f08c379a0000000000000000000000000000000000000000000000000000000008152600401611710906136e9565b60405180910390fd5b6000825167ffffffffffffffff81111561173657611735611f2e565b5b6040519080825280602002602001820160405280156117645781602001602082028036833780820191505090505b5090506000805b845181101561194e5760006117a261178288611b53565b87848151811061179557611794613182565b5b6020026020010151611b89565b9050600860008273ffffffffffffffffffffffffffffffffffffffff1673ffffffffffffffffffffffffffffffffffffffff16815260200190815260200160002060009054906101000a900460ff16611830576040517f08c379a000000000000000000000000000000000000000000000000000000000815260040161182790613755565b60405180910390fd5b60005b838110156118d0578173ffffffffffffffffffffffffffffffffffffffff1685828151811061186557611864613182565b5b602002602001015173ffffffffffffffffffffffffffffffffffffffff16036118c3576040517f08c379a00000000000000000000000000000000000000000000000000000000081526004016118ba906137c1565b60405180910390fd5b8080600101915050611833565b50808484815181106118e5576118e4613182565b5b602002602001019073ffffffffffffffffffffffffffffffffffffffff16908173ffffffffffffffffffffffffffffffffffffffff1681525050828061192a90613384565b9350508460ff1683106119405750505050611998565b50808060010191505061176b565b508260ff16811015611995576040517f08c379a000000000000000000000000000000000000000000000000000000000815260040161198c90613853565b60405180910390fd5b50505b505050565b60606044825110156119e6576040518060400160405280600f81526020017f556e6b6e6f776e206661696c75726500000000000000000000000000000000008152509050611a03565b60048201915081806020019051810190611a009190613914565b90505b919050565b611a10611bb5565b73ffffffffffffffffffffffffffffffffffffffff16611a2e610d69565b73ffffffffffffffffffffffffffffffffffffffff1614611a8d57611a51611bb5565b6040517f118cdaa7000000000000000000000000000000000000000000000000000000008152600401611a8491906125e3565b60405180910390fd5b565b60008060009054906101000a900473ffffffffffffffffffffffffffffffffffffffff169050816000806101000a81548173ffffffffffffffffffffffffffffffffffffffff021916908373ffffffffffffffffffffffffffffffffffffffff1602179055508173ffffffffffffffffffffffffffffffffffffffff168173ffffffffffffffffffffffffffffffffffffffff167f8be0079c531659141344cd1fd0a4f28419497f9722a3daafe3b4186f6b6457e060405160405180910390a35050565b60007f19457468657265756d205369676e6564204d6573736167653a0a33320000000060005281601c52603c6000209050919050565b600080600080611b998686611bbd565b925092509250611ba98282611c19565b82935050505092915050565b600033905090565b60008060006041845103611c025760008060006020870151925060408701519150606087015160001a9050611bf488828585611d7d565b955095509550505050611c12565b60006002855160001b9250925092505b9250925092565b60006003811115611c2d57611c2c61395d565b5b826003811115611c4057611c3f61395d565b5b0315611d795760016003811115611c5a57611c5961395d565b5b826003811115611c6d57611c6c61395d565b5b03611ca4576040517ff645eedf00000000000000000000000000000000000000000000000000000000815260040160405180910390fd5b60026003811115611cb857611cb761395d565b5b826003811115611ccb57611cca61395d565b5b03611d10578060001c6040517ffce698f7000000000000000000000000000000000000000000000000000000008152600401611d0791906124d9565b60405180910390fd5b600380811115611d2357611d2261395d565b5b826003811115611d3657611d3561395d565b5b03611d7857806040517fd78bce0c000000000000000000000000000000000000000000000000000000008152600401611d6f9190612bbb565b60405180910390fd5b5b5050565b60008060007f7fffffffffffffffffffffffffffffff5d576e7357a4501ddfe92f46681b20a08460001c1115611dbd576000600385925092509250611e67565b600060018888888860405160008152602001604052604051611de2949392919061398c565b6020604051602081039080840390855afa158015611e04573d6000803e3d6000fd5b505050602060405103519050600073ffffffffffffffffffffffffffffffffffffffff168173ffffffffffffffffffffffffffffffffffffffff1603611e5857600060016000801b93509350935050611e67565b8060008060001b935093509350505b9450945094915050565b508054611e7d90612a6a565b6000825580601f10611e8f5750611eae565b601f016020900490600052602060002090810190611ead9190611eb1565b5b50565b5b80821115611eca576000816000905550600101611eb2565b5090565b6000604051905090565b600080fd5b600080fd5b6000819050919050565b611ef581611ee2565b8114611f0057600080fd5b50565b600081359050611f1281611eec565b92915050565b600080fd5b6000601f19601f8301169050919050565b7f4e487b7100000000000000000000000000000000000000000000000000000000600052604160045260246000fd5b611f6682611f1d565b810181811067ffffffffffffffff82111715611f8557611f84611f2e565b5b80604052505050565b6000611f98611ece565b9050611fa48282611f5d565b919050565b600067ffffffffffffffff821115611fc457611fc3611f2e565b5b602082029050602081019050919050565b600080fd5b600080fd5b600067ffffffffffffffff821115611ffa57611ff9611f2e565b5b61200382611f1d565b9050602081019050919050565b82818337600083830152505050565b600061203261202d84611fdf565b611f8e565b90508281526020810184848401111561204e5761204d611fda565b5b612059848285612010565b509392505050565b600082601f83011261207657612075611f18565b5b813561208684826020860161201f565b91505092915050565b60006120a261209d84611fa9565b611f8e565b905080838252602082019050602084028301858111156120c5576120c4611fd5565b5b835b8181101561210c57803567ffffffffffffffff8111156120ea576120e9611f18565b5b8086016120f78982612061565b855260208501945050506020810190506120c7565b5050509392505050565b600082601f83011261212b5761212a611f18565b5b813561213b84826020860161208f565b91505092915050565b6000806040838503121561215b5761215a611ed8565b5b600061216985828601611f03565b925050602083013567ffffffffffffffff81111561218a57612189611edd565b5b61219685828601612116565b9150509250929050565b600060ff82169050919050565b6121b6816121a0565b81146121c157600080fd5b50565b6000813590506121d3816121ad565b92915050565b600073ffffffffffffffffffffffffffffffffffffffff82169050919050565b6000612204826121d9565b9050919050565b612214816121f9565b811461221f57600080fd5b50565b6000813590506122318161220b565b92915050565b600080600080600080600060e0888a03121561225657612255611ed8565b5b60006122648a828b01611f03565b97505060206122758a828b01611f03565b96505060406122868a828b016121c4565b95505060606122978a828b01612222565b945050608088013567ffffffffffffffff8111156122b8576122b7611edd565b5b6122c48a828b01612061565b93505060a06122d58a828b01611f03565b92505060c088013567ffffffffffffffff8111156122f6576122f5611edd565b5b6123028a828b01612116565b91505092959891949750929550565b60006020828403121561232757612326611ed8565b5b600061233584828501611f03565b91505092915050565b61234781611ee2565b82525050565b612356816121a0565b82525050565b612365816121f9565b82525050565b600081519050919050565b600082825260208201905092915050565b60005b838110156123a557808201518184015260208101905061238a565b60008484015250505050565b60006123bc8261236b565b6123c68185612376565b93506123d6818560208601612387565b6123df81611f1d565b840191505092915050565b600060c083016000830151612402600086018261233e565b506020830151612415602086018261234d565b506040830151612428604086018261233e565b50606083015161243b606086018261233e565b50608083015161244e608086018261235c565b5060a083015184820360a086015261246682826123b1565b9150508091505092915050565b6000819050919050565b61248681612473565b82525050565b61249581611ee2565b82525050565b600060608201905081810360008301526124b581866123ea565b90506124c4602083018561247d565b6124d1604083018461248c565b949350505050565b60006020820190506124ee600083018461247d565b92915050565b6124fd816121a0565b82525050565b600060a08201905061251860008301886124f4565b61252560208301876124f4565b612532604083018661247d565b61253f606083018561247d565b61254c608083018461247d565b9695505050505050565b60006020828403121561256c5761256b611ed8565b5b600061257a84828501612222565b91505092915050565b60008115159050919050565b61259881612583565b82525050565b60006020820190506125b3600083018461258f565b92915050565b60006020820190506125ce60008301846124f4565b92915050565b6125dd816121f9565b82525050565b60006020820190506125f860008301846125d4565b92915050565b600080fd5b60008083601f84011261261957612618611f18565b5b8235905067ffffffffffffffff811115612636576126356125fe565b5b60208301915083602082028301111561265257612651611fd5565b5b9250929050565b600080602083850312156126705761266f611ed8565b5b600083013567ffffffffffffffff81111561268e5761268d611edd565b5b61269a85828601612603565b92509250509250929050565b600060c0830160008301516126be600086018261233e565b5060208301516126d1602086018261235c565b5060408301516126e4604086018261233e565b5060608301516126f7606086018261234d565b50608083015161270a608086018261233e565b5060a083015184820360a086015261272282826123b1565b9150508091505092915050565b600060a082019050818103600083015261274981886126a6565b9050612758602083018761247d565b612765604083018661247d565b612772606083018561247d565b61277f60808301846125d4565b9695505050505050565b61279281612473565b811461279d57600080fd5b50565b6000813590506127af81612789565b92915050565b600080600080600060a086880312156127d1576127d0611ed8565b5b60006127df888289016121c4565b95505060206127f0888289016121c4565b9450506040612801888289016127a0565b9350506060612812888289016127a0565b9250506080612823888289016127a0565b9150509295509295909350565b6000806000806080858703121561284a57612849611ed8565b5b600061285887828801611f03565b945050602061286987828801611f03565b935050604085013567ffffffffffffffff81111561288a57612889611edd565b5b61289687828801612061565b92505060606128a7878288016127a0565b91505092959194509250565b600082825260208201905092915050565b7f4d657373616765206e6f7420666f756e64000000000000000000000000000000600082015250565b60006128fa6011836128b3565b9150612905826128c4565b602082019050919050565b60006020820190508181036000830152612929816128ed565b9050919050565b7f44656c697665727920636f6e6669726d6174696f6e206f766572647565000000600082015250565b6000612966601d836128b3565b915061297182612930565b602082019050919050565b6000602082019050818103600083015261299581612959565b9050919050565b60008160f81b9050919050565b60006129b48261299c565b9050919050565b6129cc6129c7826121a0565b6129a9565b82525050565b60008160601b9050919050565b60006129ea826129d2565b9050919050565b60006129fc826129df565b9050919050565b612a14612a0f826121f9565b6129f1565b82525050565b6000819050919050565b612a35612a3082611ee2565b612a1a565b82525050565b7f4e487b7100000000000000000000000000000000000000000000000000000000600052602260045260246000fd5b60006002820490506001821680612a8257607f821691505b602082108103612a9557612a94612a3b565b5b50919050565b600081905092915050565b60008190508160005260206000209050919050565b60008154612ac881612a6a565b612ad28186612a9b565b94506001821660008114612aed5760018114612b0257612b35565b60ff1983168652811515820286019350612b35565b612b0b85612aa6565b60005b83811015612b2d57815481890152600182019150602081019050612b0e565b838801955050505b50505092915050565b6000612b4a828a6129bb565b600182019150612b5a8289612a03565b601482019150612b6a8288612a24565b602082019150612b7a82876129bb565b600182019150612b8a8286612a24565b602082019150612b9a8285612abb565b9150612ba68284612a03565b60148201915081905098975050505050505050565b6000602082019050612bd0600083018461248c565b92915050565b6000612be18261236b565b612beb8185612a9b565b9350612bfb818560208601612387565b80840191505092915050565b6000612c1382896129bb565b600182019150612c238288612a24565b602082019150612c338287612a24565b602082019150612c4382866129bb565b600182019150612c538285612a03565b601482019150612c638284612bd6565b9150819050979650505050505050565b7f4d65737361676520726563697069656e74496e64657820696e76616c69640000600082015250565b6000612ca9601e836128b3565b9150612cb482612c73565b602082019050919050565b60006020820190508181036000830152612cd881612c9c565b9050919050565b6000612ceb8285612a24565b602082019150612cfb8284612a24565b6020820191508190509392505050565b7f4d65737361676520616c72656164792072656365697665640000000000000000600082015250565b6000612d416018836128b3565b9150612d4c82612d0b565b602082019050919050565b60006020820190508181036000830152612d7081612d34565b9050919050565b60006020601f8301049050919050565b600082821b905092915050565b600060088302612dc47fffffffffffffffffffffffffffffffffffffffffffffffffffffffffffffffff82612d87565b612dce8683612d87565b95508019841693508086168417925050509392505050565b6000819050919050565b6000612e0b612e06612e0184612473565b612de6565b612473565b9050919050565b6000819050919050565b612e2583612df0565b612e39612e3182612e12565b848454612d94565b825550505050565b600090565b612e4e612e41565b612e59818484612e1c565b505050565b5b81811015612e7d57612e72600082612e46565b600181019050612e5f565b5050565b601f821115612ec257612e9381612aa6565b612e9c84612d77565b81016020851015612eab578190505b612ebf612eb785612d77565b830182612e5e565b50505b505050565b600082821c905092915050565b6000612ee560001984600802612ec7565b1980831691505092915050565b6000612efe8383612ed4565b9150826002028217905092915050565b612f178261236b565b67ffffffffffffffff811115612f3057612f2f611f2e565b5b612f3a8254612a6a565b612f45828285612e81565b600060209050601f831160018114612f785760008415612f66578287015190505b612f708582612ef2565b865550612fd8565b601f198416612f8686612aa6565b60005b82811015612fae57848901518255600182019150602085019450602081019050612f89565b86831015612fcb5784890151612fc7601f891682612ed4565b8355505b6001600288020188555050505b505050505050565b7f526563697069656e74206973206e6f74206120636f6e74726163740000000000600082015250565b6000613016601b836128b3565b915061302182612fe0565b602082019050919050565b6000602082019050818103600083015261304581613009565b9050919050565b600082825260208201905092915050565b60006130688261236b565b613072818561304c565b9350613082818560208601612387565b61308b81611f1d565b840191505092915050565b60006040820190506130ab600083018561248c565b81810360208301526130bd818461305d565b90509392505050565b60006130d28284612bd6565b915081905092915050565b600081519050919050565b60006130f3826130dd565b6130fd81856128b3565b935061310d818560208601612387565b61311681611f1d565b840191505092915050565b600060a08201905061313660008301886124f4565b613143602083018761248c565b61315060408301866125d4565b8181036060830152613162818561305d565b9050818103608083015261317681846130e8565b90509695505050505050565b7f4e487b7100000000000000000000000000000000000000000000000000000000600052603260045260246000fd5b7f4e487b7100000000000000000000000000000000000000000000000000000000600052601160045260246000fd5b60006131eb82612473565b91506131f683612473565b925082820190508082111561320e5761320d6131b1565b5b92915050565b7f54544c20746f6f20736d616c6c00000000000000000000000000000000000000600082015250565b600061324a600d836128b3565b915061325582613214565b602082019050919050565b600060208201905081810360008301526132798161323d565b9050919050565b7f54544c20746f6f206c6172676500000000000000000000000000000000000000600082015250565b60006132b6600d836128b3565b91506132c182613280565b602082019050919050565b600060208201905081810360008301526132e5816132a9565b9050919050565b60006132f88285612a03565b6014820191506133088284612a24565b6020820191508190509392505050565b7f4d65737361676520776974682073616d65206e6f6e63652070656e64696e6700600082015250565b600061334e601f836128b3565b915061335982613318565b602082019050919050565b6000602082019050818103600083015261337d81613341565b9050919050565b600061338f82612473565b91507fffffffffffffffffffffffffffffffffffffffffffffffffffffffffffffffff82036133c1576133c06131b1565b5b600182019050919050565b60008160001c9050919050565b6000819050919050565b60006133f66133f1836133cc565b6133d9565b9050919050565b600073ffffffffffffffffffffffffffffffffffffffff82169050919050565b600061343061342b836133cc565b6133fd565b9050919050565b600060ff82169050919050565b6000613457613452836133cc565b613437565b9050919050565b6000815461346b81612a6a565b6134758186612376565b9450600182166000811461349057600181146134a6576134d9565b60ff1983168652811515602002860193506134d9565b6134af85612aa6565b60005b838110156134d1578154818901526001820191506020810190506134b2565b808801955050505b50505092915050565b600060c0830160008084015490506134f9816133e3565b613506600087018261233e565b50600184015490506135178161341d565b613524602087018261235c565b5060028401549050613535816133e3565b613542604087018261233e565b506003840154905061355381613444565b613560606087018261234d565b5060048401549050613571816133e3565b61357e608087018261233e565b506005840185830360a0870152613595838261345e565b925050819250505092915050565b600060208201905081810360008301526135bd81846134e2565b905092915050565b7f4f7261636c6520616c7265616479206164646564000000000000000000000000600082015250565b60006135fb6014836128b3565b9150613606826135c5565b602082019050919050565b6000602082019050818103600083015261362a816135ee565b9050919050565b7f4f7261636c65206e6f7420666f756e6400000000000000000000000000000000600082015250565b60006136676010836128b3565b915061367282613631565b602082019050919050565b600060208201905081810360008301526136968161365a565b9050919050565b7f4e6f7420656e6f756768207369676e6174757265730000000000000000000000600082015250565b60006136d36015836128b3565b91506136de8261369d565b602082019050919050565b60006020820190508181036000830152613702816136c6565b9050919050565b7f496e76616c6964207369676e6174757265000000000000000000000000000000600082015250565b600061373f6011836128b3565b915061374a82613709565b602082019050919050565b6000602082019050818103600083015261376e81613732565b9050919050565b7f4475706c6963617465207369676e617475726520646574656374656400000000600082015250565b60006137ab601c836128b3565b91506137b682613775565b602082019050919050565b600060208201905081810360008301526137da8161379e565b9050919050565b7f4e6f7420656e6f75676820756e697175652076616c6964207369676e6174757260008201527f6573000000000000000000000000000000000000000000000000000000000000602082015250565b600061383d6022836128b3565b9150613848826137e1565b604082019050919050565b6000602082019050818103600083015261386c81613830565b9050919050565b600067ffffffffffffffff82111561388e5761388d611f2e565b5b61389782611f1d565b9050602081019050919050565b60006138b76138b284613873565b611f8e565b9050828152602081018484840111156138d3576138d2611fda565b5b6138de848285612387565b509392505050565b600082601f8301126138fb576138fa611f18565b5b815161390b8482602086016138a4565b91505092915050565b60006020828403121561392a57613929611ed8565b5b600082015167ffffffffffffffff81111561394857613947611edd565b5b613954848285016138e6565b91505092915050565b7f4e487b7100000000000000000000000000000000000000000000000000000000600052602160045260246000fd5b60006080820190506139a1600083018761248c565b6139ae60208301866124f4565b6139bb604083018561248c565b6139c8606083018461248c565b9594505050505056fea264697066735822122033690ef352e93ebe6c189d0b6dcab3b83a5bcdb31f0faa5e67022ef806260e4c64736f6c634300081c0033",
  "linkReferences": {},
  "deployedLinkReferences": {}
}