{
  "_format": "hh-sol-artifact-1",
  "contractName": "AcurastToken",
  "sourceName": "contracts/acu.sol",
  "abi": [
    {
      "inputs": [
        {
          "internalType": "address",
          "name": "_ibcContract",
          "type": "address"
        },
        {
          "internalType": "bytes32",
          "name": "_tokenPalletAccount",
          "type": "bytes32"
        }
      ],
      "stateMutability": "nonpayable",
      "type": "constructor"
    },
    {
      "inputs": [
        {
          "internalType": "address",
          "name": "spender",
          "type": "address"
        },
        {
          "internalType": "uint256",
          "name": "allowance",
          "type": "uint256"
        },
        {
          "internalType": "uint256",
          "name": "needed",
          "type": "uint256"
        }
      ],
      "name": "ERC20InsufficientAllowance",
      "type": "error"
    },
    {
      "inputs": [
        {
          "internalType": "address",
          "name": "sender",
          "type": "address"
        },
        {
          "internalType": "uint256",
          "name": "balance",
          "type": "uint256"
        },
        {
          "internalType": "uint256",
          "name": "needed",
          "type": "uint256"
        }
      ],
      "name": "ERC20InsufficientBalance",
      "type": "error"
    },
    {
      "inputs": [
        {
          "internalType": "address",
          "name": "approver",
          "type": "address"
        }
      ],
      "name": "ERC20InvalidApprover",
      "type": "error"
    },
    {
      "inputs": [
        {
          "internalType": "address",
          "name": "receiver",
          "type": "address"
        }
      ],
      "name": "ERC20InvalidReceiver",
      "type": "error"
    },
    {
      "inputs": [
        {
          "internalType": "address",
          "name": "sender",
          "type": "address"
        }
      ],
      "name": "ERC20InvalidSender",
      "type": "error"
    },
    {
      "inputs": [
        {
          "internalType": "address",
          "name": "spender",
          "type": "address"
        }
      ],
      "name": "ERC20InvalidSpender",
      "type": "error"
    },
    {
      "inputs": [
        {
          "internalType": "address",
          "name": "owner",
          "type": "address"
        }
      ],
      "name": "OwnableInvalidOwner",
      "type": "error"
    },
    {
      "inputs": [
        {
          "internalType": "address",
          "name": "account",
          "type": "address"
        }
      ],
      "name": "OwnableUnauthorizedAccount",
      "type": "error"
    },
    {
      "anonymous": false,
      "inputs": [
        {
          "indexed": true,
          "internalType": "address",
          "name": "owner",
          "type": "address"
        },
        {
          "indexed": true,
          "internalType": "address",
          "name": "spender",
          "type": "address"
        },
        {
          "indexed": false,
          "internalType": "uint256",
          "name": "value",
          "type": "uint256"
        }
      ],
      "name": "Approval",
      "type": "event"
    },
    {
      "anonymous": false,
      "inputs": [
        {
          "indexed": true,
          "internalType": "address",
          "name": "oldAddress",
          "type": "address"
        },
        {
          "indexed": true,
          "internalType": "address",
          "name": "newAddress",
          "type": "address"
        }
      ],
      "name": "IbcContractUpdated",
      "type": "event"
    },
    {
      "anonymous": false,
      "inputs": [
        {
          "indexed": true,
          "internalType": "uint256",
          "name": "oldTTL",
          "type": "uint256"
        },
        {
          "indexed": true,
          "internalType": "uint256",
          "name": "newTTL",
          "type": "uint256"
        }
      ],
      "name": "OutgoingTTLUpdated",
      "type": "event"
    },
    {
      "anonymous": false,
      "inputs": [
        {
          "indexed": true,
          "internalType": "address",
          "name": "previousOwner",
          "type": "address"
        },
        {
          "indexed": true,
          "internalType": "address",
          "name": "newOwner",
          "type": "address"
        }
      ],
      "name": "OwnershipTransferred",
      "type": "event"
    },
    {
      "anonymous": false,
      "inputs": [
        {
          "indexed": true,
          "internalType": "bytes32",
          "name": "oldAddress",
          "type": "bytes32"
        },
        {
          "indexed": true,
          "internalType": "bytes32",
          "name": "newAddress",
          "type": "bytes32"
        }
      ],
      "name": "TokenPalletAccountUpdated",
      "type": "event"
    },
    {
      "anonymous": false,
      "inputs": [
        {
          "indexed": true,
          "internalType": "address",
          "name": "from",
          "type": "address"
        },
        {
          "indexed": true,
          "internalType": "address",
          "name": "to",
          "type": "address"
        },
        {
          "indexed": false,
          "internalType": "uint256",
          "name": "value",
          "type": "uint256"
        }
      ],
      "name": "Transfer",
      "type": "event"
    },
    {
      "anonymous": false,
      "inputs": [
        {
          "indexed": false,
          "internalType": "uint256",
          "name": "amount",
          "type": "uint256"
        },
        {
          "indexed": true,
          "internalType": "address",
          "name": "dest",
          "type": "address"
        },
        {
          "indexed": false,
          "internalType": "uint32",
          "name": "transferNonce",
          "type": "uint32"
        }
      ],
      "name": "TransferReceived",
      "type": "event"
    },
    {
      "anonymous": false,
      "inputs": [
        {
          "indexed": false,
          "internalType": "uint128",
          "name": "amount",
          "type": "uint128"
        },
        {
          "indexed": false,
          "internalType": "uint256",
          "name": "fee",
          "type": "uint256"
        },
        {
          "indexed": true,
          "internalType": "bytes32",
          "name": "dest",
          "type": "bytes32"
        },
        {
          "indexed": false,
          "internalType": "uint32",
          "name": "transferNonce",
          "type": "uint32"
        }
      ],
      "name": "TransferRetried",
      "type": "event"
    },
    {
      "anonymous": false,
      "inputs": [
        {
          "indexed": false,
          "internalType": "uint128",
          "name": "amount",
          "type": "uint128"
        },
        {
          "indexed": false,
          "internalType": "uint256",
          "name": "fee",
          "type": "uint256"
        },
        {
          "indexed": true,
          "internalType": "bytes32",
          "name": "dest",
          "type": "bytes32"
        },
        {
          "indexed": false,
          "internalType": "uint32",
          "name": "transferNonce",
          "type": "uint32"
        }
      ],
      "name": "TransferSent",
      "type": "event"
    },
    {
      "inputs": [
        {
          "internalType": "address",
          "name": "owner",
          "type": "address"
        },
        {
          "internalType": "address",
          "name": "spender",
          "type": "address"
        }
      ],
      "name": "allowance",
      "outputs": [
        {
          "internalType": "uint256",
          "name": "",
          "type": "uint256"
        }
      ],
      "stateMutability": "view",
      "type": "function"
    },
    {
      "inputs": [
        {
          "internalType": "address",
          "name": "spender",
          "type": "address"
        },
        {
          "internalType": "uint256",
          "name": "value",
          "type": "uint256"
        }
      ],
      "name": "approve",
      "outputs": [
        {
          "internalType": "bool",
          "name": "",
          "type": "bool"
        }
      ],
      "stateMutability": "nonpayable",
      "type": "function"
    },
    {
      "inputs": [
        {
          "internalType": "address",
          "name": "account",
          "type": "address"
        }
      ],
      "name": "balanceOf",
      "outputs": [
        {
          "internalType": "uint256",
          "name": "",
          "type": "uint256"
        }
      ],
      "stateMutability": "view",
      "type": "function"
    },
    {
      "inputs": [],
      "name": "decimals",
      "outputs": [
        {
          "internalType": "uint8",
          "name": "",
          "type": "uint8"
        }
      ],
      "stateMutability": "view",
      "type": "function"
    },
    {
      "inputs": [],
      "name": "ibcContract",
      "outputs": [
        {
          "internalType": "address",
          "name": "",
          "type": "address"
        }
      ],
      "stateMutability": "view",
      "type": "function"
    },
    {
      "inputs": [
        {
          "internalType": "uint32",
          "name": "",
          "type": "uint32"
        }
      ],
      "name": "incomingTransferNonces",
      "outputs": [
        {
          "internalType": "bool",
          "name": "",
          "type": "bool"
        }
      ],
      "stateMutability": "view",
      "type": "function"
    },
    {
      "inputs": [
        {
          "internalType": "address",
          "name": "to",
          "type": "address"
        },
        {
          "internalType": "uint256",
          "name": "amount",
          "type": "uint256"
        }
      ],
      "name": "mint",
      "outputs": [],
      "stateMutability": "nonpayable",
      "type": "function"
    },
    {
      "inputs": [],
      "name": "name",
      "outputs": [
        {
          "internalType": "string",
          "name": "",
          "type": "string"
        }
      ],
      "stateMutability": "view",
      "type": "function"
    },
    {
      "inputs": [],
      "name": "nextTransferNonce",
      "outputs": [
        {
          "internalType": "uint32",
          "name": "",
          "type": "uint32"
        }
      ],
      "stateMutability": "view",
      "type": "function"
    },
    {
      "inputs": [],
      "name": "outgoingTTL",
      "outputs": [
        {
          "internalType": "uint256",
          "name": "",
          "type": "uint256"
        }
      ],
      "stateMutability": "view",
      "type": "function"
    },
    {
      "inputs": [
        {
          "internalType": "uint32",
          "name": "",
          "type": "uint32"
        }
      ],
      "name": "outgoingTransfers",
      "outputs": [
        {
          "internalType": "address",
          "name": "sender",
          "type": "address"
        },
        {
          "internalType": "uint128",
          "name": "amount",
          "type": "uint128"
        },
        {
          "internalType": "bytes32",
          "name": "dest",
          "type": "bytes32"
        }
      ],
      "stateMutability": "view",
      "type": "function"
    },
    {
      "inputs": [],
      "name": "owner",
      "outputs": [
        {
          "internalType": "address",
          "name": "",
          "type": "address"
        }
      ],
      "stateMutability": "view",
      "type": "function"
    },
    {
      "inputs": [
        {
          "internalType": "bytes32",
          "name": "sender",
          "type": "bytes32"
        },
        {
          "internalType": "bytes",
          "name": "payload",
          "type": "bytes"
        }
      ],
      "name": "processMessage",
      "outputs": [],
      "stateMutability": "nonpayable",
      "type": "function"
    },
    {
      "inputs": [],
      "name": "renounceOwnership",
      "outputs": [],
      "stateMutability": "nonpayable",
      "type": "function"
    },
    {
      "inputs": [
        {
          "internalType": "uint32",
          "name": "transferNonce",
          "type": "uint32"
        }
      ],
      "name": "retryTransferNative",
      "outputs": [],
      "stateMutability": "payable",
      "type": "function"
    },
    {
      "inputs": [
        {
          "internalType": "uint256",
          "name": "_outgoingTTL",
          "type": "uint256"
        }
      ],
      "name": "setOutgoingTTL",
      "outputs": [],
      "stateMutability": "nonpayable",
      "type": "function"
    },
    {
      "inputs": [],
      "name": "symbol",
      "outputs": [
        {
          "internalType": "string",
          "name": "",
          "type": "string"
        }
      ],
      "stateMutability": "view",
      "type": "function"
    },
    {
      "inputs": [],
      "name": "tokenPalletAccount",
      "outputs": [
        {
          "internalType": "bytes32",
          "name": "",
          "type": "bytes32"
        }
      ],
      "stateMutability": "view",
      "type": "function"
    },
    {
      "inputs": [],
      "name": "totalSupply",
      "outputs": [
        {
          "internalType": "uint256",
          "name": "",
          "type": "uint256"
        }
      ],
      "stateMutability": "view",
      "type": "function"
    },
    {
      "inputs": [
        {
          "internalType": "address",
          "name": "to",
          "type": "address"
        },
        {
          "internalType": "uint256",
          "name": "value",
          "type": "uint256"
        }
      ],
      "name": "transfer",
      "outputs": [
        {
          "internalType": "bool",
          "name": "",
          "type": "bool"
        }
      ],
      "stateMutability": "nonpayable",
      "type": "function"
    },
    {
      "inputs": [
        {
          "internalType": "address",
          "name": "from",
          "type": "address"
        },
        {
          "internalType": "address",
          "name": "to",
          "type": "address"
        },
        {
          "internalType": "uint256",
          "name": "value",
          "type": "uint256"
        }
      ],
      "name": "transferFrom",
      "outputs": [
        {
          "internalType": "bool",
          "name": "",
          "type": "bool"
        }
      ],
      "stateMutability": "nonpayable",
      "type": "function"
    },
    {
      "inputs": [
        {
          "internalType": "uint128",
          "name": "amount",
          "type": "uint128"
        },
        {
          "internalType": "bytes32",
          "name": "dest",
          "type": "bytes32"
        }
      ],
      "name": "transferNative",
      "outputs": [],
      "stateMutability": "payable",
      "type": "function"
    },
    {
      "inputs": [
        {
          "internalType": "address",
          "name": "newOwner",
          "type": "address"
        }
      ],
      "name": "transferOwnership",
      "outputs": [],
      "stateMutability": "nonpayable",
      "type": "function"
    },
    {
      "inputs": [
        {
          "internalType": "address",
          "name": "_ibcContract",
          "type": "address"
        }
      ],
      "name": "updateIbcContract",
      "outputs": [],
      "stateMutability": "nonpayable",
      "type": "function"
    },
    {
      "inputs": [
        {
          "internalType": "bytes32",
          "name": "_tokenPalletAccount",
          "type": "bytes32"
        }
      ],
      "name": "updateTokenPalletAccount",
      "outputs": [],
      "stateMutability": "nonpayable",
      "type": "function"
    }
  ],
  "bytecode": "0x608060405234801561001057600080fd5b50604051613ec7380380613ec783398181016040528101906100329190610653565b336040518060400160405280600781526020017f41637572617374000000000000000000000000000000000000000000000000008152506040518060400160405280600381526020017f414355000000000000000000000000000000000000000000000000000000000081525081600390816100ae91906108e3565b5080600490816100be91906108e3565b505050600073ffffffffffffffffffffffffffffffffffffffff168173ffffffffffffffffffffffffffffffffffffffff16036101335760006040517f1e4fbdf700000000000000000000000000000000000000000000000000000000815260040161012a91906109c4565b60405180910390fd5b6101428161023e60201b60201c565b50600073ffffffffffffffffffffffffffffffffffffffff168273ffffffffffffffffffffffffffffffffffffffff16036101b2576040517f08c379a00000000000000000000000000000000000000000000000000000000081526004016101a990610a3c565b60405180910390fd5b81600660006101000a81548173ffffffffffffffffffffffffffffffffffffffff021916908373ffffffffffffffffffffffffffffffffffffffff1602179055508060078190555060326008819055506102373361021461030460201b60201c565b600a6102209190610bcb565b606461022c9190610c16565b61030d60201b60201c565b5050610ced565b6000600560009054906101000a900473ffffffffffffffffffffffffffffffffffffffff16905081600560006101000a81548173ffffffffffffffffffffffffffffffffffffffff021916908373ffffffffffffffffffffffffffffffffffffffff1602179055508173ffffffffffffffffffffffffffffffffffffffff168173ffffffffffffffffffffffffffffffffffffffff167f8be0079c531659141344cd1fd0a4f28419497f9722a3daafe3b4186f6b6457e060405160405180910390a35050565b6000600c905090565b600073ffffffffffffffffffffffffffffffffffffffff168273ffffffffffffffffffffffffffffffffffffffff160361037f5760006040517fec442f0500000000000000000000000000000000000000000000000000000000815260040161037691906109c4565b60405180910390fd5b6103916000838361039560201b60201c565b5050565b600073ffffffffffffffffffffffffffffffffffffffff168373ffffffffffffffffffffffffffffffffffffffff16036103e75780600260008282546103db9190610c58565b925050819055506104ba565b60008060008573ffffffffffffffffffffffffffffffffffffffff1673ffffffffffffffffffffffffffffffffffffffff16815260200190815260200160002054905081811015610473578381836040517fe450d38c00000000000000000000000000000000000000000000000000000000815260040161046a93929190610c9b565b60405180910390fd5b8181036000808673ffffffffffffffffffffffffffffffffffffffff1673ffffffffffffffffffffffffffffffffffffffff16815260200190815260200160002081905550505b600073ffffffffffffffffffffffffffffffffffffffff168273ffffffffffffffffffffffffffffffffffffffff16036105035780600260008282540392505081905550610550565b806000808473ffffffffffffffffffffffffffffffffffffffff1673ffffffffffffffffffffffffffffffffffffffff168152602001908152602001600020600082825401925050819055505b8173ffffffffffffffffffffffffffffffffffffffff168373ffffffffffffffffffffffffffffffffffffffff167fddf252ad1be2c89b69c2b068fc378daa952ba7f163c4a11628f55a4df523b3ef836040516105ad9190610cd2565b60405180910390a3505050565b600080fd5b600073ffffffffffffffffffffffffffffffffffffffff82169050919050565b60006105ea826105bf565b9050919050565b6105fa816105df565b811461060557600080fd5b50565b600081519050610617816105f1565b92915050565b6000819050919050565b6106308161061d565b811461063b57600080fd5b50565b60008151905061064d81610627565b92915050565b6000806040838503121561066a576106696105ba565b5b600061067885828601610608565b92505060206106898582860161063e565b9150509250929050565b600081519050919050565b7f4e487b7100000000000000000000000000000000000000000000000000000000600052604160045260246000fd5b7f4e487b7100000000000000000000000000000000000000000000000000000000600052602260045260246000fd5b6000600282049050600182168061071457607f821691505b602082108103610727576107266106cd565b5b50919050565b60008190508160005260206000209050919050565b60006020601f8301049050919050565b600082821b905092915050565b60006008830261078f7fffffffffffffffffffffffffffffffffffffffffffffffffffffffffffffffff82610752565b6107998683610752565b95508019841693508086168417925050509392505050565b6000819050919050565b6000819050919050565b60006107e06107db6107d6846107b1565b6107bb565b6107b1565b9050919050565b6000819050919050565b6107fa836107c5565b61080e610806826107e7565b84845461075f565b825550505050565b600090565b610823610816565b61082e8184846107f1565b505050565b5b818110156108525761084760008261081b565b600181019050610834565b5050565b601f821115610897576108688161072d565b61087184610742565b81016020851015610880578190505b61089461088c85610742565b830182610833565b50505b505050565b600082821c905092915050565b60006108ba6000198460080261089c565b1980831691505092915050565b60006108d383836108a9565b9150826002028217905092915050565b6108ec82610693565b67ffffffffffffffff8111156109055761090461069e565b5b61090f82546106fc565b61091a828285610856565b600060209050601f83116001811461094d576000841561093b578287015190505b61094585826108c7565b8655506109ad565b601f19841661095b8661072d565b60005b828110156109835784890151825560018201915060208501945060208101905061095e565b868310156109a0578489015161099c601f8916826108a9565b8355505b6001600288020188555050505b505050505050565b6109be816105df565b82525050565b60006020820190506109d960008301846109b5565b92915050565b600082825260208201905092915050565b7f496e76616c69642049424320636f6e7472616374206164647265737300000000600082015250565b6000610a26601c836109df565b9150610a31826109f0565b602082019050919050565b60006020820190508181036000830152610a5581610a19565b9050919050565b7f4e487b7100000000000000000000000000000000000000000000000000000000600052601160045260246000fd5b60008160011c9050919050565b6000808291508390505b6001851115610ae257808604811115610abe57610abd610a5c565b5b6001851615610acd5780820291505b8081029050610adb85610a8b565b9450610aa2565b94509492505050565b600082610afb5760019050610bb7565b81610b095760009050610bb7565b8160018114610b1f5760028114610b2957610b58565b6001915050610bb7565b60ff841115610b3b57610b3a610a5c565b5b8360020a915084821115610b5257610b51610a5c565b5b50610bb7565b5060208310610133831016604e8410600b8410161715610b8d5782820a905083811115610b8857610b87610a5c565b5b610bb7565b610b9a8484846001610a98565b92509050818404811115610bb157610bb0610a5c565b5b81810290505b9392505050565b600060ff82169050919050565b6000610bd6826107b1565b9150610be183610bbe565b9250610c0e7fffffffffffffffffffffffffffffffffffffffffffffffffffffffffffffffff8484610aeb565b905092915050565b6000610c21826107b1565b9150610c2c836107b1565b9250828202610c3a816107b1565b91508282048414831517610c5157610c50610a5c565b5b5092915050565b6000610c63826107b1565b9150610c6e836107b1565b9250828201905080821115610c8657610c85610a5c565b5b92915050565b610c95816107b1565b82525050565b6000606082019050610cb060008301866109b5565b610cbd6020830185610c8c565b610cca6040830184610c8c565b949350505050565b6000602082019050610ce76000830184610c8c565b92915050565b6131cb80610cfc6000396000f3fe6080604052600436106101665760003560e01c806370a08231116100d1578063a8e99e8a1161008a578063d318ed4711610064578063d318ed4714610512578063dd62ed3e1461053b578063eb250d1e14610578578063f2fde38b146105b757610166565b8063a8e99e8a1461048e578063a9059cbb146104aa578063c235ffae146104e757610166565b806370a0823114610392578063715018a6146103cf57806382dee11f146103e65780638da5cb5b1461040f57806395d89b411461043a57806399189e441461046557610166565b8063313ce56711610123578063313ce567146102915780633a66cef6146102bc57806340c10f19146102e757806348c455261461031057806367f81fc01461034d57806370638ce51461037657610166565b806306fdde031461016b578063095ea7b31461019657806318160ddd146101d357806322beeba3146101fe57806323b872dd146102295780632808840414610266575b600080fd5b34801561017757600080fd5b506101806105e0565b60405161018d919061201b565b60405180910390f35b3480156101a257600080fd5b506101bd60048036038101906101b891906120e5565b610672565b6040516101ca9190612140565b60405180910390f35b3480156101df57600080fd5b506101e8610695565b6040516101f5919061216a565b60405180910390f35b34801561020a57600080fd5b5061021361069f565b604051610220919061219e565b60405180910390f35b34801561023557600080fd5b50610250600480360381019061024b91906121b9565b6106a5565b60405161025d9190612140565b60405180910390f35b34801561027257600080fd5b5061027b6106d4565b604051610288919061222b565b60405180910390f35b34801561029d57600080fd5b506102a66106ea565b6040516102b39190612262565b60405180910390f35b3480156102c857600080fd5b506102d16106f3565b6040516102de919061216a565b60405180910390f35b3480156102f357600080fd5b5061030e600480360381019061030991906120e5565b6106f9565b005b34801561031c57600080fd5b50610337600480360381019061033291906122a9565b61070f565b6040516103449190612140565b60405180910390f35b34801561035957600080fd5b50610374600480360381019061036f91906122d6565b61072f565b005b610390600480360381019061038b91906122a9565b61089a565b005b34801561039e57600080fd5b506103b960048036038101906103b49190612303565b610c17565b6040516103c6919061216a565b60405180910390f35b3480156103db57600080fd5b506103e4610c5f565b005b3480156103f257600080fd5b5061040d6004803603810190610408919061235c565b610c73565b005b34801561041b57600080fd5b50610424610cb5565b6040516104319190612398565b60405180910390f35b34801561044657600080fd5b5061044f610cdf565b60405161045c919061201b565b60405180910390f35b34801561047157600080fd5b5061048c600480360381019061048791906124e8565b610d71565b005b6104a860048036038101906104a3919061258c565b61108a565b005b3480156104b657600080fd5b506104d160048036038101906104cc91906120e5565b6114a8565b6040516104de9190612140565b60405180910390f35b3480156104f357600080fd5b506104fc6114cb565b6040516105099190612398565b60405180910390f35b34801561051e57600080fd5b5061053960048036038101906105349190612303565b6114f1565b005b34801561054757600080fd5b50610562600480360381019061055d91906125cc565b611628565b60405161056f919061216a565b60405180910390f35b34801561058457600080fd5b5061059f600480360381019061059a91906122a9565b6116af565b6040516105ae9392919061261b565b60405180910390f35b3480156105c357600080fd5b506105de60048036038101906105d99190612303565b611715565b005b6060600380546105ef90612681565b80601f016020809104026020016040519081016040528092919081815260200182805461061b90612681565b80156106685780601f1061063d57610100808354040283529160200191610668565b820191906000526020600020905b81548152906001019060200180831161064b57829003601f168201915b5050505050905090565b60008061067d61179b565b905061068a8185856117a3565b600191505092915050565b6000600254905090565b60075481565b6000806106b061179b565b90506106bd8582856117b5565b6106c885858561184a565b60019150509392505050565b600a60009054906101000a900463ffffffff1681565b6000600c905090565b60085481565b61070161193e565b61070b82826119c5565b5050565b60096020528060005260406000206000915054906101000a900460ff1681565b61073761193e565b6000600660009054906101000a900473ffffffffffffffffffffffffffffffffffffffff1690506000808273ffffffffffffffffffffffffffffffffffffffff166379502c556040518163ffffffff1660e01b815260040160a060405180830381865afa1580156107ac573d6000803e3d6000fd5b505050506040513d601f19601f820116820180604052508101906107d091906126f3565b509350935050508184101561081a576040517f08c379a0000000000000000000000000000000000000000000000000000000008152600401610811906127ba565b60405180910390fd5b8084111561085d576040517f08c379a000000000000000000000000000000000000000000000000000000000815260040161085490612826565b60405180910390fd5b836008547fa485a88a368ebaead07316d0ecff078ceb5d1b46efd14b94247270d4171cd4db60405160405180910390a38360088190555050505050565b6000600b60008363ffffffff1663ffffffff16815260200190815260200160002060010160009054906101000a90046fffffffffffffffffffffffffffffffff166fffffffffffffffffffffffffffffffff161161092d576040517f08c379a000000000000000000000000000000000000000000000000000000000815260040161092490612892565b60405180910390fd5b6000600b60008363ffffffff1663ffffffff1681526020019081526020016000206040518060600160405290816000820160009054906101000a900473ffffffffffffffffffffffffffffffffffffffff1673ffffffffffffffffffffffffffffffffffffffff1673ffffffffffffffffffffffffffffffffffffffff1681526020016001820160009054906101000a90046fffffffffffffffffffffffffffffffff166fffffffffffffffffffffffffffffffff166fffffffffffffffffffffffffffffffff1681526020016002820154815250509050600082604051602001610a1891906128e8565b60405160208183030381529060405280519060200120905060008083602001516000868660400151604051602001610a5495949392919061295a565b60405160208183030381529060405290506000600660009054906101000a900473ffffffffffffffffffffffffffffffffffffffff1673ffffffffffffffffffffffffffffffffffffffff16348460075485600854604051602401610abc9493929190612a0e565b6040516020818303038152906040527ff936ff74000000000000000000000000000000000000000000000000000000007bffffffffffffffffffffffffffffffffffffffffffffffffffffffff19166020820180517bffffffffffffffffffffffffffffffffffffffffffffffffffffffff8381831617835250505050604051610b469190612a96565b60006040518083038185875af1925050503d8060008114610b83576040519150601f19603f3d011682016040523d82523d6000602084013e610b88565b606091505b5050905080610bcc576040517f08c379a0000000000000000000000000000000000000000000000000000000008152600401610bc390612af9565b60405180910390fd5b83604001517fcf5d7bf366de9aefdb2e7cfff5076e740720703fa9341ca5df34db66baf7456a85602001513488604051610c0893929190612b19565b60405180910390a25050505050565b60008060008373ffffffffffffffffffffffffffffffffffffffff1673ffffffffffffffffffffffffffffffffffffffff168152602001908152602001600020549050919050565b610c6761193e565b610c716000611a47565b565b610c7b61193e565b806007547fa14e2697861aa95e9c5e36a1d08f76fe80944fba775ae48272e7139f7cdbbe1460405160405180910390a38060078190555050565b6000600560009054906101000a900473ffffffffffffffffffffffffffffffffffffffff16905090565b606060048054610cee90612681565b80601f0160208091040260200160405190810160405280929190818152602001828054610d1a90612681565b8015610d675780601f10610d3c57610100808354040283529160200191610d67565b820191906000526020600020905b815481529060010190602001808311610d4a57829003601f168201915b5050505050905090565b6007548214610db5576040517f08c379a0000000000000000000000000000000000000000000000000000000008152600401610dac90612b9c565b60405180910390fd5b600481511015610dfa576040517f08c379a0000000000000000000000000000000000000000000000000000000008152600401610df190612c08565b60405180910390fd5b60006020820151905060008163ffffffff160361104a576030825114610e55576040517f08c379a0000000000000000000000000000000000000000000000000000000008152600401610e4c90612c74565b60405180910390fd5b60008060008085806020019051810190610e6f9190612cfc565b945094509450945050600073ffffffffffffffffffffffffffffffffffffffff168173ffffffffffffffffffffffffffffffffffffffff1603610ee7576040517f08c379a0000000000000000000000000000000000000000000000000000000008152600401610ede90612dc3565b60405180910390fd5b60008363ffffffff1603610f30576040517f08c379a0000000000000000000000000000000000000000000000000000000008152600401610f2790612e2f565b60405180910390fd5b600960008363ffffffff1663ffffffff16815260200190815260200160002060009054906101000a900460ff1615610f9d576040517f08c379a0000000000000000000000000000000000000000000000000000000008152600401610f9490612e9b565b60405180910390fd5b6001600960008463ffffffff1663ffffffff16815260200190815260200160002060006101000a81548160ff021916908315150217905550610ff181856fffffffffffffffffffffffffffffffff166119c5565b8073ffffffffffffffffffffffffffffffffffffffff167fbdde8979688e10cf227fc00e2a09f04c8eccc879b4b872c96532e71c0dd7b2108584604051611039929190612ef6565b60405180910390a250505050611085565b6040517f08c379a000000000000000000000000000000000000000000000000000000000815260040161107c90612f6b565b60405180910390fd5b505050565b6000826fffffffffffffffffffffffffffffffff16116110df576040517f08c379a00000000000000000000000000000000000000000000000000000000081526004016110d690612fd7565b60405180910390fd5b816fffffffffffffffffffffffffffffffff166110fb33610c17565b101561113c576040517f08c379a000000000000000000000000000000000000000000000000000000000815260040161113390613043565b60405180910390fd5b6000600a60009054906101000a900463ffffffff169050600a600081819054906101000a900463ffffffff168092919061117590613092565b91906101000a81548163ffffffff021916908363ffffffff160217905550506000816040516020016111a791906128e8565b60405160208183030381529060405280519060200120905060008085600085876040516020016111db95949392919061295a565b604051602081830303815290604052905061120833866fffffffffffffffffffffffffffffffff16611b0d565b60405180606001604052803373ffffffffffffffffffffffffffffffffffffffff168152602001866fffffffffffffffffffffffffffffffff16815260200185815250600b60008563ffffffff1663ffffffff16815260200190815260200160002060008201518160000160006101000a81548173ffffffffffffffffffffffffffffffffffffffff021916908373ffffffffffffffffffffffffffffffffffffffff16021790555060208201518160010160006101000a8154816fffffffffffffffffffffffffffffffff02191690836fffffffffffffffffffffffffffffffff160217905550604082015181600201559050506000600660009054906101000a900473ffffffffffffffffffffffffffffffffffffffff1673ffffffffffffffffffffffffffffffffffffffff163484600754856008546040516024016113549493929190612a0e565b6040516020818303038152906040527fc8a24482000000000000000000000000000000000000000000000000000000007bffffffffffffffffffffffffffffffffffffffffffffffffffffffff19166020820180517bffffffffffffffffffffffffffffffffffffffffffffffffffffffff83818316178352505050506040516113de9190612a96565b60006040518083038185875af1925050503d806000811461141b576040519150601f19603f3d011682016040523d82523d6000602084013e611420565b606091505b5050905080611464576040517f08c379a000000000000000000000000000000000000000000000000000000000815260040161145b90612af9565b60405180910390fd5b847fddbf1bcef359cc7e89612599db42f6e24e6bc1bf00d20a205ebe94a2066df50887348760405161149893929190612b19565b60405180910390a2505050505050565b6000806114b361179b565b90506114c081858561184a565b600191505092915050565b600660009054906101000a900473ffffffffffffffffffffffffffffffffffffffff1681565b6114f961193e565b600073ffffffffffffffffffffffffffffffffffffffff168173ffffffffffffffffffffffffffffffffffffffff1603611568576040517f08c379a000000000000000000000000000000000000000000000000000000000815260040161155f9061310a565b60405180910390fd5b8073ffffffffffffffffffffffffffffffffffffffff16600660009054906101000a900473ffffffffffffffffffffffffffffffffffffffff1673ffffffffffffffffffffffffffffffffffffffff167fb4f4eb2c59e82e78670d9c46b2710303f24fb6d764a4a7fb86b3036d5622774060405160405180910390a380600660006101000a81548173ffffffffffffffffffffffffffffffffffffffff021916908373ffffffffffffffffffffffffffffffffffffffff16021790555050565b6000600160008473ffffffffffffffffffffffffffffffffffffffff1673ffffffffffffffffffffffffffffffffffffffff16815260200190815260200160002060008373ffffffffffffffffffffffffffffffffffffffff1673ffffffffffffffffffffffffffffffffffffffff16815260200190815260200160002054905092915050565b600b6020528060005260406000206000915090508060000160009054906101000a900473ffffffffffffffffffffffffffffffffffffffff16908060010160009054906101000a90046fffffffffffffffffffffffffffffffff16908060020154905083565b61171d61193e565b600073ffffffffffffffffffffffffffffffffffffffff168173ffffffffffffffffffffffffffffffffffffffff160361178f5760006040517f1e4fbdf70000000000000000000000000000000000000000000000000000000081526004016117869190612398565b60405180910390fd5b61179881611a47565b50565b600033905090565b6117b08383836001611b8f565b505050565b60006117c18484611628565b90507fffffffffffffffffffffffffffffffffffffffffffffffffffffffffffffffff8110156118445781811015611834578281836040517ffb8f41b200000000000000000000000000000000000000000000000000000000815260040161182b9392919061312a565b60405180910390fd5b61184384848484036000611b8f565b5b50505050565b600073ffffffffffffffffffffffffffffffffffffffff168373ffffffffffffffffffffffffffffffffffffffff16036118bc5760006040517f96c6fd1e0000000000000000000000000000000000000000000000000000000081526004016118b39190612398565b60405180910390fd5b600073ffffffffffffffffffffffffffffffffffffffff168273ffffffffffffffffffffffffffffffffffffffff160361192e5760006040517fec442f050000000000000000000000000000000000000000000000000000000081526004016119259190612398565b60405180910390fd5b611939838383611d66565b505050565b61194661179b565b73ffffffffffffffffffffffffffffffffffffffff16611964610cb5565b73ffffffffffffffffffffffffffffffffffffffff16146119c35761198761179b565b6040517f118cdaa70000000000000000000000000000000000000000000000000000000081526004016119ba9190612398565b60405180910390fd5b565b600073ffffffffffffffffffffffffffffffffffffffff168273ffffffffffffffffffffffffffffffffffffffff1603611a375760006040517fec442f05000000000000000000000000000000000000000000000000000000008152600401611a2e9190612398565b60405180910390fd5b611a4360008383611d66565b5050565b6000600560009054906101000a900473ffffffffffffffffffffffffffffffffffffffff16905081600560006101000a81548173ffffffffffffffffffffffffffffffffffffffff021916908373ffffffffffffffffffffffffffffffffffffffff1602179055508173ffffffffffffffffffffffffffffffffffffffff168173ffffffffffffffffffffffffffffffffffffffff167f8be0079c531659141344cd1fd0a4f28419497f9722a3daafe3b4186f6b6457e060405160405180910390a35050565b600073ffffffffffffffffffffffffffffffffffffffff168273ffffffffffffffffffffffffffffffffffffffff1603611b7f5760006040517f96c6fd1e000000000000000000000000000000000000000000000000000000008152600401611b769190612398565b60405180910390fd5b611b8b82600083611d66565b5050565b600073ffffffffffffffffffffffffffffffffffffffff168473ffffffffffffffffffffffffffffffffffffffff1603611c015760006040517fe602df05000000000000000000000000000000000000000000000000000000008152600401611bf89190612398565b60405180910390fd5b600073ffffffffffffffffffffffffffffffffffffffff168373ffffffffffffffffffffffffffffffffffffffff1603611c735760006040517f94280d62000000000000000000000000000000000000000000000000000000008152600401611c6a9190612398565b60405180910390fd5b81600160008673ffffffffffffffffffffffffffffffffffffffff1673ffffffffffffffffffffffffffffffffffffffff16815260200190815260200160002060008573ffffffffffffffffffffffffffffffffffffffff1673ffffffffffffffffffffffffffffffffffffffff168152602001908152602001600020819055508015611d60578273ffffffffffffffffffffffffffffffffffffffff168473ffffffffffffffffffffffffffffffffffffffff167f8c5be1e5ebec7d5bd14f71427d1e84f3dd0314c0f7b2291e5b200ac8c7c3b92584604051611d57919061216a565b60405180910390a35b50505050565b600073ffffffffffffffffffffffffffffffffffffffff168373ffffffffffffffffffffffffffffffffffffffff1603611db8578060026000828254611dac9190613161565b92505081905550611e8b565b60008060008573ffffffffffffffffffffffffffffffffffffffff1673ffffffffffffffffffffffffffffffffffffffff16815260200190815260200160002054905081811015611e44578381836040517fe450d38c000000000000000000000000000000000000000000000000000000008152600401611e3b9392919061312a565b60405180910390fd5b8181036000808673ffffffffffffffffffffffffffffffffffffffff1673ffffffffffffffffffffffffffffffffffffffff16815260200190815260200160002081905550505b600073ffffffffffffffffffffffffffffffffffffffff168273ffffffffffffffffffffffffffffffffffffffff1603611ed45780600260008282540392505081905550611f21565b806000808473ffffffffffffffffffffffffffffffffffffffff1673ffffffffffffffffffffffffffffffffffffffff168152602001908152602001600020600082825401925050819055505b8173ffffffffffffffffffffffffffffffffffffffff168373ffffffffffffffffffffffffffffffffffffffff167fddf252ad1be2c89b69c2b068fc378daa952ba7f163c4a11628f55a4df523b3ef83604051611f7e919061216a565b60405180910390a3505050565b600081519050919050565b600082825260208201905092915050565b60005b83811015611fc5578082015181840152602081019050611faa565b60008484015250505050565b6000601f19601f8301169050919050565b6000611fed82611f8b565b611ff78185611f96565b9350612007818560208601611fa7565b61201081611fd1565b840191505092915050565b600060208201905081810360008301526120358184611fe2565b905092915050565b6000604051905090565b600080fd5b600080fd5b600073ffffffffffffffffffffffffffffffffffffffff82169050919050565b600061207c82612051565b9050919050565b61208c81612071565b811461209757600080fd5b50565b6000813590506120a981612083565b92915050565b6000819050919050565b6120c2816120af565b81146120cd57600080fd5b50565b6000813590506120df816120b9565b92915050565b600080604083850312156120fc576120fb612047565b5b600061210a8582860161209a565b925050602061211b858286016120d0565b9150509250929050565b60008115159050919050565b61213a81612125565b82525050565b60006020820190506121556000830184612131565b92915050565b612164816120af565b82525050565b600060208201905061217f600083018461215b565b92915050565b6000819050919050565b61219881612185565b82525050565b60006020820190506121b3600083018461218f565b92915050565b6000806000606084860312156121d2576121d1612047565b5b60006121e08682870161209a565b93505060206121f18682870161209a565b9250506040612202868287016120d0565b9150509250925092565b600063ffffffff82169050919050565b6122258161220c565b82525050565b6000602082019050612240600083018461221c565b92915050565b600060ff82169050919050565b61225c81612246565b82525050565b60006020820190506122776000830184612253565b92915050565b6122868161220c565b811461229157600080fd5b50565b6000813590506122a38161227d565b92915050565b6000602082840312156122bf576122be612047565b5b60006122cd84828501612294565b91505092915050565b6000602082840312156122ec576122eb612047565b5b60006122fa848285016120d0565b91505092915050565b60006020828403121561231957612318612047565b5b60006123278482850161209a565b91505092915050565b61233981612185565b811461234457600080fd5b50565b60008135905061235681612330565b92915050565b60006020828403121561237257612371612047565b5b600061238084828501612347565b91505092915050565b61239281612071565b82525050565b60006020820190506123ad6000830184612389565b92915050565b600080fd5b600080fd5b7f4e487b7100000000000000000000000000000000000000000000000000000000600052604160045260246000fd5b6123f582611fd1565b810181811067ffffffffffffffff82111715612414576124136123bd565b5b80604052505050565b600061242761203d565b905061243382826123ec565b919050565b600067ffffffffffffffff821115612453576124526123bd565b5b61245c82611fd1565b9050602081019050919050565b82818337600083830152505050565b600061248b61248684612438565b61241d565b9050828152602081018484840111156124a7576124a66123b8565b5b6124b2848285612469565b509392505050565b600082601f8301126124cf576124ce6123b3565b5b81356124df848260208601612478565b91505092915050565b600080604083850312156124ff576124fe612047565b5b600061250d85828601612347565b925050602083013567ffffffffffffffff81111561252e5761252d61204c565b5b61253a858286016124ba565b9150509250929050565b60006fffffffffffffffffffffffffffffffff82169050919050565b61256981612544565b811461257457600080fd5b50565b60008135905061258681612560565b92915050565b600080604083850312156125a3576125a2612047565b5b60006125b185828601612577565b92505060206125c285828601612347565b9150509250929050565b600080604083850312156125e3576125e2612047565b5b60006125f18582860161209a565b92505060206126028582860161209a565b9150509250929050565b61261581612544565b82525050565b60006060820190506126306000830186612389565b61263d602083018561260c565b61264a604083018461218f565b949350505050565b7f4e487b7100000000000000000000000000000000000000000000000000000000600052602260045260246000fd5b6000600282049050600182168061269957607f821691505b6020821081036126ac576126ab612652565b5b50919050565b6126bb81612246565b81146126c657600080fd5b50565b6000815190506126d8816126b2565b92915050565b6000815190506126ed816120b9565b92915050565b600080600080600060a0868803121561270f5761270e612047565b5b600061271d888289016126c9565b955050602061272e888289016126c9565b945050604061273f888289016126de565b9350506060612750888289016126de565b9250506080612761888289016126de565b9150509295509295909350565b7f4f7574676f696e6754544c20746f6f20736d616c6c0000000000000000000000600082015250565b60006127a4601583611f96565b91506127af8261276e565b602082019050919050565b600060208201905081810360008301526127d381612797565b9050919050565b7f4f7574676f696e6754544c20746f6f206c617267650000000000000000000000600082015250565b6000612810601583611f96565b915061281b826127da565b602082019050919050565b6000602082019050818103600083015261283f81612803565b9050919050565b7f5472616e73666572206e6f7420666f756e640000000000000000000000000000600082015250565b600061287c601283611f96565b915061288782612846565b602082019050919050565b600060208201905081810360008301526128ab8161286f565b9050919050565b60008160e01b9050919050565b60006128ca826128b2565b9050919050565b6128e26128dd8261220c565b6128bf565b82525050565b60006128f482846128d1565b60048201915081905092915050565b60008160801b9050919050565b600061291b82612903565b9050919050565b61293361292e82612544565b612910565b82525050565b6000819050919050565b61295461294f82612185565b612939565b82525050565b600061296682886128d1565b6004820191506129768287612922565b60108201915061298682866128d1565b60048201915061299682856128d1565b6004820191506129a68284612943565b6020820191508190509695505050505050565b600081519050919050565b600082825260208201905092915050565b60006129e0826129b9565b6129ea81856129c4565b93506129fa818560208601611fa7565b612a0381611fd1565b840191505092915050565b6000608082019050612a23600083018761218f565b612a30602083018661218f565b8181036040830152612a4281856129d5565b9050612a51606083018461215b565b95945050505050565b600081905092915050565b6000612a70826129b9565b612a7a8185612a5a565b9350612a8a818560208601611fa7565b80840191505092915050565b6000612aa28284612a65565b915081905092915050565b7f73656e644d657373616765206661696c65640000000000000000000000000000600082015250565b6000612ae3601283611f96565b9150612aee82612aad565b602082019050919050565b60006020820190508181036000830152612b1281612ad6565b9050919050565b6000606082019050612b2e600083018661260c565b612b3b602083018561215b565b612b48604083018461221c565b949350505050565b7f556e617574686f72697a65642073656e64657200000000000000000000000000600082015250565b6000612b86601383611f96565b9150612b9182612b50565b602082019050919050565b60006020820190508181036000830152612bb581612b79565b9050919050565b7f496e76616c696420616374696f6e000000000000000000000000000000000000600082015250565b6000612bf2600e83611f96565b9150612bfd82612bbc565b602082019050919050565b60006020820190508181036000830152612c2181612be5565b9050919050565b7f496e76616c6964206174696f6e207061796c6f61640000000000000000000000600082015250565b6000612c5e601583611f96565b9150612c6982612c28565b602082019050919050565b60006020820190508181036000830152612c8d81612c51565b9050919050565b600081519050612ca38161227d565b92915050565b600081519050612cb881612560565b92915050565b6000612cc982612051565b9050919050565b612cd981612cbe565b8114612ce457600080fd5b50565b600081519050612cf681612cd0565b92915050565b600080600080600060a08688031215612d1857612d17612047565b5b6000612d2688828901612c94565b9550506020612d3788828901612ca9565b9450506040612d4888828901612c94565b9350506060612d5988828901612c94565b9250506080612d6a88828901612ce7565b9150509295509295909350565b7f496e76616c696420726563697069656e74000000000000000000000000000000600082015250565b6000612dad601183611f96565b9150612db882612d77565b602082019050919050565b60006020820190508181036000830152612ddc81612da0565b9050919050565b7f556e737570706f72746564206173736574496400000000000000000000000000600082015250565b6000612e19601383611f96565b9150612e2482612de3565b602082019050919050565b60006020820190508181036000830152612e4881612e0c565b9050919050565b7f5472616e7366657220616c726561647920726563656976656400000000000000600082015250565b6000612e85601983611f96565b9150612e9082612e4f565b602082019050919050565b60006020820190508181036000830152612eb481612e78565b9050919050565b6000819050919050565b6000612ee0612edb612ed684612544565b612ebb565b6120af565b9050919050565b612ef081612ec5565b82525050565b6000604082019050612f0b6000830185612ee7565b612f18602083018461221c565b9392505050565b7f556e737570706f7274656420616374696f6e0000000000000000000000000000600082015250565b6000612f55601283611f96565b9150612f6082612f1f565b602082019050919050565b60006020820190508181036000830152612f8481612f48565b9050919050565b7f43616e6e6f74207472616e73666572203020616d6f756e740000000000000000600082015250565b6000612fc1601883611f96565b9150612fcc82612f8b565b602082019050919050565b60006020820190508181036000830152612ff081612fb4565b9050919050565b7f496e73756666696369656e74204143552062616c616e63650000000000000000600082015250565b600061302d601883611f96565b915061303882612ff7565b602082019050919050565b6000602082019050818103600083015261305c81613020565b9050919050565b7f4e487b7100000000000000000000000000000000000000000000000000000000600052601160045260246000fd5b600061309d8261220c565b915063ffffffff82036130b3576130b2613063565b5b600182019050919050565b7f496e76616c69642049424320636f6e7472616374206164647265737300000000600082015250565b60006130f4601c83611f96565b91506130ff826130be565b602082019050919050565b60006020820190508181036000830152613123816130e7565b9050919050565b600060608201905061313f6000830186612389565b61314c602083018561215b565b613159604083018461215b565b949350505050565b600061316c826120af565b9150613177836120af565b925082820190508082111561318f5761318e613063565b5b9291505056fea264697066735822122072e6be7e5a5f97f302bf0497e13c519ebec404500dbfb43cfb853a6d433b603a64736f6c634300081c0033",
  "linkReferences": {},
  "deployedLinkReferences": {}
}