{
  "_format": "hh-sol-artifact-1",
  "contractName": "Ibc",
  "sourceName": "contracts/ibc.sol",
  "abi": [
    {
      "inputs": [],
      "stateMutability": "nonpayable",
      "type": "constructor"
    },
    {
      "inputs": [],
      "name": "ECDSAInvalidSignature",
      "type": "error"
    },
    {
      "inputs": [
        {
          "internalType": "uint256",
          "name": "length",
          "type": "uint256"
        }
      ],
      "name": "ECDSAInvalidSignatureLength",
      "type": "error"
    },
    {
      "inputs": [
        {
          "internalType": "bytes32",
          "name": "s",
          "type": "bytes32"
        }
      ],
      "name": "ECDSAInvalidSignatureS",
      "type": "error"
    },
    {
      "inputs": [
        {
          "internalType": "address",
          "name": "owner",
          "type": "address"
        }
      ],
      "name": "OwnableInvalidOwner",
      "type": "error"
    },
    {
      "inputs": [
        {
          "internalType": "address",
          "name": "account",
          "type": "address"
        }
      ],
      "name": "OwnableUnauthorizedAccount",
      "type": "error"
    },
    {
      "anonymous": false,
      "inputs": [
        {
          "indexed": false,
          "internalType": "bytes32",
          "name": "id",
          "type": "bytes32"
        }
      ],
      "name": "MessageDelivered",
      "type": "event"
    },
    {
      "anonymous": false,
      "inputs": [
        {
          "indexed": false,
          "internalType": "bytes32",
          "name": "id",
          "type": "bytes32"
        }
      ],
      "name": "MessageProcessed",
      "type": "event"
    },
    {
      "anonymous": false,
      "inputs": [
        {
          "indexed": false,
          "internalType": "uint8",
          "name": "senderIndex",
          "type": "uint8"
        },
        {
          "indexed": false,
          "internalType": "bytes32",
          "name": "sender",
          "type": "bytes32"
        },
        {
          "indexed": false,
          "internalType": "address",
          "name": "recipient",
          "type": "address"
        },
        {
          "indexed": false,
          "internalType": "bytes",
          "name": "payload",
          "type": "bytes"
        },
        {
          "indexed": false,
          "internalType": "string",
          "name": "reason",
          "type": "string"
        }
      ],
      "name": "MessageProcessedWithErrors",
      "type": "event"
    },
    {
      "anonymous": false,
      "inputs": [
        {
          "components": [
            {
              "internalType": "bytes32",
              "name": "id",
              "type": "bytes32"
            },
            {
              "internalType": "address",
              "name": "sender",
              "type": "address"
            },
            {
              "internalType": "bytes32",
              "name": "nonce",
              "type": "bytes32"
            },
            {
              "internalType": "uint8",
              "name": "recipientIndex",
              "type": "uint8"
            },
            {
              "internalType": "bytes32",
              "name": "recipient",
              "type": "bytes32"
            },
            {
              "internalType": "bytes",
              "name": "payload",
              "type": "bytes"
            }
          ],
          "indexed": false,
          "internalType": "struct Ibc.OutgoingMessage",
          "name": "message",
          "type": "tuple"
        }
      ],
      "name": "MessageReadyToSend",
      "type": "event"
    },
    {
      "anonymous": false,
      "inputs": [
        {
          "indexed": true,
          "internalType": "address",
          "name": "oracle",
          "type": "address"
        }
      ],
      "name": "OracleAdded",
      "type": "event"
    },
    {
      "anonymous": false,
      "inputs": [
        {
          "indexed": true,
          "internalType": "address",
          "name": "oracle",
          "type": "address"
        }
      ],
      "name": "OracleRemoved",
      "type": "event"
    },
    {
      "anonymous": false,
      "inputs": [
        {
          "indexed": true,
          "internalType": "address",
          "name": "previousOwner",
          "type": "address"
        },
        {
          "indexed": true,
          "internalType": "address",
          "name": "newOwner",
          "type": "address"
        }
      ],
      "name": "OwnershipTransferred",
      "type": "event"
    },
    {
      "inputs": [],
      "name": "ACURAST_INDEX",
      "outputs": [
        {
          "internalType": "uint8",
          "name": "",
          "type": "uint8"
        }
      ],
      "stateMutability": "view",
      "type": "function"
    },
    {
      "inputs": [],
      "name": "ETHEREUM_INDEX",
      "outputs": [
        {
          "internalType": "uint8",
          "name": "",
          "type": "uint8"
        }
      ],
      "stateMutability": "view",
      "type": "function"
    },
    {
      "inputs": [
        {
          "internalType": "address",
          "name": "oracle",
          "type": "address"
        }
      ],
      "name": "addOracle",
      "outputs": [],
      "stateMutability": "nonpayable",
      "type": "function"
    },
    {
      "inputs": [
        {
          "internalType": "bytes32[]",
          "name": "clean",
          "type": "bytes32[]"
        }
      ],
      "name": "cleanIncomingIndex",
      "outputs": [],
      "stateMutability": "nonpayable",
      "type": "function"
    },
    {
      "inputs": [],
      "name": "config",
      "outputs": [
        {
          "internalType": "uint8",
          "name": "minDeliverySignatures",
          "type": "uint8"
        },
        {
          "internalType": "uint8",
          "name": "minReceiptSignatures",
          "type": "uint8"
        },
        {
          "internalType": "uint256",
          "name": "minTTL",
          "type": "uint256"
        },
        {
          "internalType": "uint256",
          "name": "maxTTL",
          "type": "uint256"
        },
        {
          "internalType": "uint256",
          "name": "incomingTTL",
          "type": "uint256"
        }
      ],
      "stateMutability": "view",
      "type": "function"
    },
    {
      "inputs": [
        {
          "internalType": "uint8",
          "name": "minDeliverySignatures",
          "type": "uint8"
        },
        {
          "internalType": "uint8",
          "name": "minReceiptSignatures",
          "type": "uint8"
        },
        {
          "internalType": "uint256",
          "name": "minTTL",
          "type": "uint256"
        },
        {
          "internalType": "uint256",
          "name": "maxTTL",
          "type": "uint256"
        },
        {
          "internalType": "uint256",
          "name": "incomingTTL",
          "type": "uint256"
        }
      ],
      "name": "configure",
      "outputs": [],
      "stateMutability": "nonpayable",
      "type": "function"
    },
    {
      "inputs": [
        {
          "internalType": "bytes32",
          "name": "id",
          "type": "bytes32"
        },
        {
          "internalType": "bytes[]",
          "name": "signatures",
          "type": "bytes[]"
        }
      ],
      "name": "confirmMessageDelivery",
      "outputs": [],
      "stateMutability": "nonpayable",
      "type": "function"
    },
    {
      "inputs": [
        {
          "internalType": "bytes32",
          "name": "",
          "type": "bytes32"
        }
      ],
      "name": "incoming",
      "outputs": [
        {
          "components": [
            {
              "internalType": "bytes32",
              "name": "id",
              "type": "bytes32"
            },
            {
              "internalType": "uint8",
              "name": "senderIndex",
              "type": "uint8"
            },
            {
              "internalType": "bytes32",
              "name": "sender",
              "type": "bytes32"
            },
            {
              "internalType": "bytes32",
              "name": "nonce",
              "type": "bytes32"
            },
            {
              "internalType": "address",
              "name": "recipient",
              "type": "address"
            },
            {
              "internalType": "bytes",
              "name": "payload",
              "type": "bytes"
            }
          ],
          "internalType": "struct Ibc.IncomingMessage",
          "name": "message",
          "type": "tuple"
        },
        {
          "internalType": "uint256",
          "name": "currentBlock",
          "type": "uint256"
        },
        {
          "internalType": "address",
          "name": "relayer",
          "type": "address"
        }
      ],
      "stateMutability": "view",
      "type": "function"
    },
    {
      "inputs": [],
      "name": "messageCounter",
      "outputs": [
        {
          "internalType": "uint256",
          "name": "",
          "type": "uint256"
        }
      ],
      "stateMutability": "view",
      "type": "function"
    },
    {
      "inputs": [
        {
          "internalType": "address",
          "name": "",
          "type": "address"
        }
      ],
      "name": "oraclePublicKeys",
      "outputs": [
        {
          "internalType": "bool",
          "name": "",
          "type": "bool"
        }
      ],
      "stateMutability": "view",
      "type": "function"
    },
    {
      "inputs": [
        {
          "internalType": "bytes32",
          "name": "",
          "type": "bytes32"
        }
      ],
      "name": "outgoing",
      "outputs": [
        {
          "components": [
            {
              "internalType": "bytes32",
              "name": "id",
              "type": "bytes32"
            },
            {
              "internalType": "address",
              "name": "sender",
              "type": "address"
            },
            {
              "internalType": "bytes32",
              "name": "nonce",
              "type": "bytes32"
            },
            {
              "internalType": "uint8",
              "name": "recipientIndex",
              "type": "uint8"
            },
            {
              "internalType": "bytes32",
              "name": "recipient",
              "type": "bytes32"
            },
            {
              "internalType": "bytes",
              "name": "payload",
              "type": "bytes"
            }
          ],
          "internalType": "struct Ibc.OutgoingMessage",
          "name": "message",
          "type": "tuple"
        },
        {
          "internalType": "uint256",
          "name": "currentBlock",
          "type": "uint256"
        },
        {
          "internalType": "uint256",
          "name": "ttlBlock",
          "type": "uint256"
        },
        {
          "internalType": "uint256",
          "name": "fee",
          "type": "uint256"
        },
        {
          "internalType": "address",
          "name": "payer",
          "type": "address"
        }
      ],
      "stateMutability": "view",
      "type": "function"
    },
    {
      "inputs": [],
      "name": "owner",
      "outputs": [
        {
          "internalType": "address",
          "name": "",
          "type": "address"
        }
      ],
      "stateMutability": "view",
      "type": "function"
    },
    {
      "inputs": [
        {
          "internalType": "bytes32",
          "name": "acruastSender",
          "type": "bytes32"
        },
        {
          "internalType": "bytes32",
          "name": "nonce",
          "type": "bytes32"
        },
        {
          "internalType": "uint8",
          "name": "recipientIndex",
          "type": "uint8"
        },
        {
          "internalType": "address",
          "name": "recipient",
          "type": "address"
        },
        {
          "internalType": "bytes",
          "name": "payload",
          "type": "bytes"
        },
        {
          "internalType": "bytes[]",
          "name": "signatures",
          "type": "bytes[]"
        }
      ],
      "name": "receiveMessage",
      "outputs": [],
      "stateMutability": "nonpayable",
      "type": "function"
    },
    {
      "inputs": [
        {
          "internalType": "address",
          "name": "oracle",
          "type": "address"
        }
      ],
      "name": "removeOracle",
      "outputs": [],
      "stateMutability": "nonpayable",
      "type": "function"
    },
    {
      "inputs": [],
      "name": "renounceOwnership",
      "outputs": [],
      "stateMutability": "nonpayable",
      "type": "function"
    },
    {
      "inputs": [
        {
          "internalType": "bytes32",
          "name": "nonce",
          "type": "bytes32"
        },
        {
          "internalType": "bytes32",
          "name": "recipient",
          "type": "bytes32"
        },
        {
          "internalType": "bytes",
          "name": "payload",
          "type": "bytes"
        },
        {
          "internalType": "uint256",
          "name": "ttl",
          "type": "uint256"
        }
      ],
      "name": "sendMessage",
      "outputs": [
        {
          "internalType": "bool",
          "name": "",
          "type": "bool"
        }
      ],
      "stateMutability": "payable",
      "type": "function"
    },
    {
      "inputs": [
        {
          "internalType": "address",
          "name": "newOwner",
          "type": "address"
        }
      ],
      "name": "transferOwnership",
      "outputs": [],
      "stateMutability": "nonpayable",
      "type": "function"
    }
  ],
  "bytecode": "0x608060405234801561001057600080fd5b5033600073ffffffffffffffffffffffffffffffffffffffff168173ffffffffffffffffffffffffffffffffffffffff16036100845760006040517f1e4fbdf700000000000000000000000000000000000000000000000000000000815260040161007b9190610235565b60405180910390fd5b6100938161013060201b60201c565b506040518060a00160405280600160ff168152602001600160ff1681526020016014815260200160c88152602001601e815250600160008201518160000160006101000a81548160ff021916908360ff16021790555060208201518160000160016101000a81548160ff021916908360ff160217905550604082015181600101556060820151816002015560808201518160030155905050610250565b60008060009054906101000a900473ffffffffffffffffffffffffffffffffffffffff169050816000806101000a81548173ffffffffffffffffffffffffffffffffffffffff021916908373ffffffffffffffffffffffffffffffffffffffff1602179055508173ffffffffffffffffffffffffffffffffffffffff168173ffffffffffffffffffffffffffffffffffffffff167f8be0079c531659141344cd1fd0a4f28419497f9722a3daafe3b4186f6b6457e060405160405180910390a35050565b600073ffffffffffffffffffffffffffffffffffffffff82169050919050565b600061021f826101f4565b9050919050565b61022f81610214565b82525050565b600060208201905061024a6000830184610226565b92915050565b6139dc8061025f6000396000f3fe6080604052600436106100fe5760003560e01c80638da5cb5b11610095578063c83ae34411610064578063c83ae3441461032b578063c8a2448214610356578063df5dd1a514610386578063f2fde38b146103af578063fdc85fc4146103d8576100fe565b80638da5cb5b1461026d5780638f618b1614610298578063aa810c42146102c1578063b6c72acf14610302576100fe565b8063715018a6116100d1578063715018a6146101bf57806379502c55146101d65780637c106ea91461020557806385b4205814610242576100fe565b80631d162598146101035780632852ab6b1461012c5780634ae593a714610155578063529c758814610194575b600080fd5b34801561010f57600080fd5b5061012a600480360381019061012591906121f8565b610401565b005b34801561013857600080fd5b50610153600480360381019061014e91906122bd565b610899565b005b34801561016157600080fd5b5061017c60048036038101906101779190612319565b610bb1565b60405161018b939291906124a3565b60405180910390f35b3480156101a057600080fd5b506101a9610d28565b6040516101b691906124e1565b60405180910390f35b3480156101cb57600080fd5b506101d4610d2e565b005b3480156101e257600080fd5b506101eb610d42565b6040516101fc95949392919061250b565b60405180910390f35b34801561021157600080fd5b5061022c6004803603810190610227919061255e565b610d80565b60405161023991906125a6565b60405180910390f35b34801561024e57600080fd5b50610257610da0565b60405161026491906125c1565b60405180910390f35b34801561027957600080fd5b50610282610da5565b60405161028f91906125dc565b60405180910390f35b3480156102a457600080fd5b506102bf60048036038101906102ba9190612652565b610dce565b005b3480156102cd57600080fd5b506102e860048036038101906102e39190612319565b610f06565b6040516102f9959493929190612728565b60405180910390f35b34801561030e57600080fd5b50610329600480360381019061032491906127ae565b611089565b005b34801561033757600080fd5b506103406110f1565b60405161034d91906125c1565b60405180910390f35b610370600480360381019061036b9190612829565b6110f6565b60405161037d91906125a6565b60405180910390f35b34801561039257600080fd5b506103ad60048036038101906103a8919061255e565b61144c565b005b3480156103bb57600080fd5b506103d660048036038101906103d1919061255e565b61157e565b005b3480156103e457600080fd5b506103ff60048036038101906103fa919061255e565b611604565b005b6000868686868660405160200161041c959493929190612987565b604051602081830303815290604052805190602001209050600360ff168560ff161461047d576040517f08c379a000000000000000000000000000000000000000000000000000000000815260040161047490612a3f565b60405180910390fd5b61049a8183600160000160019054906101000a900460ff1661172d565b600087876040516020016104af929190612a5f565b6040516020818303038152906040528051906020012090506000801b600660008381526020019081526020016000206000016000015414610525576040517f08c379a000000000000000000000000000000000000000000000000000000000815260040161051c90612ad7565b60405180910390fd5b60405180606001604052806040518060c00160405280848152602001600060ff1681526020018b81526020018a81526020018873ffffffffffffffffffffffffffffffffffffffff1681526020018781525081526020014381526020013373ffffffffffffffffffffffffffffffffffffffff16815250600660008381526020019081526020016000206000820151816000016000820151816000015560208201518160010160006101000a81548160ff021916908360ff160217905550604082015181600201556060820151816003015560808201518160040160006101000a81548173ffffffffffffffffffffffffffffffffffffffff021916908373ffffffffffffffffffffffffffffffffffffffff16021790555060a08201518160050190816106539190612d03565b5050506020820151816006015560408201518160070160006101000a81548173ffffffffffffffffffffffffffffffffffffffff021916908373ffffffffffffffffffffffffffffffffffffffff16021790555090505060008573ffffffffffffffffffffffffffffffffffffffff163b11610704576040517f08c379a00000000000000000000000000000000000000000000000000000000081526004016106fb90612e21565b60405180910390fd5b6000808673ffffffffffffffffffffffffffffffffffffffff168a87604051602401610731929190612e9a565b6040516020818303038152906040527f99189e44000000000000000000000000000000000000000000000000000000007bffffffffffffffffffffffffffffffffffffffffffffffffffffffff19166020820180517bffffffffffffffffffffffffffffffffffffffffffffffffffffffff83818316178352505050506040516107bb9190612eca565b6000604051808303816000865af19150503d80600081146107f8576040519150601f19603f3d011682016040523d82523d6000602084013e6107fd565b606091505b509150915081610856576000610812826119f0565b90507fc239aebd2a06afc574c2d68036bce2d5244b3c7e95dd5889f466a6947fa48eda60008c8a8a8560405161084c959493929190612f25565b60405180910390a1505b7f1915d13f149e2654a02a939345885f8654759bd3347d96fe012c6913df7f86b8836040516108859190612f86565b60405180910390a150505050505050505050565b6000801b6005600084815260200190815260200160002060000160000154036108f7576040517f08c379a00000000000000000000000000000000000000000000000000000000081526004016108ee90612fed565b60405180910390fd5b4360056000848152602001908152602001600020600701541015610950576040517f08c379a000000000000000000000000000000000000000000000000000000000815260040161094790613059565b60405180910390fd5b60006005600084815260200190815260200160002060000160010160009054906101000a900473ffffffffffffffffffffffffffffffffffffffff166005600085815260200190815260200160002060000160020154600560008681526020019081526020016000206000016004015460056000878152602001908152602001600020600001600501336040516020016109ee9594939291906130fc565b604051602081830303815290604052805190602001209050610a238183600160000160009054906101000a900460ff1661172d565b6005600084815260200190815260200160002060090160009054906101000a900473ffffffffffffffffffffffffffffffffffffffff1673ffffffffffffffffffffffffffffffffffffffff166108fc60056000868152602001908152602001600020600801549081150290604051600060405180830381858888f19350505050158015610ab5573d6000803e3d6000fd5b506005600084815260200190815260200160002060008082016000808201600090556001820160006101000a81549073ffffffffffffffffffffffffffffffffffffffff021916905560028201600090556003820160006101000a81549060ff02191690556004820160009055600582016000610b329190611e8e565b50506006820160009055600782016000905560088201600090556009820160006101000a81549073ffffffffffffffffffffffffffffffffffffffff021916905550507ffa39010b12e169f2d7e9a76e381216416dbf5eb59db117ae979592ee9f32388583604051610ba49190612f86565b60405180910390a1505050565b6006602052806000526040600020600091509050806000016040518060c0016040529081600082015481526020016001820160009054906101000a900460ff1660ff1660ff16815260200160028201548152602001600382015481526020016004820160009054906101000a900473ffffffffffffffffffffffffffffffffffffffff1673ffffffffffffffffffffffffffffffffffffffff1673ffffffffffffffffffffffffffffffffffffffff168152602001600582018054610c7590612b26565b80601f0160208091040260200160405190810160405280929190818152602001828054610ca190612b26565b8015610cee5780601f10610cc357610100808354040283529160200191610cee565b820191906000526020600020905b815481529060010190602001808311610cd157829003601f168201915b505050505081525050908060060154908060070160009054906101000a900473ffffffffffffffffffffffffffffffffffffffff16905083565b60075481565b610d36611a5b565b610d406000611ae2565b565b60018060000160009054906101000a900460ff16908060000160019054906101000a900460ff16908060010154908060020154908060030154905085565b60086020528060005260406000206000915054906101000a900460ff1681565b600081565b60008060009054906101000a900473ffffffffffffffffffffffffffffffffffffffff16905090565b610dd6611a5b565b60005b82829050811015610f01574360016003015460066000868686818110610e0257610e01613157565b5b90506020020135815260200190815260200160002060060154610e2591906131b5565b1015610ef45760066000848484818110610e4257610e41613157565b5b90506020020135815260200190815260200160002060008082016000808201600090556001820160006101000a81549060ff0219169055600282016000905560038201600090556004820160006101000a81549073ffffffffffffffffffffffffffffffffffffffff0219169055600582016000610ec09190611e8e565b505060068201600090556007820160006101000a81549073ffffffffffffffffffffffffffffffffffffffff021916905550505b8080600101915050610dd9565b505050565b6005602052806000526040600020600091509050806000016040518060c0016040529081600082015481526020016001820160009054906101000a900473ffffffffffffffffffffffffffffffffffffffff1673ffffffffffffffffffffffffffffffffffffffff1673ffffffffffffffffffffffffffffffffffffffff168152602001600282015481526020016003820160009054906101000a900460ff1660ff1660ff16815260200160048201548152602001600582018054610fca90612b26565b80601f0160208091040260200160405190810160405280929190818152602001828054610ff690612b26565b80156110435780601f1061101857610100808354040283529160200191611043565b820191906000526020600020905b81548152906001019060200180831161102657829003601f168201915b505050505081525050908060060154908060070154908060080154908060090160009054906101000a900473ffffffffffffffffffffffffffffffffffffffff16905085565b611091611a5b565b84600160000160006101000a81548160ff021916908360ff16021790555083600160000160016101000a81548160ff021916908360ff16021790555082600180018190555081600160020181905550806001600301819055505050505050565b600381565b6000600180015482101561113f576040517f08c379a000000000000000000000000000000000000000000000000000000000815260040161113690613235565b60405180910390fd5b600160020154821115611187576040517f08c379a000000000000000000000000000000000000000000000000000000000815260040161117e906132a1565b60405180910390fd5b6000338660405160200161119c9291906132c1565b604051602081830303815290604052805190602001209050600060056000838152602001908152602001600020600701541461122b574360056000838152602001908152602001600020600701541061122a576040517f08c379a000000000000000000000000000000000000000000000000000000000815260040161122190613339565b60405180910390fd5b5b6040518060a001604052806040518060c001604052808481526020013373ffffffffffffffffffffffffffffffffffffffff168152602001898152602001600060ff168152602001888152602001878152508152602001438152602001844361129491906131b5565b81526020013481526020013373ffffffffffffffffffffffffffffffffffffffff16815250600560008381526020019081526020016000206000820151816000016000820151816000015560208201518160010160006101000a81548173ffffffffffffffffffffffffffffffffffffffff021916908373ffffffffffffffffffffffffffffffffffffffff1602179055506040820151816002015560608201518160030160006101000a81548160ff021916908360ff1602179055506080820151816004015560a08201518160050190816113709190612d03565b50505060208201518160060155604082015181600701556060820151816008015560808201518160090160006101000a81548173ffffffffffffffffffffffffffffffffffffffff021916908373ffffffffffffffffffffffffffffffffffffffff160217905550905050600760008154809291906113ee90613359565b91905055507f164a225b23eeadc41f48acd565ef67a5f3c3496fa1ae34d1f974df6ce63fed6d600560008381526020019081526020016000206000016040516114379190613578565b60405180910390a16001915050949350505050565b611454611a5b565b600860008273ffffffffffffffffffffffffffffffffffffffff1673ffffffffffffffffffffffffffffffffffffffff16815260200190815260200160002060009054906101000a900460ff16156114e1576040517f08c379a00000000000000000000000000000000000000000000000000000000081526004016114d8906135e6565b60405180910390fd5b6001600860008373ffffffffffffffffffffffffffffffffffffffff1673ffffffffffffffffffffffffffffffffffffffff16815260200190815260200160002060006101000a81548160ff0219169083151502179055508073ffffffffffffffffffffffffffffffffffffffff167e47706786c922d17b39285dc59d696bafea72c0b003d3841ae1202076f4c2e460405160405180910390a250565b611586611a5b565b600073ffffffffffffffffffffffffffffffffffffffff168173ffffffffffffffffffffffffffffffffffffffff16036115f85760006040517f1e4fbdf70000000000000000000000000000000000000000000000000000000081526004016115ef91906125dc565b60405180910390fd5b61160181611ae2565b50565b61160c611a5b565b600860008273ffffffffffffffffffffffffffffffffffffffff1673ffffffffffffffffffffffffffffffffffffffff16815260200190815260200160002060009054906101000a900460ff16611698576040517f08c379a000000000000000000000000000000000000000000000000000000000815260040161168f90613652565b60405180910390fd5b600860008273ffffffffffffffffffffffffffffffffffffffff1673ffffffffffffffffffffffffffffffffffffffff16815260200190815260200160002060006101000a81549060ff02191690558073ffffffffffffffffffffffffffffffffffffffff167f9c8e7d83025bef8a04c664b2f753f64b8814bdb7e27291d7e50935f18cc3c71260405160405180910390a250565b8060ff1682511015611774576040517f08c379a000000000000000000000000000000000000000000000000000000000815260040161176b906136be565b60405180910390fd5b6000825167ffffffffffffffff81111561179157611790611fe7565b5b6040519080825280602002602001820160405280156117bf5781602001602082028036833780820191505090505b5090506000805b84518110156119a15760006117f5878784815181106117e8576117e7613157565b5b6020026020010151611ba6565b9050600860008273ffffffffffffffffffffffffffffffffffffffff1673ffffffffffffffffffffffffffffffffffffffff16815260200190815260200160002060009054906101000a900460ff16611883576040517f08c379a000000000000000000000000000000000000000000000000000000000815260040161187a9061372a565b60405180910390fd5b60005b83811015611923578173ffffffffffffffffffffffffffffffffffffffff168582815181106118b8576118b7613157565b5b602002602001015173ffffffffffffffffffffffffffffffffffffffff1603611916576040517f08c379a000000000000000000000000000000000000000000000000000000000815260040161190d90613796565b60405180910390fd5b8080600101915050611886565b508084848151811061193857611937613157565b5b602002602001019073ffffffffffffffffffffffffffffffffffffffff16908173ffffffffffffffffffffffffffffffffffffffff1681525050828061197d90613359565b9350508460ff16831061199357505050506119eb565b5080806001019150506117c6565b508260ff168110156119e8576040517f08c379a00000000000000000000000000000000000000000000000000000000081526004016119df90613828565b60405180910390fd5b50505b505050565b6060604482511015611a39576040518060400160405280600f81526020017f556e6b6e6f776e206661696c75726500000000000000000000000000000000008152509050611a56565b60048201915081806020019051810190611a5391906138e9565b90505b919050565b611a63611bd2565b73ffffffffffffffffffffffffffffffffffffffff16611a81610da5565b73ffffffffffffffffffffffffffffffffffffffff1614611ae057611aa4611bd2565b6040517f118cdaa7000000000000000000000000000000000000000000000000000000008152600401611ad791906125dc565b60405180910390fd5b565b60008060009054906101000a900473ffffffffffffffffffffffffffffffffffffffff169050816000806101000a81548173ffffffffffffffffffffffffffffffffffffffff021916908373ffffffffffffffffffffffffffffffffffffffff1602179055508173ffffffffffffffffffffffffffffffffffffffff168173ffffffffffffffffffffffffffffffffffffffff167f8be0079c531659141344cd1fd0a4f28419497f9722a3daafe3b4186f6b6457e060405160405180910390a35050565b600080600080611bb68686611bda565b925092509250611bc68282611c36565b82935050505092915050565b600033905090565b60008060006041845103611c1f5760008060006020870151925060408701519150606087015160001a9050611c1188828585611d9a565b955095509550505050611c2f565b60006002855160001b9250925092505b9250925092565b60006003811115611c4a57611c49613932565b5b826003811115611c5d57611c5c613932565b5b0315611d965760016003811115611c7757611c76613932565b5b826003811115611c8a57611c89613932565b5b03611cc1576040517ff645eedf00000000000000000000000000000000000000000000000000000000815260040160405180910390fd5b60026003811115611cd557611cd4613932565b5b826003811115611ce857611ce7613932565b5b03611d2d578060001c6040517ffce698f7000000000000000000000000000000000000000000000000000000008152600401611d2491906124e1565b60405180910390fd5b600380811115611d4057611d3f613932565b5b826003811115611d5357611d52613932565b5b03611d9557806040517fd78bce0c000000000000000000000000000000000000000000000000000000008152600401611d8c9190612f86565b60405180910390fd5b5b5050565b60008060007f7fffffffffffffffffffffffffffffff5d576e7357a4501ddfe92f46681b20a08460001c1115611dda576000600385925092509250611e84565b600060018888888860405160008152602001604052604051611dff9493929190613961565b6020604051602081039080840390855afa158015611e21573d6000803e3d6000fd5b505050602060405103519050600073ffffffffffffffffffffffffffffffffffffffff168173ffffffffffffffffffffffffffffffffffffffff1603611e7557600060016000801b93509350935050611e84565b8060008060001b935093509350505b9450945094915050565b508054611e9a90612b26565b6000825580601f10611eac5750611ecb565b601f016020900490600052602060002090810190611eca9190611ece565b5b50565b5b80821115611ee7576000816000905550600101611ecf565b5090565b6000604051905090565b600080fd5b600080fd5b6000819050919050565b611f1281611eff565b8114611f1d57600080fd5b50565b600081359050611f2f81611f09565b92915050565b600060ff82169050919050565b611f4b81611f35565b8114611f5657600080fd5b50565b600081359050611f6881611f42565b92915050565b600073ffffffffffffffffffffffffffffffffffffffff82169050919050565b6000611f9982611f6e565b9050919050565b611fa981611f8e565b8114611fb457600080fd5b50565b600081359050611fc681611fa0565b92915050565b600080fd5b600080fd5b6000601f19601f8301169050919050565b7f4e487b7100000000000000000000000000000000000000000000000000000000600052604160045260246000fd5b61201f82611fd6565b810181811067ffffffffffffffff8211171561203e5761203d611fe7565b5b80604052505050565b6000612051611eeb565b905061205d8282612016565b919050565b600067ffffffffffffffff82111561207d5761207c611fe7565b5b61208682611fd6565b9050602081019050919050565b82818337600083830152505050565b60006120b56120b084612062565b612047565b9050828152602081018484840111156120d1576120d0611fd1565b5b6120dc848285612093565b509392505050565b600082601f8301126120f9576120f8611fcc565b5b81356121098482602086016120a2565b91505092915050565b600067ffffffffffffffff82111561212d5761212c611fe7565b5b602082029050602081019050919050565b600080fd5b600061215661215184612112565b612047565b905080838252602082019050602084028301858111156121795761217861213e565b5b835b818110156121c057803567ffffffffffffffff81111561219e5761219d611fcc565b5b8086016121ab89826120e4565b8552602085019450505060208101905061217b565b5050509392505050565b600082601f8301126121df576121de611fcc565b5b81356121ef848260208601612143565b91505092915050565b60008060008060008060c0878903121561221557612214611ef5565b5b600061222389828a01611f20565b965050602061223489828a01611f20565b955050604061224589828a01611f59565b945050606061225689828a01611fb7565b935050608087013567ffffffffffffffff81111561227757612276611efa565b5b61228389828a016120e4565b92505060a087013567ffffffffffffffff8111156122a4576122a3611efa565b5b6122b089828a016121ca565b9150509295509295509295565b600080604083850312156122d4576122d3611ef5565b5b60006122e285828601611f20565b925050602083013567ffffffffffffffff81111561230357612302611efa565b5b61230f858286016121ca565b9150509250929050565b60006020828403121561232f5761232e611ef5565b5b600061233d84828501611f20565b91505092915050565b61234f81611eff565b82525050565b61235e81611f35565b82525050565b61236d81611f8e565b82525050565b600081519050919050565b600082825260208201905092915050565b60005b838110156123ad578082015181840152602081019050612392565b60008484015250505050565b60006123c482612373565b6123ce818561237e565b93506123de81856020860161238f565b6123e781611fd6565b840191505092915050565b600060c08301600083015161240a6000860182612346565b50602083015161241d6020860182612355565b5060408301516124306040860182612346565b5060608301516124436060860182612346565b5060808301516124566080860182612364565b5060a083015184820360a086015261246e82826123b9565b9150508091505092915050565b6000819050919050565b61248e8161247b565b82525050565b61249d81611f8e565b82525050565b600060608201905081810360008301526124bd81866123f2565b90506124cc6020830185612485565b6124d96040830184612494565b949350505050565b60006020820190506124f66000830184612485565b92915050565b61250581611f35565b82525050565b600060a08201905061252060008301886124fc565b61252d60208301876124fc565b61253a6040830186612485565b6125476060830185612485565b6125546080830184612485565b9695505050505050565b60006020828403121561257457612573611ef5565b5b600061258284828501611fb7565b91505092915050565b60008115159050919050565b6125a08161258b565b82525050565b60006020820190506125bb6000830184612597565b92915050565b60006020820190506125d660008301846124fc565b92915050565b60006020820190506125f16000830184612494565b92915050565b600080fd5b60008083601f84011261261257612611611fcc565b5b8235905067ffffffffffffffff81111561262f5761262e6125f7565b5b60208301915083602082028301111561264b5761264a61213e565b5b9250929050565b6000806020838503121561266957612668611ef5565b5b600083013567ffffffffffffffff81111561268757612686611efa565b5b612693858286016125fc565b92509250509250929050565b600060c0830160008301516126b76000860182612346565b5060208301516126ca6020860182612364565b5060408301516126dd6040860182612346565b5060608301516126f06060860182612355565b5060808301516127036080860182612346565b5060a083015184820360a086015261271b82826123b9565b9150508091505092915050565b600060a0820190508181036000830152612742818861269f565b90506127516020830187612485565b61275e6040830186612485565b61276b6060830185612485565b6127786080830184612494565b9695505050505050565b61278b8161247b565b811461279657600080fd5b50565b6000813590506127a881612782565b92915050565b600080600080600060a086880312156127ca576127c9611ef5565b5b60006127d888828901611f59565b95505060206127e988828901611f59565b94505060406127fa88828901612799565b935050606061280b88828901612799565b925050608061281c88828901612799565b9150509295509295909350565b6000806000806080858703121561284357612842611ef5565b5b600061285187828801611f20565b945050602061286287828801611f20565b935050604085013567ffffffffffffffff81111561288357612882611efa565b5b61288f878288016120e4565b92505060606128a087828801612799565b91505092959194509250565b6000819050919050565b6128c76128c282611eff565b6128ac565b82525050565b60008160f81b9050919050565b60006128e5826128cd565b9050919050565b6128fd6128f882611f35565b6128da565b82525050565b60008160601b9050919050565b600061291b82612903565b9050919050565b600061292d82612910565b9050919050565b61294561294082611f8e565b612922565b82525050565b600081905092915050565b600061296182612373565b61296b818561294b565b935061297b81856020860161238f565b80840191505092915050565b600061299382886128b6565b6020820191506129a382876128b6565b6020820191506129b382866128ec565b6001820191506129c38285612934565b6014820191506129d38284612956565b91508190509695505050505050565b600082825260208201905092915050565b7f4d65737361676520726563697069656e74496e64657820696e76616c69640000600082015250565b6000612a29601e836129e2565b9150612a34826129f3565b602082019050919050565b60006020820190508181036000830152612a5881612a1c565b9050919050565b6000612a6b82856128b6565b602082019150612a7b82846128b6565b6020820191508190509392505050565b7f4d65737361676520616c72656164792072656365697665640000000000000000600082015250565b6000612ac16018836129e2565b9150612acc82612a8b565b602082019050919050565b60006020820190508181036000830152612af081612ab4565b9050919050565b7f4e487b7100000000000000000000000000000000000000000000000000000000600052602260045260246000fd5b60006002820490506001821680612b3e57607f821691505b602082108103612b5157612b50612af7565b5b50919050565b60008190508160005260206000209050919050565b60006020601f8301049050919050565b600082821b905092915050565b600060088302612bb97fffffffffffffffffffffffffffffffffffffffffffffffffffffffffffffffff82612b7c565b612bc38683612b7c565b95508019841693508086168417925050509392505050565b6000819050919050565b6000612c00612bfb612bf68461247b565b612bdb565b61247b565b9050919050565b6000819050919050565b612c1a83612be5565b612c2e612c2682612c07565b848454612b89565b825550505050565b600090565b612c43612c36565b612c4e818484612c11565b505050565b5b81811015612c7257612c67600082612c3b565b600181019050612c54565b5050565b601f821115612cb757612c8881612b57565b612c9184612b6c565b81016020851015612ca0578190505b612cb4612cac85612b6c565b830182612c53565b50505b505050565b600082821c905092915050565b6000612cda60001984600802612cbc565b1980831691505092915050565b6000612cf38383612cc9565b9150826002028217905092915050565b612d0c82612373565b67ffffffffffffffff811115612d2557612d24611fe7565b5b612d2f8254612b26565b612d3a828285612c76565b600060209050601f831160018114612d6d5760008415612d5b578287015190505b612d658582612ce7565b865550612dcd565b601f198416612d7b86612b57565b60005b82811015612da357848901518255600182019150602085019450602081019050612d7e565b86831015612dc05784890151612dbc601f891682612cc9565b8355505b6001600288020188555050505b505050505050565b7f526563697069656e74206973206e6f74206120636f6e74726163740000000000600082015250565b6000612e0b601b836129e2565b9150612e1682612dd5565b602082019050919050565b60006020820190508181036000830152612e3a81612dfe565b9050919050565b612e4a81611eff565b82525050565b600082825260208201905092915050565b6000612e6c82612373565b612e768185612e50565b9350612e8681856020860161238f565b612e8f81611fd6565b840191505092915050565b6000604082019050612eaf6000830185612e41565b8181036020830152612ec18184612e61565b90509392505050565b6000612ed68284612956565b915081905092915050565b600081519050919050565b6000612ef782612ee1565b612f0181856129e2565b9350612f1181856020860161238f565b612f1a81611fd6565b840191505092915050565b600060a082019050612f3a60008301886124fc565b612f476020830187612e41565b612f546040830186612494565b8181036060830152612f668185612e61565b90508181036080830152612f7a8184612eec565b90509695505050505050565b6000602082019050612f9b6000830184612e41565b92915050565b7f4d657373616765206e6f7420666f756e64000000000000000000000000000000600082015250565b6000612fd76011836129e2565b9150612fe282612fa1565b602082019050919050565b6000602082019050818103600083015261300681612fca565b9050919050565b7f44656c697665727920636f6e6669726d6174696f6e206f766572647565000000600082015250565b6000613043601d836129e2565b915061304e8261300d565b602082019050919050565b6000602082019050818103600083015261307281613036565b9050919050565b6000815461308681612b26565b613090818661294b565b945060018216600081146130ab57600181146130c0576130f3565b60ff19831686528115158202860193506130f3565b6130c985612b57565b60005b838110156130eb578154818901526001820191506020810190506130cc565b838801955050505b50505092915050565b60006131088288612934565b60148201915061311882876128b6565b60208201915061312882866128b6565b6020820191506131388285613079565b91506131448284612934565b6014820191508190509695505050505050565b7f4e487b7100000000000000000000000000000000000000000000000000000000600052603260045260246000fd5b7f4e487b7100000000000000000000000000000000000000000000000000000000600052601160045260246000fd5b60006131c08261247b565b91506131cb8361247b565b92508282019050808211156131e3576131e2613186565b5b92915050565b7f54544c20746f6f20736d616c6c00000000000000000000000000000000000000600082015250565b600061321f600d836129e2565b915061322a826131e9565b602082019050919050565b6000602082019050818103600083015261324e81613212565b9050919050565b7f54544c20746f6f206c6172676500000000000000000000000000000000000000600082015250565b600061328b600d836129e2565b915061329682613255565b602082019050919050565b600060208201905081810360008301526132ba8161327e565b9050919050565b60006132cd8285612934565b6014820191506132dd82846128b6565b6020820191508190509392505050565b7f4d65737361676520776974682073616d65206e6f6e63652070656e64696e6700600082015250565b6000613323601f836129e2565b915061332e826132ed565b602082019050919050565b6000602082019050818103600083015261335281613316565b9050919050565b60006133648261247b565b91507fffffffffffffffffffffffffffffffffffffffffffffffffffffffffffffffff820361339657613395613186565b5b600182019050919050565b60008160001c9050919050565b6000819050919050565b60006133cb6133c6836133a1565b6133ae565b9050919050565b600073ffffffffffffffffffffffffffffffffffffffff82169050919050565b6000613405613400836133a1565b6133d2565b9050919050565b600060ff82169050919050565b600061342c613427836133a1565b61340c565b9050919050565b6000815461344081612b26565b61344a818661237e565b94506001821660008114613465576001811461347b576134ae565b60ff1983168652811515602002860193506134ae565b61348485612b57565b60005b838110156134a657815481890152600182019150602081019050613487565b808801955050505b50505092915050565b600060c0830160008084015490506134ce816133b8565b6134db6000870182612346565b50600184015490506134ec816133f2565b6134f96020870182612364565b506002840154905061350a816133b8565b6135176040870182612346565b506003840154905061352881613419565b6135356060870182612355565b5060048401549050613546816133b8565b6135536080870182612346565b506005840185830360a087015261356a8382613433565b925050819250505092915050565b6000602082019050818103600083015261359281846134b7565b905092915050565b7f4f7261636c6520616c7265616479206164646564000000000000000000000000600082015250565b60006135d06014836129e2565b91506135db8261359a565b602082019050919050565b600060208201905081810360008301526135ff816135c3565b9050919050565b7f4f7261636c65206e6f7420666f756e6400000000000000000000000000000000600082015250565b600061363c6010836129e2565b915061364782613606565b602082019050919050565b6000602082019050818103600083015261366b8161362f565b9050919050565b7f4e6f7420656e6f756768207369676e6174757265730000000000000000000000600082015250565b60006136a86015836129e2565b91506136b382613672565b602082019050919050565b600060208201905081810360008301526136d78161369b565b9050919050565b7f496e76616c6964207369676e6174757265000000000000000000000000000000600082015250565b60006137146011836129e2565b915061371f826136de565b602082019050919050565b6000602082019050818103600083015261374381613707565b9050919050565b7f4475706c6963617465207369676e617475726520646574656374656400000000600082015250565b6000613780601c836129e2565b915061378b8261374a565b602082019050919050565b600060208201905081810360008301526137af81613773565b9050919050565b7f4e6f7420656e6f75676820756e697175652076616c6964207369676e6174757260008201527f6573000000000000000000000000000000000000000000000000000000000000602082015250565b60006138126022836129e2565b915061381d826137b6565b604082019050919050565b6000602082019050818103600083015261384181613805565b9050919050565b600067ffffffffffffffff82111561386357613862611fe7565b5b61386c82611fd6565b9050602081019050919050565b600061388c61388784613848565b612047565b9050828152602081018484840111156138a8576138a7611fd1565b5b6138b384828561238f565b509392505050565b600082601f8301126138d0576138cf611fcc565b5b81516138e0848260208601613879565b91505092915050565b6000602082840312156138ff576138fe611ef5565b5b600082015167ffffffffffffffff81111561391d5761391c611efa565b5b613929848285016138bb565b91505092915050565b7f4e487b7100000000000000000000000000000000000000000000000000000000600052602160045260246000fd5b60006080820190506139766000830187612e41565b61398360208301866124fc565b6139906040830185612e41565b61399d6060830184612e41565b9594505050505056fea26469706673582212205e9173f244ef94b6a38601b245b8786474a74cf9e1bc8b030e3c09d18e55d96964736f6c634300081c0033",
  "linkReferences": {},
  "deployedLinkReferences": {}
}