{
  "_format": "hh-sol-artifact-1",
  "contractName": "AcurastToken",
  "sourceName": "contracts/acu.sol",
  "abi": [
    {
      "inputs": [
        {
          "internalType": "address",
          "name": "_ibcContract",
          "type": "address"
        },
        {
          "internalType": "bytes32",
          "name": "_tokenPalletAccount",
          "type": "bytes32"
        }
      ],
      "stateMutability": "nonpayable",
      "type": "constructor"
    },
    {
      "inputs": [
        {
          "internalType": "address",
          "name": "spender",
          "type": "address"
        },
        {
          "internalType": "uint256",
          "name": "allowance",
          "type": "uint256"
        },
        {
          "internalType": "uint256",
          "name": "needed",
          "type": "uint256"
        }
      ],
      "name": "ERC20InsufficientAllowance",
      "type": "error"
    },
    {
      "inputs": [
        {
          "internalType": "address",
          "name": "sender",
          "type": "address"
        },
        {
          "internalType": "uint256",
          "name": "balance",
          "type": "uint256"
        },
        {
          "internalType": "uint256",
          "name": "needed",
          "type": "uint256"
        }
      ],
      "name": "ERC20InsufficientBalance",
      "type": "error"
    },
    {
      "inputs": [
        {
          "internalType": "address",
          "name": "approver",
          "type": "address"
        }
      ],
      "name": "ERC20InvalidApprover",
      "type": "error"
    },
    {
      "inputs": [
        {
          "internalType": "address",
          "name": "receiver",
          "type": "address"
        }
      ],
      "name": "ERC20InvalidReceiver",
      "type": "error"
    },
    {
      "inputs": [
        {
          "internalType": "address",
          "name": "sender",
          "type": "address"
        }
      ],
      "name": "ERC20InvalidSender",
      "type": "error"
    },
    {
      "inputs": [
        {
          "internalType": "address",
          "name": "spender",
          "type": "address"
        }
      ],
      "name": "ERC20InvalidSpender",
      "type": "error"
    },
    {
      "inputs": [
        {
          "internalType": "address",
          "name": "owner",
          "type": "address"
        }
      ],
      "name": "OwnableInvalidOwner",
      "type": "error"
    },
    {
      "inputs": [
        {
          "internalType": "address",
          "name": "account",
          "type": "address"
        }
      ],
      "name": "OwnableUnauthorizedAccount",
      "type": "error"
    },
    {
      "anonymous": false,
      "inputs": [
        {
          "indexed": true,
          "internalType": "address",
          "name": "owner",
          "type": "address"
        },
        {
          "indexed": true,
          "internalType": "address",
          "name": "spender",
          "type": "address"
        },
        {
          "indexed": false,
          "internalType": "uint256",
          "name": "value",
          "type": "uint256"
        }
      ],
      "name": "Approval",
      "type": "event"
    },
    {
      "anonymous": false,
      "inputs": [
        {
          "indexed": true,
          "internalType": "address",
          "name": "oldAddress",
          "type": "address"
        },
        {
          "indexed": true,
          "internalType": "address",
          "name": "newAddress",
          "type": "address"
        }
      ],
      "name": "IbcContractUpdated",
      "type": "event"
    },
    {
      "anonymous": false,
      "inputs": [
        {
          "indexed": true,
          "internalType": "uint256",
          "name": "oldTTL",
          "type": "uint256"
        },
        {
          "indexed": true,
          "internalType": "uint256",
          "name": "newTTL",
          "type": "uint256"
        }
      ],
      "name": "OutgoingTTLUpdated",
      "type": "event"
    },
    {
      "anonymous": false,
      "inputs": [
        {
          "indexed": true,
          "internalType": "address",
          "name": "previousOwner",
          "type": "address"
        },
        {
          "indexed": true,
          "internalType": "address",
          "name": "newOwner",
          "type": "address"
        }
      ],
      "name": "OwnershipTransferred",
      "type": "event"
    },
    {
      "anonymous": false,
      "inputs": [
        {
          "indexed": true,
          "internalType": "bytes32",
          "name": "oldAddress",
          "type": "bytes32"
        },
        {
          "indexed": true,
          "internalType": "bytes32",
          "name": "newAddress",
          "type": "bytes32"
        }
      ],
      "name": "TokenPalletAccountUpdated",
      "type": "event"
    },
    {
      "anonymous": false,
      "inputs": [
        {
          "indexed": true,
          "internalType": "address",
          "name": "from",
          "type": "address"
        },
        {
          "indexed": true,
          "internalType": "address",
          "name": "to",
          "type": "address"
        },
        {
          "indexed": false,
          "internalType": "uint256",
          "name": "value",
          "type": "uint256"
        }
      ],
      "name": "Transfer",
      "type": "event"
    },
    {
      "anonymous": false,
      "inputs": [
        {
          "indexed": false,
          "internalType": "uint256",
          "name": "amount",
          "type": "uint256"
        },
        {
          "indexed": true,
          "internalType": "address",
          "name": "dest",
          "type": "address"
        },
        {
          "indexed": false,
          "internalType": "uint32",
          "name": "transferNonce",
          "type": "uint32"
        }
      ],
      "name": "TransferReceived",
      "type": "event"
    },
    {
      "anonymous": false,
      "inputs": [
        {
          "indexed": false,
          "internalType": "uint128",
          "name": "amount",
          "type": "uint128"
        },
        {
          "indexed": false,
          "internalType": "uint256",
          "name": "fee",
          "type": "uint256"
        },
        {
          "indexed": true,
          "internalType": "bytes32",
          "name": "dest",
          "type": "bytes32"
        },
        {
          "indexed": false,
          "internalType": "uint32",
          "name": "transferNonce",
          "type": "uint32"
        }
      ],
      "name": "TransferRetried",
      "type": "event"
    },
    {
      "anonymous": false,
      "inputs": [
        {
          "indexed": false,
          "internalType": "uint128",
          "name": "amount",
          "type": "uint128"
        },
        {
          "indexed": false,
          "internalType": "uint256",
          "name": "fee",
          "type": "uint256"
        },
        {
          "indexed": true,
          "internalType": "bytes32",
          "name": "dest",
          "type": "bytes32"
        },
        {
          "indexed": false,
          "internalType": "uint32",
          "name": "transferNonce",
          "type": "uint32"
        }
      ],
      "name": "TransferSent",
      "type": "event"
    },
    {
      "inputs": [
        {
          "internalType": "address",
          "name": "owner",
          "type": "address"
        },
        {
          "internalType": "address",
          "name": "spender",
          "type": "address"
        }
      ],
      "name": "allowance",
      "outputs": [
        {
          "internalType": "uint256",
          "name": "",
          "type": "uint256"
        }
      ],
      "stateMutability": "view",
      "type": "function"
    },
    {
      "inputs": [
        {
          "internalType": "address",
          "name": "spender",
          "type": "address"
        },
        {
          "internalType": "uint256",
          "name": "value",
          "type": "uint256"
        }
      ],
      "name": "approve",
      "outputs": [
        {
          "internalType": "bool",
          "name": "",
          "type": "bool"
        }
      ],
      "stateMutability": "nonpayable",
      "type": "function"
    },
    {
      "inputs": [
        {
          "internalType": "address",
          "name": "account",
          "type": "address"
        }
      ],
      "name": "balanceOf",
      "outputs": [
        {
          "internalType": "uint256",
          "name": "",
          "type": "uint256"
        }
      ],
      "stateMutability": "view",
      "type": "function"
    },
    {
      "inputs": [],
      "name": "decimals",
      "outputs": [
        {
          "internalType": "uint8",
          "name": "",
          "type": "uint8"
        }
      ],
      "stateMutability": "view",
      "type": "function"
    },
    {
      "inputs": [],
      "name": "ibcContract",
      "outputs": [
        {
          "internalType": "address",
          "name": "",
          "type": "address"
        }
      ],
      "stateMutability": "view",
      "type": "function"
    },
    {
      "inputs": [
        {
          "internalType": "uint32",
          "name": "",
          "type": "uint32"
        }
      ],
      "name": "incomingTransferNonces",
      "outputs": [
        {
          "internalType": "bool",
          "name": "",
          "type": "bool"
        }
      ],
      "stateMutability": "view",
      "type": "function"
    },
    {
      "inputs": [],
      "name": "name",
      "outputs": [
        {
          "internalType": "string",
          "name": "",
          "type": "string"
        }
      ],
      "stateMutability": "view",
      "type": "function"
    },
    {
      "inputs": [],
      "name": "nextTransferNonce",
      "outputs": [
        {
          "internalType": "uint32",
          "name": "",
          "type": "uint32"
        }
      ],
      "stateMutability": "view",
      "type": "function"
    },
    {
      "inputs": [],
      "name": "outgoingTTL",
      "outputs": [
        {
          "internalType": "uint256",
          "name": "",
          "type": "uint256"
        }
      ],
      "stateMutability": "view",
      "type": "function"
    },
    {
      "inputs": [
        {
          "internalType": "uint32",
          "name": "",
          "type": "uint32"
        }
      ],
      "name": "outgoingTransfers",
      "outputs": [
        {
          "internalType": "address",
          "name": "sender",
          "type": "address"
        },
        {
          "internalType": "uint128",
          "name": "amount",
          "type": "uint128"
        },
        {
          "internalType": "bytes32",
          "name": "dest",
          "type": "bytes32"
        }
      ],
      "stateMutability": "view",
      "type": "function"
    },
    {
      "inputs": [],
      "name": "owner",
      "outputs": [
        {
          "internalType": "address",
          "name": "",
          "type": "address"
        }
      ],
      "stateMutability": "view",
      "type": "function"
    },
    {
      "inputs": [
        {
          "internalType": "bytes32",
          "name": "sender",
          "type": "bytes32"
        },
        {
          "internalType": "bytes",
          "name": "payload",
          "type": "bytes"
        }
      ],
      "name": "processMessage",
      "outputs": [],
      "stateMutability": "nonpayable",
      "type": "function"
    },
    {
      "inputs": [],
      "name": "renounceOwnership",
      "outputs": [],
      "stateMutability": "nonpayable",
      "type": "function"
    },
    {
      "inputs": [
        {
          "internalType": "uint32",
          "name": "transferNonce",
          "type": "uint32"
        }
      ],
      "name": "retryTransferNative",
      "outputs": [],
      "stateMutability": "payable",
      "type": "function"
    },
    {
      "inputs": [
        {
          "internalType": "uint256",
          "name": "_outgoingTTL",
          "type": "uint256"
        }
      ],
      "name": "setOutgoingTTL",
      "outputs": [],
      "stateMutability": "nonpayable",
      "type": "function"
    },
    {
      "inputs": [],
      "name": "symbol",
      "outputs": [
        {
          "internalType": "string",
          "name": "",
          "type": "string"
        }
      ],
      "stateMutability": "view",
      "type": "function"
    },
    {
      "inputs": [],
      "name": "tokenPalletAccount",
      "outputs": [
        {
          "internalType": "bytes32",
          "name": "",
          "type": "bytes32"
        }
      ],
      "stateMutability": "view",
      "type": "function"
    },
    {
      "inputs": [],
      "name": "totalSupply",
      "outputs": [
        {
          "internalType": "uint256",
          "name": "",
          "type": "uint256"
        }
      ],
      "stateMutability": "view",
      "type": "function"
    },
    {
      "inputs": [
        {
          "internalType": "address",
          "name": "to",
          "type": "address"
        },
        {
          "internalType": "uint256",
          "name": "value",
          "type": "uint256"
        }
      ],
      "name": "transfer",
      "outputs": [
        {
          "internalType": "bool",
          "name": "",
          "type": "bool"
        }
      ],
      "stateMutability": "nonpayable",
      "type": "function"
    },
    {
      "inputs": [
        {
          "internalType": "address",
          "name": "from",
          "type": "address"
        },
        {
          "internalType": "address",
          "name": "to",
          "type": "address"
        },
        {
          "internalType": "uint256",
          "name": "value",
          "type": "uint256"
        }
      ],
      "name": "transferFrom",
      "outputs": [
        {
          "internalType": "bool",
          "name": "",
          "type": "bool"
        }
      ],
      "stateMutability": "nonpayable",
      "type": "function"
    },
    {
      "inputs": [
        {
          "internalType": "uint128",
          "name": "amount",
          "type": "uint128"
        },
        {
          "internalType": "bytes32",
          "name": "dest",
          "type": "bytes32"
        }
      ],
      "name": "transferNative",
      "outputs": [],
      "stateMutability": "payable",
      "type": "function"
    },
    {
      "inputs": [
        {
          "internalType": "address",
          "name": "newOwner",
          "type": "address"
        }
      ],
      "name": "transferOwnership",
      "outputs": [],
      "stateMutability": "nonpayable",
      "type": "function"
    },
    {
      "inputs": [
        {
          "internalType": "address",
          "name": "_ibcContract",
          "type": "address"
        }
      ],
      "name": "updateIbcContract",
      "outputs": [],
      "stateMutability": "nonpayable",
      "type": "function"
    },
    {
      "inputs": [
        {
          "internalType": "bytes32",
          "name": "_tokenPalletAccount",
          "type": "bytes32"
        }
      ],
      "name": "updateTokenPalletAccount",
      "outputs": [],
      "stateMutability": "nonpayable",
      "type": "function"
    }
  ],
  "bytecode": "0x608060405234801561001057600080fd5b50604051613e6d380380613e6d83398181016040528101906100329190610653565b336040518060400160405280600781526020017f41637572617374000000000000000000000000000000000000000000000000008152506040518060400160405280600381526020017f414355000000000000000000000000000000000000000000000000000000000081525081600390816100ae91906108e3565b5080600490816100be91906108e3565b505050600073ffffffffffffffffffffffffffffffffffffffff168173ffffffffffffffffffffffffffffffffffffffff16036101335760006040517f1e4fbdf700000000000000000000000000000000000000000000000000000000815260040161012a91906109c4565b60405180910390fd5b6101428161023e60201b60201c565b50600073ffffffffffffffffffffffffffffffffffffffff168273ffffffffffffffffffffffffffffffffffffffff16036101b2576040517f08c379a00000000000000000000000000000000000000000000000000000000081526004016101a990610a3c565b60405180910390fd5b81600660006101000a81548173ffffffffffffffffffffffffffffffffffffffff021916908373ffffffffffffffffffffffffffffffffffffffff1602179055508060078190555060326008819055506102373361021461030460201b60201c565b600a6102209190610bcb565b606461022c9190610c16565b61030d60201b60201c565b5050610ced565b6000600560009054906101000a900473ffffffffffffffffffffffffffffffffffffffff16905081600560006101000a81548173ffffffffffffffffffffffffffffffffffffffff021916908373ffffffffffffffffffffffffffffffffffffffff1602179055508173ffffffffffffffffffffffffffffffffffffffff168173ffffffffffffffffffffffffffffffffffffffff167f8be0079c531659141344cd1fd0a4f28419497f9722a3daafe3b4186f6b6457e060405160405180910390a35050565b6000600c905090565b600073ffffffffffffffffffffffffffffffffffffffff168273ffffffffffffffffffffffffffffffffffffffff160361037f5760006040517fec442f0500000000000000000000000000000000000000000000000000000000815260040161037691906109c4565b60405180910390fd5b6103916000838361039560201b60201c565b5050565b600073ffffffffffffffffffffffffffffffffffffffff168373ffffffffffffffffffffffffffffffffffffffff16036103e75780600260008282546103db9190610c58565b925050819055506104ba565b60008060008573ffffffffffffffffffffffffffffffffffffffff1673ffffffffffffffffffffffffffffffffffffffff16815260200190815260200160002054905081811015610473578381836040517fe450d38c00000000000000000000000000000000000000000000000000000000815260040161046a93929190610c9b565b60405180910390fd5b8181036000808673ffffffffffffffffffffffffffffffffffffffff1673ffffffffffffffffffffffffffffffffffffffff16815260200190815260200160002081905550505b600073ffffffffffffffffffffffffffffffffffffffff168273ffffffffffffffffffffffffffffffffffffffff16036105035780600260008282540392505081905550610550565b806000808473ffffffffffffffffffffffffffffffffffffffff1673ffffffffffffffffffffffffffffffffffffffff168152602001908152602001600020600082825401925050819055505b8173ffffffffffffffffffffffffffffffffffffffff168373ffffffffffffffffffffffffffffffffffffffff167fddf252ad1be2c89b69c2b068fc378daa952ba7f163c4a11628f55a4df523b3ef836040516105ad9190610cd2565b60405180910390a3505050565b600080fd5b600073ffffffffffffffffffffffffffffffffffffffff82169050919050565b60006105ea826105bf565b9050919050565b6105fa816105df565b811461060557600080fd5b50565b600081519050610617816105f1565b92915050565b6000819050919050565b6106308161061d565b811461063b57600080fd5b50565b60008151905061064d81610627565b92915050565b6000806040838503121561066a576106696105ba565b5b600061067885828601610608565b92505060206106898582860161063e565b9150509250929050565b600081519050919050565b7f4e487b7100000000000000000000000000000000000000000000000000000000600052604160045260246000fd5b7f4e487b7100000000000000000000000000000000000000000000000000000000600052602260045260246000fd5b6000600282049050600182168061071457607f821691505b602082108103610727576107266106cd565b5b50919050565b60008190508160005260206000209050919050565b60006020601f8301049050919050565b600082821b905092915050565b60006008830261078f7fffffffffffffffffffffffffffffffffffffffffffffffffffffffffffffffff82610752565b6107998683610752565b95508019841693508086168417925050509392505050565b6000819050919050565b6000819050919050565b60006107e06107db6107d6846107b1565b6107bb565b6107b1565b9050919050565b6000819050919050565b6107fa836107c5565b61080e610806826107e7565b84845461075f565b825550505050565b600090565b610823610816565b61082e8184846107f1565b505050565b5b818110156108525761084760008261081b565b600181019050610834565b5050565b601f821115610897576108688161072d565b61087184610742565b81016020851015610880578190505b61089461088c85610742565b830182610833565b50505b505050565b600082821c905092915050565b60006108ba6000198460080261089c565b1980831691505092915050565b60006108d383836108a9565b9150826002028217905092915050565b6108ec82610693565b67ffffffffffffffff8111156109055761090461069e565b5b61090f82546106fc565b61091a828285610856565b600060209050601f83116001811461094d576000841561093b578287015190505b61094585826108c7565b8655506109ad565b601f19841661095b8661072d565b60005b828110156109835784890151825560018201915060208501945060208101905061095e565b868310156109a0578489015161099c601f8916826108a9565b8355505b6001600288020188555050505b505050505050565b6109be816105df565b82525050565b60006020820190506109d960008301846109b5565b92915050565b600082825260208201905092915050565b7f496e76616c69642049424320636f6e7472616374206164647265737300000000600082015250565b6000610a26601c836109df565b9150610a31826109f0565b602082019050919050565b60006020820190508181036000830152610a5581610a19565b9050919050565b7f4e487b7100000000000000000000000000000000000000000000000000000000600052601160045260246000fd5b60008160011c9050919050565b6000808291508390505b6001851115610ae257808604811115610abe57610abd610a5c565b5b6001851615610acd5780820291505b8081029050610adb85610a8b565b9450610aa2565b94509492505050565b600082610afb5760019050610bb7565b81610b095760009050610bb7565b8160018114610b1f5760028114610b2957610b58565b6001915050610bb7565b60ff841115610b3b57610b3a610a5c565b5b8360020a915084821115610b5257610b51610a5c565b5b50610bb7565b5060208310610133831016604e8410600b8410161715610b8d5782820a905083811115610b8857610b87610a5c565b5b610bb7565b610b9a8484846001610a98565b92509050818404811115610bb157610bb0610a5c565b5b81810290505b9392505050565b600060ff82169050919050565b6000610bd6826107b1565b9150610be183610bbe565b9250610c0e7fffffffffffffffffffffffffffffffffffffffffffffffffffffffffffffffff8484610aeb565b905092915050565b6000610c21826107b1565b9150610c2c836107b1565b9250828202610c3a816107b1565b91508282048414831517610c5157610c50610a5c565b5b5092915050565b6000610c63826107b1565b9150610c6e836107b1565b9250828201905080821115610c8657610c85610a5c565b5b92915050565b610c95816107b1565b82525050565b6000606082019050610cb060008301866109b5565b610cbd6020830185610c8c565b610cca6040830184610c8c565b949350505050565b6000602082019050610ce76000830184610c8c565b92915050565b61317180610cfc6000396000f3fe60806040526004361061014b5760003560e01c8063715018a6116100b6578063a9059cbb1161006f578063a9059cbb14610466578063c235ffae146104a3578063d318ed47146104ce578063dd62ed3e146104f7578063eb250d1e14610534578063f2fde38b146105735761014b565b8063715018a61461038b57806382dee11f146103a25780638da5cb5b146103cb57806395d89b41146103f657806399189e4414610421578063a8e99e8a1461044a5761014b565b8063313ce56711610108578063313ce567146102765780633a66cef6146102a157806348c45526146102cc57806367f81fc01461030957806370638ce51461033257806370a082311461034e5761014b565b806306fdde0314610150578063095ea7b31461017b57806318160ddd146101b857806322beeba3146101e357806323b872dd1461020e578063280884041461024b575b600080fd5b34801561015c57600080fd5b5061016561059c565b6040516101729190611fc1565b60405180910390f35b34801561018757600080fd5b506101a2600480360381019061019d919061208b565b61062e565b6040516101af91906120e6565b60405180910390f35b3480156101c457600080fd5b506101cd610651565b6040516101da9190612110565b60405180910390f35b3480156101ef57600080fd5b506101f861065b565b6040516102059190612144565b60405180910390f35b34801561021a57600080fd5b506102356004803603810190610230919061215f565b610661565b60405161024291906120e6565b60405180910390f35b34801561025757600080fd5b50610260610690565b60405161026d91906121d1565b60405180910390f35b34801561028257600080fd5b5061028b6106a6565b6040516102989190612208565b60405180910390f35b3480156102ad57600080fd5b506102b66106af565b6040516102c39190612110565b60405180910390f35b3480156102d857600080fd5b506102f360048036038101906102ee919061224f565b6106b5565b60405161030091906120e6565b60405180910390f35b34801561031557600080fd5b50610330600480360381019061032b919061227c565b6106d5565b005b61034c6004803603810190610347919061224f565b610840565b005b34801561035a57600080fd5b50610375600480360381019061037091906122a9565b610bbd565b6040516103829190612110565b60405180910390f35b34801561039757600080fd5b506103a0610c05565b005b3480156103ae57600080fd5b506103c960048036038101906103c49190612302565b610c19565b005b3480156103d757600080fd5b506103e0610c5b565b6040516103ed919061233e565b60405180910390f35b34801561040257600080fd5b5061040b610c85565b6040516104189190611fc1565b60405180910390f35b34801561042d57600080fd5b506104486004803603810190610443919061248e565b610d17565b005b610464600480360381019061045f9190612532565b611030565b005b34801561047257600080fd5b5061048d6004803603810190610488919061208b565b61144e565b60405161049a91906120e6565b60405180910390f35b3480156104af57600080fd5b506104b8611471565b6040516104c5919061233e565b60405180910390f35b3480156104da57600080fd5b506104f560048036038101906104f091906122a9565b611497565b005b34801561050357600080fd5b5061051e60048036038101906105199190612572565b6115ce565b60405161052b9190612110565b60405180910390f35b34801561054057600080fd5b5061055b6004803603810190610556919061224f565b611655565b60405161056a939291906125c1565b60405180910390f35b34801561057f57600080fd5b5061059a600480360381019061059591906122a9565b6116bb565b005b6060600380546105ab90612627565b80601f01602080910402602001604051908101604052809291908181526020018280546105d790612627565b80156106245780601f106105f957610100808354040283529160200191610624565b820191906000526020600020905b81548152906001019060200180831161060757829003601f168201915b5050505050905090565b600080610639611741565b9050610646818585611749565b600191505092915050565b6000600254905090565b60075481565b60008061066c611741565b905061067985828561175b565b6106848585856117f0565b60019150509392505050565b600a60009054906101000a900463ffffffff1681565b6000600c905090565b60085481565b60096020528060005260406000206000915054906101000a900460ff1681565b6106dd6118e4565b6000600660009054906101000a900473ffffffffffffffffffffffffffffffffffffffff1690506000808273ffffffffffffffffffffffffffffffffffffffff166379502c556040518163ffffffff1660e01b815260040160a060405180830381865afa158015610752573d6000803e3d6000fd5b505050506040513d601f19601f820116820180604052508101906107769190612699565b50935093505050818410156107c0576040517f08c379a00000000000000000000000000000000000000000000000000000000081526004016107b790612760565b60405180910390fd5b80841115610803576040517f08c379a00000000000000000000000000000000000000000000000000000000081526004016107fa906127cc565b60405180910390fd5b836008547fa485a88a368ebaead07316d0ecff078ceb5d1b46efd14b94247270d4171cd4db60405160405180910390a38360088190555050505050565b6000600b60008363ffffffff1663ffffffff16815260200190815260200160002060010160009054906101000a90046fffffffffffffffffffffffffffffffff166fffffffffffffffffffffffffffffffff16116108d3576040517f08c379a00000000000000000000000000000000000000000000000000000000081526004016108ca90612838565b60405180910390fd5b6000600b60008363ffffffff1663ffffffff1681526020019081526020016000206040518060600160405290816000820160009054906101000a900473ffffffffffffffffffffffffffffffffffffffff1673ffffffffffffffffffffffffffffffffffffffff1673ffffffffffffffffffffffffffffffffffffffff1681526020016001820160009054906101000a90046fffffffffffffffffffffffffffffffff166fffffffffffffffffffffffffffffffff166fffffffffffffffffffffffffffffffff16815260200160028201548152505090506000826040516020016109be919061288e565b604051602081830303815290604052805190602001209050600080836020015160008686604001516040516020016109fa959493929190612900565b60405160208183030381529060405290506000600660009054906101000a900473ffffffffffffffffffffffffffffffffffffffff1673ffffffffffffffffffffffffffffffffffffffff16348460075485600854604051602401610a6294939291906129b4565b6040516020818303038152906040527fc8a24482000000000000000000000000000000000000000000000000000000007bffffffffffffffffffffffffffffffffffffffffffffffffffffffff19166020820180517bffffffffffffffffffffffffffffffffffffffffffffffffffffffff8381831617835250505050604051610aec9190612a3c565b60006040518083038185875af1925050503d8060008114610b29576040519150601f19603f3d011682016040523d82523d6000602084013e610b2e565b606091505b5050905080610b72576040517f08c379a0000000000000000000000000000000000000000000000000000000008152600401610b6990612a9f565b60405180910390fd5b83604001517fcf5d7bf366de9aefdb2e7cfff5076e740720703fa9341ca5df34db66baf7456a85602001513488604051610bae93929190612abf565b60405180910390a25050505050565b60008060008373ffffffffffffffffffffffffffffffffffffffff1673ffffffffffffffffffffffffffffffffffffffff168152602001908152602001600020549050919050565b610c0d6118e4565b610c17600061196b565b565b610c216118e4565b806007547fa14e2697861aa95e9c5e36a1d08f76fe80944fba775ae48272e7139f7cdbbe1460405160405180910390a38060078190555050565b6000600560009054906101000a900473ffffffffffffffffffffffffffffffffffffffff16905090565b606060048054610c9490612627565b80601f0160208091040260200160405190810160405280929190818152602001828054610cc090612627565b8015610d0d5780601f10610ce257610100808354040283529160200191610d0d565b820191906000526020600020905b815481529060010190602001808311610cf057829003601f168201915b5050505050905090565b6007548214610d5b576040517f08c379a0000000000000000000000000000000000000000000000000000000008152600401610d5290612b42565b60405180910390fd5b600481511015610da0576040517f08c379a0000000000000000000000000000000000000000000000000000000008152600401610d9790612bae565b60405180910390fd5b60006020820151905060008163ffffffff1603610ff0576030825114610dfb576040517f08c379a0000000000000000000000000000000000000000000000000000000008152600401610df290612c1a565b60405180910390fd5b60008060008085806020019051810190610e159190612ca2565b945094509450945050600073ffffffffffffffffffffffffffffffffffffffff168173ffffffffffffffffffffffffffffffffffffffff1603610e8d576040517f08c379a0000000000000000000000000000000000000000000000000000000008152600401610e8490612d69565b60405180910390fd5b60008363ffffffff1603610ed6576040517f08c379a0000000000000000000000000000000000000000000000000000000008152600401610ecd90612dd5565b60405180910390fd5b600960008363ffffffff1663ffffffff16815260200190815260200160002060009054906101000a900460ff1615610f43576040517f08c379a0000000000000000000000000000000000000000000000000000000008152600401610f3a90612e41565b60405180910390fd5b6001600960008463ffffffff1663ffffffff16815260200190815260200160002060006101000a81548160ff021916908315150217905550610f9781856fffffffffffffffffffffffffffffffff16611a31565b8073ffffffffffffffffffffffffffffffffffffffff167fbdde8979688e10cf227fc00e2a09f04c8eccc879b4b872c96532e71c0dd7b2108584604051610fdf929190612e9c565b60405180910390a25050505061102b565b6040517f08c379a000000000000000000000000000000000000000000000000000000000815260040161102290612f11565b60405180910390fd5b505050565b6000826fffffffffffffffffffffffffffffffff1611611085576040517f08c379a000000000000000000000000000000000000000000000000000000000815260040161107c90612f7d565b60405180910390fd5b816fffffffffffffffffffffffffffffffff166110a133610bbd565b10156110e2576040517f08c379a00000000000000000000000000000000000000000000000000000000081526004016110d990612fe9565b60405180910390fd5b6000600a60009054906101000a900463ffffffff169050600a600081819054906101000a900463ffffffff168092919061111b90613038565b91906101000a81548163ffffffff021916908363ffffffff1602179055505060008160405160200161114d919061288e565b6040516020818303038152906040528051906020012090506000808560008587604051602001611181959493929190612900565b60405160208183030381529060405290506111ae33866fffffffffffffffffffffffffffffffff16611ab3565b60405180606001604052803373ffffffffffffffffffffffffffffffffffffffff168152602001866fffffffffffffffffffffffffffffffff16815260200185815250600b60008563ffffffff1663ffffffff16815260200190815260200160002060008201518160000160006101000a81548173ffffffffffffffffffffffffffffffffffffffff021916908373ffffffffffffffffffffffffffffffffffffffff16021790555060208201518160010160006101000a8154816fffffffffffffffffffffffffffffffff02191690836fffffffffffffffffffffffffffffffff160217905550604082015181600201559050506000600660009054906101000a900473ffffffffffffffffffffffffffffffffffffffff1673ffffffffffffffffffffffffffffffffffffffff163484600754856008546040516024016112fa94939291906129b4565b6040516020818303038152906040527fc8a24482000000000000000000000000000000000000000000000000000000007bffffffffffffffffffffffffffffffffffffffffffffffffffffffff19166020820180517bffffffffffffffffffffffffffffffffffffffffffffffffffffffff83818316178352505050506040516113849190612a3c565b60006040518083038185875af1925050503d80600081146113c1576040519150601f19603f3d011682016040523d82523d6000602084013e6113c6565b606091505b505090508061140a576040517f08c379a000000000000000000000000000000000000000000000000000000000815260040161140190612a9f565b60405180910390fd5b847fddbf1bcef359cc7e89612599db42f6e24e6bc1bf00d20a205ebe94a2066df50887348760405161143e93929190612abf565b60405180910390a2505050505050565b600080611459611741565b90506114668185856117f0565b600191505092915050565b600660009054906101000a900473ffffffffffffffffffffffffffffffffffffffff1681565b61149f6118e4565b600073ffffffffffffffffffffffffffffffffffffffff168173ffffffffffffffffffffffffffffffffffffffff160361150e576040517f08c379a0000000000000000000000000000000000000000000000000000000008152600401611505906130b0565b60405180910390fd5b8073ffffffffffffffffffffffffffffffffffffffff16600660009054906101000a900473ffffffffffffffffffffffffffffffffffffffff1673ffffffffffffffffffffffffffffffffffffffff167fb4f4eb2c59e82e78670d9c46b2710303f24fb6d764a4a7fb86b3036d5622774060405160405180910390a380600660006101000a81548173ffffffffffffffffffffffffffffffffffffffff021916908373ffffffffffffffffffffffffffffffffffffffff16021790555050565b6000600160008473ffffffffffffffffffffffffffffffffffffffff1673ffffffffffffffffffffffffffffffffffffffff16815260200190815260200160002060008373ffffffffffffffffffffffffffffffffffffffff1673ffffffffffffffffffffffffffffffffffffffff16815260200190815260200160002054905092915050565b600b6020528060005260406000206000915090508060000160009054906101000a900473ffffffffffffffffffffffffffffffffffffffff16908060010160009054906101000a90046fffffffffffffffffffffffffffffffff16908060020154905083565b6116c36118e4565b600073ffffffffffffffffffffffffffffffffffffffff168173ffffffffffffffffffffffffffffffffffffffff16036117355760006040517f1e4fbdf700000000000000000000000000000000000000000000000000000000815260040161172c919061233e565b60405180910390fd5b61173e8161196b565b50565b600033905090565b6117568383836001611b35565b505050565b600061176784846115ce565b90507fffffffffffffffffffffffffffffffffffffffffffffffffffffffffffffffff8110156117ea57818110156117da578281836040517ffb8f41b20000000000000000000000000000000000000000000000000000000081526004016117d1939291906130d0565b60405180910390fd5b6117e984848484036000611b35565b5b50505050565b600073ffffffffffffffffffffffffffffffffffffffff168373ffffffffffffffffffffffffffffffffffffffff16036118625760006040517f96c6fd1e000000000000000000000000000000000000000000000000000000008152600401611859919061233e565b60405180910390fd5b600073ffffffffffffffffffffffffffffffffffffffff168273ffffffffffffffffffffffffffffffffffffffff16036118d45760006040517fec442f050000000000000000000000000000000000000000000000000000000081526004016118cb919061233e565b60405180910390fd5b6118df838383611d0c565b505050565b6118ec611741565b73ffffffffffffffffffffffffffffffffffffffff1661190a610c5b565b73ffffffffffffffffffffffffffffffffffffffff16146119695761192d611741565b6040517f118cdaa7000000000000000000000000000000000000000000000000000000008152600401611960919061233e565b60405180910390fd5b565b6000600560009054906101000a900473ffffffffffffffffffffffffffffffffffffffff16905081600560006101000a81548173ffffffffffffffffffffffffffffffffffffffff021916908373ffffffffffffffffffffffffffffffffffffffff1602179055508173ffffffffffffffffffffffffffffffffffffffff168173ffffffffffffffffffffffffffffffffffffffff167f8be0079c531659141344cd1fd0a4f28419497f9722a3daafe3b4186f6b6457e060405160405180910390a35050565b600073ffffffffffffffffffffffffffffffffffffffff168273ffffffffffffffffffffffffffffffffffffffff1603611aa35760006040517fec442f05000000000000000000000000000000000000000000000000000000008152600401611a9a919061233e565b60405180910390fd5b611aaf60008383611d0c565b5050565b600073ffffffffffffffffffffffffffffffffffffffff168273ffffffffffffffffffffffffffffffffffffffff1603611b255760006040517f96c6fd1e000000000000000000000000000000000000000000000000000000008152600401611b1c919061233e565b60405180910390fd5b611b3182600083611d0c565b5050565b600073ffffffffffffffffffffffffffffffffffffffff168473ffffffffffffffffffffffffffffffffffffffff1603611ba75760006040517fe602df05000000000000000000000000000000000000000000000000000000008152600401611b9e919061233e565b60405180910390fd5b600073ffffffffffffffffffffffffffffffffffffffff168373ffffffffffffffffffffffffffffffffffffffff1603611c195760006040517f94280d62000000000000000000000000000000000000000000000000000000008152600401611c10919061233e565b60405180910390fd5b81600160008673ffffffffffffffffffffffffffffffffffffffff1673ffffffffffffffffffffffffffffffffffffffff16815260200190815260200160002060008573ffffffffffffffffffffffffffffffffffffffff1673ffffffffffffffffffffffffffffffffffffffff168152602001908152602001600020819055508015611d06578273ffffffffffffffffffffffffffffffffffffffff168473ffffffffffffffffffffffffffffffffffffffff167f8c5be1e5ebec7d5bd14f71427d1e84f3dd0314c0f7b2291e5b200ac8c7c3b92584604051611cfd9190612110565b60405180910390a35b50505050565b600073ffffffffffffffffffffffffffffffffffffffff168373ffffffffffffffffffffffffffffffffffffffff1603611d5e578060026000828254611d529190613107565b92505081905550611e31565b60008060008573ffffffffffffffffffffffffffffffffffffffff1673ffffffffffffffffffffffffffffffffffffffff16815260200190815260200160002054905081811015611dea578381836040517fe450d38c000000000000000000000000000000000000000000000000000000008152600401611de1939291906130d0565b60405180910390fd5b8181036000808673ffffffffffffffffffffffffffffffffffffffff1673ffffffffffffffffffffffffffffffffffffffff16815260200190815260200160002081905550505b600073ffffffffffffffffffffffffffffffffffffffff168273ffffffffffffffffffffffffffffffffffffffff1603611e7a5780600260008282540392505081905550611ec7565b806000808473ffffffffffffffffffffffffffffffffffffffff1673ffffffffffffffffffffffffffffffffffffffff168152602001908152602001600020600082825401925050819055505b8173ffffffffffffffffffffffffffffffffffffffff168373ffffffffffffffffffffffffffffffffffffffff167fddf252ad1be2c89b69c2b068fc378daa952ba7f163c4a11628f55a4df523b3ef83604051611f249190612110565b60405180910390a3505050565b600081519050919050565b600082825260208201905092915050565b60005b83811015611f6b578082015181840152602081019050611f50565b60008484015250505050565b6000601f19601f8301169050919050565b6000611f9382611f31565b611f9d8185611f3c565b9350611fad818560208601611f4d565b611fb681611f77565b840191505092915050565b60006020820190508181036000830152611fdb8184611f88565b905092915050565b6000604051905090565b600080fd5b600080fd5b600073ffffffffffffffffffffffffffffffffffffffff82169050919050565b600061202282611ff7565b9050919050565b61203281612017565b811461203d57600080fd5b50565b60008135905061204f81612029565b92915050565b6000819050919050565b61206881612055565b811461207357600080fd5b50565b6000813590506120858161205f565b92915050565b600080604083850312156120a2576120a1611fed565b5b60006120b085828601612040565b92505060206120c185828601612076565b9150509250929050565b60008115159050919050565b6120e0816120cb565b82525050565b60006020820190506120fb60008301846120d7565b92915050565b61210a81612055565b82525050565b60006020820190506121256000830184612101565b92915050565b6000819050919050565b61213e8161212b565b82525050565b60006020820190506121596000830184612135565b92915050565b60008060006060848603121561217857612177611fed565b5b600061218686828701612040565b935050602061219786828701612040565b92505060406121a886828701612076565b9150509250925092565b600063ffffffff82169050919050565b6121cb816121b2565b82525050565b60006020820190506121e660008301846121c2565b92915050565b600060ff82169050919050565b612202816121ec565b82525050565b600060208201905061221d60008301846121f9565b92915050565b61222c816121b2565b811461223757600080fd5b50565b60008135905061224981612223565b92915050565b60006020828403121561226557612264611fed565b5b60006122738482850161223a565b91505092915050565b60006020828403121561229257612291611fed565b5b60006122a084828501612076565b91505092915050565b6000602082840312156122bf576122be611fed565b5b60006122cd84828501612040565b91505092915050565b6122df8161212b565b81146122ea57600080fd5b50565b6000813590506122fc816122d6565b92915050565b60006020828403121561231857612317611fed565b5b6000612326848285016122ed565b91505092915050565b61233881612017565b82525050565b6000602082019050612353600083018461232f565b92915050565b600080fd5b600080fd5b7f4e487b7100000000000000000000000000000000000000000000000000000000600052604160045260246000fd5b61239b82611f77565b810181811067ffffffffffffffff821117156123ba576123b9612363565b5b80604052505050565b60006123cd611fe3565b90506123d98282612392565b919050565b600067ffffffffffffffff8211156123f9576123f8612363565b5b61240282611f77565b9050602081019050919050565b82818337600083830152505050565b600061243161242c846123de565b6123c3565b90508281526020810184848401111561244d5761244c61235e565b5b61245884828561240f565b509392505050565b600082601f83011261247557612474612359565b5b813561248584826020860161241e565b91505092915050565b600080604083850312156124a5576124a4611fed565b5b60006124b3858286016122ed565b925050602083013567ffffffffffffffff8111156124d4576124d3611ff2565b5b6124e085828601612460565b9150509250929050565b60006fffffffffffffffffffffffffffffffff82169050919050565b61250f816124ea565b811461251a57600080fd5b50565b60008135905061252c81612506565b92915050565b6000806040838503121561254957612548611fed565b5b60006125578582860161251d565b9250506020612568858286016122ed565b9150509250929050565b6000806040838503121561258957612588611fed565b5b600061259785828601612040565b92505060206125a885828601612040565b9150509250929050565b6125bb816124ea565b82525050565b60006060820190506125d6600083018661232f565b6125e360208301856125b2565b6125f06040830184612135565b949350505050565b7f4e487b7100000000000000000000000000000000000000000000000000000000600052602260045260246000fd5b6000600282049050600182168061263f57607f821691505b602082108103612652576126516125f8565b5b50919050565b612661816121ec565b811461266c57600080fd5b50565b60008151905061267e81612658565b92915050565b6000815190506126938161205f565b92915050565b600080600080600060a086880312156126b5576126b4611fed565b5b60006126c38882890161266f565b95505060206126d48882890161266f565b94505060406126e588828901612684565b93505060606126f688828901612684565b925050608061270788828901612684565b9150509295509295909350565b7f4f7574676f696e6754544c20746f6f20736d616c6c0000000000000000000000600082015250565b600061274a601583611f3c565b915061275582612714565b602082019050919050565b600060208201905081810360008301526127798161273d565b9050919050565b7f4f7574676f696e6754544c20746f6f206c617267650000000000000000000000600082015250565b60006127b6601583611f3c565b91506127c182612780565b602082019050919050565b600060208201905081810360008301526127e5816127a9565b9050919050565b7f5472616e73666572206e6f7420666f756e640000000000000000000000000000600082015250565b6000612822601283611f3c565b915061282d826127ec565b602082019050919050565b6000602082019050818103600083015261285181612815565b9050919050565b60008160e01b9050919050565b600061287082612858565b9050919050565b612888612883826121b2565b612865565b82525050565b600061289a8284612877565b60048201915081905092915050565b60008160801b9050919050565b60006128c1826128a9565b9050919050565b6128d96128d4826124ea565b6128b6565b82525050565b6000819050919050565b6128fa6128f58261212b565b6128df565b82525050565b600061290c8288612877565b60048201915061291c82876128c8565b60108201915061292c8286612877565b60048201915061293c8285612877565b60048201915061294c82846128e9565b6020820191508190509695505050505050565b600081519050919050565b600082825260208201905092915050565b60006129868261295f565b612990818561296a565b93506129a0818560208601611f4d565b6129a981611f77565b840191505092915050565b60006080820190506129c96000830187612135565b6129d66020830186612135565b81810360408301526129e8818561297b565b90506129f76060830184612101565b95945050505050565b600081905092915050565b6000612a168261295f565b612a208185612a00565b9350612a30818560208601611f4d565b80840191505092915050565b6000612a488284612a0b565b915081905092915050565b7f73656e644d657373616765206661696c65640000000000000000000000000000600082015250565b6000612a89601283611f3c565b9150612a9482612a53565b602082019050919050565b60006020820190508181036000830152612ab881612a7c565b9050919050565b6000606082019050612ad460008301866125b2565b612ae16020830185612101565b612aee60408301846121c2565b949350505050565b7f556e617574686f72697a65642073656e64657200000000000000000000000000600082015250565b6000612b2c601383611f3c565b9150612b3782612af6565b602082019050919050565b60006020820190508181036000830152612b5b81612b1f565b9050919050565b7f496e76616c696420616374696f6e000000000000000000000000000000000000600082015250565b6000612b98600e83611f3c565b9150612ba382612b62565b602082019050919050565b60006020820190508181036000830152612bc781612b8b565b9050919050565b7f496e76616c6964206174696f6e207061796c6f61640000000000000000000000600082015250565b6000612c04601583611f3c565b9150612c0f82612bce565b602082019050919050565b60006020820190508181036000830152612c3381612bf7565b9050919050565b600081519050612c4981612223565b92915050565b600081519050612c5e81612506565b92915050565b6000612c6f82611ff7565b9050919050565b612c7f81612c64565b8114612c8a57600080fd5b50565b600081519050612c9c81612c76565b92915050565b600080600080600060a08688031215612cbe57612cbd611fed565b5b6000612ccc88828901612c3a565b9550506020612cdd88828901612c4f565b9450506040612cee88828901612c3a565b9350506060612cff88828901612c3a565b9250506080612d1088828901612c8d565b9150509295509295909350565b7f496e76616c696420726563697069656e74000000000000000000000000000000600082015250565b6000612d53601183611f3c565b9150612d5e82612d1d565b602082019050919050565b60006020820190508181036000830152612d8281612d46565b9050919050565b7f556e737570706f72746564206173736574496400000000000000000000000000600082015250565b6000612dbf601383611f3c565b9150612dca82612d89565b602082019050919050565b60006020820190508181036000830152612dee81612db2565b9050919050565b7f5472616e7366657220616c726561647920726563656976656400000000000000600082015250565b6000612e2b601983611f3c565b9150612e3682612df5565b602082019050919050565b60006020820190508181036000830152612e5a81612e1e565b9050919050565b6000819050919050565b6000612e86612e81612e7c846124ea565b612e61565b612055565b9050919050565b612e9681612e6b565b82525050565b6000604082019050612eb16000830185612e8d565b612ebe60208301846121c2565b9392505050565b7f556e737570706f7274656420616374696f6e0000000000000000000000000000600082015250565b6000612efb601283611f3c565b9150612f0682612ec5565b602082019050919050565b60006020820190508181036000830152612f2a81612eee565b9050919050565b7f43616e6e6f74207472616e73666572203020616d6f756e740000000000000000600082015250565b6000612f67601883611f3c565b9150612f7282612f31565b602082019050919050565b60006020820190508181036000830152612f9681612f5a565b9050919050565b7f496e73756666696369656e74204143552062616c616e63650000000000000000600082015250565b6000612fd3601883611f3c565b9150612fde82612f9d565b602082019050919050565b6000602082019050818103600083015261300281612fc6565b9050919050565b7f4e487b7100000000000000000000000000000000000000000000000000000000600052601160045260246000fd5b6000613043826121b2565b915063ffffffff820361305957613058613009565b5b600182019050919050565b7f496e76616c69642049424320636f6e7472616374206164647265737300000000600082015250565b600061309a601c83611f3c565b91506130a582613064565b602082019050919050565b600060208201905081810360008301526130c98161308d565b9050919050565b60006060820190506130e5600083018661232f565b6130f26020830185612101565b6130ff6040830184612101565b949350505050565b600061311282612055565b915061311d83612055565b925082820190508082111561313557613134613009565b5b9291505056fea264697066735822122096d793fcb27f1e01edb7f0581b7c7b6ae3d262819b75c7d159d7a02f16a5666c64736f6c634300081c0033",
  "linkReferences": {},
  "deployedLinkReferences": {}
}