{
  "_format": "hh-sol-artifact-1",
  "contractName": "AcurastToken",
  "sourceName": "contracts/acu.sol",
  "abi": [
    {
      "inputs": [
        {
          "internalType": "address",
          "name": "_ibcContract",
          "type": "address"
        },
        {
          "internalType": "bytes32",
          "name": "_tokenPalletAccount",
          "type": "bytes32"
        },
        {
          "components": [
            {
              "internalType": "address",
              "name": "source",
              "type": "address"
            },
            {
              "internalType": "uint128",
              "name": "amount",
              "type": "uint128"
            }
          ],
          "internalType": "struct AcuERC20.InitialBalance[]",
          "name": "_initialBalances",
          "type": "tuple[]"
        }
      ],
      "stateMutability": "nonpayable",
      "type": "constructor"
    },
    {
      "inputs": [],
      "name": "ECDSAInvalidSignature",
      "type": "error"
    },
    {
      "inputs": [
        {
          "internalType": "uint256",
          "name": "length",
          "type": "uint256"
        }
      ],
      "name": "ECDSAInvalidSignatureLength",
      "type": "error"
    },
    {
      "inputs": [
        {
          "internalType": "bytes32",
          "name": "s",
          "type": "bytes32"
        }
      ],
      "name": "ECDSAInvalidSignatureS",
      "type": "error"
    },
    {
      "inputs": [
        {
          "internalType": "address",
          "name": "spender",
          "type": "address"
        },
        {
          "internalType": "uint256",
          "name": "allowance",
          "type": "uint256"
        },
        {
          "internalType": "uint256",
          "name": "needed",
          "type": "uint256"
        }
      ],
      "name": "ERC20InsufficientAllowance",
      "type": "error"
    },
    {
      "inputs": [
        {
          "internalType": "address",
          "name": "sender",
          "type": "address"
        },
        {
          "internalType": "uint256",
          "name": "balance",
          "type": "uint256"
        },
        {
          "internalType": "uint256",
          "name": "needed",
          "type": "uint256"
        }
      ],
      "name": "ERC20InsufficientBalance",
      "type": "error"
    },
    {
      "inputs": [
        {
          "internalType": "address",
          "name": "approver",
          "type": "address"
        }
      ],
      "name": "ERC20InvalidApprover",
      "type": "error"
    },
    {
      "inputs": [
        {
          "internalType": "address",
          "name": "receiver",
          "type": "address"
        }
      ],
      "name": "ERC20InvalidReceiver",
      "type": "error"
    },
    {
      "inputs": [
        {
          "internalType": "address",
          "name": "sender",
          "type": "address"
        }
      ],
      "name": "ERC20InvalidSender",
      "type": "error"
    },
    {
      "inputs": [
        {
          "internalType": "address",
          "name": "spender",
          "type": "address"
        }
      ],
      "name": "ERC20InvalidSpender",
      "type": "error"
    },
    {
      "inputs": [
        {
          "internalType": "uint256",
          "name": "deadline",
          "type": "uint256"
        }
      ],
      "name": "ERC2612ExpiredSignature",
      "type": "error"
    },
    {
      "inputs": [
        {
          "internalType": "address",
          "name": "signer",
          "type": "address"
        },
        {
          "internalType": "address",
          "name": "owner",
          "type": "address"
        }
      ],
      "name": "ERC2612InvalidSigner",
      "type": "error"
    },
    {
      "inputs": [
        {
          "internalType": "address",
          "name": "account",
          "type": "address"
        },
        {
          "internalType": "uint256",
          "name": "currentNonce",
          "type": "uint256"
        }
      ],
      "name": "InvalidAccountNonce",
      "type": "error"
    },
    {
      "inputs": [],
      "name": "InvalidShortString",
      "type": "error"
    },
    {
      "inputs": [],
      "name": "NotEnabled",
      "type": "error"
    },
    {
      "inputs": [
        {
          "internalType": "address",
          "name": "owner",
          "type": "address"
        }
      ],
      "name": "OwnableInvalidOwner",
      "type": "error"
    },
    {
      "inputs": [
        {
          "internalType": "address",
          "name": "account",
          "type": "address"
        }
      ],
      "name": "OwnableUnauthorizedAccount",
      "type": "error"
    },
    {
      "inputs": [
        {
          "internalType": "string",
          "name": "str",
          "type": "string"
        }
      ],
      "name": "StringTooLong",
      "type": "error"
    },
    {
      "anonymous": false,
      "inputs": [
        {
          "indexed": true,
          "internalType": "address",
          "name": "owner",
          "type": "address"
        },
        {
          "indexed": true,
          "internalType": "address",
          "name": "spender",
          "type": "address"
        },
        {
          "indexed": false,
          "internalType": "uint256",
          "name": "value",
          "type": "uint256"
        }
      ],
      "name": "Approval",
      "type": "event"
    },
    {
      "anonymous": false,
      "inputs": [],
      "name": "EIP712DomainChanged",
      "type": "event"
    },
    {
      "anonymous": false,
      "inputs": [
        {
          "indexed": false,
          "internalType": "bool",
          "name": "enabled",
          "type": "bool"
        }
      ],
      "name": "Enabled",
      "type": "event"
    },
    {
      "anonymous": false,
      "inputs": [
        {
          "indexed": true,
          "internalType": "address",
          "name": "oldAddress",
          "type": "address"
        },
        {
          "indexed": true,
          "internalType": "address",
          "name": "newAddress",
          "type": "address"
        }
      ],
      "name": "IbcContractUpdated",
      "type": "event"
    },
    {
      "anonymous": false,
      "inputs": [
        {
          "indexed": true,
          "internalType": "uint256",
          "name": "oldTTL",
          "type": "uint256"
        },
        {
          "indexed": true,
          "internalType": "uint256",
          "name": "newTTL",
          "type": "uint256"
        }
      ],
      "name": "OutgoingTTLUpdated",
      "type": "event"
    },
    {
      "anonymous": false,
      "inputs": [
        {
          "indexed": true,
          "internalType": "address",
          "name": "previousOwner",
          "type": "address"
        },
        {
          "indexed": true,
          "internalType": "address",
          "name": "newOwner",
          "type": "address"
        }
      ],
      "name": "OwnershipTransferred",
      "type": "event"
    },
    {
      "anonymous": false,
      "inputs": [
        {
          "indexed": true,
          "internalType": "bytes32",
          "name": "oldAddress",
          "type": "bytes32"
        },
        {
          "indexed": true,
          "internalType": "bytes32",
          "name": "newAddress",
          "type": "bytes32"
        }
      ],
      "name": "TokenPalletAccountUpdated",
      "type": "event"
    },
    {
      "anonymous": false,
      "inputs": [
        {
          "indexed": true,
          "internalType": "address",
          "name": "from",
          "type": "address"
        },
        {
          "indexed": true,
          "internalType": "address",
          "name": "to",
          "type": "address"
        },
        {
          "indexed": false,
          "internalType": "uint256",
          "name": "value",
          "type": "uint256"
        }
      ],
      "name": "Transfer",
      "type": "event"
    },
    {
      "anonymous": false,
      "inputs": [
        {
          "indexed": false,
          "internalType": "uint256",
          "name": "amount",
          "type": "uint256"
        },
        {
          "indexed": true,
          "internalType": "address",
          "name": "dest",
          "type": "address"
        },
        {
          "indexed": false,
          "internalType": "uint32",
          "name": "transferNonce",
          "type": "uint32"
        }
      ],
      "name": "TransferReceived",
      "type": "event"
    },
    {
      "anonymous": false,
      "inputs": [
        {
          "indexed": false,
          "internalType": "uint128",
          "name": "amount",
          "type": "uint128"
        },
        {
          "indexed": false,
          "internalType": "uint256",
          "name": "fee",
          "type": "uint256"
        },
        {
          "indexed": true,
          "internalType": "bytes32",
          "name": "dest",
          "type": "bytes32"
        },
        {
          "indexed": false,
          "internalType": "uint32",
          "name": "transferNonce",
          "type": "uint32"
        }
      ],
      "name": "TransferRetried",
      "type": "event"
    },
    {
      "anonymous": false,
      "inputs": [
        {
          "indexed": false,
          "internalType": "uint128",
          "name": "amount",
          "type": "uint128"
        },
        {
          "indexed": false,
          "internalType": "uint256",
          "name": "fee",
          "type": "uint256"
        },
        {
          "indexed": true,
          "internalType": "bytes32",
          "name": "dest",
          "type": "bytes32"
        },
        {
          "indexed": false,
          "internalType": "uint32",
          "name": "transferNonce",
          "type": "uint32"
        }
      ],
      "name": "TransferSent",
      "type": "event"
    },
    {
      "inputs": [],
      "name": "DOMAIN_SEPARATOR",
      "outputs": [
        {
          "internalType": "bytes32",
          "name": "",
          "type": "bytes32"
        }
      ],
      "stateMutability": "view",
      "type": "function"
    },
    {
      "inputs": [
        {
          "internalType": "address",
          "name": "owner",
          "type": "address"
        },
        {
          "internalType": "address",
          "name": "spender",
          "type": "address"
        }
      ],
      "name": "allowance",
      "outputs": [
        {
          "internalType": "uint256",
          "name": "",
          "type": "uint256"
        }
      ],
      "stateMutability": "view",
      "type": "function"
    },
    {
      "inputs": [
        {
          "internalType": "address",
          "name": "spender",
          "type": "address"
        },
        {
          "internalType": "uint256",
          "name": "value",
          "type": "uint256"
        }
      ],
      "name": "approve",
      "outputs": [
        {
          "internalType": "bool",
          "name": "",
          "type": "bool"
        }
      ],
      "stateMutability": "nonpayable",
      "type": "function"
    },
    {
      "inputs": [
        {
          "internalType": "address",
          "name": "account",
          "type": "address"
        }
      ],
      "name": "balanceOf",
      "outputs": [
        {
          "internalType": "uint256",
          "name": "",
          "type": "uint256"
        }
      ],
      "stateMutability": "view",
      "type": "function"
    },
    {
      "inputs": [],
      "name": "decimals",
      "outputs": [
        {
          "internalType": "uint8",
          "name": "",
          "type": "uint8"
        }
      ],
      "stateMutability": "view",
      "type": "function"
    },
    {
      "inputs": [],
      "name": "eip712Domain",
      "outputs": [
        {
          "internalType": "bytes1",
          "name": "fields",
          "type": "bytes1"
        },
        {
          "internalType": "string",
          "name": "name",
          "type": "string"
        },
        {
          "internalType": "string",
          "name": "version",
          "type": "string"
        },
        {
          "internalType": "uint256",
          "name": "chainId",
          "type": "uint256"
        },
        {
          "internalType": "address",
          "name": "verifyingContract",
          "type": "address"
        },
        {
          "internalType": "bytes32",
          "name": "salt",
          "type": "bytes32"
        },
        {
          "internalType": "uint256[]",
          "name": "extensions",
          "type": "uint256[]"
        }
      ],
      "stateMutability": "view",
      "type": "function"
    },
    {
      "inputs": [],
      "name": "enabled",
      "outputs": [
        {
          "internalType": "bool",
          "name": "",
          "type": "bool"
        }
      ],
      "stateMutability": "view",
      "type": "function"
    },
    {
      "inputs": [],
      "name": "ibcContract",
      "outputs": [
        {
          "internalType": "address",
          "name": "",
          "type": "address"
        }
      ],
      "stateMutability": "view",
      "type": "function"
    },
    {
      "inputs": [
        {
          "internalType": "uint32",
          "name": "",
          "type": "uint32"
        }
      ],
      "name": "incomingTransferNonces",
      "outputs": [
        {
          "internalType": "bool",
          "name": "",
          "type": "bool"
        }
      ],
      "stateMutability": "view",
      "type": "function"
    },
    {
      "inputs": [],
      "name": "name",
      "outputs": [
        {
          "internalType": "string",
          "name": "",
          "type": "string"
        }
      ],
      "stateMutability": "view",
      "type": "function"
    },
    {
      "inputs": [],
      "name": "nextTransferNonce",
      "outputs": [
        {
          "internalType": "uint32",
          "name": "",
          "type": "uint32"
        }
      ],
      "stateMutability": "view",
      "type": "function"
    },
    {
      "inputs": [
        {
          "internalType": "address",
          "name": "owner",
          "type": "address"
        }
      ],
      "name": "nonces",
      "outputs": [
        {
          "internalType": "uint256",
          "name": "",
          "type": "uint256"
        }
      ],
      "stateMutability": "view",
      "type": "function"
    },
    {
      "inputs": [],
      "name": "outgoingTTL",
      "outputs": [
        {
          "internalType": "uint256",
          "name": "",
          "type": "uint256"
        }
      ],
      "stateMutability": "view",
      "type": "function"
    },
    {
      "inputs": [
        {
          "internalType": "uint32",
          "name": "",
          "type": "uint32"
        }
      ],
      "name": "outgoingTransfers",
      "outputs": [
        {
          "internalType": "address",
          "name": "sender",
          "type": "address"
        },
        {
          "internalType": "uint128",
          "name": "amount",
          "type": "uint128"
        },
        {
          "internalType": "bytes32",
          "name": "dest",
          "type": "bytes32"
        }
      ],
      "stateMutability": "view",
      "type": "function"
    },
    {
      "inputs": [],
      "name": "owner",
      "outputs": [
        {
          "internalType": "address",
          "name": "",
          "type": "address"
        }
      ],
      "stateMutability": "view",
      "type": "function"
    },
    {
      "inputs": [
        {
          "internalType": "address",
          "name": "owner",
          "type": "address"
        },
        {
          "internalType": "address",
          "name": "spender",
          "type": "address"
        },
        {
          "internalType": "uint256",
          "name": "value",
          "type": "uint256"
        },
        {
          "internalType": "uint256",
          "name": "deadline",
          "type": "uint256"
        },
        {
          "internalType": "uint8",
          "name": "v",
          "type": "uint8"
        },
        {
          "internalType": "bytes32",
          "name": "r",
          "type": "bytes32"
        },
        {
          "internalType": "bytes32",
          "name": "s",
          "type": "bytes32"
        }
      ],
      "name": "permit",
      "outputs": [],
      "stateMutability": "nonpayable",
      "type": "function"
    },
    {
      "inputs": [
        {
          "internalType": "bytes32",
          "name": "sender",
          "type": "bytes32"
        },
        {
          "internalType": "bytes",
          "name": "payload",
          "type": "bytes"
        }
      ],
      "name": "processMessage",
      "outputs": [],
      "stateMutability": "nonpayable",
      "type": "function"
    },
    {
      "inputs": [],
      "name": "renounceOwnership",
      "outputs": [],
      "stateMutability": "nonpayable",
      "type": "function"
    },
    {
      "inputs": [
        {
          "internalType": "uint32",
          "name": "transferNonce",
          "type": "uint32"
        }
      ],
      "name": "retryTransferNative",
      "outputs": [],
      "stateMutability": "payable",
      "type": "function"
    },
    {
      "inputs": [
        {
          "internalType": "uint256",
          "name": "_outgoingTTL",
          "type": "uint256"
        }
      ],
      "name": "setOutgoingTTL",
      "outputs": [],
      "stateMutability": "nonpayable",
      "type": "function"
    },
    {
      "inputs": [],
      "name": "symbol",
      "outputs": [
        {
          "internalType": "string",
          "name": "",
          "type": "string"
        }
      ],
      "stateMutability": "view",
      "type": "function"
    },
    {
      "inputs": [],
      "name": "tokenPalletAccount",
      "outputs": [
        {
          "internalType": "bytes32",
          "name": "",
          "type": "bytes32"
        }
      ],
      "stateMutability": "view",
      "type": "function"
    },
    {
      "inputs": [],
      "name": "totalSupply",
      "outputs": [
        {
          "internalType": "uint256",
          "name": "",
          "type": "uint256"
        }
      ],
      "stateMutability": "view",
      "type": "function"
    },
    {
      "inputs": [
        {
          "internalType": "address",
          "name": "to",
          "type": "address"
        },
        {
          "internalType": "uint256",
          "name": "value",
          "type": "uint256"
        }
      ],
      "name": "transfer",
      "outputs": [
        {
          "internalType": "bool",
          "name": "",
          "type": "bool"
        }
      ],
      "stateMutability": "nonpayable",
      "type": "function"
    },
    {
      "inputs": [
        {
          "internalType": "address",
          "name": "from",
          "type": "address"
        },
        {
          "internalType": "address",
          "name": "to",
          "type": "address"
        },
        {
          "internalType": "uint256",
          "name": "value",
          "type": "uint256"
        }
      ],
      "name": "transferFrom",
      "outputs": [
        {
          "internalType": "bool",
          "name": "",
          "type": "bool"
        }
      ],
      "stateMutability": "nonpayable",
      "type": "function"
    },
    {
      "inputs": [
        {
          "internalType": "uint128",
          "name": "amount",
          "type": "uint128"
        },
        {
          "internalType": "bytes32",
          "name": "dest",
          "type": "bytes32"
        }
      ],
      "name": "transferNative",
      "outputs": [],
      "stateMutability": "payable",
      "type": "function"
    },
    {
      "inputs": [
        {
          "internalType": "address",
          "name": "newOwner",
          "type": "address"
        }
      ],
      "name": "transferOwnership",
      "outputs": [],
      "stateMutability": "nonpayable",
      "type": "function"
    },
    {
      "inputs": [
        {
          "internalType": "address",
          "name": "_ibcContract",
          "type": "address"
        }
      ],
      "name": "updateIbcContract",
      "outputs": [],
      "stateMutability": "nonpayable",
      "type": "function"
    },
    {
      "inputs": [
        {
          "internalType": "bytes32",
          "name": "_tokenPalletAccount",
          "type": "bytes32"
        }
      ],
      "name": "updateTokenPalletAccount",
      "outputs": [],
      "stateMutability": "nonpayable",
      "type": "function"
    }
  ],
  "bytecode": "0x61016060405234801561001157600080fd5b5060405161543b38038061543b83398181016040528101906100339190610ae2565b6040518060400160405280600f81526020017f48797065726472697665546f6b656e00000000000000000000000000000000008152506040518060400160405280600381526020017f4844540000000000000000000000000000000000000000000000000000000000815250823383806040518060400160405280600181526020017f3100000000000000000000000000000000000000000000000000000000000000815250868681600390816100ea9190610d72565b5080600490816100fa9190610d72565b5050506101116005836103ab60201b90919060201c565b610120818152505061012d6006826103ab60201b90919060201c565b6101408181525050818051906020012060e08181525050808051906020012061010081815250504660a0818152505061016a6103fb60201b60201c565b608081815250503073ffffffffffffffffffffffffffffffffffffffff1660c08173ffffffffffffffffffffffffffffffffffffffff1681525050505050600073ffffffffffffffffffffffffffffffffffffffff168173ffffffffffffffffffffffffffffffffffffffff160361021a5760006040517f1e4fbdf70000000000000000000000000000000000000000000000000000000081526004016102119190610e53565b60405180910390fd5b6102298161045660201b60201c565b506000600860146101000a81548160ff02191690831515021790555060005b81518110156102e0576102d382828151811061026757610266610e6e565b5b60200260200101516000015161028161051c60201b60201c565b600a61028d919061100c565b8484815181106102a05761029f610e6e565b5b6020026020010151602001516fffffffffffffffffffffffffffffffff166102c89190611057565b61052560201b60201c565b8080600101915050610248565b50505050600073ffffffffffffffffffffffffffffffffffffffff168373ffffffffffffffffffffffffffffffffffffffff1603610353576040517f08c379a000000000000000000000000000000000000000000000000000000000815260040161034a906110f6565b60405180910390fd5b82600960006101000a81548173ffffffffffffffffffffffffffffffffffffffff021916908373ffffffffffffffffffffffffffffffffffffffff16021790555081600a819055506032600b81905550505050611329565b60006020835110156103cd576103c6836105ad60201b60201c565b90506103f5565b826103dd8361061560201b60201c565b60000190816103ec9190610d72565b5060ff60001b90505b92915050565b60007f8b73c3c69bb8fe3d512ecc4cf759cc79239f7b179b0ffacaa9a75d522b39400f60e05161010051463060405160200161043b959493929190611134565b60405160208183030381529060405280519060200120905090565b6000600860009054906101000a900473ffffffffffffffffffffffffffffffffffffffff16905081600860006101000a81548173ffffffffffffffffffffffffffffffffffffffff021916908373ffffffffffffffffffffffffffffffffffffffff1602179055508173ffffffffffffffffffffffffffffffffffffffff168173ffffffffffffffffffffffffffffffffffffffff167f8be0079c531659141344cd1fd0a4f28419497f9722a3daafe3b4186f6b6457e060405160405180910390a35050565b6000600c905090565b600073ffffffffffffffffffffffffffffffffffffffff168273ffffffffffffffffffffffffffffffffffffffff16036105975760006040517fec442f0500000000000000000000000000000000000000000000000000000000815260040161058e9190610e53565b60405180910390fd5b6105a96000838361061f60201b60201c565b5050565b600080829050601f815111156105fa57826040517f305a27a90000000000000000000000000000000000000000000000000000000081526004016105f191906111ea565b60405180910390fd5b8051816106069061123c565b60001c1760001b915050919050565b6000819050919050565b600073ffffffffffffffffffffffffffffffffffffffff168373ffffffffffffffffffffffffffffffffffffffff160361067157806002600082825461066591906112a3565b92505081905550610744565b60008060008573ffffffffffffffffffffffffffffffffffffffff1673ffffffffffffffffffffffffffffffffffffffff168152602001908152602001600020549050818110156106fd578381836040517fe450d38c0000000000000000000000000000000000000000000000000000000081526004016106f4939291906112d7565b60405180910390fd5b8181036000808673ffffffffffffffffffffffffffffffffffffffff1673ffffffffffffffffffffffffffffffffffffffff16815260200190815260200160002081905550505b600073ffffffffffffffffffffffffffffffffffffffff168273ffffffffffffffffffffffffffffffffffffffff160361078d57806002600082825403925050819055506107da565b806000808473ffffffffffffffffffffffffffffffffffffffff1673ffffffffffffffffffffffffffffffffffffffff168152602001908152602001600020600082825401925050819055505b8173ffffffffffffffffffffffffffffffffffffffff168373ffffffffffffffffffffffffffffffffffffffff167fddf252ad1be2c89b69c2b068fc378daa952ba7f163c4a11628f55a4df523b3ef83604051610837919061130e565b60405180910390a3505050565b6000604051905090565b600080fd5b600080fd5b600073ffffffffffffffffffffffffffffffffffffffff82169050919050565b600061088382610858565b9050919050565b61089381610878565b811461089e57600080fd5b50565b6000815190506108b08161088a565b92915050565b6000819050919050565b6108c9816108b6565b81146108d457600080fd5b50565b6000815190506108e6816108c0565b92915050565b600080fd5b6000601f19601f8301169050919050565b7f4e487b7100000000000000000000000000000000000000000000000000000000600052604160045260246000fd5b61093a826108f1565b810181811067ffffffffffffffff8211171561095957610958610902565b5b80604052505050565b600061096c610844565b90506109788282610931565b919050565b600067ffffffffffffffff82111561099857610997610902565b5b602082029050602081019050919050565b600080fd5b600080fd5b60006fffffffffffffffffffffffffffffffff82169050919050565b6109d8816109b3565b81146109e357600080fd5b50565b6000815190506109f5816109cf565b92915050565b600060408284031215610a1157610a106109ae565b5b610a1b6040610962565b90506000610a2b848285016108a1565b6000830152506020610a3f848285016109e6565b60208301525092915050565b6000610a5e610a598461097d565b610962565b90508083825260208201905060408402830185811115610a8157610a806109a9565b5b835b81811015610aaa5780610a9688826109fb565b845260208401935050604081019050610a83565b5050509392505050565b600082601f830112610ac957610ac86108ec565b5b8151610ad9848260208601610a4b565b91505092915050565b600080600060608486031215610afb57610afa61084e565b5b6000610b09868287016108a1565b9350506020610b1a868287016108d7565b925050604084015167ffffffffffffffff811115610b3b57610b3a610853565b5b610b4786828701610ab4565b9150509250925092565b600081519050919050565b7f4e487b7100000000000000000000000000000000000000000000000000000000600052602260045260246000fd5b60006002820490506001821680610ba357607f821691505b602082108103610bb657610bb5610b5c565b5b50919050565b60008190508160005260206000209050919050565b60006020601f8301049050919050565b600082821b905092915050565b600060088302610c1e7fffffffffffffffffffffffffffffffffffffffffffffffffffffffffffffffff82610be1565b610c288683610be1565b95508019841693508086168417925050509392505050565b6000819050919050565b6000819050919050565b6000610c6f610c6a610c6584610c40565b610c4a565b610c40565b9050919050565b6000819050919050565b610c8983610c54565b610c9d610c9582610c76565b848454610bee565b825550505050565b600090565b610cb2610ca5565b610cbd818484610c80565b505050565b5b81811015610ce157610cd6600082610caa565b600181019050610cc3565b5050565b601f821115610d2657610cf781610bbc565b610d0084610bd1565b81016020851015610d0f578190505b610d23610d1b85610bd1565b830182610cc2565b50505b505050565b600082821c905092915050565b6000610d4960001984600802610d2b565b1980831691505092915050565b6000610d628383610d38565b9150826002028217905092915050565b610d7b82610b51565b67ffffffffffffffff811115610d9457610d93610902565b5b610d9e8254610b8b565b610da9828285610ce5565b600060209050601f831160018114610ddc5760008415610dca578287015190505b610dd48582610d56565b865550610e3c565b601f198416610dea86610bbc565b60005b82811015610e1257848901518255600182019150602085019450602081019050610ded565b86831015610e2f5784890151610e2b601f891682610d38565b8355505b6001600288020188555050505b505050505050565b610e4d81610878565b82525050565b6000602082019050610e686000830184610e44565b92915050565b7f4e487b7100000000000000000000000000000000000000000000000000000000600052603260045260246000fd5b7f4e487b7100000000000000000000000000000000000000000000000000000000600052601160045260246000fd5b60008160011c9050919050565b6000808291508390505b6001851115610f2357808604811115610eff57610efe610e9d565b5b6001851615610f0e5780820291505b8081029050610f1c85610ecc565b9450610ee3565b94509492505050565b600082610f3c5760019050610ff8565b81610f4a5760009050610ff8565b8160018114610f605760028114610f6a57610f99565b6001915050610ff8565b60ff841115610f7c57610f7b610e9d565b5b8360020a915084821115610f9357610f92610e9d565b5b50610ff8565b5060208310610133831016604e8410600b8410161715610fce5782820a905083811115610fc957610fc8610e9d565b5b610ff8565b610fdb8484846001610ed9565b92509050818404811115610ff257610ff1610e9d565b5b81810290505b9392505050565b600060ff82169050919050565b600061101782610c40565b915061102283610fff565b925061104f7fffffffffffffffffffffffffffffffffffffffffffffffffffffffffffffffff8484610f2c565b905092915050565b600061106282610c40565b915061106d83610c40565b925082820261107b81610c40565b9150828204841483151761109257611091610e9d565b5b5092915050565b600082825260208201905092915050565b7f496e76616c69642049424320636f6e7472616374206164647265737300000000600082015250565b60006110e0601c83611099565b91506110eb826110aa565b602082019050919050565b6000602082019050818103600083015261110f816110d3565b9050919050565b61111f816108b6565b82525050565b61112e81610c40565b82525050565b600060a0820190506111496000830188611116565b6111566020830187611116565b6111636040830186611116565b6111706060830185611125565b61117d6080830184610e44565b9695505050505050565b60005b838110156111a557808201518184015260208101905061118a565b60008484015250505050565b60006111bc82610b51565b6111c68185611099565b93506111d6818560208601611187565b6111df816108f1565b840191505092915050565b6000602082019050818103600083015261120481846111b1565b905092915050565b600081519050919050565b6000819050602082019050919050565b600061123382516108b6565b80915050919050565b60006112478261120c565b8261125184611217565b905061125c81611227565b9250602082101561129c576112977fffffffffffffffffffffffffffffffffffffffffffffffffffffffffffffffff83602003600802610be1565b831692505b5050919050565b60006112ae82610c40565b91506112b983610c40565b92508282019050808211156112d1576112d0610e9d565b5b92915050565b60006060820190506112ec6000830186610e44565b6112f96020830185611125565b6113066040830184611125565b949350505050565b60006020820190506113236000830184611125565b92915050565b60805160a05160c05160e0516101005161012051610140516140b86113836000396000611ef401526000611eb9015260006124e8015260006124c701526000611c6701526000611cbd01526000611ce601526140b86000f3fe6080604052600436106101c25760003560e01c8063715018a6116100f7578063a8e99e8a11610095578063d505accf11610064578063d505accf14610632578063dd62ed3e1461065b578063eb250d1e14610698578063f2fde38b146106d7576101c2565b8063a8e99e8a14610585578063a9059cbb146105a1578063c235ffae146105de578063d318ed4714610609576101c2565b806384b0196e116100d157806384b0196e146104d55780638da5cb5b1461050657806395d89b411461053157806399189e441461055c576101c2565b8063715018a6146104585780637ecebe001461046f57806382dee11f146104ac576101c2565b8063313ce5671161016457806348c455261161013e57806348c455261461039957806367f81fc0146103d657806370638ce5146103ff57806370a082311461041b576101c2565b8063313ce567146103185780633644e515146103435780633a66cef61461036e576101c2565b806322beeba3116101a057806322beeba31461025a578063238dafe01461028557806323b872dd146102b057806328088404146102ed576101c2565b806306fdde03146101c7578063095ea7b3146101f257806318160ddd1461022f575b600080fd5b3480156101d357600080fd5b506101dc610700565b6040516101e99190612bfa565b60405180910390f35b3480156101fe57600080fd5b5061021960048036038101906102149190612cc4565b610792565b6040516102269190612d1f565b60405180910390f35b34801561023b57600080fd5b506102446107b5565b6040516102519190612d49565b60405180910390f35b34801561026657600080fd5b5061026f6107bf565b60405161027c9190612d7d565b60405180910390f35b34801561029157600080fd5b5061029a6107c5565b6040516102a79190612d1f565b60405180910390f35b3480156102bc57600080fd5b506102d760048036038101906102d29190612d98565b6107dc565b6040516102e49190612d1f565b60405180910390f35b3480156102f957600080fd5b506103026107fa565b60405161030f9190612e0a565b60405180910390f35b34801561032457600080fd5b5061032d610810565b60405161033a9190612e41565b60405180910390f35b34801561034f57600080fd5b50610358610819565b6040516103659190612d7d565b60405180910390f35b34801561037a57600080fd5b50610383610828565b6040516103909190612d49565b60405180910390f35b3480156103a557600080fd5b506103c060048036038101906103bb9190612e88565b61082e565b6040516103cd9190612d1f565b60405180910390f35b3480156103e257600080fd5b506103fd60048036038101906103f89190612eb5565b61084e565b005b61041960048036038101906104149190612e88565b6109b9565b005b34801561042757600080fd5b50610442600480360381019061043d9190612ee2565b610d36565b60405161044f9190612d49565b60405180910390f35b34801561046457600080fd5b5061046d610d7e565b005b34801561047b57600080fd5b5061049660048036038101906104919190612ee2565b610d92565b6040516104a39190612d49565b60405180910390f35b3480156104b857600080fd5b506104d360048036038101906104ce9190612f3b565b610da4565b005b3480156104e157600080fd5b506104ea610de6565b6040516104fd9796959493929190613070565b60405180910390f35b34801561051257600080fd5b5061051b610e90565b60405161052891906130f4565b60405180910390f35b34801561053d57600080fd5b50610546610eba565b6040516105539190612bfa565b60405180910390f35b34801561056857600080fd5b50610583600480360381019061057e9190613244565b610f4c565b005b61059f600480360381019061059a91906132e8565b611378565b005b3480156105ad57600080fd5b506105c860048036038101906105c39190612cc4565b61179e565b6040516105d59190612d1f565b60405180910390f35b3480156105ea57600080fd5b506105f36117ba565b60405161060091906130f4565b60405180910390f35b34801561061557600080fd5b50610630600480360381019061062b9190612ee2565b6117e0565b005b34801561063e57600080fd5b5061065960048036038101906106549190613354565b611917565b005b34801561066757600080fd5b50610682600480360381019061067d91906133f6565b611a5f565b60405161068f9190612d49565b60405180910390f35b3480156106a457600080fd5b506106bf60048036038101906106ba9190612e88565b611ae6565b6040516106ce93929190613445565b60405180910390f35b3480156106e357600080fd5b506106fe60048036038101906106f99190612ee2565b611b4c565b005b60606003805461070f906134ab565b80601f016020809104026020016040519081016040528092919081815260200182805461073b906134ab565b80156107885780601f1061075d57610100808354040283529160200191610788565b820191906000526020600020905b81548152906001019060200180831161076b57829003601f168201915b5050505050905090565b60008061079d611bd2565b90506107aa818585611bda565b600191505092915050565b6000600254905090565b600a5481565b6000600860149054906101000a900460ff16905090565b60006107e6611bec565b6107f1848484611c34565b90509392505050565b600d60009054906101000a900463ffffffff1681565b6000600c905090565b6000610823611c63565b905090565b600b5481565b600c6020528060005260406000206000915054906101000a900460ff1681565b610856611d1a565b6000600960009054906101000a900473ffffffffffffffffffffffffffffffffffffffff1690506000808273ffffffffffffffffffffffffffffffffffffffff166379502c556040518163ffffffff1660e01b815260040160a060405180830381865afa1580156108cb573d6000803e3d6000fd5b505050506040513d601f19601f820116820180604052508101906108ef9190613506565b5093509350505081841015610939576040517f08c379a0000000000000000000000000000000000000000000000000000000008152600401610930906135cd565b60405180910390fd5b8084111561097c576040517f08c379a000000000000000000000000000000000000000000000000000000000815260040161097390613639565b60405180910390fd5b83600b547fa485a88a368ebaead07316d0ecff078ceb5d1b46efd14b94247270d4171cd4db60405160405180910390a383600b8190555050505050565b6000600e60008363ffffffff1663ffffffff16815260200190815260200160002060010160009054906101000a90046fffffffffffffffffffffffffffffffff166fffffffffffffffffffffffffffffffff1611610a4c576040517f08c379a0000000000000000000000000000000000000000000000000000000008152600401610a43906136a5565b60405180910390fd5b6000600e60008363ffffffff1663ffffffff1681526020019081526020016000206040518060600160405290816000820160009054906101000a900473ffffffffffffffffffffffffffffffffffffffff1673ffffffffffffffffffffffffffffffffffffffff1673ffffffffffffffffffffffffffffffffffffffff1681526020016001820160009054906101000a90046fffffffffffffffffffffffffffffffff166fffffffffffffffffffffffffffffffff166fffffffffffffffffffffffffffffffff1681526020016002820154815250509050600082604051602001610b3791906136fb565b60405160208183030381529060405280519060200120905060008083602001516000868660400151604051602001610b7395949392919061376d565b60405160208183030381529060405290506000600960009054906101000a900473ffffffffffffffffffffffffffffffffffffffff1673ffffffffffffffffffffffffffffffffffffffff163484600a5485600b54604051602401610bdb9493929190613821565b6040516020818303038152906040527fc8a24482000000000000000000000000000000000000000000000000000000007bffffffffffffffffffffffffffffffffffffffffffffffffffffffff19166020820180517bffffffffffffffffffffffffffffffffffffffffffffffffffffffff8381831617835250505050604051610c6591906138a9565b60006040518083038185875af1925050503d8060008114610ca2576040519150601f19603f3d011682016040523d82523d6000602084013e610ca7565b606091505b5050905080610ceb576040517f08c379a0000000000000000000000000000000000000000000000000000000008152600401610ce29061390c565b60405180910390fd5b83604001517fcf5d7bf366de9aefdb2e7cfff5076e740720703fa9341ca5df34db66baf7456a85602001513488604051610d279392919061392c565b60405180910390a25050505050565b60008060008373ffffffffffffffffffffffffffffffffffffffff1673ffffffffffffffffffffffffffffffffffffffff168152602001908152602001600020549050919050565b610d86611d1a565b610d906000611da1565b565b6000610d9d82611e67565b9050919050565b610dac611d1a565b80600a547fa14e2697861aa95e9c5e36a1d08f76fe80944fba775ae48272e7139f7cdbbe1460405160405180910390a380600a8190555050565b600060608060008060006060610dfa611eb0565b610e02611eeb565b46306000801b600067ffffffffffffffff811115610e2357610e22613119565b5b604051908082528060200260200182016040528015610e515781602001602082028036833780820191505090505b507f0f00000000000000000000000000000000000000000000000000000000000000959493929190965096509650965096509650965090919293949596565b6000600860009054906101000a900473ffffffffffffffffffffffffffffffffffffffff16905090565b606060048054610ec9906134ab565b80601f0160208091040260200160405190810160405280929190818152602001828054610ef5906134ab565b8015610f425780601f10610f1757610100808354040283529160200191610f42565b820191906000526020600020905b815481529060010190602001808311610f2557829003601f168201915b5050505050905090565b600960009054906101000a900473ffffffffffffffffffffffffffffffffffffffff1673ffffffffffffffffffffffffffffffffffffffff163373ffffffffffffffffffffffffffffffffffffffff1614610fdc576040517f08c379a0000000000000000000000000000000000000000000000000000000008152600401610fd3906139af565b60405180910390fd5b600a548214611020576040517f08c379a000000000000000000000000000000000000000000000000000000000815260040161101790613a1b565b60405180910390fd5b600481511015611065576040517f08c379a000000000000000000000000000000000000000000000000000000000815260040161105c90613a87565b60405180910390fd5b6000602082015160e01c905060008163ffffffff16036112c35760308251146110c3576040517f08c379a00000000000000000000000000000000000000000000000000000000081526004016110ba90613af3565b60405180910390fd5b600080600080602486015160801c9350603486015160e01c9250603886015160e01c9150603c86015160601c9050600073ffffffffffffffffffffffffffffffffffffffff168173ffffffffffffffffffffffffffffffffffffffff1603611160576040517f08c379a000000000000000000000000000000000000000000000000000000000815260040161115790613b5f565b60405180910390fd5b60008363ffffffff16146111a9576040517f08c379a00000000000000000000000000000000000000000000000000000000081526004016111a090613bcb565b60405180910390fd5b600c60008363ffffffff1663ffffffff16815260200190815260200160002060009054906101000a900460ff1615611216576040517f08c379a000000000000000000000000000000000000000000000000000000000815260040161120d90613c37565b60405180910390fd5b6001600c60008463ffffffff1663ffffffff16815260200190815260200160002060006101000a81548160ff02191690831515021790555061126a81856fffffffffffffffffffffffffffffffff16611f26565b8073ffffffffffffffffffffffffffffffffffffffff167fbdde8979688e10cf227fc00e2a09f04c8eccc879b4b872c96532e71c0dd7b21085846040516112b2929190613c92565b60405180910390a250505050611373565b60018163ffffffff1603611337576005825114611315576040517f08c379a000000000000000000000000000000000000000000000000000000000815260040161130c90613af3565b60405180910390fd5b6000602483015160f81c905061133160008260ff161415611fa8565b50611372565b6040517f08c379a000000000000000000000000000000000000000000000000000000000815260040161136990613d07565b60405180910390fd5b5b505050565b611380611bec565b6000826fffffffffffffffffffffffffffffffff16116113d5576040517f08c379a00000000000000000000000000000000000000000000000000000000081526004016113cc90613d73565b60405180910390fd5b816fffffffffffffffffffffffffffffffff166113f133610d36565b1015611432576040517f08c379a000000000000000000000000000000000000000000000000000000000815260040161142990613ddf565b60405180910390fd5b6000600d60009054906101000a900463ffffffff169050600d600081819054906101000a900463ffffffff168092919061146b90613e2e565b91906101000a81548163ffffffff021916908363ffffffff1602179055505060008160405160200161149d91906136fb565b60405160208183030381529060405280519060200120905060008085600085876040516020016114d195949392919061376d565b60405160208183030381529060405290506114fe33866fffffffffffffffffffffffffffffffff16611ffc565b60405180606001604052803373ffffffffffffffffffffffffffffffffffffffff168152602001866fffffffffffffffffffffffffffffffff16815260200185815250600e60008563ffffffff1663ffffffff16815260200190815260200160002060008201518160000160006101000a81548173ffffffffffffffffffffffffffffffffffffffff021916908373ffffffffffffffffffffffffffffffffffffffff16021790555060208201518160010160006101000a8154816fffffffffffffffffffffffffffffffff02191690836fffffffffffffffffffffffffffffffff160217905550604082015181600201559050506000600960009054906101000a900473ffffffffffffffffffffffffffffffffffffffff1673ffffffffffffffffffffffffffffffffffffffff163484600a5485600b5460405160240161164a9493929190613821565b6040516020818303038152906040527fc8a24482000000000000000000000000000000000000000000000000000000007bffffffffffffffffffffffffffffffffffffffffffffffffffffffff19166020820180517bffffffffffffffffffffffffffffffffffffffffffffffffffffffff83818316178352505050506040516116d491906138a9565b60006040518083038185875af1925050503d8060008114611711576040519150601f19603f3d011682016040523d82523d6000602084013e611716565b606091505b505090508061175a576040517f08c379a00000000000000000000000000000000000000000000000000000000081526004016117519061390c565b60405180910390fd5b847fddbf1bcef359cc7e89612599db42f6e24e6bc1bf00d20a205ebe94a2066df50887348760405161178e9392919061392c565b60405180910390a2505050505050565b60006117a8611bec565b6117b2838361207e565b905092915050565b600960009054906101000a900473ffffffffffffffffffffffffffffffffffffffff1681565b6117e8611d1a565b600073ffffffffffffffffffffffffffffffffffffffff168173ffffffffffffffffffffffffffffffffffffffff1603611857576040517f08c379a000000000000000000000000000000000000000000000000000000000815260040161184e90613ea6565b60405180910390fd5b8073ffffffffffffffffffffffffffffffffffffffff16600960009054906101000a900473ffffffffffffffffffffffffffffffffffffffff1673ffffffffffffffffffffffffffffffffffffffff167fb4f4eb2c59e82e78670d9c46b2710303f24fb6d764a4a7fb86b3036d5622774060405160405180910390a380600960006101000a81548173ffffffffffffffffffffffffffffffffffffffff021916908373ffffffffffffffffffffffffffffffffffffffff16021790555050565b8342111561195c57836040517f627913020000000000000000000000000000000000000000000000000000000081526004016119539190612d49565b60405180910390fd5b60007f6e71edae12b1b97f4d1f60370fef10105fa2faae0126114a169c64845d6126c988888861198b8c6120a1565b896040516020016119a196959493929190613ec6565b60405160208183030381529060405280519060200120905060006119c4826120f8565b905060006119d482878787612112565b90508973ffffffffffffffffffffffffffffffffffffffff168173ffffffffffffffffffffffffffffffffffffffff1614611a4857808a6040517f4b800e46000000000000000000000000000000000000000000000000000000008152600401611a3f929190613f27565b60405180910390fd5b611a538a8a8a611bda565b50505050505050505050565b6000600160008473ffffffffffffffffffffffffffffffffffffffff1673ffffffffffffffffffffffffffffffffffffffff16815260200190815260200160002060008373ffffffffffffffffffffffffffffffffffffffff1673ffffffffffffffffffffffffffffffffffffffff16815260200190815260200160002054905092915050565b600e6020528060005260406000206000915090508060000160009054906101000a900473ffffffffffffffffffffffffffffffffffffffff16908060010160009054906101000a90046fffffffffffffffffffffffffffffffff16908060020154905083565b611b54611d1a565b600073ffffffffffffffffffffffffffffffffffffffff168173ffffffffffffffffffffffffffffffffffffffff1603611bc65760006040517f1e4fbdf7000000000000000000000000000000000000000000000000000000008152600401611bbd91906130f4565b60405180910390fd5b611bcf81611da1565b50565b600033905090565b611be78383836001612142565b505050565b600860149054906101000a900460ff16611c32576040517f7ea8ac5600000000000000000000000000000000000000000000000000000000815260040160405180910390fd5b565b600080611c3f611bd2565b9050611c4c858285612319565b611c578585856123ae565b60019150509392505050565b60007f000000000000000000000000000000000000000000000000000000000000000073ffffffffffffffffffffffffffffffffffffffff163073ffffffffffffffffffffffffffffffffffffffff16148015611cdf57507f000000000000000000000000000000000000000000000000000000000000000046145b15611d0c577f00000000000000000000000000000000000000000000000000000000000000009050611d17565b611d146124a2565b90505b90565b611d22611bd2565b73ffffffffffffffffffffffffffffffffffffffff16611d40610e90565b73ffffffffffffffffffffffffffffffffffffffff1614611d9f57611d63611bd2565b6040517f118cdaa7000000000000000000000000000000000000000000000000000000008152600401611d9691906130f4565b60405180910390fd5b565b6000600860009054906101000a900473ffffffffffffffffffffffffffffffffffffffff16905081600860006101000a81548173ffffffffffffffffffffffffffffffffffffffff021916908373ffffffffffffffffffffffffffffffffffffffff1602179055508173ffffffffffffffffffffffffffffffffffffffff168173ffffffffffffffffffffffffffffffffffffffff167f8be0079c531659141344cd1fd0a4f28419497f9722a3daafe3b4186f6b6457e060405160405180910390a35050565b6000600760008373ffffffffffffffffffffffffffffffffffffffff1673ffffffffffffffffffffffffffffffffffffffff168152602001908152602001600020549050919050565b6060611ee660057f000000000000000000000000000000000000000000000000000000000000000061253890919063ffffffff16565b905090565b6060611f2160067f000000000000000000000000000000000000000000000000000000000000000061253890919063ffffffff16565b905090565b600073ffffffffffffffffffffffffffffffffffffffff168273ffffffffffffffffffffffffffffffffffffffff1603611f985760006040517fec442f05000000000000000000000000000000000000000000000000000000008152600401611f8f91906130f4565b60405180910390fd5b611fa4600083836125e8565b5050565b80600860146101000a81548160ff0219169083151502179055507f54ca1f89aee2b8d11c89b7813c6aa99caa0f8c55c8eccf8b70c3bb42029fa13481604051611ff19190612d1f565b60405180910390a150565b600073ffffffffffffffffffffffffffffffffffffffff168273ffffffffffffffffffffffffffffffffffffffff160361206e5760006040517f96c6fd1e00000000000000000000000000000000000000000000000000000000815260040161206591906130f4565b60405180910390fd5b61207a826000836125e8565b5050565b600080612089611bd2565b90506120968185856123ae565b600191505092915050565b6000600760008373ffffffffffffffffffffffffffffffffffffffff1673ffffffffffffffffffffffffffffffffffffffff1681526020019081526020016000206000815480929190600101919050559050919050565b600061210b612105611c63565b8361280d565b9050919050565b6000806000806121248888888861284e565b9250925092506121348282612942565b829350505050949350505050565b600073ffffffffffffffffffffffffffffffffffffffff168473ffffffffffffffffffffffffffffffffffffffff16036121b45760006040517fe602df050000000000000000000000000000000000000000000000000000000081526004016121ab91906130f4565b60405180910390fd5b600073ffffffffffffffffffffffffffffffffffffffff168373ffffffffffffffffffffffffffffffffffffffff16036122265760006040517f94280d6200000000000000000000000000000000000000000000000000000000815260040161221d91906130f4565b60405180910390fd5b81600160008673ffffffffffffffffffffffffffffffffffffffff1673ffffffffffffffffffffffffffffffffffffffff16815260200190815260200160002060008573ffffffffffffffffffffffffffffffffffffffff1673ffffffffffffffffffffffffffffffffffffffff168152602001908152602001600020819055508015612313578273ffffffffffffffffffffffffffffffffffffffff168473ffffffffffffffffffffffffffffffffffffffff167f8c5be1e5ebec7d5bd14f71427d1e84f3dd0314c0f7b2291e5b200ac8c7c3b9258460405161230a9190612d49565b60405180910390a35b50505050565b60006123258484611a5f565b90507fffffffffffffffffffffffffffffffffffffffffffffffffffffffffffffffff8110156123a85781811015612398578281836040517ffb8f41b200000000000000000000000000000000000000000000000000000000815260040161238f93929190613f50565b60405180910390fd5b6123a784848484036000612142565b5b50505050565b600073ffffffffffffffffffffffffffffffffffffffff168373ffffffffffffffffffffffffffffffffffffffff16036124205760006040517f96c6fd1e00000000000000000000000000000000000000000000000000000000815260040161241791906130f4565b60405180910390fd5b600073ffffffffffffffffffffffffffffffffffffffff168273ffffffffffffffffffffffffffffffffffffffff16036124925760006040517fec442f0500000000000000000000000000000000000000000000000000000000815260040161248991906130f4565b60405180910390fd5b61249d8383836125e8565b505050565b60007f8b73c3c69bb8fe3d512ecc4cf759cc79239f7b179b0ffacaa9a75d522b39400f7f00000000000000000000000000000000000000000000000000000000000000007f0000000000000000000000000000000000000000000000000000000000000000463060405160200161251d959493929190613f87565b60405160208183030381529060405280519060200120905090565b606060ff60001b83146125555761254e83612aa6565b90506125e2565b818054612561906134ab565b80601f016020809104026020016040519081016040528092919081815260200182805461258d906134ab565b80156125da5780601f106125af576101008083540402835291602001916125da565b820191906000526020600020905b8154815290600101906020018083116125bd57829003601f168201915b505050505090505b92915050565b600073ffffffffffffffffffffffffffffffffffffffff168373ffffffffffffffffffffffffffffffffffffffff160361263a57806002600082825461262e9190613fda565b9250508190555061270d565b60008060008573ffffffffffffffffffffffffffffffffffffffff1673ffffffffffffffffffffffffffffffffffffffff168152602001908152602001600020549050818110156126c6578381836040517fe450d38c0000000000000000000000000000000000000000000000000000000081526004016126bd93929190613f50565b60405180910390fd5b8181036000808673ffffffffffffffffffffffffffffffffffffffff1673ffffffffffffffffffffffffffffffffffffffff16815260200190815260200160002081905550505b600073ffffffffffffffffffffffffffffffffffffffff168273ffffffffffffffffffffffffffffffffffffffff160361275657806002600082825403925050819055506127a3565b806000808473ffffffffffffffffffffffffffffffffffffffff1673ffffffffffffffffffffffffffffffffffffffff168152602001908152602001600020600082825401925050819055505b8173ffffffffffffffffffffffffffffffffffffffff168373ffffffffffffffffffffffffffffffffffffffff167fddf252ad1be2c89b69c2b068fc378daa952ba7f163c4a11628f55a4df523b3ef836040516128009190612d49565b60405180910390a3505050565b60006040517f190100000000000000000000000000000000000000000000000000000000000081528360028201528260228201526042812091505092915050565b60008060007f7fffffffffffffffffffffffffffffff5d576e7357a4501ddfe92f46681b20a08460001c111561288e576000600385925092509250612938565b6000600188888888604051600081526020016040526040516128b3949392919061400e565b6020604051602081039080840390855afa1580156128d5573d6000803e3d6000fd5b505050602060405103519050600073ffffffffffffffffffffffffffffffffffffffff168173ffffffffffffffffffffffffffffffffffffffff160361292957600060016000801b93509350935050612938565b8060008060001b935093509350505b9450945094915050565b6000600381111561295657612955614053565b5b82600381111561296957612968614053565b5b0315612aa2576001600381111561298357612982614053565b5b82600381111561299657612995614053565b5b036129cd576040517ff645eedf00000000000000000000000000000000000000000000000000000000815260040160405180910390fd5b600260038111156129e1576129e0614053565b5b8260038111156129f4576129f3614053565b5b03612a39578060001c6040517ffce698f7000000000000000000000000000000000000000000000000000000008152600401612a309190612d49565b60405180910390fd5b600380811115612a4c57612a4b614053565b5b826003811115612a5f57612a5e614053565b5b03612aa157806040517fd78bce0c000000000000000000000000000000000000000000000000000000008152600401612a989190612d7d565b60405180910390fd5b5b5050565b60606000612ab383612b1a565b90506000602067ffffffffffffffff811115612ad257612ad1613119565b5b6040519080825280601f01601f191660200182016040528015612b045781602001600182028036833780820191505090505b5090508181528360208201528092505050919050565b60008060ff8360001c169050601f811115612b61576040517fb3512b0c00000000000000000000000000000000000000000000000000000000815260040160405180910390fd5b80915050919050565b600081519050919050565b600082825260208201905092915050565b60005b83811015612ba4578082015181840152602081019050612b89565b60008484015250505050565b6000601f19601f8301169050919050565b6000612bcc82612b6a565b612bd68185612b75565b9350612be6818560208601612b86565b612bef81612bb0565b840191505092915050565b60006020820190508181036000830152612c148184612bc1565b905092915050565b6000604051905090565b600080fd5b600080fd5b600073ffffffffffffffffffffffffffffffffffffffff82169050919050565b6000612c5b82612c30565b9050919050565b612c6b81612c50565b8114612c7657600080fd5b50565b600081359050612c8881612c62565b92915050565b6000819050919050565b612ca181612c8e565b8114612cac57600080fd5b50565b600081359050612cbe81612c98565b92915050565b60008060408385031215612cdb57612cda612c26565b5b6000612ce985828601612c79565b9250506020612cfa85828601612caf565b9150509250929050565b60008115159050919050565b612d1981612d04565b82525050565b6000602082019050612d346000830184612d10565b92915050565b612d4381612c8e565b82525050565b6000602082019050612d5e6000830184612d3a565b92915050565b6000819050919050565b612d7781612d64565b82525050565b6000602082019050612d926000830184612d6e565b92915050565b600080600060608486031215612db157612db0612c26565b5b6000612dbf86828701612c79565b9350506020612dd086828701612c79565b9250506040612de186828701612caf565b9150509250925092565b600063ffffffff82169050919050565b612e0481612deb565b82525050565b6000602082019050612e1f6000830184612dfb565b92915050565b600060ff82169050919050565b612e3b81612e25565b82525050565b6000602082019050612e566000830184612e32565b92915050565b612e6581612deb565b8114612e7057600080fd5b50565b600081359050612e8281612e5c565b92915050565b600060208284031215612e9e57612e9d612c26565b5b6000612eac84828501612e73565b91505092915050565b600060208284031215612ecb57612eca612c26565b5b6000612ed984828501612caf565b91505092915050565b600060208284031215612ef857612ef7612c26565b5b6000612f0684828501612c79565b91505092915050565b612f1881612d64565b8114612f2357600080fd5b50565b600081359050612f3581612f0f565b92915050565b600060208284031215612f5157612f50612c26565b5b6000612f5f84828501612f26565b91505092915050565b60007fff0000000000000000000000000000000000000000000000000000000000000082169050919050565b612f9d81612f68565b82525050565b612fac81612c50565b82525050565b600081519050919050565b600082825260208201905092915050565b6000819050602082019050919050565b612fe781612c8e565b82525050565b6000612ff98383612fde565b60208301905092915050565b6000602082019050919050565b600061301d82612fb2565b6130278185612fbd565b935061303283612fce565b8060005b8381101561306357815161304a8882612fed565b975061305583613005565b925050600181019050613036565b5085935050505092915050565b600060e082019050613085600083018a612f94565b81810360208301526130978189612bc1565b905081810360408301526130ab8188612bc1565b90506130ba6060830187612d3a565b6130c76080830186612fa3565b6130d460a0830185612d6e565b81810360c08301526130e68184613012565b905098975050505050505050565b60006020820190506131096000830184612fa3565b92915050565b600080fd5b600080fd5b7f4e487b7100000000000000000000000000000000000000000000000000000000600052604160045260246000fd5b61315182612bb0565b810181811067ffffffffffffffff821117156131705761316f613119565b5b80604052505050565b6000613183612c1c565b905061318f8282613148565b919050565b600067ffffffffffffffff8211156131af576131ae613119565b5b6131b882612bb0565b9050602081019050919050565b82818337600083830152505050565b60006131e76131e284613194565b613179565b90508281526020810184848401111561320357613202613114565b5b61320e8482856131c5565b509392505050565b600082601f83011261322b5761322a61310f565b5b813561323b8482602086016131d4565b91505092915050565b6000806040838503121561325b5761325a612c26565b5b600061326985828601612f26565b925050602083013567ffffffffffffffff81111561328a57613289612c2b565b5b61329685828601613216565b9150509250929050565b60006fffffffffffffffffffffffffffffffff82169050919050565b6132c5816132a0565b81146132d057600080fd5b50565b6000813590506132e2816132bc565b92915050565b600080604083850312156132ff576132fe612c26565b5b600061330d858286016132d3565b925050602061331e85828601612f26565b9150509250929050565b61333181612e25565b811461333c57600080fd5b50565b60008135905061334e81613328565b92915050565b600080600080600080600060e0888a03121561337357613372612c26565b5b60006133818a828b01612c79565b97505060206133928a828b01612c79565b96505060406133a38a828b01612caf565b95505060606133b48a828b01612caf565b94505060806133c58a828b0161333f565b93505060a06133d68a828b01612f26565b92505060c06133e78a828b01612f26565b91505092959891949750929550565b6000806040838503121561340d5761340c612c26565b5b600061341b85828601612c79565b925050602061342c85828601612c79565b9150509250929050565b61343f816132a0565b82525050565b600060608201905061345a6000830186612fa3565b6134676020830185613436565b6134746040830184612d6e565b949350505050565b7f4e487b7100000000000000000000000000000000000000000000000000000000600052602260045260246000fd5b600060028204905060018216806134c357607f821691505b6020821081036134d6576134d561347c565b5b50919050565b6000815190506134eb81613328565b92915050565b60008151905061350081612c98565b92915050565b600080600080600060a0868803121561352257613521612c26565b5b6000613530888289016134dc565b9550506020613541888289016134dc565b9450506040613552888289016134f1565b9350506060613563888289016134f1565b9250506080613574888289016134f1565b9150509295509295909350565b7f4f7574676f696e6754544c20746f6f20736d616c6c0000000000000000000000600082015250565b60006135b7601583612b75565b91506135c282613581565b602082019050919050565b600060208201905081810360008301526135e6816135aa565b9050919050565b7f4f7574676f696e6754544c20746f6f206c617267650000000000000000000000600082015250565b6000613623601583612b75565b915061362e826135ed565b602082019050919050565b6000602082019050818103600083015261365281613616565b9050919050565b7f5472616e73666572206e6f7420666f756e640000000000000000000000000000600082015250565b600061368f601283612b75565b915061369a82613659565b602082019050919050565b600060208201905081810360008301526136be81613682565b9050919050565b60008160e01b9050919050565b60006136dd826136c5565b9050919050565b6136f56136f082612deb565b6136d2565b82525050565b600061370782846136e4565b60048201915081905092915050565b60008160801b9050919050565b600061372e82613716565b9050919050565b613746613741826132a0565b613723565b82525050565b6000819050919050565b61376761376282612d64565b61374c565b82525050565b600061377982886136e4565b6004820191506137898287613735565b60108201915061379982866136e4565b6004820191506137a982856136e4565b6004820191506137b98284613756565b6020820191508190509695505050505050565b600081519050919050565b600082825260208201905092915050565b60006137f3826137cc565b6137fd81856137d7565b935061380d818560208601612b86565b61381681612bb0565b840191505092915050565b60006080820190506138366000830187612d6e565b6138436020830186612d6e565b818103604083015261385581856137e8565b90506138646060830184612d3a565b95945050505050565b600081905092915050565b6000613883826137cc565b61388d818561386d565b935061389d818560208601612b86565b80840191505092915050565b60006138b58284613878565b915081905092915050565b7f73656e644d657373616765206661696c65640000000000000000000000000000600082015250565b60006138f6601283612b75565b9150613901826138c0565b602082019050919050565b60006020820190508181036000830152613925816138e9565b9050919050565b60006060820190506139416000830186613436565b61394e6020830185612d3a565b61395b6040830184612dfb565b949350505050565b7f556e617574686f72697a6564206f726967696e00000000000000000000000000600082015250565b6000613999601383612b75565b91506139a482613963565b602082019050919050565b600060208201905081810360008301526139c88161398c565b9050919050565b7f556e617574686f72697a65642073656e64657200000000000000000000000000600082015250565b6000613a05601383612b75565b9150613a10826139cf565b602082019050919050565b60006020820190508181036000830152613a34816139f8565b9050919050565b7f496e76616c696420616374696f6e000000000000000000000000000000000000600082015250565b6000613a71600e83612b75565b9150613a7c82613a3b565b602082019050919050565b60006020820190508181036000830152613aa081613a64565b9050919050565b7f496e76616c696420616374696f6e207061796c6f616400000000000000000000600082015250565b6000613add601683612b75565b9150613ae882613aa7565b602082019050919050565b60006020820190508181036000830152613b0c81613ad0565b9050919050565b7f496e76616c696420726563697069656e74000000000000000000000000000000600082015250565b6000613b49601183612b75565b9150613b5482613b13565b602082019050919050565b60006020820190508181036000830152613b7881613b3c565b9050919050565b7f556e737570706f72746564206173736574496400000000000000000000000000600082015250565b6000613bb5601383612b75565b9150613bc082613b7f565b602082019050919050565b60006020820190508181036000830152613be481613ba8565b9050919050565b7f5472616e7366657220616c726561647920726563656976656400000000000000600082015250565b6000613c21601983612b75565b9150613c2c82613beb565b602082019050919050565b60006020820190508181036000830152613c5081613c14565b9050919050565b6000819050919050565b6000613c7c613c77613c72846132a0565b613c57565b612c8e565b9050919050565b613c8c81613c61565b82525050565b6000604082019050613ca76000830185613c83565b613cb46020830184612dfb565b9392505050565b7f556e737570706f7274656420616374696f6e0000000000000000000000000000600082015250565b6000613cf1601283612b75565b9150613cfc82613cbb565b602082019050919050565b60006020820190508181036000830152613d2081613ce4565b9050919050565b7f43616e6e6f74207472616e73666572203020616d6f756e740000000000000000600082015250565b6000613d5d601883612b75565b9150613d6882613d27565b602082019050919050565b60006020820190508181036000830152613d8c81613d50565b9050919050565b7f496e73756666696369656e74204143552062616c616e63650000000000000000600082015250565b6000613dc9601883612b75565b9150613dd482613d93565b602082019050919050565b60006020820190508181036000830152613df881613dbc565b9050919050565b7f4e487b7100000000000000000000000000000000000000000000000000000000600052601160045260246000fd5b6000613e3982612deb565b915063ffffffff8203613e4f57613e4e613dff565b5b600182019050919050565b7f496e76616c69642049424320636f6e7472616374206164647265737300000000600082015250565b6000613e90601c83612b75565b9150613e9b82613e5a565b602082019050919050565b60006020820190508181036000830152613ebf81613e83565b9050919050565b600060c082019050613edb6000830189612d6e565b613ee86020830188612fa3565b613ef56040830187612fa3565b613f026060830186612d3a565b613f0f6080830185612d3a565b613f1c60a0830184612d3a565b979650505050505050565b6000604082019050613f3c6000830185612fa3565b613f496020830184612fa3565b9392505050565b6000606082019050613f656000830186612fa3565b613f726020830185612d3a565b613f7f6040830184612d3a565b949350505050565b600060a082019050613f9c6000830188612d6e565b613fa96020830187612d6e565b613fb66040830186612d6e565b613fc36060830185612d3a565b613fd06080830184612fa3565b9695505050505050565b6000613fe582612c8e565b9150613ff083612c8e565b925082820190508082111561400857614007613dff565b5b92915050565b60006080820190506140236000830187612d6e565b6140306020830186612e32565b61403d6040830185612d6e565b61404a6060830184612d6e565b95945050505050565b7f4e487b7100000000000000000000000000000000000000000000000000000000600052602160045260246000fdfea2646970667358221220b112f010847d7525803338a136bfe34457c42f609f9c20aa416aafb53732620064736f6c634300081c0033",
  "linkReferences": {},
  "deployedLinkReferences": {}
}