{
  "_format": "hh-sol-artifact-1",
  "contractName": "AcurastToken",
  "sourceName": "contracts/acu.sol",
  "abi": [
    {
      "inputs": [
        {
          "internalType": "address",
          "name": "_ibcContract",
          "type": "address"
        },
        {
          "internalType": "bytes32",
          "name": "_tokenPalletAccount",
          "type": "bytes32"
        }
      ],
      "stateMutability": "nonpayable",
      "type": "constructor"
    },
    {
      "inputs": [
        {
          "internalType": "address",
          "name": "spender",
          "type": "address"
        },
        {
          "internalType": "uint256",
          "name": "allowance",
          "type": "uint256"
        },
        {
          "internalType": "uint256",
          "name": "needed",
          "type": "uint256"
        }
      ],
      "name": "ERC20InsufficientAllowance",
      "type": "error"
    },
    {
      "inputs": [
        {
          "internalType": "address",
          "name": "sender",
          "type": "address"
        },
        {
          "internalType": "uint256",
          "name": "balance",
          "type": "uint256"
        },
        {
          "internalType": "uint256",
          "name": "needed",
          "type": "uint256"
        }
      ],
      "name": "ERC20InsufficientBalance",
      "type": "error"
    },
    {
      "inputs": [
        {
          "internalType": "address",
          "name": "approver",
          "type": "address"
        }
      ],
      "name": "ERC20InvalidApprover",
      "type": "error"
    },
    {
      "inputs": [
        {
          "internalType": "address",
          "name": "receiver",
          "type": "address"
        }
      ],
      "name": "ERC20InvalidReceiver",
      "type": "error"
    },
    {
      "inputs": [
        {
          "internalType": "address",
          "name": "sender",
          "type": "address"
        }
      ],
      "name": "ERC20InvalidSender",
      "type": "error"
    },
    {
      "inputs": [
        {
          "internalType": "address",
          "name": "spender",
          "type": "address"
        }
      ],
      "name": "ERC20InvalidSpender",
      "type": "error"
    },
    {
      "inputs": [
        {
          "internalType": "address",
          "name": "owner",
          "type": "address"
        }
      ],
      "name": "OwnableInvalidOwner",
      "type": "error"
    },
    {
      "inputs": [
        {
          "internalType": "address",
          "name": "account",
          "type": "address"
        }
      ],
      "name": "OwnableUnauthorizedAccount",
      "type": "error"
    },
    {
      "anonymous": false,
      "inputs": [
        {
          "indexed": true,
          "internalType": "address",
          "name": "owner",
          "type": "address"
        },
        {
          "indexed": true,
          "internalType": "address",
          "name": "spender",
          "type": "address"
        },
        {
          "indexed": false,
          "internalType": "uint256",
          "name": "value",
          "type": "uint256"
        }
      ],
      "name": "Approval",
      "type": "event"
    },
    {
      "anonymous": false,
      "inputs": [
        {
          "indexed": true,
          "internalType": "address",
          "name": "oldAddress",
          "type": "address"
        },
        {
          "indexed": true,
          "internalType": "address",
          "name": "newAddress",
          "type": "address"
        }
      ],
      "name": "IbcContractUpdated",
      "type": "event"
    },
    {
      "anonymous": false,
      "inputs": [
        {
          "indexed": true,
          "internalType": "uint256",
          "name": "oldTTL",
          "type": "uint256"
        },
        {
          "indexed": true,
          "internalType": "uint256",
          "name": "newTTL",
          "type": "uint256"
        }
      ],
      "name": "OutgoingTTLUpdated",
      "type": "event"
    },
    {
      "anonymous": false,
      "inputs": [
        {
          "indexed": true,
          "internalType": "address",
          "name": "previousOwner",
          "type": "address"
        },
        {
          "indexed": true,
          "internalType": "address",
          "name": "newOwner",
          "type": "address"
        }
      ],
      "name": "OwnershipTransferred",
      "type": "event"
    },
    {
      "anonymous": false,
      "inputs": [
        {
          "indexed": true,
          "internalType": "bytes32",
          "name": "oldAddress",
          "type": "bytes32"
        },
        {
          "indexed": true,
          "internalType": "bytes32",
          "name": "newAddress",
          "type": "bytes32"
        }
      ],
      "name": "TokenPalletAccountUpdated",
      "type": "event"
    },
    {
      "anonymous": false,
      "inputs": [
        {
          "indexed": true,
          "internalType": "address",
          "name": "from",
          "type": "address"
        },
        {
          "indexed": true,
          "internalType": "address",
          "name": "to",
          "type": "address"
        },
        {
          "indexed": false,
          "internalType": "uint256",
          "name": "value",
          "type": "uint256"
        }
      ],
      "name": "Transfer",
      "type": "event"
    },
    {
      "anonymous": false,
      "inputs": [
        {
          "indexed": false,
          "internalType": "uint256",
          "name": "amount",
          "type": "uint256"
        },
        {
          "indexed": true,
          "internalType": "address",
          "name": "dest",
          "type": "address"
        },
        {
          "indexed": false,
          "internalType": "uint32",
          "name": "transferNonce",
          "type": "uint32"
        }
      ],
      "name": "TransferReceived",
      "type": "event"
    },
    {
      "anonymous": false,
      "inputs": [
        {
          "indexed": false,
          "internalType": "uint128",
          "name": "amount",
          "type": "uint128"
        },
        {
          "indexed": false,
          "internalType": "uint256",
          "name": "fee",
          "type": "uint256"
        },
        {
          "indexed": true,
          "internalType": "bytes32",
          "name": "dest",
          "type": "bytes32"
        },
        {
          "indexed": false,
          "internalType": "uint32",
          "name": "transferNonce",
          "type": "uint32"
        }
      ],
      "name": "TransferRetried",
      "type": "event"
    },
    {
      "anonymous": false,
      "inputs": [
        {
          "indexed": false,
          "internalType": "uint128",
          "name": "amount",
          "type": "uint128"
        },
        {
          "indexed": false,
          "internalType": "uint256",
          "name": "fee",
          "type": "uint256"
        },
        {
          "indexed": true,
          "internalType": "bytes32",
          "name": "dest",
          "type": "bytes32"
        },
        {
          "indexed": false,
          "internalType": "uint32",
          "name": "transferNonce",
          "type": "uint32"
        }
      ],
      "name": "TransferSent",
      "type": "event"
    },
    {
      "inputs": [
        {
          "internalType": "address",
          "name": "owner",
          "type": "address"
        },
        {
          "internalType": "address",
          "name": "spender",
          "type": "address"
        }
      ],
      "name": "allowance",
      "outputs": [
        {
          "internalType": "uint256",
          "name": "",
          "type": "uint256"
        }
      ],
      "stateMutability": "view",
      "type": "function"
    },
    {
      "inputs": [
        {
          "internalType": "address",
          "name": "spender",
          "type": "address"
        },
        {
          "internalType": "uint256",
          "name": "value",
          "type": "uint256"
        }
      ],
      "name": "approve",
      "outputs": [
        {
          "internalType": "bool",
          "name": "",
          "type": "bool"
        }
      ],
      "stateMutability": "nonpayable",
      "type": "function"
    },
    {
      "inputs": [
        {
          "internalType": "address",
          "name": "account",
          "type": "address"
        }
      ],
      "name": "balanceOf",
      "outputs": [
        {
          "internalType": "uint256",
          "name": "",
          "type": "uint256"
        }
      ],
      "stateMutability": "view",
      "type": "function"
    },
    {
      "inputs": [],
      "name": "decimals",
      "outputs": [
        {
          "internalType": "uint8",
          "name": "",
          "type": "uint8"
        }
      ],
      "stateMutability": "view",
      "type": "function"
    },
    {
      "inputs": [],
      "name": "ibcContract",
      "outputs": [
        {
          "internalType": "address",
          "name": "",
          "type": "address"
        }
      ],
      "stateMutability": "view",
      "type": "function"
    },
    {
      "inputs": [
        {
          "internalType": "uint32",
          "name": "",
          "type": "uint32"
        }
      ],
      "name": "incomingTransferNonces",
      "outputs": [
        {
          "internalType": "bool",
          "name": "",
          "type": "bool"
        }
      ],
      "stateMutability": "view",
      "type": "function"
    },
    {
      "inputs": [],
      "name": "name",
      "outputs": [
        {
          "internalType": "string",
          "name": "",
          "type": "string"
        }
      ],
      "stateMutability": "view",
      "type": "function"
    },
    {
      "inputs": [],
      "name": "nextTransferNonce",
      "outputs": [
        {
          "internalType": "uint32",
          "name": "",
          "type": "uint32"
        }
      ],
      "stateMutability": "view",
      "type": "function"
    },
    {
      "inputs": [],
      "name": "outgoingTTL",
      "outputs": [
        {
          "internalType": "uint256",
          "name": "",
          "type": "uint256"
        }
      ],
      "stateMutability": "view",
      "type": "function"
    },
    {
      "inputs": [
        {
          "internalType": "uint32",
          "name": "",
          "type": "uint32"
        }
      ],
      "name": "outgoingTransfers",
      "outputs": [
        {
          "internalType": "address",
          "name": "sender",
          "type": "address"
        },
        {
          "internalType": "uint128",
          "name": "amount",
          "type": "uint128"
        },
        {
          "internalType": "bytes32",
          "name": "dest",
          "type": "bytes32"
        }
      ],
      "stateMutability": "view",
      "type": "function"
    },
    {
      "inputs": [],
      "name": "owner",
      "outputs": [
        {
          "internalType": "address",
          "name": "",
          "type": "address"
        }
      ],
      "stateMutability": "view",
      "type": "function"
    },
    {
      "inputs": [
        {
          "internalType": "bytes32",
          "name": "sender",
          "type": "bytes32"
        },
        {
          "internalType": "bytes",
          "name": "payload",
          "type": "bytes"
        }
      ],
      "name": "processMessage",
      "outputs": [],
      "stateMutability": "nonpayable",
      "type": "function"
    },
    {
      "inputs": [],
      "name": "renounceOwnership",
      "outputs": [],
      "stateMutability": "nonpayable",
      "type": "function"
    },
    {
      "inputs": [
        {
          "internalType": "uint32",
          "name": "transferNonce",
          "type": "uint32"
        }
      ],
      "name": "retryTransferNative",
      "outputs": [],
      "stateMutability": "payable",
      "type": "function"
    },
    {
      "inputs": [
        {
          "internalType": "uint256",
          "name": "_outgoingTTL",
          "type": "uint256"
        }
      ],
      "name": "setOutgoingTTL",
      "outputs": [],
      "stateMutability": "nonpayable",
      "type": "function"
    },
    {
      "inputs": [],
      "name": "symbol",
      "outputs": [
        {
          "internalType": "string",
          "name": "",
          "type": "string"
        }
      ],
      "stateMutability": "view",
      "type": "function"
    },
    {
      "inputs": [],
      "name": "tokenPalletAccount",
      "outputs": [
        {
          "internalType": "bytes32",
          "name": "",
          "type": "bytes32"
        }
      ],
      "stateMutability": "view",
      "type": "function"
    },
    {
      "inputs": [],
      "name": "totalSupply",
      "outputs": [
        {
          "internalType": "uint256",
          "name": "",
          "type": "uint256"
        }
      ],
      "stateMutability": "view",
      "type": "function"
    },
    {
      "inputs": [
        {
          "internalType": "address",
          "name": "to",
          "type": "address"
        },
        {
          "internalType": "uint256",
          "name": "value",
          "type": "uint256"
        }
      ],
      "name": "transfer",
      "outputs": [
        {
          "internalType": "bool",
          "name": "",
          "type": "bool"
        }
      ],
      "stateMutability": "nonpayable",
      "type": "function"
    },
    {
      "inputs": [
        {
          "internalType": "address",
          "name": "from",
          "type": "address"
        },
        {
          "internalType": "address",
          "name": "to",
          "type": "address"
        },
        {
          "internalType": "uint256",
          "name": "value",
          "type": "uint256"
        }
      ],
      "name": "transferFrom",
      "outputs": [
        {
          "internalType": "bool",
          "name": "",
          "type": "bool"
        }
      ],
      "stateMutability": "nonpayable",
      "type": "function"
    },
    {
      "inputs": [
        {
          "internalType": "uint128",
          "name": "amount",
          "type": "uint128"
        },
        {
          "internalType": "bytes32",
          "name": "dest",
          "type": "bytes32"
        }
      ],
      "name": "transferNative",
      "outputs": [],
      "stateMutability": "payable",
      "type": "function"
    },
    {
      "inputs": [
        {
          "internalType": "address",
          "name": "newOwner",
          "type": "address"
        }
      ],
      "name": "transferOwnership",
      "outputs": [],
      "stateMutability": "nonpayable",
      "type": "function"
    },
    {
      "inputs": [
        {
          "internalType": "address",
          "name": "_ibcContract",
          "type": "address"
        }
      ],
      "name": "updateIbcContract",
      "outputs": [],
      "stateMutability": "nonpayable",
      "type": "function"
    },
    {
      "inputs": [
        {
          "internalType": "bytes32",
          "name": "_tokenPalletAccount",
          "type": "bytes32"
        }
      ],
      "name": "updateTokenPalletAccount",
      "outputs": [],
      "stateMutability": "nonpayable",
      "type": "function"
    }
  ],
  "bytecode": "0x608060405234801561001057600080fd5b50604051613d95380380613d9583398181016040528101906100329190610653565b336040518060400160405280600781526020017f41637572617374000000000000000000000000000000000000000000000000008152506040518060400160405280600381526020017f414355000000000000000000000000000000000000000000000000000000000081525081600390816100ae91906108e3565b5080600490816100be91906108e3565b505050600073ffffffffffffffffffffffffffffffffffffffff168173ffffffffffffffffffffffffffffffffffffffff16036101335760006040517f1e4fbdf700000000000000000000000000000000000000000000000000000000815260040161012a91906109c4565b60405180910390fd5b6101428161023e60201b60201c565b50600073ffffffffffffffffffffffffffffffffffffffff168273ffffffffffffffffffffffffffffffffffffffff16036101b2576040517f08c379a00000000000000000000000000000000000000000000000000000000081526004016101a990610a3c565b60405180910390fd5b81600660006101000a81548173ffffffffffffffffffffffffffffffffffffffff021916908373ffffffffffffffffffffffffffffffffffffffff1602179055508060078190555060326008819055506102373361021461030460201b60201c565b600a6102209190610bcb565b606461022c9190610c16565b61030d60201b60201c565b5050610ced565b6000600560009054906101000a900473ffffffffffffffffffffffffffffffffffffffff16905081600560006101000a81548173ffffffffffffffffffffffffffffffffffffffff021916908373ffffffffffffffffffffffffffffffffffffffff1602179055508173ffffffffffffffffffffffffffffffffffffffff168173ffffffffffffffffffffffffffffffffffffffff167f8be0079c531659141344cd1fd0a4f28419497f9722a3daafe3b4186f6b6457e060405160405180910390a35050565b6000600c905090565b600073ffffffffffffffffffffffffffffffffffffffff168273ffffffffffffffffffffffffffffffffffffffff160361037f5760006040517fec442f0500000000000000000000000000000000000000000000000000000000815260040161037691906109c4565b60405180910390fd5b6103916000838361039560201b60201c565b5050565b600073ffffffffffffffffffffffffffffffffffffffff168373ffffffffffffffffffffffffffffffffffffffff16036103e75780600260008282546103db9190610c58565b925050819055506104ba565b60008060008573ffffffffffffffffffffffffffffffffffffffff1673ffffffffffffffffffffffffffffffffffffffff16815260200190815260200160002054905081811015610473578381836040517fe450d38c00000000000000000000000000000000000000000000000000000000815260040161046a93929190610c9b565b60405180910390fd5b8181036000808673ffffffffffffffffffffffffffffffffffffffff1673ffffffffffffffffffffffffffffffffffffffff16815260200190815260200160002081905550505b600073ffffffffffffffffffffffffffffffffffffffff168273ffffffffffffffffffffffffffffffffffffffff16036105035780600260008282540392505081905550610550565b806000808473ffffffffffffffffffffffffffffffffffffffff1673ffffffffffffffffffffffffffffffffffffffff168152602001908152602001600020600082825401925050819055505b8173ffffffffffffffffffffffffffffffffffffffff168373ffffffffffffffffffffffffffffffffffffffff167fddf252ad1be2c89b69c2b068fc378daa952ba7f163c4a11628f55a4df523b3ef836040516105ad9190610cd2565b60405180910390a3505050565b600080fd5b600073ffffffffffffffffffffffffffffffffffffffff82169050919050565b60006105ea826105bf565b9050919050565b6105fa816105df565b811461060557600080fd5b50565b600081519050610617816105f1565b92915050565b6000819050919050565b6106308161061d565b811461063b57600080fd5b50565b60008151905061064d81610627565b92915050565b6000806040838503121561066a576106696105ba565b5b600061067885828601610608565b92505060206106898582860161063e565b9150509250929050565b600081519050919050565b7f4e487b7100000000000000000000000000000000000000000000000000000000600052604160045260246000fd5b7f4e487b7100000000000000000000000000000000000000000000000000000000600052602260045260246000fd5b6000600282049050600182168061071457607f821691505b602082108103610727576107266106cd565b5b50919050565b60008190508160005260206000209050919050565b60006020601f8301049050919050565b600082821b905092915050565b60006008830261078f7fffffffffffffffffffffffffffffffffffffffffffffffffffffffffffffffff82610752565b6107998683610752565b95508019841693508086168417925050509392505050565b6000819050919050565b6000819050919050565b60006107e06107db6107d6846107b1565b6107bb565b6107b1565b9050919050565b6000819050919050565b6107fa836107c5565b61080e610806826107e7565b84845461075f565b825550505050565b600090565b610823610816565b61082e8184846107f1565b505050565b5b818110156108525761084760008261081b565b600181019050610834565b5050565b601f821115610897576108688161072d565b61087184610742565b81016020851015610880578190505b61089461088c85610742565b830182610833565b50505b505050565b600082821c905092915050565b60006108ba6000198460080261089c565b1980831691505092915050565b60006108d383836108a9565b9150826002028217905092915050565b6108ec82610693565b67ffffffffffffffff8111156109055761090461069e565b5b61090f82546106fc565b61091a828285610856565b600060209050601f83116001811461094d576000841561093b578287015190505b61094585826108c7565b8655506109ad565b601f19841661095b8661072d565b60005b828110156109835784890151825560018201915060208501945060208101905061095e565b868310156109a0578489015161099c601f8916826108a9565b8355505b6001600288020188555050505b505050505050565b6109be816105df565b82525050565b60006020820190506109d960008301846109b5565b92915050565b600082825260208201905092915050565b7f496e76616c69642049424320636f6e7472616374206164647265737300000000600082015250565b6000610a26601c836109df565b9150610a31826109f0565b602082019050919050565b60006020820190508181036000830152610a5581610a19565b9050919050565b7f4e487b7100000000000000000000000000000000000000000000000000000000600052601160045260246000fd5b60008160011c9050919050565b6000808291508390505b6001851115610ae257808604811115610abe57610abd610a5c565b5b6001851615610acd5780820291505b8081029050610adb85610a8b565b9450610aa2565b94509492505050565b600082610afb5760019050610bb7565b81610b095760009050610bb7565b8160018114610b1f5760028114610b2957610b58565b6001915050610bb7565b60ff841115610b3b57610b3a610a5c565b5b8360020a915084821115610b5257610b51610a5c565b5b50610bb7565b5060208310610133831016604e8410600b8410161715610b8d5782820a905083811115610b8857610b87610a5c565b5b610bb7565b610b9a8484846001610a98565b92509050818404811115610bb157610bb0610a5c565b5b81810290505b9392505050565b600060ff82169050919050565b6000610bd6826107b1565b9150610be183610bbe565b9250610c0e7fffffffffffffffffffffffffffffffffffffffffffffffffffffffffffffffff8484610aeb565b905092915050565b6000610c21826107b1565b9150610c2c836107b1565b9250828202610c3a816107b1565b91508282048414831517610c5157610c50610a5c565b5b5092915050565b6000610c63826107b1565b9150610c6e836107b1565b9250828201905080821115610c8657610c85610a5c565b5b92915050565b610c95816107b1565b82525050565b6000606082019050610cb060008301866109b5565b610cbd6020830185610c8c565b610cca6040830184610c8c565b949350505050565b6000602082019050610ce76000830184610c8c565b92915050565b61309980610cfc6000396000f3fe60806040526004361061014b5760003560e01c8063715018a6116100b6578063a9059cbb1161006f578063a9059cbb14610466578063c235ffae146104a3578063d318ed47146104ce578063dd62ed3e146104f7578063eb250d1e14610534578063f2fde38b146105735761014b565b8063715018a61461038b57806382dee11f146103a25780638da5cb5b146103cb57806395d89b41146103f657806399189e4414610421578063a8e99e8a1461044a5761014b565b8063313ce56711610108578063313ce567146102765780633a66cef6146102a157806348c45526146102cc57806367f81fc01461030957806370638ce51461033257806370a082311461034e5761014b565b806306fdde0314610150578063095ea7b31461017b57806318160ddd146101b857806322beeba3146101e357806323b872dd1461020e578063280884041461024b575b600080fd5b34801561015c57600080fd5b5061016561059c565b6040516101729190611fcc565b60405180910390f35b34801561018757600080fd5b506101a2600480360381019061019d9190612096565b61062e565b6040516101af91906120f1565b60405180910390f35b3480156101c457600080fd5b506101cd610651565b6040516101da919061211b565b60405180910390f35b3480156101ef57600080fd5b506101f861065b565b604051610205919061214f565b60405180910390f35b34801561021a57600080fd5b506102356004803603810190610230919061216a565b610661565b60405161024291906120f1565b60405180910390f35b34801561025757600080fd5b50610260610690565b60405161026d91906121dc565b60405180910390f35b34801561028257600080fd5b5061028b6106a6565b6040516102989190612213565b60405180910390f35b3480156102ad57600080fd5b506102b66106af565b6040516102c3919061211b565b60405180910390f35b3480156102d857600080fd5b506102f360048036038101906102ee919061225a565b6106b5565b60405161030091906120f1565b60405180910390f35b34801561031557600080fd5b50610330600480360381019061032b9190612287565b6106d5565b005b61034c6004803603810190610347919061225a565b610840565b005b34801561035a57600080fd5b50610375600480360381019061037091906122b4565b610bbd565b604051610382919061211b565b60405180910390f35b34801561039757600080fd5b506103a0610c05565b005b3480156103ae57600080fd5b506103c960048036038101906103c4919061230d565b610c19565b005b3480156103d757600080fd5b506103e0610c5b565b6040516103ed9190612349565b60405180910390f35b34801561040257600080fd5b5061040b610c85565b6040516104189190611fcc565b60405180910390f35b34801561042d57600080fd5b5061044860048036038101906104439190612499565b610d17565b005b610464600480360381019061045f919061253d565b61103b565b005b34801561047257600080fd5b5061048d60048036038101906104889190612096565b611459565b60405161049a91906120f1565b60405180910390f35b3480156104af57600080fd5b506104b861147c565b6040516104c59190612349565b60405180910390f35b3480156104da57600080fd5b506104f560048036038101906104f091906122b4565b6114a2565b005b34801561050357600080fd5b5061051e6004803603810190610519919061257d565b6115d9565b60405161052b919061211b565b60405180910390f35b34801561054057600080fd5b5061055b6004803603810190610556919061225a565b611660565b60405161056a939291906125cc565b60405180910390f35b34801561057f57600080fd5b5061059a600480360381019061059591906122b4565b6116c6565b005b6060600380546105ab90612632565b80601f01602080910402602001604051908101604052809291908181526020018280546105d790612632565b80156106245780601f106105f957610100808354040283529160200191610624565b820191906000526020600020905b81548152906001019060200180831161060757829003601f168201915b5050505050905090565b60008061063961174c565b9050610646818585611754565b600191505092915050565b6000600254905090565b60075481565b60008061066c61174c565b9050610679858285611766565b6106848585856117fb565b60019150509392505050565b600a60009054906101000a900463ffffffff1681565b6000600c905090565b60085481565b60096020528060005260406000206000915054906101000a900460ff1681565b6106dd6118ef565b6000600660009054906101000a900473ffffffffffffffffffffffffffffffffffffffff1690506000808273ffffffffffffffffffffffffffffffffffffffff166379502c556040518163ffffffff1660e01b815260040160a060405180830381865afa158015610752573d6000803e3d6000fd5b505050506040513d601f19601f8201168201806040525081019061077691906126a4565b50935093505050818410156107c0576040517f08c379a00000000000000000000000000000000000000000000000000000000081526004016107b79061276b565b60405180910390fd5b80841115610803576040517f08c379a00000000000000000000000000000000000000000000000000000000081526004016107fa906127d7565b60405180910390fd5b836008547fa485a88a368ebaead07316d0ecff078ceb5d1b46efd14b94247270d4171cd4db60405160405180910390a38360088190555050505050565b6000600b60008363ffffffff1663ffffffff16815260200190815260200160002060010160009054906101000a90046fffffffffffffffffffffffffffffffff166fffffffffffffffffffffffffffffffff16116108d3576040517f08c379a00000000000000000000000000000000000000000000000000000000081526004016108ca90612843565b60405180910390fd5b6000600b60008363ffffffff1663ffffffff1681526020019081526020016000206040518060600160405290816000820160009054906101000a900473ffffffffffffffffffffffffffffffffffffffff1673ffffffffffffffffffffffffffffffffffffffff1673ffffffffffffffffffffffffffffffffffffffff1681526020016001820160009054906101000a90046fffffffffffffffffffffffffffffffff166fffffffffffffffffffffffffffffffff166fffffffffffffffffffffffffffffffff16815260200160028201548152505090506000826040516020016109be9190612899565b604051602081830303815290604052805190602001209050600080836020015160008686604001516040516020016109fa95949392919061290b565b60405160208183030381529060405290506000600660009054906101000a900473ffffffffffffffffffffffffffffffffffffffff1673ffffffffffffffffffffffffffffffffffffffff16348460075485600854604051602401610a6294939291906129bf565b6040516020818303038152906040527fc8a24482000000000000000000000000000000000000000000000000000000007bffffffffffffffffffffffffffffffffffffffffffffffffffffffff19166020820180517bffffffffffffffffffffffffffffffffffffffffffffffffffffffff8381831617835250505050604051610aec9190612a47565b60006040518083038185875af1925050503d8060008114610b29576040519150601f19603f3d011682016040523d82523d6000602084013e610b2e565b606091505b5050905080610b72576040517f08c379a0000000000000000000000000000000000000000000000000000000008152600401610b6990612aaa565b60405180910390fd5b83604001517fcf5d7bf366de9aefdb2e7cfff5076e740720703fa9341ca5df34db66baf7456a85602001513488604051610bae93929190612aca565b60405180910390a25050505050565b60008060008373ffffffffffffffffffffffffffffffffffffffff1673ffffffffffffffffffffffffffffffffffffffff168152602001908152602001600020549050919050565b610c0d6118ef565b610c176000611976565b565b610c216118ef565b806007547fa14e2697861aa95e9c5e36a1d08f76fe80944fba775ae48272e7139f7cdbbe1460405160405180910390a38060078190555050565b6000600560009054906101000a900473ffffffffffffffffffffffffffffffffffffffff16905090565b606060048054610c9490612632565b80601f0160208091040260200160405190810160405280929190818152602001828054610cc090612632565b8015610d0d5780601f10610ce257610100808354040283529160200191610d0d565b820191906000526020600020905b815481529060010190602001808311610cf057829003601f168201915b5050505050905090565b6007548214610d5b576040517f08c379a0000000000000000000000000000000000000000000000000000000008152600401610d5290612b4d565b60405180910390fd5b600481511015610da0576040517f08c379a0000000000000000000000000000000000000000000000000000000008152600401610d9790612bb9565b60405180910390fd5b6000602082015160e01c905060008163ffffffff1603610ffb576030825114610dfe576040517f08c379a0000000000000000000000000000000000000000000000000000000008152600401610df590612c25565b60405180910390fd5b60008060008060248601519350603486015160e01c9250603886015160e01c9150603c86015160601c9050600073ffffffffffffffffffffffffffffffffffffffff168173ffffffffffffffffffffffffffffffffffffffff1603610e98576040517f08c379a0000000000000000000000000000000000000000000000000000000008152600401610e8f90612c91565b60405180910390fd5b60008363ffffffff1614610ee1576040517f08c379a0000000000000000000000000000000000000000000000000000000008152600401610ed890612cfd565b60405180910390fd5b600960008363ffffffff1663ffffffff16815260200190815260200160002060009054906101000a900460ff1615610f4e576040517f08c379a0000000000000000000000000000000000000000000000000000000008152600401610f4590612d69565b60405180910390fd5b6001600960008463ffffffff1663ffffffff16815260200190815260200160002060006101000a81548160ff021916908315150217905550610fa281856fffffffffffffffffffffffffffffffff16611a3c565b8073ffffffffffffffffffffffffffffffffffffffff167fbdde8979688e10cf227fc00e2a09f04c8eccc879b4b872c96532e71c0dd7b2108584604051610fea929190612dc4565b60405180910390a250505050611036565b6040517f08c379a000000000000000000000000000000000000000000000000000000000815260040161102d90612e39565b60405180910390fd5b505050565b6000826fffffffffffffffffffffffffffffffff1611611090576040517f08c379a000000000000000000000000000000000000000000000000000000000815260040161108790612ea5565b60405180910390fd5b816fffffffffffffffffffffffffffffffff166110ac33610bbd565b10156110ed576040517f08c379a00000000000000000000000000000000000000000000000000000000081526004016110e490612f11565b60405180910390fd5b6000600a60009054906101000a900463ffffffff169050600a600081819054906101000a900463ffffffff168092919061112690612f60565b91906101000a81548163ffffffff021916908363ffffffff160217905550506000816040516020016111589190612899565b604051602081830303815290604052805190602001209050600080856000858760405160200161118c95949392919061290b565b60405160208183030381529060405290506111b933866fffffffffffffffffffffffffffffffff16611abe565b60405180606001604052803373ffffffffffffffffffffffffffffffffffffffff168152602001866fffffffffffffffffffffffffffffffff16815260200185815250600b60008563ffffffff1663ffffffff16815260200190815260200160002060008201518160000160006101000a81548173ffffffffffffffffffffffffffffffffffffffff021916908373ffffffffffffffffffffffffffffffffffffffff16021790555060208201518160010160006101000a8154816fffffffffffffffffffffffffffffffff02191690836fffffffffffffffffffffffffffffffff160217905550604082015181600201559050506000600660009054906101000a900473ffffffffffffffffffffffffffffffffffffffff1673ffffffffffffffffffffffffffffffffffffffff1634846007548560085460405160240161130594939291906129bf565b6040516020818303038152906040527fc8a24482000000000000000000000000000000000000000000000000000000007bffffffffffffffffffffffffffffffffffffffffffffffffffffffff19166020820180517bffffffffffffffffffffffffffffffffffffffffffffffffffffffff838183161783525050505060405161138f9190612a47565b60006040518083038185875af1925050503d80600081146113cc576040519150601f19603f3d011682016040523d82523d6000602084013e6113d1565b606091505b5050905080611415576040517f08c379a000000000000000000000000000000000000000000000000000000000815260040161140c90612aaa565b60405180910390fd5b847fddbf1bcef359cc7e89612599db42f6e24e6bc1bf00d20a205ebe94a2066df50887348760405161144993929190612aca565b60405180910390a2505050505050565b60008061146461174c565b90506114718185856117fb565b600191505092915050565b600660009054906101000a900473ffffffffffffffffffffffffffffffffffffffff1681565b6114aa6118ef565b600073ffffffffffffffffffffffffffffffffffffffff168173ffffffffffffffffffffffffffffffffffffffff1603611519576040517f08c379a000000000000000000000000000000000000000000000000000000000815260040161151090612fd8565b60405180910390fd5b8073ffffffffffffffffffffffffffffffffffffffff16600660009054906101000a900473ffffffffffffffffffffffffffffffffffffffff1673ffffffffffffffffffffffffffffffffffffffff167fb4f4eb2c59e82e78670d9c46b2710303f24fb6d764a4a7fb86b3036d5622774060405160405180910390a380600660006101000a81548173ffffffffffffffffffffffffffffffffffffffff021916908373ffffffffffffffffffffffffffffffffffffffff16021790555050565b6000600160008473ffffffffffffffffffffffffffffffffffffffff1673ffffffffffffffffffffffffffffffffffffffff16815260200190815260200160002060008373ffffffffffffffffffffffffffffffffffffffff1673ffffffffffffffffffffffffffffffffffffffff16815260200190815260200160002054905092915050565b600b6020528060005260406000206000915090508060000160009054906101000a900473ffffffffffffffffffffffffffffffffffffffff16908060010160009054906101000a90046fffffffffffffffffffffffffffffffff16908060020154905083565b6116ce6118ef565b600073ffffffffffffffffffffffffffffffffffffffff168173ffffffffffffffffffffffffffffffffffffffff16036117405760006040517f1e4fbdf70000000000000000000000000000000000000000000000000000000081526004016117379190612349565b60405180910390fd5b61174981611976565b50565b600033905090565b6117618383836001611b40565b505050565b600061177284846115d9565b90507fffffffffffffffffffffffffffffffffffffffffffffffffffffffffffffffff8110156117f557818110156117e5578281836040517ffb8f41b20000000000000000000000000000000000000000000000000000000081526004016117dc93929190612ff8565b60405180910390fd5b6117f484848484036000611b40565b5b50505050565b600073ffffffffffffffffffffffffffffffffffffffff168373ffffffffffffffffffffffffffffffffffffffff160361186d5760006040517f96c6fd1e0000000000000000000000000000000000000000000000000000000081526004016118649190612349565b60405180910390fd5b600073ffffffffffffffffffffffffffffffffffffffff168273ffffffffffffffffffffffffffffffffffffffff16036118df5760006040517fec442f050000000000000000000000000000000000000000000000000000000081526004016118d69190612349565b60405180910390fd5b6118ea838383611d17565b505050565b6118f761174c565b73ffffffffffffffffffffffffffffffffffffffff16611915610c5b565b73ffffffffffffffffffffffffffffffffffffffff16146119745761193861174c565b6040517f118cdaa700000000000000000000000000000000000000000000000000000000815260040161196b9190612349565b60405180910390fd5b565b6000600560009054906101000a900473ffffffffffffffffffffffffffffffffffffffff16905081600560006101000a81548173ffffffffffffffffffffffffffffffffffffffff021916908373ffffffffffffffffffffffffffffffffffffffff1602179055508173ffffffffffffffffffffffffffffffffffffffff168173ffffffffffffffffffffffffffffffffffffffff167f8be0079c531659141344cd1fd0a4f28419497f9722a3daafe3b4186f6b6457e060405160405180910390a35050565b600073ffffffffffffffffffffffffffffffffffffffff168273ffffffffffffffffffffffffffffffffffffffff1603611aae5760006040517fec442f05000000000000000000000000000000000000000000000000000000008152600401611aa59190612349565b60405180910390fd5b611aba60008383611d17565b5050565b600073ffffffffffffffffffffffffffffffffffffffff168273ffffffffffffffffffffffffffffffffffffffff1603611b305760006040517f96c6fd1e000000000000000000000000000000000000000000000000000000008152600401611b279190612349565b60405180910390fd5b611b3c82600083611d17565b5050565b600073ffffffffffffffffffffffffffffffffffffffff168473ffffffffffffffffffffffffffffffffffffffff1603611bb25760006040517fe602df05000000000000000000000000000000000000000000000000000000008152600401611ba99190612349565b60405180910390fd5b600073ffffffffffffffffffffffffffffffffffffffff168373ffffffffffffffffffffffffffffffffffffffff1603611c245760006040517f94280d62000000000000000000000000000000000000000000000000000000008152600401611c1b9190612349565b60405180910390fd5b81600160008673ffffffffffffffffffffffffffffffffffffffff1673ffffffffffffffffffffffffffffffffffffffff16815260200190815260200160002060008573ffffffffffffffffffffffffffffffffffffffff1673ffffffffffffffffffffffffffffffffffffffff168152602001908152602001600020819055508015611d11578273ffffffffffffffffffffffffffffffffffffffff168473ffffffffffffffffffffffffffffffffffffffff167f8c5be1e5ebec7d5bd14f71427d1e84f3dd0314c0f7b2291e5b200ac8c7c3b92584604051611d08919061211b565b60405180910390a35b50505050565b600073ffffffffffffffffffffffffffffffffffffffff168373ffffffffffffffffffffffffffffffffffffffff1603611d69578060026000828254611d5d919061302f565b92505081905550611e3c565b60008060008573ffffffffffffffffffffffffffffffffffffffff1673ffffffffffffffffffffffffffffffffffffffff16815260200190815260200160002054905081811015611df5578381836040517fe450d38c000000000000000000000000000000000000000000000000000000008152600401611dec93929190612ff8565b60405180910390fd5b8181036000808673ffffffffffffffffffffffffffffffffffffffff1673ffffffffffffffffffffffffffffffffffffffff16815260200190815260200160002081905550505b600073ffffffffffffffffffffffffffffffffffffffff168273ffffffffffffffffffffffffffffffffffffffff1603611e855780600260008282540392505081905550611ed2565b806000808473ffffffffffffffffffffffffffffffffffffffff1673ffffffffffffffffffffffffffffffffffffffff168152602001908152602001600020600082825401925050819055505b8173ffffffffffffffffffffffffffffffffffffffff168373ffffffffffffffffffffffffffffffffffffffff167fddf252ad1be2c89b69c2b068fc378daa952ba7f163c4a11628f55a4df523b3ef83604051611f2f919061211b565b60405180910390a3505050565b600081519050919050565b600082825260208201905092915050565b60005b83811015611f76578082015181840152602081019050611f5b565b60008484015250505050565b6000601f19601f8301169050919050565b6000611f9e82611f3c565b611fa88185611f47565b9350611fb8818560208601611f58565b611fc181611f82565b840191505092915050565b60006020820190508181036000830152611fe68184611f93565b905092915050565b6000604051905090565b600080fd5b600080fd5b600073ffffffffffffffffffffffffffffffffffffffff82169050919050565b600061202d82612002565b9050919050565b61203d81612022565b811461204857600080fd5b50565b60008135905061205a81612034565b92915050565b6000819050919050565b61207381612060565b811461207e57600080fd5b50565b6000813590506120908161206a565b92915050565b600080604083850312156120ad576120ac611ff8565b5b60006120bb8582860161204b565b92505060206120cc85828601612081565b9150509250929050565b60008115159050919050565b6120eb816120d6565b82525050565b600060208201905061210660008301846120e2565b92915050565b61211581612060565b82525050565b6000602082019050612130600083018461210c565b92915050565b6000819050919050565b61214981612136565b82525050565b60006020820190506121646000830184612140565b92915050565b60008060006060848603121561218357612182611ff8565b5b60006121918682870161204b565b93505060206121a28682870161204b565b92505060406121b386828701612081565b9150509250925092565b600063ffffffff82169050919050565b6121d6816121bd565b82525050565b60006020820190506121f160008301846121cd565b92915050565b600060ff82169050919050565b61220d816121f7565b82525050565b60006020820190506122286000830184612204565b92915050565b612237816121bd565b811461224257600080fd5b50565b6000813590506122548161222e565b92915050565b6000602082840312156122705761226f611ff8565b5b600061227e84828501612245565b91505092915050565b60006020828403121561229d5761229c611ff8565b5b60006122ab84828501612081565b91505092915050565b6000602082840312156122ca576122c9611ff8565b5b60006122d88482850161204b565b91505092915050565b6122ea81612136565b81146122f557600080fd5b50565b600081359050612307816122e1565b92915050565b60006020828403121561232357612322611ff8565b5b6000612331848285016122f8565b91505092915050565b61234381612022565b82525050565b600060208201905061235e600083018461233a565b92915050565b600080fd5b600080fd5b7f4e487b7100000000000000000000000000000000000000000000000000000000600052604160045260246000fd5b6123a682611f82565b810181811067ffffffffffffffff821117156123c5576123c461236e565b5b80604052505050565b60006123d8611fee565b90506123e4828261239d565b919050565b600067ffffffffffffffff8211156124045761240361236e565b5b61240d82611f82565b9050602081019050919050565b82818337600083830152505050565b600061243c612437846123e9565b6123ce565b90508281526020810184848401111561245857612457612369565b5b61246384828561241a565b509392505050565b600082601f8301126124805761247f612364565b5b8135612490848260208601612429565b91505092915050565b600080604083850312156124b0576124af611ff8565b5b60006124be858286016122f8565b925050602083013567ffffffffffffffff8111156124df576124de611ffd565b5b6124eb8582860161246b565b9150509250929050565b60006fffffffffffffffffffffffffffffffff82169050919050565b61251a816124f5565b811461252557600080fd5b50565b60008135905061253781612511565b92915050565b6000806040838503121561255457612553611ff8565b5b600061256285828601612528565b9250506020612573858286016122f8565b9150509250929050565b6000806040838503121561259457612593611ff8565b5b60006125a28582860161204b565b92505060206125b38582860161204b565b9150509250929050565b6125c6816124f5565b82525050565b60006060820190506125e1600083018661233a565b6125ee60208301856125bd565b6125fb6040830184612140565b949350505050565b7f4e487b7100000000000000000000000000000000000000000000000000000000600052602260045260246000fd5b6000600282049050600182168061264a57607f821691505b60208210810361265d5761265c612603565b5b50919050565b61266c816121f7565b811461267757600080fd5b50565b60008151905061268981612663565b92915050565b60008151905061269e8161206a565b92915050565b600080600080600060a086880312156126c0576126bf611ff8565b5b60006126ce8882890161267a565b95505060206126df8882890161267a565b94505060406126f08882890161268f565b93505060606127018882890161268f565b92505060806127128882890161268f565b9150509295509295909350565b7f4f7574676f696e6754544c20746f6f20736d616c6c0000000000000000000000600082015250565b6000612755601583611f47565b91506127608261271f565b602082019050919050565b6000602082019050818103600083015261278481612748565b9050919050565b7f4f7574676f696e6754544c20746f6f206c617267650000000000000000000000600082015250565b60006127c1601583611f47565b91506127cc8261278b565b602082019050919050565b600060208201905081810360008301526127f0816127b4565b9050919050565b7f5472616e73666572206e6f7420666f756e640000000000000000000000000000600082015250565b600061282d601283611f47565b9150612838826127f7565b602082019050919050565b6000602082019050818103600083015261285c81612820565b9050919050565b60008160e01b9050919050565b600061287b82612863565b9050919050565b61289361288e826121bd565b612870565b82525050565b60006128a58284612882565b60048201915081905092915050565b60008160801b9050919050565b60006128cc826128b4565b9050919050565b6128e46128df826124f5565b6128c1565b82525050565b6000819050919050565b61290561290082612136565b6128ea565b82525050565b60006129178288612882565b60048201915061292782876128d3565b6010820191506129378286612882565b6004820191506129478285612882565b60048201915061295782846128f4565b6020820191508190509695505050505050565b600081519050919050565b600082825260208201905092915050565b60006129918261296a565b61299b8185612975565b93506129ab818560208601611f58565b6129b481611f82565b840191505092915050565b60006080820190506129d46000830187612140565b6129e16020830186612140565b81810360408301526129f38185612986565b9050612a02606083018461210c565b95945050505050565b600081905092915050565b6000612a218261296a565b612a2b8185612a0b565b9350612a3b818560208601611f58565b80840191505092915050565b6000612a538284612a16565b915081905092915050565b7f73656e644d657373616765206661696c65640000000000000000000000000000600082015250565b6000612a94601283611f47565b9150612a9f82612a5e565b602082019050919050565b60006020820190508181036000830152612ac381612a87565b9050919050565b6000606082019050612adf60008301866125bd565b612aec602083018561210c565b612af960408301846121cd565b949350505050565b7f556e617574686f72697a65642073656e64657200000000000000000000000000600082015250565b6000612b37601383611f47565b9150612b4282612b01565b602082019050919050565b60006020820190508181036000830152612b6681612b2a565b9050919050565b7f496e76616c696420616374696f6e000000000000000000000000000000000000600082015250565b6000612ba3600e83611f47565b9150612bae82612b6d565b602082019050919050565b60006020820190508181036000830152612bd281612b96565b9050919050565b7f496e76616c6964206174696f6e207061796c6f61640000000000000000000000600082015250565b6000612c0f601583611f47565b9150612c1a82612bd9565b602082019050919050565b60006020820190508181036000830152612c3e81612c02565b9050919050565b7f496e76616c696420726563697069656e74000000000000000000000000000000600082015250565b6000612c7b601183611f47565b9150612c8682612c45565b602082019050919050565b60006020820190508181036000830152612caa81612c6e565b9050919050565b7f556e737570706f72746564206173736574496400000000000000000000000000600082015250565b6000612ce7601383611f47565b9150612cf282612cb1565b602082019050919050565b60006020820190508181036000830152612d1681612cda565b9050919050565b7f5472616e7366657220616c726561647920726563656976656400000000000000600082015250565b6000612d53601983611f47565b9150612d5e82612d1d565b602082019050919050565b60006020820190508181036000830152612d8281612d46565b9050919050565b6000819050919050565b6000612dae612da9612da4846124f5565b612d89565b612060565b9050919050565b612dbe81612d93565b82525050565b6000604082019050612dd96000830185612db5565b612de660208301846121cd565b9392505050565b7f556e737570706f7274656420616374696f6e0000000000000000000000000000600082015250565b6000612e23601283611f47565b9150612e2e82612ded565b602082019050919050565b60006020820190508181036000830152612e5281612e16565b9050919050565b7f43616e6e6f74207472616e73666572203020616d6f756e740000000000000000600082015250565b6000612e8f601883611f47565b9150612e9a82612e59565b602082019050919050565b60006020820190508181036000830152612ebe81612e82565b9050919050565b7f496e73756666696369656e74204143552062616c616e63650000000000000000600082015250565b6000612efb601883611f47565b9150612f0682612ec5565b602082019050919050565b60006020820190508181036000830152612f2a81612eee565b9050919050565b7f4e487b7100000000000000000000000000000000000000000000000000000000600052601160045260246000fd5b6000612f6b826121bd565b915063ffffffff8203612f8157612f80612f31565b5b600182019050919050565b7f496e76616c69642049424320636f6e7472616374206164647265737300000000600082015250565b6000612fc2601c83611f47565b9150612fcd82612f8c565b602082019050919050565b60006020820190508181036000830152612ff181612fb5565b9050919050565b600060608201905061300d600083018661233a565b61301a602083018561210c565b613027604083018461210c565b949350505050565b600061303a82612060565b915061304583612060565b925082820190508082111561305d5761305c612f31565b5b9291505056fea2646970667358221220905c3ad0cd197253a1c4d5c0e7a029e28087878fa4336f4c4b3ca64c6f15ea3e64736f6c634300081c0033",
  "linkReferences": {},
  "deployedLinkReferences": {}
}