{
  "_format": "hh-sol-artifact-1",
  "contractName": "TransferRestrictor",
  "sourceName": "contracts/transfer-restrictor/TransferRestrictor.sol",
  "abi": [
    {
      "inputs": [
        {
          "internalType": "address[]",
          "name": "_fromDenyList",
          "type": "address[]"
        }
      ],
      "stateMutability": "nonpayable",
      "type": "constructor"
    },
    {
      "inputs": [
        {
          "internalType": "address",
          "name": "owner",
          "type": "address"
        }
      ],
      "name": "OwnableInvalidOwner",
      "type": "error"
    },
    {
      "inputs": [
        {
          "internalType": "address",
          "name": "account",
          "type": "address"
        }
      ],
      "name": "OwnableUnauthorizedAccount",
      "type": "error"
    },
    {
      "inputs": [],
      "name": "TransferRestricted",
      "type": "error"
    },
    {
      "anonymous": false,
      "inputs": [
        {
          "indexed": true,
          "internalType": "address",
          "name": "from",
          "type": "address"
        }
      ],
      "name": "AllowFrom",
      "type": "event"
    },
    {
      "anonymous": false,
      "inputs": [
        {
          "indexed": true,
          "internalType": "address",
          "name": "from",
          "type": "address"
        }
      ],
      "name": "DenyFrom",
      "type": "event"
    },
    {
      "anonymous": false,
      "inputs": [
        {
          "indexed": true,
          "internalType": "address",
          "name": "previousOwner",
          "type": "address"
        },
        {
          "indexed": true,
          "internalType": "address",
          "name": "newOwner",
          "type": "address"
        }
      ],
      "name": "OwnershipTransferred",
      "type": "event"
    },
    {
      "inputs": [
        {
          "internalType": "address",
          "name": "from",
          "type": "address"
        }
      ],
      "name": "allowFrom",
      "outputs": [],
      "stateMutability": "nonpayable",
      "type": "function"
    },
    {
      "inputs": [
        {
          "internalType": "address",
          "name": "from",
          "type": "address"
        }
      ],
      "name": "denyFrom",
      "outputs": [],
      "stateMutability": "nonpayable",
      "type": "function"
    },
    {
      "inputs": [
        {
          "internalType": "address",
          "name": "",
          "type": "address"
        }
      ],
      "name": "fromDenyList",
      "outputs": [
        {
          "internalType": "bool",
          "name": "",
          "type": "bool"
        }
      ],
      "stateMutability": "view",
      "type": "function"
    },
    {
      "inputs": [
        {
          "internalType": "address",
          "name": "from",
          "type": "address"
        },
        {
          "internalType": "address",
          "name": "to",
          "type": "address"
        },
        {
          "internalType": "uint256",
          "name": "value",
          "type": "uint256"
        }
      ],
      "name": "isTransferAllowed",
      "outputs": [
        {
          "internalType": "bool",
          "name": "",
          "type": "bool"
        }
      ],
      "stateMutability": "view",
      "type": "function"
    },
    {
      "inputs": [],
      "name": "owner",
      "outputs": [
        {
          "internalType": "address",
          "name": "",
          "type": "address"
        }
      ],
      "stateMutability": "view",
      "type": "function"
    },
    {
      "inputs": [],
      "name": "renounceOwnership",
      "outputs": [],
      "stateMutability": "nonpayable",
      "type": "function"
    },
    {
      "inputs": [
        {
          "internalType": "address",
          "name": "newOwner",
          "type": "address"
        }
      ],
      "name": "transferOwnership",
      "outputs": [],
      "stateMutability": "nonpayable",
      "type": "function"
    }
  ],
  "bytecode": "0x608060405234801561001057600080fd5b50604051610b64380380610b64833981810160405281019061003291906103d5565b33600073ffffffffffffffffffffffffffffffffffffffff168173ffffffffffffffffffffffffffffffffffffffff16036100a55760006040517f1e4fbdf700000000000000000000000000000000000000000000000000000000815260040161009c919061042d565b60405180910390fd5b6100b48161014660201b60201c565b5060005b815181101561013f5760018060008484815181106100d9576100d8610448565b5b602002602001015173ffffffffffffffffffffffffffffffffffffffff1673ffffffffffffffffffffffffffffffffffffffff16815260200190815260200160002060006101000a81548160ff02191690831515021790555080806001019150506100b8565b5050610477565b60008060009054906101000a900473ffffffffffffffffffffffffffffffffffffffff169050816000806101000a81548173ffffffffffffffffffffffffffffffffffffffff021916908373ffffffffffffffffffffffffffffffffffffffff1602179055508173ffffffffffffffffffffffffffffffffffffffff168173ffffffffffffffffffffffffffffffffffffffff167f8be0079c531659141344cd1fd0a4f28419497f9722a3daafe3b4186f6b6457e060405160405180910390a35050565b6000604051905090565b600080fd5b600080fd5b600080fd5b6000601f19601f8301169050919050565b7f4e487b7100000000000000000000000000000000000000000000000000000000600052604160045260246000fd5b61026c82610223565b810181811067ffffffffffffffff8211171561028b5761028a610234565b5b80604052505050565b600061029e61020a565b90506102aa8282610263565b919050565b600067ffffffffffffffff8211156102ca576102c9610234565b5b602082029050602081019050919050565b600080fd5b600073ffffffffffffffffffffffffffffffffffffffff82169050919050565b600061030b826102e0565b9050919050565b61031b81610300565b811461032657600080fd5b50565b60008151905061033881610312565b92915050565b600061035161034c846102af565b610294565b90508083825260208201905060208402830185811115610374576103736102db565b5b835b8181101561039d57806103898882610329565b845260208401935050602081019050610376565b5050509392505050565b600082601f8301126103bc576103bb61021e565b5b81516103cc84826020860161033e565b91505092915050565b6000602082840312156103eb576103ea610214565b5b600082015167ffffffffffffffff81111561040957610408610219565b5b610415848285016103a7565b91505092915050565b61042781610300565b82525050565b6000602082019050610442600083018461041e565b92915050565b7f4e487b7100000000000000000000000000000000000000000000000000000000600052603260045260246000fd5b6106de806104866000396000f3fe608060405234801561001057600080fd5b506004361061007d5760003560e01c80638da5cb5b1161005b5780638da5cb5b146100d8578063a924bf61146100f6578063f2fde38b14610112578063f7ebc39a1461012e5761007d565b806326a64b40146100825780632c524c42146100b2578063715018a6146100ce575b600080fd5b61009c60048036038101906100979190610592565b61015e565b6040516100a991906105da565b60405180910390f35b6100cc60048036038101906100c79190610592565b61017e565b005b6100d6610223565b005b6100e0610237565b6040516100ed9190610604565b60405180910390f35b610110600480360381019061010b9190610592565b610260565b005b61012c60048036038101906101279190610592565b6102fd565b005b61014860048036038101906101439190610655565b610383565b60405161015591906105da565b60405180910390f35b60016020528060005260406000206000915054906101000a900460ff1681565b6101866103dc565b60018060008373ffffffffffffffffffffffffffffffffffffffff1673ffffffffffffffffffffffffffffffffffffffff16815260200190815260200160002060006101000a81548160ff0219169083151502179055508073ffffffffffffffffffffffffffffffffffffffff167fd658022b1a3aaf6ad3b3c615253712807f21a8f7bc3e4996e10618175d4afb2b60405160405180910390a250565b61022b6103dc565b6102356000610463565b565b60008060009054906101000a900473ffffffffffffffffffffffffffffffffffffffff16905090565b6102686103dc565b600160008273ffffffffffffffffffffffffffffffffffffffff1673ffffffffffffffffffffffffffffffffffffffff16815260200190815260200160002060006101000a81549060ff02191690558073ffffffffffffffffffffffffffffffffffffffff167fae893dda71e2eee548f8291f458cceae4bd22b56a79906928591e4420444c0e960405160405180910390a250565b6103056103dc565b600073ffffffffffffffffffffffffffffffffffffffff168173ffffffffffffffffffffffffffffffffffffffff16036103775760006040517f1e4fbdf700000000000000000000000000000000000000000000000000000000815260040161036e9190610604565b60405180910390fd5b61038081610463565b50565b6000600160008573ffffffffffffffffffffffffffffffffffffffff1673ffffffffffffffffffffffffffffffffffffffff16815260200190815260200160002060009054906101000a900460ff161590509392505050565b6103e4610527565b73ffffffffffffffffffffffffffffffffffffffff16610402610237565b73ffffffffffffffffffffffffffffffffffffffff161461046157610425610527565b6040517f118cdaa70000000000000000000000000000000000000000000000000000000081526004016104589190610604565b60405180910390fd5b565b60008060009054906101000a900473ffffffffffffffffffffffffffffffffffffffff169050816000806101000a81548173ffffffffffffffffffffffffffffffffffffffff021916908373ffffffffffffffffffffffffffffffffffffffff1602179055508173ffffffffffffffffffffffffffffffffffffffff168173ffffffffffffffffffffffffffffffffffffffff167f8be0079c531659141344cd1fd0a4f28419497f9722a3daafe3b4186f6b6457e060405160405180910390a35050565b600033905090565b600080fd5b600073ffffffffffffffffffffffffffffffffffffffff82169050919050565b600061055f82610534565b9050919050565b61056f81610554565b811461057a57600080fd5b50565b60008135905061058c81610566565b92915050565b6000602082840312156105a8576105a761052f565b5b60006105b68482850161057d565b91505092915050565b60008115159050919050565b6105d4816105bf565b82525050565b60006020820190506105ef60008301846105cb565b92915050565b6105fe81610554565b82525050565b600060208201905061061960008301846105f5565b92915050565b6000819050919050565b6106328161061f565b811461063d57600080fd5b50565b60008135905061064f81610629565b92915050565b60008060006060848603121561066e5761066d61052f565b5b600061067c8682870161057d565b935050602061068d8682870161057d565b925050604061069e86828701610640565b915050925092509256fea264697066735822122075d4a923859b4dfdc3c6f0ef2b68fb660ba414e25c98d9bf5135babccc587b8a64736f6c634300081c0033",
  "linkReferences": {},
  "deployedLinkReferences": {}
}